{
	"data": {
		"bytecode": {
			"linkReferences": {},
			"object": "60806040525f60055f6101000a81548160ff0219169083151502179055505f6006556040518060400160405280600d81526020017f57726170706564204e6578546f00000000000000000000000000000000000000815250600790816100659190611308565b506040518060400160405280600481526020017f774e585400000000000000000000000000000000000000000000000000000000815250600890816100aa9190611308565b50600360095f6101000a81548160ff021916908360ff16021790555060095f9054906101000a900460ff16600a6100e1919061153f565b631dcd65006100f09190611589565b600a555f600d5f6101000a81548160ff0219169083151502179055506101346064610126600a8054610f9a60201b90919060201c565b61101c60201b90919060201c565b600f55600a545f1961014691906115f7565b5f196101529190611627565b6013555f60145f6101000a81548160ff0219169083151502179055506003601655600860175560046018556005601955600a601a556005601b5560185460175460165461019f919061165a565b6101a9919061165a565b601c55601b54601a546019546101bf919061165a565b6101c9919061165a565b601d5560056022555f60235f6101000a81548160ff02191690831515021790555060095f9054906101000a900460ff16600a610205919061153f565b6303473bc06102149190611589565b602455600a6025555f60265f6101000a81548160ff0219169083151502179055505f6027555f60285560285460275461024d919061165a565b60295561dead602a5f6101000a81548173ffffffffffffffffffffffffffffffffffffffff021916908373ffffffffffffffffffffffffffffffffffffffff1602179055505f602a60146101000a81548160ff0219169083151502179055506706f05b59d3b20000602b556002602c555f602d5f6101000a81548160ff0219169083151502179055506806c6b935b8bbd40000602e556001602f553480156102f3575f80fd5b5060405161b6cd38038061b6cd833981810160405281019061031591906116eb565b305f806101000a81548173ffffffffffffffffffffffffffffffffffffffff021916908373ffffffffffffffffffffffffffffffffffffffff1602179055503360015f6101000a81548173ffffffffffffffffffffffffffffffffffffffff021916908373ffffffffffffffffffffffffffffffffffffffff1602179055507f25d9c25c4014adbef864b5bc072ba78529da598ba3a6af58bd86c0038cfa88735f8054906101000a900473ffffffffffffffffffffffffffffffffffffffff1660015f9054906101000a900473ffffffffffffffffffffffffffffffffffffffff16604051610405929190611777565b60405180910390a161041b61107860201b60201c565b60025f6101000a81548173ffffffffffffffffffffffffffffffffffffffff021916908373ffffffffffffffffffffffffffffffffffffffff160217905550600160035f60025f9054906101000a900473ffffffffffffffffffffffffffffffffffffffff1673ffffffffffffffffffffffffffffffffffffffff1673ffffffffffffffffffffffffffffffffffffffff1681526020019081526020015f205f6101000a81548160ff021916908315150217905550600460025f9054906101000a900473ffffffffffffffffffffffffffffffffffffffff16908060018154018082558091505060019003905f5260205f20015f9091909190916101000a81548173ffffffffffffffffffffffffffffffffffffffff021916908373ffffffffffffffffffffffffffffffffffffffff1602179055507f3b4a40cccf2058c593542587329dd385be4f0b588db5471fbd9598e56dd7093a60025f9054906101000a900473ffffffffffffffffffffffffffffffffffffffff166040516105a1919061179e565b60405180910390a160025f9054906101000a900473ffffffffffffffffffffffffffffffffffffffff1673ffffffffffffffffffffffffffffffffffffffff165f73ffffffffffffffffffffffffffffffffffffffff167f673a58b10c6459336f2acbf0e261b33a424c335800064dcce68aea56343404c560405160405180910390a380601e5f6101000a81548173ffffffffffffffffffffffffffffffffffffffff021916908373ffffffffffffffffffffffffffffffffffffffff160217905550601e5f9054906101000a900473ffffffffffffffffffffffffffffffffffffffff1673ffffffffffffffffffffffffffffffffffffffff1663c45a01556040518163ffffffff1660e01b8152600401602060405180830381865afa1580156106ce573d5f803e3d5ffd5b505050506040513d601f19601f820116820180604052508101906106f291906116eb565b73ffffffffffffffffffffffffffffffffffffffff1663c9c6539661071b6110a060201b60201c565b601e5f9054906101000a900473ffffffffffffffffffffffffffffffffffffffff1673ffffffffffffffffffffffffffffffffffffffff1663ad5c46486040518163ffffffff1660e01b8152600401602060405180830381865afa158015610785573d5f803e3d5ffd5b505050506040513d601f19601f820116820180604052508101906107a991906116eb565b6040518363ffffffff1660e01b81526004016107c6929190611777565b6020604051808303815f875af11580156107e2573d5f803e3d5ffd5b505050506040513d601f19601f8201168201806040525081019061080691906116eb565b601f5f6101000a81548173ffffffffffffffffffffffffffffffffffffffff021916908373ffffffffffffffffffffffffffffffffffffffff160217905550600160105f601f5f9054906101000a900473ffffffffffffffffffffffffffffffffffffffff1673ffffffffffffffffffffffffffffffffffffffff1673ffffffffffffffffffffffffffffffffffffffff1681526020019081526020015f205f6101000a81548160ff0219169083151502179055506012601f5f9054906101000a900473ffffffffffffffffffffffffffffffffffffffff16908060018154018082558091505060019003905f5260205f20015f9091909190916101000a81548173ffffffffffffffffffffffffffffffffffffffff021916908373ffffffffffffffffffffffffffffffffffffffff160217905550600160155f61094f6110a060201b60201c565b73ffffffffffffffffffffffffffffffffffffffff1673ffffffffffffffffffffffffffffffffffffffff1681526020019081526020015f205f6101000a81548160ff0219169083151502179055506001600e5f6109b16110a060201b60201c565b73ffffffffffffffffffffffffffffffffffffffff1673ffffffffffffffffffffffffffffffffffffffff1681526020019081526020015f205f6101000a81548160ff021916908315150217905550600160105f610a136110a060201b60201c565b73ffffffffffffffffffffffffffffffffffffffff1673ffffffffffffffffffffffffffffffffffffffff1681526020019081526020015f205f6101000a81548160ff0219169083151502179055506012610a726110a060201b60201c565b908060018154018082558091505060019003905f5260205f20015f9091909190916101000a81548173ffffffffffffffffffffffffffffffffffffffff021916908373ffffffffffffffffffffffffffffffffffffffff160217905550600160155f602a5f9054906101000a900473ffffffffffffffffffffffffffffffffffffffff1673ffffffffffffffffffffffffffffffffffffffff1673ffffffffffffffffffffffffffffffffffffffff1681526020019081526020015f205f6101000a81548160ff0219169083151502179055506001600e5f602a5f9054906101000a900473ffffffffffffffffffffffffffffffffffffffff1673ffffffffffffffffffffffffffffffffffffffff1673ffffffffffffffffffffffffffffffffffffffff1681526020019081526020015f205f6101000a81548160ff021916908315150217905550600160105f602a5f9054906101000a900473ffffffffffffffffffffffffffffffffffffffff1673ffffffffffffffffffffffffffffffffffffffff1673ffffffffffffffffffffffffffffffffffffffff1681526020019081526020015f205f6101000a81548160ff0219169083151502179055506012602a5f9054906101000a900473ffffffffffffffffffffffffffffffffffffffff16908060018154018082558091505060019003905f5260205f20015f9091909190916101000a81548173ffffffffffffffffffffffffffffffffffffffff021916908373ffffffffffffffffffffffffffffffffffffffff160217905550600160155f610cc56110c760201b60201c565b73ffffffffffffffffffffffffffffffffffffffff1673ffffffffffffffffffffffffffffffffffffffff1681526020019081526020015f205f6101000a81548160ff0219169083151502179055506001600e5f610d276110c760201b60201c565b73ffffffffffffffffffffffffffffffffffffffff1673ffffffffffffffffffffffffffffffffffffffff1681526020019081526020015f205f6101000a81548160ff021916908315150217905550600160105f610d896110c760201b60201c565b73ffffffffffffffffffffffffffffffffffffffff1673ffffffffffffffffffffffffffffffffffffffff1681526020019081526020015f205f6101000a81548160ff0219169083151502179055506012610de86110c760201b60201c565b908060018154018082558091505060019003905f5260205f20015f9091909190916101000a81548173ffffffffffffffffffffffffffffffffffffffff021916908373ffffffffffffffffffffffffffffffffffffffff16021790555060135460115f610e596110c760201b60201c565b73ffffffffffffffffffffffffffffffffffffffff1673ffffffffffffffffffffffffffffffffffffffff1681526020019081526020015f2081905550600a54600b5f610eaa6110c760201b60201c565b73ffffffffffffffffffffffffffffffffffffffff1673ffffffffffffffffffffffffffffffffffffffff1681526020019081526020015f20819055507f2d6d4e863f0fa9c862d9ee858f5f034eaee470c9210fd90268c80c76702e5042600a54604051610f1891906117c6565b60405180910390a1610f2e6110c760201b60201c565b73ffffffffffffffffffffffffffffffffffffffff165f73ffffffffffffffffffffffffffffffffffffffff167fddf252ad1be2c89b69c2b068fc378daa952ba7f163c4a11628f55a4df523b3ef600a54604051610f8c91906117c6565b60405180910390a3506118ef565b5f80831480610fa857505f82145b15610fb5575f9050611016565b5f8284610fc29190611589565b9050828482610fd191906117df565b14611011576040517f08c379a000000000000000000000000000000000000000000000000000000000815260040161100890611869565b60405180910390fd5b809150505b92915050565b5f80821161105f576040517f08c379a0000000000000000000000000000000000000000000000000000000008152600401611056906118d1565b60405180910390fd5b5f828461106c91906117df565b90508091505092915050565b5f60015f9054906101000a900473ffffffffffffffffffffffffffffffffffffffff16905090565b5f805f9054906101000a900473ffffffffffffffffffffffffffffffffffffffff16905090565b5f33905090565b5f81519050919050565b7f4e487b71000000000000000000000000000000000000000000000000000000005f52604160045260245ffd5b7f4e487b71000000000000000000000000000000000000000000000000000000005f52602260045260245ffd5b5f600282049050600182168061114957607f821691505b60208210810361115c5761115b611105565b5b50919050565b5f819050815f5260205f209050919050565b5f6020601f8301049050919050565b5f82821b905092915050565b5f600883026111be7fffffffffffffffffffffffffffffffffffffffffffffffffffffffffffffffff82611183565b6111c88683611183565b95508019841693508086168417925050509392505050565b5f819050919050565b5f819050919050565b5f61120c611207611202846111e0565b6111e9565b6111e0565b9050919050565b5f819050919050565b611225836111f2565b61123961123182611213565b84845461118f565b825550505050565b5f90565b61124d611241565b61125881848461121c565b505050565b5b8181101561127b576112705f82611245565b60018101905061125e565b5050565b601f8211156112c05761129181611162565b61129a84611174565b810160208510156112a9578190505b6112bd6112b585611174565b83018261125d565b50505b505050565b5f82821c905092915050565b5f6112e05f19846008026112c5565b1980831691505092915050565b5f6112f883836112d1565b9150826002028217905092915050565b611311826110ce565b67ffffffffffffffff81111561132a576113296110d8565b5b6113348254611132565b61133f82828561127f565b5f60209050601f831160018114611370575f841561135e578287015190505b61136885826112ed565b8655506113cf565b601f19841661137e86611162565b5f5b828110156113a557848901518255600182019150602085019450602081019050611380565b868310156113c257848901516113be601f8916826112d1565b8355505b6001600288020188555050505b505050505050565b7f4e487b71000000000000000000000000000000000000000000000000000000005f52601160045260245ffd5b5f8160011c9050919050565b5f808291508390505b600185111561145957808604811115611435576114346113d7565b5b60018516156114445780820291505b808102905061145285611404565b9450611419565b94509492505050565b5f82611471576001905061152c565b8161147e575f905061152c565b8160018114611494576002811461149e576114cd565b600191505061152c565b60ff8411156114b0576114af6113d7565b5b8360020a9150848211156114c7576114c66113d7565b5b5061152c565b5060208310610133831016604e8410600b84101617156115025782820a9050838111156114fd576114fc6113d7565b5b61152c565b61150f8484846001611410565b92509050818404811115611526576115256113d7565b5b81810290505b9392505050565b5f60ff82169050919050565b5f611549826111e0565b915061155483611533565b92506115817fffffffffffffffffffffffffffffffffffffffffffffffffffffffffffffffff8484611462565b905092915050565b5f611593826111e0565b915061159e836111e0565b92508282026115ac816111e0565b915082820484148315176115c3576115c26113d7565b5b5092915050565b7f4e487b71000000000000000000000000000000000000000000000000000000005f52601260045260245ffd5b5f611601826111e0565b915061160c836111e0565b92508261161c5761161b6115ca565b5b828206905092915050565b5f611631826111e0565b915061163c836111e0565b9250828203905081811115611654576116536113d7565b5b92915050565b5f611664826111e0565b915061166f836111e0565b9250828201905080821115611687576116866113d7565b5b92915050565b5f80fd5b5f73ffffffffffffffffffffffffffffffffffffffff82169050919050565b5f6116ba82611691565b9050919050565b6116ca816116b0565b81146116d4575f80fd5b50565b5f815190506116e5816116c1565b92915050565b5f60208284031215611700576116ff61168d565b5b5f61170d848285016116d7565b91505092915050565b5f61173061172b61172684611691565b6111e9565b611691565b9050919050565b5f61174182611716565b9050919050565b5f61175282611737565b9050919050565b61176281611748565b82525050565b611771816116b0565b82525050565b5f60408201905061178a5f830185611759565b6117976020830184611768565b9392505050565b5f6020820190506117b15f830184611768565b92915050565b6117c0816111e0565b82525050565b5f6020820190506117d95f8301846117b7565b92915050565b5f6117e9826111e0565b91506117f4836111e0565b925082611804576118036115ca565b5b828204905092915050565b5f82825260208201905092915050565b7f6d756c7469706c69636174696f6e206f766572666c6f770000000000000000005f82015250565b5f61185360178361180f565b915061185e8261181f565b602082019050919050565b5f6020820190508181035f83015261188081611847565b9050919050565b7f6469766973696f6e206279207a65726f000000000000000000000000000000005f82015250565b5f6118bb60108361180f565b91506118c682611887565b602082019050919050565b5f6020820190508181035f8301526118e8816118af565b9050919050565b619dd1806118fc5f395ff3fe608060405260043610610481575f3560e01c80635beb3b8f11610254578063ac18de4311610143578063d7225750116100c0578063e57f14e111610084578063e57f14e1146113ce578063e6375d3e1461140a578063ee75a5fb14611446578063f291ec4a14611482578063f3ae2415146114ac578063ffcfb418146114e857610488565b8063d7225750146112b4578063dd62ed3e146112de578063df376d0b1461131a578063e128530514611356578063e56882c01461139257610488565b8063c4db64c011610107578063c4db64c0146111ac578063c93eb866146111e8578063d196637314611212578063d1d0addb1461124e578063d3f49ad41461127857610488565b8063ac18de43146110a4578063afc18f75146110e0578063ba6f43e61461111c578063ba70caa314611146578063bbd04ad01461117057610488565b806389c74351116101d15780639feb9529116101955780639feb952914610f8a578063a027185514610fb4578063a457c2d714610ff0578063a901dd921461102c578063a9059cbb1461106857610488565b806389c7435114610e825780638bf5540914610eac5780638edcf4a514610ee85780639566a7fe14610f2457806395d89b4114610f6057610488565b80636adcaa3a116102185780636adcaa3a14610d8c5780636d3cb8b314610db6578063706f1b2a14610de057806370a0823114610e1c578063893d20e814610e5857610488565b80635beb3b8f14610c725780635c787ab614610cae5780635cce86cd14610cea5780635d17d5f214610d2657806369ce640d14610d5057610488565b80632d06177a11610370578063461e602d116102ed5780634b130c7b116102b15780634b130c7b14610b6a5780634fbee19314610b9457806351d8386914610bd057806357a8258914610c0c5780635ae31fe114610c4857610488565b8063461e602d14610a865780634859ccb314610ab057806348a68a0014610ada578063495032a614610b045780634a37dd9114610b4057610488565b80633aede27e116103345780633aede27e1461096c5780633b356f25146109a85780633ca26848146109e45780633cf8ce6214610a2057806341aea9de14610a4a57610488565b80632d06177a14610864578063313ce567146108a057806337e47e98146108ca57806339039980146108f4578063395093511461093057610488565b80631be38e3a116103fe5780632509180e116103c25780632509180e1461076e57806325f25f4d146107985780632a1bcd74146107d45780632a4f12ca146107fe5780632cc254c21461083a57610488565b80631be38e3a146106785780631cae2311146106a25780631f976b7e146106cc578063202341d2146106f657806323b872dd1461073257610488565b80630be2620f116104455780630be2620f146105825780631632816f146105ac578063168ef101146105e857806316a2f82a1461061257806318160ddd1461064e57610488565b8063044b5d461461048c57806306fdde03146104c857806307b67774146104f2578063089208d81461051c578063095ea7b31461054657610488565b3661048857005b5f80fd5b348015610497575f80fd5b506104b260048036038101906104ad9190618177565b611512565b6040516104bf91906181bc565b60405180910390f35b3480156104d3575f80fd5b506104dc611998565b6040516104e99190618245565b60405180910390f35b3480156104fd575f80fd5b50610506611a28565b604051610513919061827d565b60405180910390f35b348015610527575f80fd5b50610530611a2e565b60405161053d91906181bc565b60405180910390f35b348015610551575f80fd5b5061056c600480360381019061056791906182c0565b611e2a565b60405161057991906181bc565b60405180910390f35b34801561058d575f80fd5b50610596611e47565b6040516105a3919061827d565b60405180910390f35b3480156105b7575f80fd5b506105d260048036038101906105cd9190618328565b611e4d565b6040516105df91906181bc565b60405180910390f35b3480156105f3575f80fd5b506105fc611f4f565b604051610609919061827d565b60405180910390f35b34801561061d575f80fd5b5061063860048036038101906106339190618177565b611f55565b60405161064591906181bc565b60405180910390f35b348015610659575f80fd5b50610662612196565b60405161066f919061827d565b60405180910390f35b348015610683575f80fd5b5061068c61219f565b60405161069991906181bc565b60405180910390f35b3480156106ad575f80fd5b506106b66121b4565b6040516106c3919061827d565b60405180910390f35b3480156106d7575f80fd5b506106e06121ba565b6040516106ed919061827d565b60405180910390f35b348015610701575f80fd5b5061071c60048036038101906107179190618353565b6121c0565b60405161072991906181bc565b60405180910390f35b34801561073d575f80fd5b506107586004803603810190610753919061837e565b612331565b60405161076591906181bc565b60405180910390f35b348015610779575f80fd5b50610782612405565b60405161078f9190618429565b60405180910390f35b3480156107a3575f80fd5b506107be60048036038101906107b99190618177565b61242a565b6040516107cb91906181bc565b60405180910390f35b3480156107df575f80fd5b506107e86127bf565b6040516107f591906181bc565b60405180910390f35b348015610809575f80fd5b50610824600480360381019061081f9190618442565b6127d1565b60405161083191906181bc565b60405180910390f35b348015610845575f80fd5b5061084e612911565b60405161085b91906181bc565b60405180910390f35b34801561086f575f80fd5b5061088a60048036038101906108859190618177565b612924565b60405161089791906181bc565b60405180910390f35b3480156108ab575f80fd5b506108b4612c04565b6040516108c1919061849b565b60405180910390f35b3480156108d5575f80fd5b506108de612c19565b6040516108eb91906184c3565b60405180910390f35b3480156108ff575f80fd5b5061091a60048036038101906109159190618328565b612c41565b60405161092791906181bc565b60405180910390f35b34801561093b575f80fd5b50610956600480360381019061095191906182c0565b612d44565b60405161096391906181bc565b60405180910390f35b348015610977575f80fd5b50610992600480360381019061098d9190618328565b612df2565b60405161099f91906181bc565b60405180910390f35b3480156109b3575f80fd5b506109ce60048036038101906109c99190618353565b612f4b565b6040516109db91906181bc565b60405180910390f35b3480156109ef575f80fd5b50610a0a6004803603810190610a059190618177565b61303b565b604051610a1791906181bc565b60405180910390f35b348015610a2b575f80fd5b50610a3461335c565b604051610a41919061827d565b60405180910390f35b348015610a55575f80fd5b50610a706004803603810190610a6b9190618328565b613362565b604051610a7d91906181bc565b60405180910390f35b348015610a91575f80fd5b50610a9a613464565b604051610aa7919061827d565b60405180910390f35b348015610abb575f80fd5b50610ac461346a565b604051610ad1919061827d565b60405180910390f35b348015610ae5575f80fd5b50610aee61348f565b604051610afb919061827d565b60405180910390f35b348015610b0f575f80fd5b50610b2a6004803603810190610b259190618353565b613495565b604051610b3791906184c3565b60405180910390f35b348015610b4b575f80fd5b50610b546134d0565b604051610b61919061827d565b60405180910390f35b348015610b75575f80fd5b50610b7e6134d6565b604051610b8b919061827d565b60405180910390f35b348015610b9f575f80fd5b50610bba6004803603810190610bb59190618177565b6134dc565b604051610bc791906181bc565b60405180910390f35b348015610bdb575f80fd5b50610bf66004803603810190610bf19190618353565b61352e565b604051610c0391906181bc565b60405180910390f35b348015610c17575f80fd5b50610c326004803603810190610c2d9190618177565b61361e565b604051610c3f91906181bc565b60405180910390f35b348015610c53575f80fd5b50610c5c61395e565b604051610c69919061827d565b60405180910390f35b348015610c7d575f80fd5b50610c986004803603810190610c939190618353565b613964565b604051610ca591906181bc565b60405180910390f35b348015610cb9575f80fd5b50610cd46004803603810190610ccf9190618353565b613a98565b604051610ce191906181bc565b60405180910390f35b348015610cf5575f80fd5b50610d106004803603810190610d0b9190618177565b613b88565b604051610d1d91906181bc565b60405180910390f35b348015610d31575f80fd5b50610d3a613bda565b604051610d47919061827d565b60405180910390f35b348015610d5b575f80fd5b50610d766004803603810190610d719190618177565b613be0565b604051610d8391906181bc565b60405180910390f35b348015610d97575f80fd5b50610da0613e21565b604051610dad919061827d565b60405180910390f35b348015610dc1575f80fd5b50610dca613e27565b604051610dd7919061827d565b60405180910390f35b348015610deb575f80fd5b50610e066004803603810190610e019190618353565b613e2d565b604051610e1391906181bc565b60405180910390f35b348015610e27575f80fd5b50610e426004803603810190610e3d9190618177565b613f61565b604051610e4f919061827d565b60405180910390f35b348015610e63575f80fd5b50610e6c614052565b604051610e7991906184c3565b60405180910390f35b348015610e8d575f80fd5b50610e96614060565b604051610ea3919061827d565b60405180910390f35b348015610eb7575f80fd5b50610ed26004803603810190610ecd9190618353565b614066565b604051610edf91906181bc565b60405180910390f35b348015610ef3575f80fd5b50610f0e6004803603810190610f099190618353565b61419b565b604051610f1b91906181bc565b60405180910390f35b348015610f2f575f80fd5b50610f4a6004803603810190610f459190618353565b61428d565b604051610f5791906181bc565b60405180910390f35b348015610f6b575f80fd5b50610f746143fe565b604051610f819190618245565b60405180910390f35b348015610f95575f80fd5b50610f9e61448e565b604051610fab919061827d565b60405180910390f35b348015610fbf575f80fd5b50610fda6004803603810190610fd59190618353565b614494565b604051610fe791906181bc565b60405180910390f35b348015610ffb575f80fd5b50611016600480360381019061101191906182c0565b614605565b60405161102391906181bc565b60405180910390f35b348015611037575f80fd5b50611052600480360381019061104d9190618328565b614751565b60405161105f91906181bc565b60405180910390f35b348015611073575f80fd5b5061108e600480360381019061108991906182c0565b614872565b60405161109b91906181bc565b60405180910390f35b3480156110af575f80fd5b506110ca60048036038101906110c59190618177565b61488f565b6040516110d791906181bc565b60405180910390f35b3480156110eb575f80fd5b5061110660048036038101906111019190618353565b614ca8565b60405161111391906181bc565b60405180910390f35b348015611127575f80fd5b50611130614e19565b60405161113d91906184fc565b60405180910390f35b348015611151575f80fd5b5061115a614e3e565b60405161116791906181bc565b60405180910390f35b34801561117b575f80fd5b5061119660048036038101906111919190618353565b614e50565b6040516111a391906181bc565b60405180910390f35b3480156111b7575f80fd5b506111d260048036038101906111cd9190618353565b614faf565b6040516111df91906181bc565b60405180910390f35b3480156111f3575f80fd5b506111fc615120565b60405161120991906184c3565b60405180910390f35b34801561121d575f80fd5b5061123860048036038101906112339190618177565b615145565b60405161124591906181bc565b60405180910390f35b348015611259575f80fd5b506112626153b6565b60405161126f91906181bc565b60405180910390f35b348015611283575f80fd5b5061129e60048036038101906112999190618353565b6154fc565b6040516112ab91906181bc565b60405180910390f35b3480156112bf575f80fd5b506112c8615630565b6040516112d591906181bc565b60405180910390f35b3480156112e9575f80fd5b5061130460048036038101906112ff9190618515565b615642565b604051611311919061827d565b60405180910390f35b348015611325575f80fd5b50611340600480360381019061133b9190618177565b6156c4565b60405161134d91906181bc565b60405180910390f35b348015611361575f80fd5b5061137c60048036038101906113779190618353565b615802565b60405161138991906181bc565b60405180910390f35b34801561139d575f80fd5b506113b860048036038101906113b39190618353565b6158f4565b6040516113c591906181bc565b60405180910390f35b3480156113d9575f80fd5b506113f460048036038101906113ef9190618177565b6159e6565b60405161140191906181bc565b60405180910390f35b348015611415575f80fd5b50611430600480360381019061142b9190618177565b615b24565b60405161143d91906181bc565b60405180910390f35b348015611451575f80fd5b5061146c60048036038101906114679190618353565b615b76565b60405161147991906181bc565b60405180910390f35b34801561148d575f80fd5b50611496615ce7565b6040516114a3919061827d565b60405180910390f35b3480156114b7575f80fd5b506114d260048036038101906114cd9190618177565b615ced565b6040516114df91906181bc565b60405180910390f35b3480156114f3575f80fd5b506114fc615d3f565b60405161150991906181bc565b60405180910390f35b5f60035f61151e615d51565b73ffffffffffffffffffffffffffffffffffffffff1673ffffffffffffffffffffffffffffffffffffffff1681526020019081526020015f205f9054906101000a900460ff166115a3576040517f08c379a000000000000000000000000000000000000000000000000000000000815260040161159a9061859d565b60405180910390fd5b60055f9054906101000a900460ff16156115f2576040517f08c379a00000000000000000000000000000000000000000000000000000000081526004016115e990618605565b60405180910390fd5b6115fa615d58565b73ffffffffffffffffffffffffffffffffffffffff168273ffffffffffffffffffffffffffffffffffffffff1603611667576040517f08c379a000000000000000000000000000000000000000000000000000000000815260040161165e90618693565b60405180910390fd5b601f5f9054906101000a900473ffffffffffffffffffffffffffffffffffffffff1673ffffffffffffffffffffffffffffffffffffffff168273ffffffffffffffffffffffffffffffffffffffff16036116f6576040517f08c379a00000000000000000000000000000000000000000000000000000000081526004016116ed90618721565b60405180910390fd5b60105f8373ffffffffffffffffffffffffffffffffffffffff1673ffffffffffffffffffffffffffffffffffffffff1681526020019081526020015f205f9054906101000a900460ff1661177f576040517f08c379a0000000000000000000000000000000000000000000000000000000008152600401611776906187af565b60405180910390fd5b5f5b60128054905081101561198e578273ffffffffffffffffffffffffffffffffffffffff16601282815481106117b9576117b86187cd565b5b905f5260205f20015f9054906101000a900473ffffffffffffffffffffffffffffffffffffffff1673ffffffffffffffffffffffffffffffffffffffff160361198157601260016012805490506118109190618827565b81548110611821576118206187cd565b5b905f5260205f20015f9054906101000a900473ffffffffffffffffffffffffffffffffffffffff166012828154811061185d5761185c6187cd565b5b905f5260205f20015f6101000a81548173ffffffffffffffffffffffffffffffffffffffff021916908373ffffffffffffffffffffffffffffffffffffffff1602179055505f600b5f8573ffffffffffffffffffffffffffffffffffffffff1673ffffffffffffffffffffffffffffffffffffffff1681526020019081526020015f20819055505f60105f8573ffffffffffffffffffffffffffffffffffffffff1673ffffffffffffffffffffffffffffffffffffffff1681526020019081526020015f205f6101000a81548160ff021916908315150217905550601280548061194a5761194961885a565b5b600190038181905f5260205f20015f6101000a81549073ffffffffffffffffffffffffffffffffffffffff0219169055905561198e565b8080600101915050611781565b5060019050919050565b6060600780546119a7906188b4565b80601f01602080910402602001604051908101604052809291908181526020018280546119d3906188b4565b8015611a1e5780601f106119f557610100808354040283529160200191611a1e565b820191905f5260205f20905b815481529060010190602001808311611a0157829003601f168201915b5050505050905090565b60295481565b5f60025f9054906101000a900473ffffffffffffffffffffffffffffffffffffffff1673ffffffffffffffffffffffffffffffffffffffff16611a6f615d51565b73ffffffffffffffffffffffffffffffffffffffff1614611ac5576040517f08c379a0000000000000000000000000000000000000000000000000000000008152600401611abc90618954565b60405180910390fd5b60055f9054906101000a900460ff161580611ae257506006544210155b611b21576040517f08c379a0000000000000000000000000000000000000000000000000000000008152600401611b1890618605565b60405180910390fd5b5b5f6004805490501115611df7575f60035f60046001600480549050611b479190618827565b81548110611b5857611b576187cd565b5b905f5260205f20015f9054906101000a900473ffffffffffffffffffffffffffffffffffffffff1673ffffffffffffffffffffffffffffffffffffffff1673ffffffffffffffffffffffffffffffffffffffff1681526020019081526020015f205f6101000a81548160ff0219169083151502179055507fef69f7d97228658c92417be1b16b19058315de71fecb435d07b7d23728b6bd3160046001600480549050611c049190618827565b81548110611c1557611c146187cd565b5b905f5260205f20015f9054906101000a900473ffffffffffffffffffffffffffffffffffffffff16604051611c4a91906184c3565b60405180910390a160025f9054906101000a900473ffffffffffffffffffffffffffffffffffffffff1673ffffffffffffffffffffffffffffffffffffffff1660046001600480549050611c9e9190618827565b81548110611caf57611cae6187cd565b5b905f5260205f20015f9054906101000a900473ffffffffffffffffffffffffffffffffffffffff1673ffffffffffffffffffffffffffffffffffffffff1603611dae575f73ffffffffffffffffffffffffffffffffffffffff1660025f9054906101000a900473ffffffffffffffffffffffffffffffffffffffff1673ffffffffffffffffffffffffffffffffffffffff167f673a58b10c6459336f2acbf0e261b33a424c335800064dcce68aea56343404c560405160405180910390a35f60025f6101000a81548173ffffffffffffffffffffffffffffffffffffffff021916908373ffffffffffffffffffffffffffffffffffffffff1602179055505b6004805480611dc057611dbf61885a565b5b600190038181905f5260205f20015f6101000a81549073ffffffffffffffffffffffffffffffffffffffff02191690559055611b22565b7fc395865725b8bd5e4e5c82e80339842e1a46a1bc27443a26d31c502b1fed7a0660405160405180910390a16001905090565b5f611e3d611e36615d51565b8484615d7f565b6001905092915050565b60195481565b5f60035f611e59615d51565b73ffffffffffffffffffffffffffffffffffffffff1673ffffffffffffffffffffffffffffffffffffffff1681526020019081526020015f205f9054906101000a900460ff16611ede576040517f08c379a0000000000000000000000000000000000000000000000000000000008152600401611ed59061859d565b60405180910390fd5b60055f9054906101000a900460ff1615611f2d576040517f08c379a0000000000000000000000000000000000000000000000000000000008152600401611f2490618605565b60405180910390fd5b81602d5f6101000a81548160ff02191690831515021790555060019050919050565b60225481565b5f60035f611f61615d51565b73ffffffffffffffffffffffffffffffffffffffff1673ffffffffffffffffffffffffffffffffffffffff1681526020019081526020015f205f9054906101000a900460ff16611fe6576040517f08c379a0000000000000000000000000000000000000000000000000000000008152600401611fdd9061859d565b60405180910390fd5b60055f9054906101000a900460ff1615612035576040517f08c379a000000000000000000000000000000000000000000000000000000000815260040161202c90618605565b60405180910390fd5b61203d615d58565b73ffffffffffffffffffffffffffffffffffffffff168273ffffffffffffffffffffffffffffffffffffffff16036120aa576040517f08c379a00000000000000000000000000000000000000000000000000000000081526004016120a1906189e2565b60405180910390fd5b602a5f9054906101000a900473ffffffffffffffffffffffffffffffffffffffff1673ffffffffffffffffffffffffffffffffffffffff168273ffffffffffffffffffffffffffffffffffffffff1603612139576040517f08c379a000000000000000000000000000000000000000000000000000000000815260040161213090618a70565b60405180910390fd5b5f60155f8473ffffffffffffffffffffffffffffffffffffffff1673ffffffffffffffffffffffffffffffffffffffff1681526020019081526020015f205f6101000a81548160ff02191690831515021790555060019050919050565b5f600a54905090565b5f60055f9054906101000a900460ff16905090565b60175481565b600f5481565b5f60035f6121cc615d51565b73ffffffffffffffffffffffffffffffffffffffff1673ffffffffffffffffffffffffffffffffffffffff1681526020019081526020015f205f9054906101000a900460ff16612251576040517f08c379a00000000000000000000000000000000000000000000000000000000081526004016122489061859d565b60405180910390fd5b60055f9054906101000a900460ff16156122a0576040517f08c379a000000000000000000000000000000000000000000000000000000000815260040161229790618605565b60405180910390fd5b601482601854601c546122b39190618827565b6122bd9190618a8e565b11156122fe576040517f08c379a00000000000000000000000000000000000000000000000000000000081526004016122f590618b0b565b60405180910390fd5b816018819055506018546017546016546123189190618a8e565b6123229190618a8e565b601c8190555060019050919050565b5f61233d848484615f42565b6123fa84612349615d51565b6123f5856040518060600160405280602b8152602001619d71602b9139600c5f8b73ffffffffffffffffffffffffffffffffffffffff1673ffffffffffffffffffffffffffffffffffffffff1681526020019081526020015f205f6123ac615d51565b73ffffffffffffffffffffffffffffffffffffffff1673ffffffffffffffffffffffffffffffffffffffff1681526020019081526020015f20546171fe9092919063ffffffff16565b615d7f565b600190509392505050565b601f5f9054906101000a900473ffffffffffffffffffffffffffffffffffffffff1681565b5f60035f612436615d51565b73ffffffffffffffffffffffffffffffffffffffff1673ffffffffffffffffffffffffffffffffffffffff1681526020019081526020015f205f9054906101000a900460ff166124bb576040517f08c379a00000000000000000000000000000000000000000000000000000000081526004016124b29061859d565b60405180910390fd5b60055f9054906101000a900460ff161561250a576040517f08c379a000000000000000000000000000000000000000000000000000000000815260040161250190618605565b60405180910390fd5b60105f8373ffffffffffffffffffffffffffffffffffffffff1673ffffffffffffffffffffffffffffffffffffffff1681526020019081526020015f205f9054906101000a900460ff1615612594576040517f08c379a000000000000000000000000000000000000000000000000000000000815260040161258b90618b99565b60405180910390fd5b602a5f9054906101000a900473ffffffffffffffffffffffffffffffffffffffff1673ffffffffffffffffffffffffffffffffffffffff168273ffffffffffffffffffffffffffffffffffffffff1603612623576040517f08c379a000000000000000000000000000000000000000000000000000000000815260040161261a90618c27565b60405180910390fd5b5f60115f8473ffffffffffffffffffffffffffffffffffffffff1673ffffffffffffffffffffffffffffffffffffffff1681526020019081526020015f20541115612701576126bf612673617260565b60115f8573ffffffffffffffffffffffffffffffffffffffff1673ffffffffffffffffffffffffffffffffffffffff1681526020019081526020015f205461728990919063ffffffff16565b600b5f8473ffffffffffffffffffffffffffffffffffffffff1673ffffffffffffffffffffffffffffffffffffffff1681526020019081526020015f20819055505b600160105f8473ffffffffffffffffffffffffffffffffffffffff1673ffffffffffffffffffffffffffffffffffffffff1681526020019081526020015f205f6101000a81548160ff021916908315150217905550601282908060018154018082558091505060019003905f5260205f20015f9091909190916101000a81548173ffffffffffffffffffffffffffffffffffffffff021916908373ffffffffffffffffffffffffffffffffffffffff16021790555060019050919050565b602d5f9054906101000a900460ff1681565b5f60035f6127dd615d51565b73ffffffffffffffffffffffffffffffffffffffff1673ffffffffffffffffffffffffffffffffffffffff1681526020019081526020015f205f9054906101000a900460ff16612862576040517f08c379a00000000000000000000000000000000000000000000000000000000081526004016128599061859d565b60405180910390fd5b60055f9054906101000a900460ff16156128b1576040517f08c379a00000000000000000000000000000000000000000000000000000000081526004016128a890618605565b60405180910390fd5b8260145f6101000a81548160ff021916908315150217905550826128ed575f60235f6101000a81548160ff021916908315150217905550612907565b8160235f6101000a81548160ff0219169083151502179055505b6001905092915050565b602a60149054906101000a900460ff1681565b5f60025f9054906101000a900473ffffffffffffffffffffffffffffffffffffffff1673ffffffffffffffffffffffffffffffffffffffff16612965615d51565b73ffffffffffffffffffffffffffffffffffffffff16146129bb576040517f08c379a00000000000000000000000000000000000000000000000000000000081526004016129b290618954565b60405180910390fd5b60055f9054906101000a900460ff1615806129d857506006544210155b612a17576040517f08c379a0000000000000000000000000000000000000000000000000000000008152600401612a0e90618605565b60405180910390fd5b60035f8373ffffffffffffffffffffffffffffffffffffffff1673ffffffffffffffffffffffffffffffffffffffff1681526020019081526020015f205f9054906101000a900460ff1615612aa1576040517f08c379a0000000000000000000000000000000000000000000000000000000008152600401612a9890618c8f565b60405180910390fd5b5f73ffffffffffffffffffffffffffffffffffffffff168273ffffffffffffffffffffffffffffffffffffffff1603612b0f576040517f08c379a0000000000000000000000000000000000000000000000000000000008152600401612b0690618cf7565b60405180910390fd5b600160035f8473ffffffffffffffffffffffffffffffffffffffff1673ffffffffffffffffffffffffffffffffffffffff1681526020019081526020015f205f6101000a81548160ff021916908315150217905550600482908060018154018082558091505060019003905f5260205f20015f9091909190916101000a81548173ffffffffffffffffffffffffffffffffffffffff021916908373ffffffffffffffffffffffffffffffffffffffff1602179055507f3b4a40cccf2058c593542587329dd385be4f0b588db5471fbd9598e56dd7093a82604051612bf391906184c3565b60405180910390a160019050919050565b5f60095f9054906101000a900460ff16905090565b5f60025f9054906101000a900473ffffffffffffffffffffffffffffffffffffffff16905090565b5f60035f612c4d615d51565b73ffffffffffffffffffffffffffffffffffffffff1673ffffffffffffffffffffffffffffffffffffffff1681526020019081526020015f205f9054906101000a900460ff16612cd2576040517f08c379a0000000000000000000000000000000000000000000000000000000008152600401612cc99061859d565b60405180910390fd5b60055f9054906101000a900460ff1615612d21576040517f08c379a0000000000000000000000000000000000000000000000000000000008152600401612d1890618605565b60405180910390fd5b81602a60146101000a81548160ff02191690831515021790555060019050919050565b5f612de8612d50615d51565b84612de385600c5f612d60615d51565b73ffffffffffffffffffffffffffffffffffffffff1673ffffffffffffffffffffffffffffffffffffffff1681526020019081526020015f205f8973ffffffffffffffffffffffffffffffffffffffff1673ffffffffffffffffffffffffffffffffffffffff1681526020019081526020015f20546172e590919063ffffffff16565b615d7f565b6001905092915050565b5f60035f612dfe615d51565b73ffffffffffffffffffffffffffffffffffffffff1673ffffffffffffffffffffffffffffffffffffffff1681526020019081526020015f205f9054906101000a900460ff16612e83576040517f08c379a0000000000000000000000000000000000000000000000000000000008152600401612e7a9061859d565b60405180910390fd5b60055f9054906101000a900460ff1615612ed2576040517f08c379a0000000000000000000000000000000000000000000000000000000008152600401612ec990618605565b60405180910390fd5b60145f9054906101000a900460ff1680612eea575081155b612f29576040517f08c379a0000000000000000000000000000000000000000000000000000000008152600401612f2090618d85565b60405180910390fd5b8160235f6101000a81548160ff02191690831515021790555060019050919050565b5f60035f612f57615d51565b73ffffffffffffffffffffffffffffffffffffffff1673ffffffffffffffffffffffffffffffffffffffff1681526020019081526020015f205f9054906101000a900460ff16612fdc576040517f08c379a0000000000000000000000000000000000000000000000000000000008152600401612fd39061859d565b60405180910390fd5b60055f9054906101000a900460ff161561302b576040517f08c379a000000000000000000000000000000000000000000000000000000000815260040161302290618605565b60405180910390fd5b8160248190555060019050919050565b5f60025f9054906101000a900473ffffffffffffffffffffffffffffffffffffffff1673ffffffffffffffffffffffffffffffffffffffff1661307c615d51565b73ffffffffffffffffffffffffffffffffffffffff16146130d2576040517f08c379a00000000000000000000000000000000000000000000000000000000081526004016130c990618954565b60405180910390fd5b60055f9054906101000a900460ff1615806130ef57506006544210155b61312e576040517f08c379a000000000000000000000000000000000000000000000000000000000815260040161312590618605565b60405180910390fd5b60025f9054906101000a900473ffffffffffffffffffffffffffffffffffffffff1673ffffffffffffffffffffffffffffffffffffffff168273ffffffffffffffffffffffffffffffffffffffff16036131bd576040517f08c379a00000000000000000000000000000000000000000000000000000000081526004016131b490618ded565b60405180910390fd5b60035f8373ffffffffffffffffffffffffffffffffffffffff1673ffffffffffffffffffffffffffffffffffffffff1681526020019081526020015f205f9054906101000a900460ff1661329857600160035f8473ffffffffffffffffffffffffffffffffffffffff1673ffffffffffffffffffffffffffffffffffffffff1681526020019081526020015f205f6101000a81548160ff0219169083151502179055507f3b4a40cccf2058c593542587329dd385be4f0b588db5471fbd9598e56dd7093a8260405161328f91906184c3565b60405180910390a15b8160025f6101000a81548173ffffffffffffffffffffffffffffffffffffffff021916908373ffffffffffffffffffffffffffffffffffffffff1602179055508173ffffffffffffffffffffffffffffffffffffffff1660025f9054906101000a900473ffffffffffffffffffffffffffffffffffffffff1673ffffffffffffffffffffffffffffffffffffffff167f673a58b10c6459336f2acbf0e261b33a424c335800064dcce68aea56343404c560405160405180910390a360019050919050565b601b5481565b5f60035f61336e615d51565b73ffffffffffffffffffffffffffffffffffffffff1673ffffffffffffffffffffffffffffffffffffffff1681526020019081526020015f205f9054906101000a900460ff166133f3576040517f08c379a00000000000000000000000000000000000000000000000000000000081526004016133ea9061859d565b60405180910390fd5b60055f9054906101000a900460ff1615613442576040517f08c379a000000000000000000000000000000000000000000000000000000000815260040161343990618605565b60405180910390fd5b81600d5f6101000a81548160ff02191690831515021790555060019050919050565b601c5481565b5f60065442101561348857426006546134839190618827565b61348a565b5f5b905090565b602c5481565b602081815481106134a4575f80fd5b905f5260205f20015f915054906101000a900473ffffffffffffffffffffffffffffffffffffffff1681565b601d5481565b602f5481565b5f60155f8373ffffffffffffffffffffffffffffffffffffffff1673ffffffffffffffffffffffffffffffffffffffff1681526020019081526020015f205f9054906101000a900460ff169050919050565b5f60035f61353a615d51565b73ffffffffffffffffffffffffffffffffffffffff1673ffffffffffffffffffffffffffffffffffffffff1681526020019081526020015f205f9054906101000a900460ff166135bf576040517f08c379a00000000000000000000000000000000000000000000000000000000081526004016135b69061859d565b60405180910390fd5b60055f9054906101000a900460ff161561360e576040517f08c379a000000000000000000000000000000000000000000000000000000000815260040161360590618605565b60405180910390fd5b81602b8190555060019050919050565b5f60035f61362a615d51565b73ffffffffffffffffffffffffffffffffffffffff1673ffffffffffffffffffffffffffffffffffffffff1681526020019081526020015f205f9054906101000a900460ff166136af576040517f08c379a00000000000000000000000000000000000000000000000000000000081526004016136a69061859d565b60405180910390fd5b60055f9054906101000a900460ff16156136fe576040517f08c379a00000000000000000000000000000000000000000000000000000000081526004016136f590618605565b60405180910390fd5b60215f8373ffffffffffffffffffffffffffffffffffffffff1673ffffffffffffffffffffffffffffffffffffffff1681526020019081526020015f205f9054906101000a900460ff16613787576040517f08c379a000000000000000000000000000000000000000000000000000000000815260040161377e90618e7b565b60405180910390fd5b5f5b602080549050811015613954578273ffffffffffffffffffffffffffffffffffffffff16602082815481106137c1576137c06187cd565b5b905f5260205f20015f9054906101000a900473ffffffffffffffffffffffffffffffffffffffff1673ffffffffffffffffffffffffffffffffffffffff160361394757602060016012805490506138189190618827565b81548110613829576138286187cd565b5b905f5260205f20015f9054906101000a900473ffffffffffffffffffffffffffffffffffffffff1660208281548110613865576138646187cd565b5b905f5260205f20015f6101000a81548173ffffffffffffffffffffffffffffffffffffffff021916908373ffffffffffffffffffffffffffffffffffffffff1602179055505f60215f8573ffffffffffffffffffffffffffffffffffffffff1673ffffffffffffffffffffffffffffffffffffffff1681526020019081526020015f205f6101000a81548160ff02191690831515021790555060208054806139105761390f61885a565b5b600190038181905f5260205f20015f6101000a81549073ffffffffffffffffffffffffffffffffffffffff02191690559055613954565b8080600101915050613789565b5060019050919050565b60185481565b5f60035f613970615d51565b73ffffffffffffffffffffffffffffffffffffffff1673ffffffffffffffffffffffffffffffffffffffff1681526020019081526020015f205f9054906101000a900460ff166139f5576040517f08c379a00000000000000000000000000000000000000000000000000000000081526004016139ec9061859d565b60405180910390fd5b60055f9054906101000a900460ff1615613a44576040517f08c379a0000000000000000000000000000000000000000000000000000000008152600401613a3b90618605565b60405180910390fd5b6064821115613a88576040517f08c379a0000000000000000000000000000000000000000000000000000000008152600401613a7f90618f09565b60405180910390fd5b8160258190555060019050919050565b5f60035f613aa4615d51565b73ffffffffffffffffffffffffffffffffffffffff1673ffffffffffffffffffffffffffffffffffffffff1681526020019081526020015f205f9054906101000a900460ff16613b29576040517f08c379a0000000000000000000000000000000000000000000000000000000008152600401613b209061859d565b60405180910390fd5b60055f9054906101000a900460ff1615613b78576040517f08c379a0000000000000000000000000000000000000000000000000000000008152600401613b6f90618605565b60405180910390fd5b81602e8190555060019050919050565b5f600e5f8373ffffffffffffffffffffffffffffffffffffffff1673ffffffffffffffffffffffffffffffffffffffff1681526020019081526020015f205f9054906101000a900460ff169050919050565b60245481565b5f60035f613bec615d51565b73ffffffffffffffffffffffffffffffffffffffff1673ffffffffffffffffffffffffffffffffffffffff1681526020019081526020015f205f9054906101000a900460ff16613c71576040517f08c379a0000000000000000000000000000000000000000000000000000000008152600401613c689061859d565b60405180910390fd5b60055f9054906101000a900460ff1615613cc0576040517f08c379a0000000000000000000000000000000000000000000000000000000008152600401613cb790618605565b60405180910390fd5b613cc8615d58565b73ffffffffffffffffffffffffffffffffffffffff168273ffffffffffffffffffffffffffffffffffffffff1603613d35576040517f08c379a0000000000000000000000000000000000000000000000000000000008152600401613d2c90618f97565b60405180910390fd5b602a5f9054906101000a900473ffffffffffffffffffffffffffffffffffffffff1673ffffffffffffffffffffffffffffffffffffffff168273ffffffffffffffffffffffffffffffffffffffff1603613dc4576040517f08c379a0000000000000000000000000000000000000000000000000000000008152600401613dbb90619025565b60405180910390fd5b5f600e5f8473ffffffffffffffffffffffffffffffffffffffff1673ffffffffffffffffffffffffffffffffffffffff1681526020019081526020015f205f6101000a81548160ff02191690831515021790555060019050919050565b602e5481565b60165481565b5f60035f613e39615d51565b73ffffffffffffffffffffffffffffffffffffffff1673ffffffffffffffffffffffffffffffffffffffff1681526020019081526020015f205f9054906101000a900460ff16613ebe576040517f08c379a0000000000000000000000000000000000000000000000000000000008152600401613eb59061859d565b60405180910390fd5b60055f9054906101000a900460ff1615613f0d576040517f08c379a0000000000000000000000000000000000000000000000000000000008152600401613f0490618605565b60405180910390fd5b6064821115613f51576040517f08c379a0000000000000000000000000000000000000000000000000000000008152600401613f48906190b3565b60405180910390fd5b81602c8190555060019050919050565b5f60105f8373ffffffffffffffffffffffffffffffffffffffff1673ffffffffffffffffffffffffffffffffffffffff1681526020019081526020015f205f9054906101000a900460ff1661400c57614007613fbb617260565b60115f8573ffffffffffffffffffffffffffffffffffffffff1673ffffffffffffffffffffffffffffffffffffffff1681526020019081526020015f205461728990919063ffffffff16565b61404b565b600b5f8373ffffffffffffffffffffffffffffffffffffffff1673ffffffffffffffffffffffffffffffffffffffff1681526020019081526020015f20545b9050919050565b5f61405b612c19565b905090565b601a5481565b5f60035f614072615d51565b73ffffffffffffffffffffffffffffffffffffffff1673ffffffffffffffffffffffffffffffffffffffff1681526020019081526020015f205f9054906101000a900460ff166140f7576040517f08c379a00000000000000000000000000000000000000000000000000000000081526004016140ee9061859d565b60405180910390fd5b60055f9054906101000a900460ff1615614146576040517f08c379a000000000000000000000000000000000000000000000000000000000815260040161413d90618605565b60405180910390fd5b600a5482111561418b576040517f08c379a000000000000000000000000000000000000000000000000000000000815260040161418290619141565b60405180910390fd5b81600f8190555060019050919050565b5f60035f6141a7615d51565b73ffffffffffffffffffffffffffffffffffffffff1673ffffffffffffffffffffffffffffffffffffffff1681526020019081526020015f205f9054906101000a900460ff1661422c576040517f08c379a00000000000000000000000000000000000000000000000000000000081526004016142239061859d565b60405180910390fd5b60055f9054906101000a900460ff161561427b576040517f08c379a000000000000000000000000000000000000000000000000000000000815260040161427290618605565b60405180910390fd5b61428482617342565b60019050919050565b5f60035f614299615d51565b73ffffffffffffffffffffffffffffffffffffffff1673ffffffffffffffffffffffffffffffffffffffff1681526020019081526020015f205f9054906101000a900460ff1661431e576040517f08c379a00000000000000000000000000000000000000000000000000000000081526004016143159061859d565b60405180910390fd5b60055f9054906101000a900460ff161561436d576040517f08c379a000000000000000000000000000000000000000000000000000000000815260040161436490618605565b60405180910390fd5b601482601754601c546143809190618827565b61438a9190618a8e565b11156143cb576040517f08c379a00000000000000000000000000000000000000000000000000000000081526004016143c290618b0b565b60405180910390fd5b816017819055506018546017546016546143e59190618a8e565b6143ef9190618a8e565b601c8190555060019050919050565b60606008805461440d906188b4565b80601f0160208091040260200160405190810160405280929190818152602001828054614439906188b4565b80156144845780601f1061445b57610100808354040283529160200191614484565b820191905f5260205f20905b81548152906001019060200180831161446757829003601f168201915b5050505050905090565b602b5481565b5f60035f6144a0615d51565b73ffffffffffffffffffffffffffffffffffffffff1673ffffffffffffffffffffffffffffffffffffffff1681526020019081526020015f205f9054906101000a900460ff16614525576040517f08c379a000000000000000000000000000000000000000000000000000000000815260040161451c9061859d565b60405180910390fd5b60055f9054906101000a900460ff1615614574576040517f08c379a000000000000000000000000000000000000000000000000000000000815260040161456b90618605565b60405180910390fd5b601482601a54601d546145879190618827565b6145919190618a8e565b11156145d2576040517f08c379a00000000000000000000000000000000000000000000000000000000081526004016145c9906191a9565b60405180910390fd5b81601a81905550601b54601a546019546145ec9190618a8e565b6145f69190618a8e565b601d8190555060019050919050565b5f600c5f614611615d51565b73ffffffffffffffffffffffffffffffffffffffff1673ffffffffffffffffffffffffffffffffffffffff1681526020019081526020015f205f8473ffffffffffffffffffffffffffffffffffffffff1673ffffffffffffffffffffffffffffffffffffffff1681526020019081526020015f205482116147345761472f614697615d51565b8461472a85600c5f6146a7615d51565b73ffffffffffffffffffffffffffffffffffffffff1673ffffffffffffffffffffffffffffffffffffffff1681526020019081526020015f205f8973ffffffffffffffffffffffffffffffffffffffff1673ffffffffffffffffffffffffffffffffffffffff1681526020019081526020015f20546175a790919063ffffffff16565b615d7f565b614747565b61474661473f615d51565b845f615d7f565b5b6001905092915050565b5f60035f61475d615d51565b73ffffffffffffffffffffffffffffffffffffffff1673ffffffffffffffffffffffffffffffffffffffff1681526020019081526020015f205f9054906101000a900460ff166147e2576040517f08c379a00000000000000000000000000000000000000000000000000000000081526004016147d99061859d565b60405180910390fd5b60055f9054906101000a900460ff1615614831576040517f08c379a000000000000000000000000000000000000000000000000000000000815260040161482890618605565b60405180910390fd5b8160145f6101000a81548160ff02191690831515021790555081614869575f60235f6101000a81548160ff0219169083151502179055505b60019050919050565b5f61488561487e615d51565b8484615f42565b6001905092915050565b5f60025f9054906101000a900473ffffffffffffffffffffffffffffffffffffffff1673ffffffffffffffffffffffffffffffffffffffff166148d0615d51565b73ffffffffffffffffffffffffffffffffffffffff1614614926576040517f08c379a000000000000000000000000000000000000000000000000000000000815260040161491d90618954565b60405180910390fd5b60055f9054906101000a900460ff16158061494357506006544210155b614982576040517f08c379a000000000000000000000000000000000000000000000000000000000815260040161497990618605565b60405180910390fd5b60035f8373ffffffffffffffffffffffffffffffffffffffff1673ffffffffffffffffffffffffffffffffffffffff1681526020019081526020015f205f9054906101000a900460ff16614a0b576040517f08c379a0000000000000000000000000000000000000000000000000000000008152600401614a0290619211565b60405180910390fd5b60025f9054906101000a900473ffffffffffffffffffffffffffffffffffffffff1673ffffffffffffffffffffffffffffffffffffffff168273ffffffffffffffffffffffffffffffffffffffff1603614a9a576040517f08c379a0000000000000000000000000000000000000000000000000000000008152600401614a919061929f565b60405180910390fd5b5f60035f8473ffffffffffffffffffffffffffffffffffffffff1673ffffffffffffffffffffffffffffffffffffffff1681526020019081526020015f205f6101000a81548160ff0219169083151502179055505f5b600480549050811015614c67578273ffffffffffffffffffffffffffffffffffffffff1660048281548110614b2857614b276187cd565b5b905f5260205f20015f9054906101000a900473ffffffffffffffffffffffffffffffffffffffff1673ffffffffffffffffffffffffffffffffffffffff1603614c5a5760046001600480549050614b7f9190618827565b81548110614b9057614b8f6187cd565b5b905f5260205f20015f9054906101000a900473ffffffffffffffffffffffffffffffffffffffff1660048281548110614bcc57614bcb6187cd565b5b905f5260205f20015f6101000a81548173ffffffffffffffffffffffffffffffffffffffff021916908373ffffffffffffffffffffffffffffffffffffffff1602179055506004805480614c2357614c2261885a565b5b600190038181905f5260205f20015f6101000a81549073ffffffffffffffffffffffffffffffffffffffff02191690559055614c67565b8080600101915050614af0565b507fef69f7d97228658c92417be1b16b19058315de71fecb435d07b7d23728b6bd3182604051614c9791906184c3565b60405180910390a160019050919050565b5f60035f614cb4615d51565b73ffffffffffffffffffffffffffffffffffffffff1673ffffffffffffffffffffffffffffffffffffffff1681526020019081526020015f205f9054906101000a900460ff16614d39576040517f08c379a0000000000000000000000000000000000000000000000000000000008152600401614d309061859d565b60405180910390fd5b60055f9054906101000a900460ff1615614d88576040517f08c379a0000000000000000000000000000000000000000000000000000000008152600401614d7f90618605565b60405180910390fd5b601482601654601c54614d9b9190618827565b614da59190618a8e565b1115614de6576040517f08c379a0000000000000000000000000000000000000000000000000000000008152600401614ddd90618b0b565b60405180910390fd5b81601681905550601854601754601654614e009190618a8e565b614e0a9190618a8e565b601c8190555060019050919050565b601e5f9054906101000a900473ffffffffffffffffffffffffffffffffffffffff1681565b60235f9054906101000a900460ff1681565b5f60025f9054906101000a900473ffffffffffffffffffffffffffffffffffffffff1673ffffffffffffffffffffffffffffffffffffffff16614e91615d51565b73ffffffffffffffffffffffffffffffffffffffff1614614ee7576040517f08c379a0000000000000000000000000000000000000000000000000000000008152600401614ede90618954565b60405180910390fd5b60055f9054906101000a900460ff161580614f0457506006544210155b614f43576040517f08c379a0000000000000000000000000000000000000000000000000000000008152600401614f3a90618605565b60405180910390fd5b600160055f6101000a81548160ff0219169083151502179055508142614f699190618a8e565b6006819055507fa0a82351cd05389c57e6d30f1b1479dbef372a3f6ffc76b0d5ae7d5de835c1e482604051614f9e919061827d565b60405180910390a160019050919050565b5f60035f614fbb615d51565b73ffffffffffffffffffffffffffffffffffffffff1673ffffffffffffffffffffffffffffffffffffffff1681526020019081526020015f205f9054906101000a900460ff16615040576040517f08c379a00000000000000000000000000000000000000000000000000000000081526004016150379061859d565b60405180910390fd5b60055f9054906101000a900460ff161561508f576040517f08c379a000000000000000000000000000000000000000000000000000000000815260040161508690618605565b60405180910390fd5b601482601954601d546150a29190618827565b6150ac9190618a8e565b11156150ed576040517f08c379a00000000000000000000000000000000000000000000000000000000081526004016150e4906191a9565b60405180910390fd5b81601981905550601b54601a546019546151079190618a8e565b6151119190618a8e565b601d8190555060019050919050565b602a5f9054906101000a900473ffffffffffffffffffffffffffffffffffffffff1681565b5f60035f615151615d51565b73ffffffffffffffffffffffffffffffffffffffff1673ffffffffffffffffffffffffffffffffffffffff1681526020019081526020015f205f9054906101000a900460ff166151d6576040517f08c379a00000000000000000000000000000000000000000000000000000000081526004016151cd9061859d565b60405180910390fd5b60055f9054906101000a900460ff1615615225576040517f08c379a000000000000000000000000000000000000000000000000000000000815260040161521c90618605565b60405180910390fd5b60215f8373ffffffffffffffffffffffffffffffffffffffff1673ffffffffffffffffffffffffffffffffffffffff1681526020019081526020015f205f9054906101000a900460ff16156152af576040517f08c379a00000000000000000000000000000000000000000000000000000000081526004016152a69061932d565b60405180910390fd5b602254602080549050106152f8576040517f08c379a00000000000000000000000000000000000000000000000000000000081526004016152ef906193bb565b60405180910390fd5b602082908060018154018082558091505060019003905f5260205f20015f9091909190916101000a81548173ffffffffffffffffffffffffffffffffffffffff021916908373ffffffffffffffffffffffffffffffffffffffff160217905550600160215f8473ffffffffffffffffffffffffffffffffffffffff1673ffffffffffffffffffffffffffffffffffffffff1681526020019081526020015f205f6101000a81548160ff02191690831515021790555060019050919050565b5f60025f9054906101000a900473ffffffffffffffffffffffffffffffffffffffff1673ffffffffffffffffffffffffffffffffffffffff166153f7615d51565b73ffffffffffffffffffffffffffffffffffffffff161461544d576040517f08c379a000000000000000000000000000000000000000000000000000000000815260040161544490618954565b60405180910390fd5b60055f9054906101000a900460ff16158061546a57506006544210155b6154a9576040517f08c379a00000000000000000000000000000000000000000000000000000000081526004016154a090618605565b60405180910390fd5b5f60055f6101000a81548160ff0219169083151502179055505f6006819055507fb9f923d80a880854fb5f4bfa138d5ae90743699549b3e05fe92f2f17c95bc85360405160405180910390a16001905090565b5f60035f615508615d51565b73ffffffffffffffffffffffffffffffffffffffff1673ffffffffffffffffffffffffffffffffffffffff1681526020019081526020015f205f9054906101000a900460ff1661558d576040517f08c379a00000000000000000000000000000000000000000000000000000000081526004016155849061859d565b60405180910390fd5b60055f9054906101000a900460ff16156155dc576040517f08c379a00000000000000000000000000000000000000000000000000000000081526004016155d390618605565b60405180910390fd5b6064821115615620576040517f08c379a000000000000000000000000000000000000000000000000000000000815260040161561790619449565b60405180910390fd5b81602f8190555060019050919050565b600d5f9054906101000a900460ff1681565b5f600c5f8473ffffffffffffffffffffffffffffffffffffffff1673ffffffffffffffffffffffffffffffffffffffff1681526020019081526020015f205f8373ffffffffffffffffffffffffffffffffffffffff1673ffffffffffffffffffffffffffffffffffffffff1681526020019081526020015f2054905092915050565b5f60035f6156d0615d51565b73ffffffffffffffffffffffffffffffffffffffff1673ffffffffffffffffffffffffffffffffffffffff1681526020019081526020015f205f9054906101000a900460ff16615755576040517f08c379a000000000000000000000000000000000000000000000000000000000815260040161574c9061859d565b60405180910390fd5b60055f9054906101000a900460ff16156157a4576040517f08c379a000000000000000000000000000000000000000000000000000000000815260040161579b90618605565b60405180910390fd5b6001600e5f8473ffffffffffffffffffffffffffffffffffffffff1673ffffffffffffffffffffffffffffffffffffffff1681526020019081526020015f205f6101000a81548160ff02191690831515021790555060019050919050565b5f60035f61580e615d51565b73ffffffffffffffffffffffffffffffffffffffff1673ffffffffffffffffffffffffffffffffffffffff1681526020019081526020015f205f9054906101000a900460ff16615893576040517f08c379a000000000000000000000000000000000000000000000000000000000815260040161588a9061859d565b60405180910390fd5b60055f9054906101000a900460ff16156158e2576040517f08c379a00000000000000000000000000000000000000000000000000000000081526004016158d990618605565b60405180910390fd5b6158eb826175d1565b60019050919050565b5f60035f615900615d51565b73ffffffffffffffffffffffffffffffffffffffff1673ffffffffffffffffffffffffffffffffffffffff1681526020019081526020015f205f9054906101000a900460ff16615985576040517f08c379a000000000000000000000000000000000000000000000000000000000815260040161597c9061859d565b60405180910390fd5b60055f9054906101000a900460ff16156159d4576040517f08c379a00000000000000000000000000000000000000000000000000000000081526004016159cb90618605565b60405180910390fd5b6159dd82617916565b60019050919050565b5f60035f6159f2615d51565b73ffffffffffffffffffffffffffffffffffffffff1673ffffffffffffffffffffffffffffffffffffffff1681526020019081526020015f205f9054906101000a900460ff16615a77576040517f08c379a0000000000000000000000000000000000000000000000000000000008152600401615a6e9061859d565b60405180910390fd5b60055f9054906101000a900460ff1615615ac6576040517f08c379a0000000000000000000000000000000000000000000000000000000008152600401615abd90618605565b60405180910390fd5b600160155f8473ffffffffffffffffffffffffffffffffffffffff1673ffffffffffffffffffffffffffffffffffffffff1681526020019081526020015f205f6101000a81548160ff02191690831515021790555060019050919050565b5f60105f8373ffffffffffffffffffffffffffffffffffffffff1673ffffffffffffffffffffffffffffffffffffffff1681526020019081526020015f205f9054906101000a900460ff169050919050565b5f60035f615b82615d51565b73ffffffffffffffffffffffffffffffffffffffff1673ffffffffffffffffffffffffffffffffffffffff1681526020019081526020015f205f9054906101000a900460ff16615c07576040517f08c379a0000000000000000000000000000000000000000000000000000000008152600401615bfe9061859d565b60405180910390fd5b60055f9054906101000a900460ff1615615c56576040517f08c379a0000000000000000000000000000000000000000000000000000000008152600401615c4d90618605565b60405180910390fd5b601482601b54601d54615c699190618827565b615c739190618a8e565b1115615cb4576040517f08c379a0000000000000000000000000000000000000000000000000000000008152600401615cab906191a9565b60405180910390fd5b81601b81905550601b54601a54601954615cce9190618a8e565b615cd89190618a8e565b601d8190555060019050919050565b60255481565b5f60035f8373ffffffffffffffffffffffffffffffffffffffff1673ffffffffffffffffffffffffffffffffffffffff1681526020019081526020015f205f9054906101000a900460ff169050919050565b60145f9054906101000a900460ff1681565b5f33905090565b5f805f9054906101000a900473ffffffffffffffffffffffffffffffffffffffff16905090565b5f73ffffffffffffffffffffffffffffffffffffffff168373ffffffffffffffffffffffffffffffffffffffff1603615ded576040517f08c379a0000000000000000000000000000000000000000000000000000000008152600401615de4906194d7565b60405180910390fd5b5f73ffffffffffffffffffffffffffffffffffffffff168273ffffffffffffffffffffffffffffffffffffffff1603615e5b576040517f08c379a0000000000000000000000000000000000000000000000000000000008152600401615e5290619565565b60405180910390fd5b80600c5f8573ffffffffffffffffffffffffffffffffffffffff1673ffffffffffffffffffffffffffffffffffffffff1681526020019081526020015f205f8473ffffffffffffffffffffffffffffffffffffffff1673ffffffffffffffffffffffffffffffffffffffff1681526020019081526020015f20819055508173ffffffffffffffffffffffffffffffffffffffff168373ffffffffffffffffffffffffffffffffffffffff167f8c5be1e5ebec7d5bd14f71427d1e84f3dd0314c0f7b2291e5b200ac8c7c3b92583604051615f35919061827d565b60405180910390a3505050565b5f73ffffffffffffffffffffffffffffffffffffffff168373ffffffffffffffffffffffffffffffffffffffff1614158015615faa57505f73ffffffffffffffffffffffffffffffffffffffff168273ffffffffffffffffffffffffffffffffffffffff1614155b615fe9576040517f08c379a0000000000000000000000000000000000000000000000000000000008152600401615fe0906195f3565b60405180910390fd5b600f54811115806160065750600d5f9054906101000a900460ff16155b806160575750600e5f8473ffffffffffffffffffffffffffffffffffffffff1673ffffffffffffffffffffffffffffffffffffffff1681526020019081526020015f205f9054906101000a900460ff165b806160a85750600e5f8373ffffffffffffffffffffffffffffffffffffffff1673ffffffffffffffffffffffffffffffffffffffff1681526020019081526020015f205f9054906101000a900460ff165b6160e7576040517f08c379a00000000000000000000000000000000000000000000000000000000081526004016160de90619681565b60405180910390fd5b5f8103156171f9575f6160f984613f61565b90508181101561613e576040517f08c379a00000000000000000000000000000000000000000000000000000000081526004016161359061970f565b60405180910390fd5b5f616147617260565b90505f805f60145f9054906101000a900460ff1680156161ff575060155f8973ffffffffffffffffffffffffffffffffffffffff1673ffffffffffffffffffffffffffffffffffffffff1681526020019081526020015f205f9054906101000a900460ff16806161fd575060155f8873ffffffffffffffffffffffffffffffffffffffff1673ffffffffffffffffffffffffffffffffffffffff1681526020019081526020015f205f9054906101000a900460ff165b155b156163b057601f5f9054906101000a900473ffffffffffffffffffffffffffffffffffffffff1673ffffffffffffffffffffffffffffffffffffffff168873ffffffffffffffffffffffffffffffffffffffff16036162db57616280606461627260165489617dfb90919063ffffffff16565b61728990919063ffffffff16565b92506162aa606461629c60175489617dfb90919063ffffffff16565b61728990919063ffffffff16565b91506162d460646162c660185489617dfb90919063ffffffff16565b61728990919063ffffffff16565b90506163af565b601f5f9054906101000a900473ffffffffffffffffffffffffffffffffffffffff1673ffffffffffffffffffffffffffffffffffffffff168773ffffffffffffffffffffffffffffffffffffffff16036163ae57616357606461634960195489617dfb90919063ffffffff16565b61728990919063ffffffff16565b92506163816064616373601a5489617dfb90919063ffffffff16565b61728990919063ffffffff16565b91506163ab606461639d601b5489617dfb90919063ffffffff16565b61728990919063ffffffff16565b90505b5b5b5f6163e8826163da856163cc888c6175a790919063ffffffff16565b6175a790919063ffffffff16565b6175a790919063ffffffff16565b90505f6163fe8689617dfb90919063ffffffff16565b90505f6164148784617dfb90919063ffffffff16565b9050601f5f9054906101000a900473ffffffffffffffffffffffffffffffffffffffff1673ffffffffffffffffffffffffffffffffffffffff168a73ffffffffffffffffffffffffffffffffffffffff1614801561647e575060265f9054906101000a900460ff16155b156165825760235f9054906101000a900460ff1680156164a2575060245460295410155b156164b3576164b2602554617916565b5b602a60149054906101000a900460ff1680156164ef5750602b546164d5615d58565b73ffffffffffffffffffffffffffffffffffffffff163110155b15616500576164ff602c546175d1565b5b602d5f9054906101000a900460ff16801561653b5750602e54616521615d58565b73ffffffffffffffffffffffffffffffffffffffff163110155b801561657057505f61656d602a5f9054906101000a900473ffffffffffffffffffffffffffffffffffffffff16613f61565b14155b1561658157616580602f54617342565b5b5b60145f9054906101000a900460ff168015616635575060155f8b73ffffffffffffffffffffffffffffffffffffffff1673ffffffffffffffffffffffffffffffffffffffff1681526020019081526020015f205f9054906101000a900460ff1680616633575060155f8c73ffffffffffffffffffffffffffffffffffffffff1673ffffffffffffffffffffffffffffffffffffffff1681526020019081526020015f205f9054906101000a900460ff165b155b156168c85761669c85876166499190618a8e565b600b5f616654615d58565b73ffffffffffffffffffffffffffffffffffffffff1673ffffffffffffffffffffffffffffffffffffffff1681526020019081526020015f20546172e590919063ffffffff16565b600b5f6166a7615d58565b73ffffffffffffffffffffffffffffffffffffffff1673ffffffffffffffffffffffffffffffffffffffff1681526020019081526020015f20819055506167586167058887896166f79190618a8e565b617dfb90919063ffffffff16565b60115f616710615d58565b73ffffffffffffffffffffffffffffffffffffffff1673ffffffffffffffffffffffffffffffffffffffff1681526020019081526020015f20546172e590919063ffffffff16565b60115f616763615d58565b73ffffffffffffffffffffffffffffffffffffffff1673ffffffffffffffffffffffffffffffffffffffff1681526020019081526020015f20819055506167a8615d58565b73ffffffffffffffffffffffffffffffffffffffff168b73ffffffffffffffffffffffffffffffffffffffff167fddf252ad1be2c89b69c2b068fc378daa952ba7f163c4a11628f55a4df523b3ef87896168029190618a8e565b60405161680f919061827d565b60405180910390a361682c866027546172e590919063ffffffff16565b602781905550616847856028546172e590919063ffffffff16565b60288190555060285460275461685d9190618a8e565b60298190555061688a6168798886617dfb90919063ffffffff16565b6013546175a790919063ffffffff16565b6013819055507f5c1ed6067100d7c0b1ab0374561d4c79aae0b726d35668bf58cb3a7395250be0846040516168bf919061827d565b60405180910390a15b60105f8c73ffffffffffffffffffffffffffffffffffffffff1673ffffffffffffffffffffffffffffffffffffffff1681526020019081526020015f205f9054906101000a900460ff168015616965575060105f8b73ffffffffffffffffffffffffffffffffffffffff1673ffffffffffffffffffffffffffffffffffffffff1681526020019081526020015f205f9054906101000a900460ff16155b15616b22576169ba89600b5f8e73ffffffffffffffffffffffffffffffffffffffff1673ffffffffffffffffffffffffffffffffffffffff1681526020019081526020015f20546175a790919063ffffffff16565b600b5f8d73ffffffffffffffffffffffffffffffffffffffff1673ffffffffffffffffffffffffffffffffffffffff1681526020019081526020015f2081905550616a4b8260115f8e73ffffffffffffffffffffffffffffffffffffffff1673ffffffffffffffffffffffffffffffffffffffff1681526020019081526020015f20546175a790919063ffffffff16565b60115f8d73ffffffffffffffffffffffffffffffffffffffff1673ffffffffffffffffffffffffffffffffffffffff1681526020019081526020015f2081905550616adc8160115f8d73ffffffffffffffffffffffffffffffffffffffff1673ffffffffffffffffffffffffffffffffffffffff1681526020019081526020015f20546172e590919063ffffffff16565b60115f8c73ffffffffffffffffffffffffffffffffffffffff1673ffffffffffffffffffffffffffffffffffffffff1681526020019081526020015f208190555061718b565b60105f8c73ffffffffffffffffffffffffffffffffffffffff1673ffffffffffffffffffffffffffffffffffffffff1681526020019081526020015f205f9054906101000a900460ff16158015616bbf575060105f8b73ffffffffffffffffffffffffffffffffffffffff1673ffffffffffffffffffffffffffffffffffffffff1681526020019081526020015f205f9054906101000a900460ff165b15616d7c57616c148260115f8e73ffffffffffffffffffffffffffffffffffffffff1673ffffffffffffffffffffffffffffffffffffffff1681526020019081526020015f20546175a790919063ffffffff16565b60115f8d73ffffffffffffffffffffffffffffffffffffffff1673ffffffffffffffffffffffffffffffffffffffff1681526020019081526020015f2081905550616ca583600b5f8d73ffffffffffffffffffffffffffffffffffffffff1673ffffffffffffffffffffffffffffffffffffffff1681526020019081526020015f20546172e590919063ffffffff16565b600b5f8c73ffffffffffffffffffffffffffffffffffffffff1673ffffffffffffffffffffffffffffffffffffffff1681526020019081526020015f2081905550616d368160115f8d73ffffffffffffffffffffffffffffffffffffffff1673ffffffffffffffffffffffffffffffffffffffff1681526020019081526020015f20546172e590919063ffffffff16565b60115f8c73ffffffffffffffffffffffffffffffffffffffff1673ffffffffffffffffffffffffffffffffffffffff1681526020019081526020015f208190555061718a565b60105f8c73ffffffffffffffffffffffffffffffffffffffff1673ffffffffffffffffffffffffffffffffffffffff1681526020019081526020015f205f9054906101000a900460ff168015616e18575060105f8b73ffffffffffffffffffffffffffffffffffffffff1673ffffffffffffffffffffffffffffffffffffffff1681526020019081526020015f205f9054906101000a900460ff165b1561706657616e6d89600b5f8e73ffffffffffffffffffffffffffffffffffffffff1673ffffffffffffffffffffffffffffffffffffffff1681526020019081526020015f20546175a790919063ffffffff16565b600b5f8d73ffffffffffffffffffffffffffffffffffffffff1673ffffffffffffffffffffffffffffffffffffffff1681526020019081526020015f2081905550616efe8260115f8e73ffffffffffffffffffffffffffffffffffffffff1673ffffffffffffffffffffffffffffffffffffffff1681526020019081526020015f20546175a790919063ffffffff16565b60115f8d73ffffffffffffffffffffffffffffffffffffffff1673ffffffffffffffffffffffffffffffffffffffff1681526020019081526020015f2081905550616f8f83600b5f8d73ffffffffffffffffffffffffffffffffffffffff1673ffffffffffffffffffffffffffffffffffffffff1681526020019081526020015f20546172e590919063ffffffff16565b600b5f8c73ffffffffffffffffffffffffffffffffffffffff1673ffffffffffffffffffffffffffffffffffffffff1681526020019081526020015f20819055506170208160115f8d73ffffffffffffffffffffffffffffffffffffffff1673ffffffffffffffffffffffffffffffffffffffff1681526020019081526020015f20546172e590919063ffffffff16565b60115f8c73ffffffffffffffffffffffffffffffffffffffff1673ffffffffffffffffffffffffffffffffffffffff1681526020019081526020015f2081905550617189565b6170b68260115f8e73ffffffffffffffffffffffffffffffffffffffff1673ffffffffffffffffffffffffffffffffffffffff1681526020019081526020015f20546175a790919063ffffffff16565b60115f8d73ffffffffffffffffffffffffffffffffffffffff1673ffffffffffffffffffffffffffffffffffffffff1681526020019081526020015f20819055506171478160115f8d73ffffffffffffffffffffffffffffffffffffffff1673ffffffffffffffffffffffffffffffffffffffff1681526020019081526020015f20546172e590919063ffffffff16565b60115f8c73ffffffffffffffffffffffffffffffffffffffff1673ffffffffffffffffffffffffffffffffffffffff1681526020019081526020015f20819055505b5b5b8973ffffffffffffffffffffffffffffffffffffffff168b73ffffffffffffffffffffffffffffffffffffffff167fddf252ad1be2c89b69c2b068fc378daa952ba7f163c4a11628f55a4df523b3ef856040516171e8919061827d565b60405180910390a350505050505050505b505050565b5f838311158290617245576040517f08c379a000000000000000000000000000000000000000000000000000000000815260040161723c9190618245565b60405180910390fd5b505f83856172539190618827565b9050809150509392505050565b5f805f61726b617e7d565b91509150617282818361728990919063ffffffff16565b9250505090565b5f8082116172cc576040517f08c379a00000000000000000000000000000000000000000000000000000000081526004016172c390619777565b60405180910390fd5b5f82846172d991906197c2565b90508091505092915050565b5f8082846172f39190618a8e565b905083811015617338576040517f08c379a000000000000000000000000000000000000000000000000000000000815260040161732f9061983c565b60405180910390fd5b8091505092915050565b600160265f6101000a81548160ff02191690831515021790555060648111156173a0576040517f08c379a0000000000000000000000000000000000000000000000000000000008152600401617397906198ca565b60405180910390fd5b5f6173cb602a5f9054906101000a900473ffffffffffffffffffffffffffffffffffffffff16613f61565b9050617400602a5f9054906101000a900473ffffffffffffffffffffffffffffffffffffffff166173fa615d58565b83615f42565b61743361740b615d58565b601e5f9054906101000a900473ffffffffffffffffffffffffffffffffffffffff1683615d7f565b601e5f9054906101000a900473ffffffffffffffffffffffffffffffffffffffff1673ffffffffffffffffffffffffffffffffffffffff1663f305d7196174b460646174a686617481615d58565b73ffffffffffffffffffffffffffffffffffffffff1631617dfb90919063ffffffff16565b61728990919063ffffffff16565b6174bc615d58565b845f806174c7615d58565b6174cf618112565b6040518863ffffffff1660e01b81526004016174f096959493929190619941565b60606040518083038185885af115801561750c573d5f803e3d5ffd5b50505050506040513d601f19601f8201168201806040525081019061753191906199b4565b50505061758a61753f615d58565b602a5f9054906101000a900473ffffffffffffffffffffffffffffffffffffffff16617585602954617577617572615d58565b613f61565b6175a790919063ffffffff16565b615f42565b505f60265f6101000a81548160ff02191690831515021790555050565b5f8282106175b7575f90506175cb565b5f82846175c49190618827565b9050809150505b92915050565b600160265f6101000a81548160ff021916908315150217905550606481111561762f576040517f08c379a000000000000000000000000000000000000000000000000000000000815260040161762690619a4e565b60405180910390fd5b5f600267ffffffffffffffff81111561764b5761764a619a6c565b5b6040519080825280602002602001820160405280156176795781602001602082028036833780820191505090505b509050601e5f9054906101000a900473ffffffffffffffffffffffffffffffffffffffff1673ffffffffffffffffffffffffffffffffffffffff1663ad5c46486040518163ffffffff1660e01b8152600401602060405180830381865afa1580156176e6573d5f803e3d5ffd5b505050506040513d601f19601f8201168201806040525081019061770a9190619aad565b815f8151811061771d5761771c6187cd565b5b602002602001019073ffffffffffffffffffffffffffffffffffffffff16908173ffffffffffffffffffffffffffffffffffffffff168152505061775f615d58565b81600181518110617773576177726187cd565b5b602002602001019073ffffffffffffffffffffffffffffffffffffffff16908173ffffffffffffffffffffffffffffffffffffffff16815250505f6177f260646177e4856177bf615d58565b73ffffffffffffffffffffffffffffffffffffffff1631617dfb90919063ffffffff16565b61728990919063ffffffff16565b9050601e5f9054906101000a900473ffffffffffffffffffffffffffffffffffffffff1673ffffffffffffffffffffffffffffffffffffffff1663b6f9de95825f85602a5f9054906101000a900473ffffffffffffffffffffffffffffffffffffffff1661787261012c617864618112565b6172e590919063ffffffff16565b6040518663ffffffff1660e01b81526004016178919493929190619b8f565b5f604051808303818588803b1580156178a8575f80fd5b505af11580156178ba573d5f803e3d5ffd5b50505050507f6fd378a9d8b7345c2e5b18229aaf1e39d32b177b501d0a0d26a0a858a23a962481836040516178f0929190619bd9565b60405180910390a150505f60265f6101000a81548160ff02191690831515021790555050565b600160265f6101000a81548160ff0219169083151502179055506064811115617974576040517f08c379a000000000000000000000000000000000000000000000000000000000815260040161796b90619c51565b60405180910390fd5b5f61799d606461798f84602754617dfb90919063ffffffff16565b61728990919063ffffffff16565b90505f6179c860646179ba85602854617dfb90919063ffffffff16565b61728990919063ffffffff16565b90505f81836179d79190618a8e565b90505f6179e2615d58565b73ffffffffffffffffffffffffffffffffffffffff163190505f600267ffffffffffffffff811115617a1757617a16619a6c565b5b604051908082528060200260200182016040528015617a455781602001602082028036833780820191505090505b509050617a50615d58565b815f81518110617a6357617a626187cd565b5b602002602001019073ffffffffffffffffffffffffffffffffffffffff16908173ffffffffffffffffffffffffffffffffffffffff1681525050601e5f9054906101000a900473ffffffffffffffffffffffffffffffffffffffff1673ffffffffffffffffffffffffffffffffffffffff1663ad5c46486040518163ffffffff1660e01b8152600401602060405180830381865afa158015617b07573d5f803e3d5ffd5b505050506040513d601f19601f82011682018060405250810190617b2b9190619aad565b81600181518110617b3f57617b3e6187cd565b5b602002602001019073ffffffffffffffffffffffffffffffffffffffff16908173ffffffffffffffffffffffffffffffffffffffff1681525050617bac617b84615d58565b601e5f9054906101000a900473ffffffffffffffffffffffffffffffffffffffff1685615d7f565b601e5f9054906101000a900473ffffffffffffffffffffffffffffffffffffffff1673ffffffffffffffffffffffffffffffffffffffff1663791ac947845f84617bf4615d58565b617bfc618112565b6040518663ffffffff1660e01b8152600401617c1c959493929190619c6f565b5f604051808303815f87803b158015617c33575f80fd5b505af1158015617c45573d5f803e3d5ffd5b505050507f32cde87eb454f3a0b875ab23547023107cfad454363ec88ba5695e2c24aa52a78382604051617c7a929190619bd9565b60405180910390a1617c97856027546175a790919063ffffffff16565b602781905550617cb2846028546175a790919063ffffffff16565b602881905550602854602754617cc89190618a8e565b6029819055505f617d3b602080549050617d2d86617d1f8a617d1189617cec615d58565b73ffffffffffffffffffffffffffffffffffffffff16316175a790919063ffffffff16565b617dfb90919063ffffffff16565b61728990919063ffffffff16565b61728990919063ffffffff16565b90505f5b602080549050811015617dd85760208181548110617d6057617d5f6187cd565b5b905f5260205f20015f9054906101000a900473ffffffffffffffffffffffffffffffffffffffff1673ffffffffffffffffffffffffffffffffffffffff166108fc8390811502906040515f60405180830381858888f19350505050158015617dca573d5f803e3d5ffd5b508080600101915050617d3f565b505050505050505f60265f6101000a81548160ff02191690831515021790555050565b5f80831480617e0957505f82145b15617e16575f9050617e77565b5f8284617e239190619cc7565b9050828482617e3291906197c2565b14617e72576040517f08c379a0000000000000000000000000000000000000000000000000000000008152600401617e6990619d52565b60405180910390fd5b809150505b92915050565b5f805f60135490505f600a5490505f5b6012805490508110156180d5578260115f60128481548110617eb257617eb16187cd565b5b905f5260205f20015f9054906101000a900473ffffffffffffffffffffffffffffffffffffffff1673ffffffffffffffffffffffffffffffffffffffff1673ffffffffffffffffffffffffffffffffffffffff1681526020019081526020015f20541180617f97575081600b5f60128481548110617f3357617f326187cd565b5b905f5260205f20015f9054906101000a900473ffffffffffffffffffffffffffffffffffffffff1673ffffffffffffffffffffffffffffffffffffffff1673ffffffffffffffffffffffffffffffffffffffff1681526020019081526020015f2054115b15617fae57601354600a549450945050505061810e565b61803960115f60128481548110617fc857617fc76187cd565b5b905f5260205f20015f9054906101000a900473ffffffffffffffffffffffffffffffffffffffff1673ffffffffffffffffffffffffffffffffffffffff1673ffffffffffffffffffffffffffffffffffffffff1681526020019081526020015f2054846175a790919063ffffffff16565b92506180c6600b5f60128481548110618055576180546187cd565b5b905f5260205f20015f9054906101000a900473ffffffffffffffffffffffffffffffffffffffff1673ffffffffffffffffffffffffffffffffffffffff1673ffffffffffffffffffffffffffffffffffffffff1681526020019081526020015f2054836175a790919063ffffffff16565b91508080600101915050617e8d565b506180ed600a5460135461728990919063ffffffff16565b82101561810557601354600a5493509350505061810e565b81819350935050505b9091565b5f42905090565b5f80fd5b5f73ffffffffffffffffffffffffffffffffffffffff82169050919050565b5f6181468261811d565b9050919050565b6181568161813c565b8114618160575f80fd5b50565b5f813590506181718161814d565b92915050565b5f6020828403121561818c5761818b618119565b5b5f61819984828501618163565b91505092915050565b5f8115159050919050565b6181b6816181a2565b82525050565b5f6020820190506181cf5f8301846181ad565b92915050565b5f81519050919050565b5f82825260208201905092915050565b8281835e5f83830152505050565b5f601f19601f8301169050919050565b5f618217826181d5565b61822181856181df565b93506182318185602086016181ef565b61823a816181fd565b840191505092915050565b5f6020820190508181035f83015261825d818461820d565b905092915050565b5f819050919050565b61827781618265565b82525050565b5f6020820190506182905f83018461826e565b92915050565b61829f81618265565b81146182a9575f80fd5b50565b5f813590506182ba81618296565b92915050565b5f80604083850312156182d6576182d5618119565b5b5f6182e385828601618163565b92505060206182f4858286016182ac565b9150509250929050565b618307816181a2565b8114618311575f80fd5b50565b5f81359050618322816182fe565b92915050565b5f6020828403121561833d5761833c618119565b5b5f61834a84828501618314565b91505092915050565b5f6020828403121561836857618367618119565b5b5f618375848285016182ac565b91505092915050565b5f805f6060848603121561839557618394618119565b5b5f6183a286828701618163565b93505060206183b386828701618163565b92505060406183c4868287016182ac565b9150509250925092565b5f819050919050565b5f6183f16183ec6183e78461811d565b6183ce565b61811d565b9050919050565b5f618402826183d7565b9050919050565b5f618413826183f8565b9050919050565b61842381618409565b82525050565b5f60208201905061843c5f83018461841a565b92915050565b5f806040838503121561845857618457618119565b5b5f61846585828601618314565b925050602061847685828601618314565b9150509250929050565b5f60ff82169050919050565b61849581618480565b82525050565b5f6020820190506184ae5f83018461848c565b92915050565b6184bd8161813c565b82525050565b5f6020820190506184d65f8301846184b4565b92915050565b5f6184e6826183f8565b9050919050565b6184f6816184dc565b82525050565b5f60208201905061850f5f8301846184ed565b92915050565b5f806040838503121561852b5761852a618119565b5b5f61853885828601618163565b925050602061854985828601618163565b9150509250929050565b7f43616c6c6572206973206e6f742061206d616e616765720000000000000000005f82015250565b5f6185876017836181df565b915061859282618553565b602082019050919050565b5f6020820190508181035f8301526185b48161857b565b9050919050565b7f4d616e6167656d656e74206973206c6f636b65640000000000000000000000005f82015250565b5f6185ef6014836181df565b91506185fa826185bb565b602082019050919050565b5f6020820190508181035f83015261861c816185e3565b9050919050565b7f63616e6e6f7420696e636c75646520746f6b656e206164647265737320696e205f8201527f7265666c656374696f6e73000000000000000000000000000000000000000000602082015250565b5f61867d602b836181df565b915061868882618623565b604082019050919050565b5f6020820190508181035f8301526186aa81618671565b9050919050565b7f63616e6e6f7420696e636c7564652070616e63616b65207061697220696e20725f8201527f65666c656374696f6e7300000000000000000000000000000000000000000000602082015250565b5f61870b602a836181df565b9150618716826186b1565b604082019050919050565b5f6020820190508181035f830152618738816186ff565b9050919050565b7f6163636f756e7420697320616c726561647920696e636c7564656420696e20725f8201527f65666c656374696f6e7300000000000000000000000000000000000000000000602082015250565b5f618799602a836181df565b91506187a48261873f565b604082019050919050565b5f6020820190508181035f8301526187c68161878d565b9050919050565b7f4e487b71000000000000000000000000000000000000000000000000000000005f52603260045260245ffd5b7f4e487b71000000000000000000000000000000000000000000000000000000005f52601160045260245ffd5b5f61883182618265565b915061883c83618265565b9250828203905081811115618854576188536187fa565b5b92915050565b7f4e487b71000000000000000000000000000000000000000000000000000000005f52603160045260245ffd5b7f4e487b71000000000000000000000000000000000000000000000000000000005f52602260045260245ffd5b5f60028204905060018216806188cb57607f821691505b6020821081036188de576188dd618887565b5b50919050565b7f43616c6c6572206973206e6f742074686520657865637574697665206d616e615f8201527f6765720000000000000000000000000000000000000000000000000000000000602082015250565b5f61893e6023836181df565b9150618949826188e4565b604082019050919050565b5f6020820190508181035f83015261896b81618932565b9050919050565b7f63616e6e6f7420696e636c75646520746f6b656e206164647265737320696e205f8201527f6665657300000000000000000000000000000000000000000000000000000000602082015250565b5f6189cc6024836181df565b91506189d782618972565b604082019050919050565b5f6020820190508181035f8301526189f9816189c0565b9050919050565b7f63616e6e6f7420696e636c7564652064656164206164647265737320696e20665f8201527f6565730000000000000000000000000000000000000000000000000000000000602082015250565b5f618a5a6023836181df565b9150618a6582618a00565b604082019050919050565b5f6020820190508181035f830152618a8781618a4e565b9050919050565b5f618a9882618265565b9150618aa383618265565b9250828201905080821115618abb57618aba6187fa565b5b92915050565b7f746f74616c2062757920666565732063616e6e6f7420657863656564203230005f82015250565b5f618af5601f836181df565b9150618b0082618ac1565b602082019050919050565b5f6020820190508181035f830152618b2281618ae9565b9050919050565b7f6163636f756e7420697320616c7265616479206578636c756465642066726f6d5f8201527f207265666c656374696f6e730000000000000000000000000000000000000000602082015250565b5f618b83602c836181df565b9150618b8e82618b29565b604082019050919050565b5f6020820190508181035f830152618bb081618b77565b9050919050565b7f63616e6e6f7420696e636c7564652064656164206164647265737320696e20725f8201527f65666c656374696f6e7300000000000000000000000000000000000000000000602082015250565b5f618c11602a836181df565b9150618c1c82618bb7565b604082019050919050565b5f6020820190508181035f830152618c3e81618c05565b9050919050565b7f4163636f756e7420697320616c72656164792061206d616e61676572000000005f82015250565b5f618c79601c836181df565b9150618c8482618c45565b602082019050919050565b5f6020820190508181035f830152618ca681618c6d565b9050919050565b7f3020616464726573732063616e6e6f74206265206d616465206d616e616765725f82015250565b5f618ce16020836181df565b9150618cec82618cad565b602082019050919050565b5f6020820190508181035f830152618d0e81618cd5565b9050919050565b7f66656573206d75737420626520656e61626c656420746f20656e61626c6520615f8201527f75746f20666565206c6971756966790000000000000000000000000000000000602082015250565b5f618d6f602f836181df565b9150618d7a82618d15565b604082019050919050565b5f6020820190508181035f830152618d9c81618d63565b9050919050565b7f4d616e6167657220697320616c726561647920746865206578656375746976655f82015250565b5f618dd76020836181df565b9150618de282618da3565b602082019050919050565b5f6020820190508181035f830152618e0481618dcb565b9050919050565b7f6164647265737320697320616c7265616479206e6f742061206d616e6167656d5f8201527f656e742066656573207265636965766572000000000000000000000000000000602082015250565b5f618e656031836181df565b9150618e7082618e0b565b604082019050919050565b5f6020820190508181035f830152618e9281618e59565b9050919050565b7f6175746f206c69717569667920666163746f722063616e6e6f742065636565645f8201527f2031303000000000000000000000000000000000000000000000000000000000602082015250565b5f618ef36024836181df565b9150618efe82618e99565b604082019050919050565b5f6020820190508181035f830152618f2081618ee7565b9050919050565b7f63616e6e6f7420696e636c75646520746f6b656e206164647265737320696e205f8201527f6c696d6974730000000000000000000000000000000000000000000000000000602082015250565b5f618f816026836181df565b9150618f8c82618f27565b604082019050919050565b5f6020820190508181035f830152618fae81618f75565b9050919050565b7f63616e6e6f7420696e636c7564652064656164206164647265737320696e206c5f8201527f696d697473000000000000000000000000000000000000000000000000000000602082015250565b5f61900f6025836181df565b915061901a82618fb5565b604082019050919050565b5f6020820190508181035f83015261903c81619003565b9050919050565b7f6175746f206275796261636b20666163746f722063616e6e6f742065786365655f8201527f6420313030000000000000000000000000000000000000000000000000000000602082015250565b5f61909d6025836181df565b91506190a882619043565b604082019050919050565b5f6020820190508181035f8301526190ca81619091565b9050919050565b7f6d6178207472616e7366657220616d6f756e742063616e6e6f742065786365655f8201527f6420746f6b656e20737570706c79000000000000000000000000000000000000602082015250565b5f61912b602e836181df565b9150619136826190d1565b604082019050919050565b5f6020820190508181035f8301526191588161911f565b9050919050565b7f746f74616c2073656c6c20666565732063616e6e6f74206578636565642032305f82015250565b5f6191936020836181df565b915061919e8261915f565b602082019050919050565b5f6020820190508181035f8301526191c081619187565b9050919050565b7f4163636f756e7420697320616c7265616479206e6f742061206d616e616765725f82015250565b5f6191fb6020836181df565b9150619206826191c7565b602082019050919050565b5f6020820190508181035f830152619228816191ef565b9050919050565b7f457865637574697665206d616e616765722063616e6e6f742062652072656d6f5f8201527f7665640000000000000000000000000000000000000000000000000000000000602082015250565b5f6192896023836181df565b91506192948261922f565b604082019050919050565b5f6020820190508181035f8301526192b68161927d565b9050919050565b7f6164647265737320697320616c72656164792061206d616e6167656d656e74205f8201527f6665657320726563696576657200000000000000000000000000000000000000602082015250565b5f619317602d836181df565b9150619322826192bd565b604082019050919050565b5f6020820190508181035f8301526193448161930b565b9050919050565b7f6d6178206e756d626572206f66206d616e6167656d656e7420666565732072655f8201527f6369657665727320616c72656164792072656163686564000000000000000000602082015250565b5f6193a56037836181df565b91506193b08261934b565b604082019050919050565b5f6020820190508181035f8301526193d281619399565b9050919050565b7f6175746f207265696e6a65637420666163746f722063616e6e6f7420657863655f8201527f6564203130300000000000000000000000000000000000000000000000000000602082015250565b5f6194336026836181df565b915061943e826193d9565b604082019050919050565b5f6020820190508181035f83015261946081619427565b9050919050565b7f63616e6e6f7420617070726f766520616c6c776f616e63652066726f6d2074685f8201527f65207a65726f2061646472657373000000000000000000000000000000000000602082015250565b5f6194c1602e836181df565b91506194cc82619467565b604082019050919050565b5f6020820190508181035f8301526194ee816194b5565b9050919050565b7f63616e6e6f7420617070726f766520616c6c776f616e636520746f20746865205f8201527f7a65726f20616464726573730000000000000000000000000000000000000000602082015250565b5f61954f602c836181df565b915061955a826194f5565b604082019050919050565b5f6020820190508181035f83015261957c81619543565b9050919050565b7f63616e6e6f74207472616e7366657220746f6b656e732066726f6d206f7220745f8201527f6f20746865207a65726f20616464726573730000000000000000000000000000602082015250565b5f6195dd6032836181df565b91506195e882619583565b604082019050919050565b5f6020820190508181035f83015261960a816195d1565b9050919050565b7f7472616e7366657220616d6f756e742065786365656473207472616e736163745f8201527f696f6e206c696d69740000000000000000000000000000000000000000000000602082015250565b5f61966b6029836181df565b915061967682619611565b604082019050919050565b5f6020820190508181035f8301526196988161965f565b9050919050565b7f696e737566666963656e742066726f6d206163636f756e7420746f6b656e20625f8201527f616c616e63650000000000000000000000000000000000000000000000000000602082015250565b5f6196f96026836181df565b91506197048261969f565b604082019050919050565b5f6020820190508181035f830152619726816196ed565b9050919050565b7f6469766973696f6e206279207a65726f000000000000000000000000000000005f82015250565b5f6197616010836181df565b915061976c8261972d565b602082019050919050565b5f6020820190508181035f83015261978e81619755565b9050919050565b7f4e487b71000000000000000000000000000000000000000000000000000000005f52601260045260245ffd5b5f6197cc82618265565b91506197d783618265565b9250826197e7576197e6619795565b5b828204905092915050565b7f6164646974696f6e206f766572666c6f770000000000000000000000000000005f82015250565b5f6198266011836181df565b9150619831826197f2565b602082019050919050565b5f6020820190508181035f8301526198538161981a565b9050919050565b7f7265696e6a65637420666163746f722063616e6e6f74206578636565642031305f8201527f3000000000000000000000000000000000000000000000000000000000000000602082015250565b5f6198b46021836181df565b91506198bf8261985a565b604082019050919050565b5f6020820190508181035f8301526198e1816198a8565b9050919050565b5f6198f2826183f8565b9050919050565b619902816198e8565b82525050565b5f819050919050565b5f61992b61992661992184619908565b6183ce565b618265565b9050919050565b61993b81619911565b82525050565b5f60c0820190506199545f8301896198f9565b619961602083018861826e565b61996e6040830187619932565b61997b6060830186619932565b61998860808301856198f9565b61999560a083018461826e565b979650505050505050565b5f815190506199ae81618296565b92915050565b5f805f606084860312156199cb576199ca618119565b5b5f6199d8868287016199a0565b93505060206199e9868287016199a0565b92505060406199fa868287016199a0565b9150509250925092565b7f6275796261636b20666163746f722063616e6e6f7420657863656564203130305f82015250565b5f619a386020836181df565b9150619a4382619a04565b602082019050919050565b5f6020820190508181035f830152619a6581619a2c565b9050919050565b7f4e487b71000000000000000000000000000000000000000000000000000000005f52604160045260245ffd5b5f81519050619aa78161814d565b92915050565b5f60208284031215619ac257619ac1618119565b5b5f619acf84828501619a99565b91505092915050565b5f81519050919050565b5f82825260208201905092915050565b5f819050602082019050919050565b619b0a8161813c565b82525050565b5f619b1b8383619b01565b60208301905092915050565b5f602082019050919050565b5f619b3d82619ad8565b619b478185619ae2565b9350619b5283619af2565b805f5b83811015619b82578151619b698882619b10565b9750619b7483619b27565b925050600181019050619b55565b5085935050505092915050565b5f608082019050619ba25f830187619932565b8181036020830152619bb48186619b33565b9050619bc360408301856184b4565b619bd0606083018461826e565b95945050505050565b5f604082019050619bec5f83018561826e565b8181036020830152619bfe8184619b33565b90509392505050565b7f6c69717569667920666163746f722063616e6e6f7420657863656564203130305f82015250565b5f619c3b6020836181df565b9150619c4682619c07565b602082019050919050565b5f6020820190508181035f830152619c6881619c2f565b9050919050565b5f60a082019050619c825f83018861826e565b619c8f6020830187619932565b8181036040830152619ca18186619b33565b9050619cb060608301856198f9565b619cbd608083018461826e565b9695505050505050565b5f619cd182618265565b9150619cdc83618265565b9250828202619cea81618265565b91508282048414831517619d0157619d006187fa565b5b5092915050565b7f6d756c7469706c69636174696f6e206f766572666c6f770000000000000000005f82015250565b5f619d3c6017836181df565b9150619d4782619d08565b602082019050919050565b5f6020820190508181035f830152619d6981619d30565b905091905056fe7472616e7366657220616d6f756e742065786365656473207370656e646572277320616c6c6f77616e6365a26469706673582212202e65d5cdfce5a9fb718f49987c79a0d0739aa0b9f7fd4f17d2a227e746dd9c8264736f6c634300081a0033",
			"opcodes": "PUSH1 0x80 PUSH1 0x40 MSTORE PUSH0 PUSH1 0x5 PUSH0 PUSH2 0x100 EXP DUP2 SLOAD DUP2 PUSH1 0xFF MUL NOT AND SWAP1 DUP4 ISZERO ISZERO MUL OR SWAP1 SSTORE POP PUSH0 PUSH1 0x6 SSTORE PUSH1 0x40 MLOAD DUP1 PUSH1 0x40 ADD PUSH1 0x40 MSTORE DUP1 PUSH1 0xD DUP2 MSTORE PUSH1 0x20 ADD PUSH32 0x57726170706564204E6578546F00000000000000000000000000000000000000 DUP2 MSTORE POP PUSH1 0x7 SWAP1 DUP2 PUSH2 0x65 SWAP2 SWAP1 PUSH2 0x1308 JUMP JUMPDEST POP PUSH1 0x40 MLOAD DUP1 PUSH1 0x40 ADD PUSH1 0x40 MSTORE DUP1 PUSH1 0x4 DUP2 MSTORE PUSH1 0x20 ADD PUSH32 0x774E585400000000000000000000000000000000000000000000000000000000 DUP2 MSTORE POP PUSH1 0x8 SWAP1 DUP2 PUSH2 0xAA SWAP2 SWAP1 PUSH2 0x1308 JUMP JUMPDEST POP PUSH1 0x3 PUSH1 0x9 PUSH0 PUSH2 0x100 EXP DUP2 SLOAD DUP2 PUSH1 0xFF MUL NOT AND SWAP1 DUP4 PUSH1 0xFF AND MUL OR SWAP1 SSTORE POP PUSH1 0x9 PUSH0 SWAP1 SLOAD SWAP1 PUSH2 0x100 EXP SWAP1 DIV PUSH1 0xFF AND PUSH1 0xA PUSH2 0xE1 SWAP2 SWAP1 PUSH2 0x153F JUMP JUMPDEST PUSH4 0x1DCD6500 PUSH2 0xF0 SWAP2 SWAP1 PUSH2 0x1589 JUMP JUMPDEST PUSH1 0xA SSTORE PUSH0 PUSH1 0xD PUSH0 PUSH2 0x100 EXP DUP2 SLOAD DUP2 PUSH1 0xFF MUL NOT AND SWAP1 DUP4 ISZERO ISZERO MUL OR SWAP1 SSTORE POP PUSH2 0x134 PUSH1 0x64 PUSH2 0x126 PUSH1 0xA DUP1 SLOAD PUSH2 0xF9A PUSH1 0x20 SHL SWAP1 SWAP2 SWAP1 PUSH1 0x20 SHR JUMP JUMPDEST PUSH2 0x101C PUSH1 0x20 SHL SWAP1 SWAP2 SWAP1 PUSH1 0x20 SHR JUMP JUMPDEST PUSH1 0xF SSTORE PUSH1 0xA SLOAD PUSH0 NOT PUSH2 0x146 SWAP2 SWAP1 PUSH2 0x15F7 JUMP JUMPDEST PUSH0 NOT PUSH2 0x152 SWAP2 SWAP1 PUSH2 0x1627 JUMP JUMPDEST PUSH1 0x13 SSTORE PUSH0 PUSH1 0x14 PUSH0 PUSH2 0x100 EXP DUP2 SLOAD DUP2 PUSH1 0xFF MUL NOT AND SWAP1 DUP4 ISZERO ISZERO MUL OR SWAP1 SSTORE POP PUSH1 0x3 PUSH1 0x16 SSTORE PUSH1 0x8 PUSH1 0x17 SSTORE PUSH1 0x4 PUSH1 0x18 SSTORE PUSH1 0x5 PUSH1 0x19 SSTORE PUSH1 0xA PUSH1 0x1A SSTORE PUSH1 0x5 PUSH1 0x1B SSTORE PUSH1 0x18 SLOAD PUSH1 0x17 SLOAD PUSH1 0x16 SLOAD PUSH2 0x19F SWAP2 SWAP1 PUSH2 0x165A JUMP JUMPDEST PUSH2 0x1A9 SWAP2 SWAP1 PUSH2 0x165A JUMP JUMPDEST PUSH1 0x1C SSTORE PUSH1 0x1B SLOAD PUSH1 0x1A SLOAD PUSH1 0x19 SLOAD PUSH2 0x1BF SWAP2 SWAP1 PUSH2 0x165A JUMP JUMPDEST PUSH2 0x1C9 SWAP2 SWAP1 PUSH2 0x165A JUMP JUMPDEST PUSH1 0x1D SSTORE PUSH1 0x5 PUSH1 0x22 SSTORE PUSH0 PUSH1 0x23 PUSH0 PUSH2 0x100 EXP DUP2 SLOAD DUP2 PUSH1 0xFF MUL NOT AND SWAP1 DUP4 ISZERO ISZERO MUL OR SWAP1 SSTORE POP PUSH1 0x9 PUSH0 SWAP1 SLOAD SWAP1 PUSH2 0x100 EXP SWAP1 DIV PUSH1 0xFF AND PUSH1 0xA PUSH2 0x205 SWAP2 SWAP1 PUSH2 0x153F JUMP JUMPDEST PUSH4 0x3473BC0 PUSH2 0x214 SWAP2 SWAP1 PUSH2 0x1589 JUMP JUMPDEST PUSH1 0x24 SSTORE PUSH1 0xA PUSH1 0x25 SSTORE PUSH0 PUSH1 0x26 PUSH0 PUSH2 0x100 EXP DUP2 SLOAD DUP2 PUSH1 0xFF MUL NOT AND SWAP1 DUP4 ISZERO ISZERO MUL OR SWAP1 SSTORE POP PUSH0 PUSH1 0x27 SSTORE PUSH0 PUSH1 0x28 SSTORE PUSH1 0x28 SLOAD PUSH1 0x27 SLOAD PUSH2 0x24D SWAP2 SWAP1 PUSH2 0x165A JUMP JUMPDEST PUSH1 0x29 SSTORE PUSH2 0xDEAD PUSH1 0x2A PUSH0 PUSH2 0x100 EXP DUP2 SLOAD DUP2 PUSH20 0xFFFFFFFFFFFFFFFFFFFFFFFFFFFFFFFFFFFFFFFF MUL NOT AND SWAP1 DUP4 PUSH20 0xFFFFFFFFFFFFFFFFFFFFFFFFFFFFFFFFFFFFFFFF AND MUL OR SWAP1 SSTORE POP PUSH0 PUSH1 0x2A PUSH1 0x14 PUSH2 0x100 EXP DUP2 SLOAD DUP2 PUSH1 0xFF MUL NOT AND SWAP1 DUP4 ISZERO ISZERO MUL OR SWAP1 SSTORE POP PUSH8 0x6F05B59D3B20000 PUSH1 0x2B SSTORE PUSH1 0x2 PUSH1 0x2C SSTORE PUSH0 PUSH1 0x2D PUSH0 PUSH2 0x100 EXP DUP2 SLOAD DUP2 PUSH1 0xFF MUL NOT AND SWAP1 DUP4 ISZERO ISZERO MUL OR SWAP1 SSTORE POP PUSH9 0x6C6B935B8BBD40000 PUSH1 0x2E SSTORE PUSH1 0x1 PUSH1 0x2F SSTORE CALLVALUE DUP1 ISZERO PUSH2 0x2F3 JUMPI PUSH0 DUP1 REVERT JUMPDEST POP PUSH1 0x40 MLOAD PUSH2 0xB6CD CODESIZE SUB DUP1 PUSH2 0xB6CD DUP4 CODECOPY DUP2 DUP2 ADD PUSH1 0x40 MSTORE DUP2 ADD SWAP1 PUSH2 0x315 SWAP2 SWAP1 PUSH2 0x16EB JUMP JUMPDEST ADDRESS PUSH0 DUP1 PUSH2 0x100 EXP DUP2 SLOAD DUP2 PUSH20 0xFFFFFFFFFFFFFFFFFFFFFFFFFFFFFFFFFFFFFFFF MUL NOT AND SWAP1 DUP4 PUSH20 0xFFFFFFFFFFFFFFFFFFFFFFFFFFFFFFFFFFFFFFFF AND MUL OR SWAP1 SSTORE POP CALLER PUSH1 0x1 PUSH0 PUSH2 0x100 EXP DUP2 SLOAD DUP2 PUSH20 0xFFFFFFFFFFFFFFFFFFFFFFFFFFFFFFFFFFFFFFFF MUL NOT AND SWAP1 DUP4 PUSH20 0xFFFFFFFFFFFFFFFFFFFFFFFFFFFFFFFFFFFFFFFF AND MUL OR SWAP1 SSTORE POP PUSH32 0x25D9C25C4014ADBEF864B5BC072BA78529DA598BA3A6AF58BD86C0038CFA8873 PUSH0 DUP1 SLOAD SWAP1 PUSH2 0x100 EXP SWAP1 DIV PUSH20 0xFFFFFFFFFFFFFFFFFFFFFFFFFFFFFFFFFFFFFFFF AND PUSH1 0x1 PUSH0 SWAP1 SLOAD SWAP1 PUSH2 0x100 EXP SWAP1 DIV PUSH20 0xFFFFFFFFFFFFFFFFFFFFFFFFFFFFFFFFFFFFFFFF AND PUSH1 0x40 MLOAD PUSH2 0x405 SWAP3 SWAP2 SWAP1 PUSH2 0x1777 JUMP JUMPDEST PUSH1 0x40 MLOAD DUP1 SWAP2 SUB SWAP1 LOG1 PUSH2 0x41B PUSH2 0x1078 PUSH1 0x20 SHL PUSH1 0x20 SHR JUMP JUMPDEST PUSH1 0x2 PUSH0 PUSH2 0x100 EXP DUP2 SLOAD DUP2 PUSH20 0xFFFFFFFFFFFFFFFFFFFFFFFFFFFFFFFFFFFFFFFF MUL NOT AND SWAP1 DUP4 PUSH20 0xFFFFFFFFFFFFFFFFFFFFFFFFFFFFFFFFFFFFFFFF AND MUL OR SWAP1 SSTORE POP PUSH1 0x1 PUSH1 0x3 PUSH0 PUSH1 0x2 PUSH0 SWAP1 SLOAD SWAP1 PUSH2 0x100 EXP SWAP1 DIV PUSH20 0xFFFFFFFFFFFFFFFFFFFFFFFFFFFFFFFFFFFFFFFF AND PUSH20 0xFFFFFFFFFFFFFFFFFFFFFFFFFFFFFFFFFFFFFFFF AND PUSH20 0xFFFFFFFFFFFFFFFFFFFFFFFFFFFFFFFFFFFFFFFF AND DUP2 MSTORE PUSH1 0x20 ADD SWAP1 DUP2 MSTORE PUSH1 0x20 ADD PUSH0 KECCAK256 PUSH0 PUSH2 0x100 EXP DUP2 SLOAD DUP2 PUSH1 0xFF MUL NOT AND SWAP1 DUP4 ISZERO ISZERO MUL OR SWAP1 SSTORE POP PUSH1 0x4 PUSH1 0x2 PUSH0 SWAP1 SLOAD SWAP1 PUSH2 0x100 EXP SWAP1 DIV PUSH20 0xFFFFFFFFFFFFFFFFFFFFFFFFFFFFFFFFFFFFFFFF AND SWAP1 DUP1 PUSH1 0x1 DUP2 SLOAD ADD DUP1 DUP3 SSTORE DUP1 SWAP2 POP POP PUSH1 0x1 SWAP1 SUB SWAP1 PUSH0 MSTORE PUSH1 0x20 PUSH0 KECCAK256 ADD PUSH0 SWAP1 SWAP2 SWAP1 SWAP2 SWAP1 SWAP2 PUSH2 0x100 EXP DUP2 SLOAD DUP2 PUSH20 0xFFFFFFFFFFFFFFFFFFFFFFFFFFFFFFFFFFFFFFFF MUL NOT AND SWAP1 DUP4 PUSH20 0xFFFFFFFFFFFFFFFFFFFFFFFFFFFFFFFFFFFFFFFF AND MUL OR SWAP1 SSTORE POP PUSH32 0x3B4A40CCCF2058C593542587329DD385BE4F0B588DB5471FBD9598E56DD7093A PUSH1 0x2 PUSH0 SWAP1 SLOAD SWAP1 PUSH2 0x100 EXP SWAP1 DIV PUSH20 0xFFFFFFFFFFFFFFFFFFFFFFFFFFFFFFFFFFFFFFFF AND PUSH1 0x40 MLOAD PUSH2 0x5A1 SWAP2 SWAP1 PUSH2 0x179E JUMP JUMPDEST PUSH1 0x40 MLOAD DUP1 SWAP2 SUB SWAP1 LOG1 PUSH1 0x2 PUSH0 SWAP1 SLOAD SWAP1 PUSH2 0x100 EXP SWAP1 DIV PUSH20 0xFFFFFFFFFFFFFFFFFFFFFFFFFFFFFFFFFFFFFFFF AND PUSH20 0xFFFFFFFFFFFFFFFFFFFFFFFFFFFFFFFFFFFFFFFF AND PUSH0 PUSH20 0xFFFFFFFFFFFFFFFFFFFFFFFFFFFFFFFFFFFFFFFF AND PUSH32 0x673A58B10C6459336F2ACBF0E261B33A424C335800064DCCE68AEA56343404C5 PUSH1 0x40 MLOAD PUSH1 0x40 MLOAD DUP1 SWAP2 SUB SWAP1 LOG3 DUP1 PUSH1 0x1E PUSH0 PUSH2 0x100 EXP DUP2 SLOAD DUP2 PUSH20 0xFFFFFFFFFFFFFFFFFFFFFFFFFFFFFFFFFFFFFFFF MUL NOT AND SWAP1 DUP4 PUSH20 0xFFFFFFFFFFFFFFFFFFFFFFFFFFFFFFFFFFFFFFFF AND MUL OR SWAP1 SSTORE POP PUSH1 0x1E PUSH0 SWAP1 SLOAD SWAP1 PUSH2 0x100 EXP SWAP1 DIV PUSH20 0xFFFFFFFFFFFFFFFFFFFFFFFFFFFFFFFFFFFFFFFF AND PUSH20 0xFFFFFFFFFFFFFFFFFFFFFFFFFFFFFFFFFFFFFFFF AND PUSH4 0xC45A0155 PUSH1 0x40 MLOAD DUP2 PUSH4 0xFFFFFFFF AND PUSH1 0xE0 SHL DUP2 MSTORE PUSH1 0x4 ADD PUSH1 0x20 PUSH1 0x40 MLOAD DUP1 DUP4 SUB DUP2 DUP7 GAS STATICCALL ISZERO DUP1 ISZERO PUSH2 0x6CE JUMPI RETURNDATASIZE PUSH0 DUP1 RETURNDATACOPY RETURNDATASIZE PUSH0 REVERT JUMPDEST POP POP POP POP PUSH1 0x40 MLOAD RETURNDATASIZE PUSH1 0x1F NOT PUSH1 0x1F DUP3 ADD AND DUP3 ADD DUP1 PUSH1 0x40 MSTORE POP DUP2 ADD SWAP1 PUSH2 0x6F2 SWAP2 SWAP1 PUSH2 0x16EB JUMP JUMPDEST PUSH20 0xFFFFFFFFFFFFFFFFFFFFFFFFFFFFFFFFFFFFFFFF AND PUSH4 0xC9C65396 PUSH2 0x71B PUSH2 0x10A0 PUSH1 0x20 SHL PUSH1 0x20 SHR JUMP JUMPDEST PUSH1 0x1E PUSH0 SWAP1 SLOAD SWAP1 PUSH2 0x100 EXP SWAP1 DIV PUSH20 0xFFFFFFFFFFFFFFFFFFFFFFFFFFFFFFFFFFFFFFFF AND PUSH20 0xFFFFFFFFFFFFFFFFFFFFFFFFFFFFFFFFFFFFFFFF AND PUSH4 0xAD5C4648 PUSH1 0x40 MLOAD DUP2 PUSH4 0xFFFFFFFF AND PUSH1 0xE0 SHL DUP2 MSTORE PUSH1 0x4 ADD PUSH1 0x20 PUSH1 0x40 MLOAD DUP1 DUP4 SUB DUP2 DUP7 GAS STATICCALL ISZERO DUP1 ISZERO PUSH2 0x785 JUMPI RETURNDATASIZE PUSH0 DUP1 RETURNDATACOPY RETURNDATASIZE PUSH0 REVERT JUMPDEST POP POP POP POP PUSH1 0x40 MLOAD RETURNDATASIZE PUSH1 0x1F NOT PUSH1 0x1F DUP3 ADD AND DUP3 ADD DUP1 PUSH1 0x40 MSTORE POP DUP2 ADD SWAP1 PUSH2 0x7A9 SWAP2 SWAP1 PUSH2 0x16EB JUMP JUMPDEST PUSH1 0x40 MLOAD DUP4 PUSH4 0xFFFFFFFF AND PUSH1 0xE0 SHL DUP2 MSTORE PUSH1 0x4 ADD PUSH2 0x7C6 SWAP3 SWAP2 SWAP1 PUSH2 0x1777 JUMP JUMPDEST PUSH1 0x20 PUSH1 0x40 MLOAD DUP1 DUP4 SUB DUP2 PUSH0 DUP8 GAS CALL ISZERO DUP1 ISZERO PUSH2 0x7E2 JUMPI RETURNDATASIZE PUSH0 DUP1 RETURNDATACOPY RETURNDATASIZE PUSH0 REVERT JUMPDEST POP POP POP POP PUSH1 0x40 MLOAD RETURNDATASIZE PUSH1 0x1F NOT PUSH1 0x1F DUP3 ADD AND DUP3 ADD DUP1 PUSH1 0x40 MSTORE POP DUP2 ADD SWAP1 PUSH2 0x806 SWAP2 SWAP1 PUSH2 0x16EB JUMP JUMPDEST PUSH1 0x1F PUSH0 PUSH2 0x100 EXP DUP2 SLOAD DUP2 PUSH20 0xFFFFFFFFFFFFFFFFFFFFFFFFFFFFFFFFFFFFFFFF MUL NOT AND SWAP1 DUP4 PUSH20 0xFFFFFFFFFFFFFFFFFFFFFFFFFFFFFFFFFFFFFFFF AND MUL OR SWAP1 SSTORE POP PUSH1 0x1 PUSH1 0x10 PUSH0 PUSH1 0x1F PUSH0 SWAP1 SLOAD SWAP1 PUSH2 0x100 EXP SWAP1 DIV PUSH20 0xFFFFFFFFFFFFFFFFFFFFFFFFFFFFFFFFFFFFFFFF AND PUSH20 0xFFFFFFFFFFFFFFFFFFFFFFFFFFFFFFFFFFFFFFFF AND PUSH20 0xFFFFFFFFFFFFFFFFFFFFFFFFFFFFFFFFFFFFFFFF AND DUP2 MSTORE PUSH1 0x20 ADD SWAP1 DUP2 MSTORE PUSH1 0x20 ADD PUSH0 KECCAK256 PUSH0 PUSH2 0x100 EXP DUP2 SLOAD DUP2 PUSH1 0xFF MUL NOT AND SWAP1 DUP4 ISZERO ISZERO MUL OR SWAP1 SSTORE POP PUSH1 0x12 PUSH1 0x1F PUSH0 SWAP1 SLOAD SWAP1 PUSH2 0x100 EXP SWAP1 DIV PUSH20 0xFFFFFFFFFFFFFFFFFFFFFFFFFFFFFFFFFFFFFFFF AND SWAP1 DUP1 PUSH1 0x1 DUP2 SLOAD ADD DUP1 DUP3 SSTORE DUP1 SWAP2 POP POP PUSH1 0x1 SWAP1 SUB SWAP1 PUSH0 MSTORE PUSH1 0x20 PUSH0 KECCAK256 ADD PUSH0 SWAP1 SWAP2 SWAP1 SWAP2 SWAP1 SWAP2 PUSH2 0x100 EXP DUP2 SLOAD DUP2 PUSH20 0xFFFFFFFFFFFFFFFFFFFFFFFFFFFFFFFFFFFFFFFF MUL NOT AND SWAP1 DUP4 PUSH20 0xFFFFFFFFFFFFFFFFFFFFFFFFFFFFFFFFFFFFFFFF AND MUL OR SWAP1 SSTORE POP PUSH1 0x1 PUSH1 0x15 PUSH0 PUSH2 0x94F PUSH2 0x10A0 PUSH1 0x20 SHL PUSH1 0x20 SHR JUMP JUMPDEST PUSH20 0xFFFFFFFFFFFFFFFFFFFFFFFFFFFFFFFFFFFFFFFF AND PUSH20 0xFFFFFFFFFFFFFFFFFFFFFFFFFFFFFFFFFFFFFFFF AND DUP2 MSTORE PUSH1 0x20 ADD SWAP1 DUP2 MSTORE PUSH1 0x20 ADD PUSH0 KECCAK256 PUSH0 PUSH2 0x100 EXP DUP2 SLOAD DUP2 PUSH1 0xFF MUL NOT AND SWAP1 DUP4 ISZERO ISZERO MUL OR SWAP1 SSTORE POP PUSH1 0x1 PUSH1 0xE PUSH0 PUSH2 0x9B1 PUSH2 0x10A0 PUSH1 0x20 SHL PUSH1 0x20 SHR JUMP JUMPDEST PUSH20 0xFFFFFFFFFFFFFFFFFFFFFFFFFFFFFFFFFFFFFFFF AND PUSH20 0xFFFFFFFFFFFFFFFFFFFFFFFFFFFFFFFFFFFFFFFF AND DUP2 MSTORE PUSH1 0x20 ADD SWAP1 DUP2 MSTORE PUSH1 0x20 ADD PUSH0 KECCAK256 PUSH0 PUSH2 0x100 EXP DUP2 SLOAD DUP2 PUSH1 0xFF MUL NOT AND SWAP1 DUP4 ISZERO ISZERO MUL OR SWAP1 SSTORE POP PUSH1 0x1 PUSH1 0x10 PUSH0 PUSH2 0xA13 PUSH2 0x10A0 PUSH1 0x20 SHL PUSH1 0x20 SHR JUMP JUMPDEST PUSH20 0xFFFFFFFFFFFFFFFFFFFFFFFFFFFFFFFFFFFFFFFF AND PUSH20 0xFFFFFFFFFFFFFFFFFFFFFFFFFFFFFFFFFFFFFFFF AND DUP2 MSTORE PUSH1 0x20 ADD SWAP1 DUP2 MSTORE PUSH1 0x20 ADD PUSH0 KECCAK256 PUSH0 PUSH2 0x100 EXP DUP2 SLOAD DUP2 PUSH1 0xFF MUL NOT AND SWAP1 DUP4 ISZERO ISZERO MUL OR SWAP1 SSTORE POP PUSH1 0x12 PUSH2 0xA72 PUSH2 0x10A0 PUSH1 0x20 SHL PUSH1 0x20 SHR JUMP JUMPDEST SWAP1 DUP1 PUSH1 0x1 DUP2 SLOAD ADD DUP1 DUP3 SSTORE DUP1 SWAP2 POP POP PUSH1 0x1 SWAP1 SUB SWAP1 PUSH0 MSTORE PUSH1 0x20 PUSH0 KECCAK256 ADD PUSH0 SWAP1 SWAP2 SWAP1 SWAP2 SWAP1 SWAP2 PUSH2 0x100 EXP DUP2 SLOAD DUP2 PUSH20 0xFFFFFFFFFFFFFFFFFFFFFFFFFFFFFFFFFFFFFFFF MUL NOT AND SWAP1 DUP4 PUSH20 0xFFFFFFFFFFFFFFFFFFFFFFFFFFFFFFFFFFFFFFFF AND MUL OR SWAP1 SSTORE POP PUSH1 0x1 PUSH1 0x15 PUSH0 PUSH1 0x2A PUSH0 SWAP1 SLOAD SWAP1 PUSH2 0x100 EXP SWAP1 DIV PUSH20 0xFFFFFFFFFFFFFFFFFFFFFFFFFFFFFFFFFFFFFFFF AND PUSH20 0xFFFFFFFFFFFFFFFFFFFFFFFFFFFFFFFFFFFFFFFF AND PUSH20 0xFFFFFFFFFFFFFFFFFFFFFFFFFFFFFFFFFFFFFFFF AND DUP2 MSTORE PUSH1 0x20 ADD SWAP1 DUP2 MSTORE PUSH1 0x20 ADD PUSH0 KECCAK256 PUSH0 PUSH2 0x100 EXP DUP2 SLOAD DUP2 PUSH1 0xFF MUL NOT AND SWAP1 DUP4 ISZERO ISZERO MUL OR SWAP1 SSTORE POP PUSH1 0x1 PUSH1 0xE PUSH0 PUSH1 0x2A PUSH0 SWAP1 SLOAD SWAP1 PUSH2 0x100 EXP SWAP1 DIV PUSH20 0xFFFFFFFFFFFFFFFFFFFFFFFFFFFFFFFFFFFFFFFF AND PUSH20 0xFFFFFFFFFFFFFFFFFFFFFFFFFFFFFFFFFFFFFFFF AND PUSH20 0xFFFFFFFFFFFFFFFFFFFFFFFFFFFFFFFFFFFFFFFF AND DUP2 MSTORE PUSH1 0x20 ADD SWAP1 DUP2 MSTORE PUSH1 0x20 ADD PUSH0 KECCAK256 PUSH0 PUSH2 0x100 EXP DUP2 SLOAD DUP2 PUSH1 0xFF MUL NOT AND SWAP1 DUP4 ISZERO ISZERO MUL OR SWAP1 SSTORE POP PUSH1 0x1 PUSH1 0x10 PUSH0 PUSH1 0x2A PUSH0 SWAP1 SLOAD SWAP1 PUSH2 0x100 EXP SWAP1 DIV PUSH20 0xFFFFFFFFFFFFFFFFFFFFFFFFFFFFFFFFFFFFFFFF AND PUSH20 0xFFFFFFFFFFFFFFFFFFFFFFFFFFFFFFFFFFFFFFFF AND PUSH20 0xFFFFFFFFFFFFFFFFFFFFFFFFFFFFFFFFFFFFFFFF AND DUP2 MSTORE PUSH1 0x20 ADD SWAP1 DUP2 MSTORE PUSH1 0x20 ADD PUSH0 KECCAK256 PUSH0 PUSH2 0x100 EXP DUP2 SLOAD DUP2 PUSH1 0xFF MUL NOT AND SWAP1 DUP4 ISZERO ISZERO MUL OR SWAP1 SSTORE POP PUSH1 0x12 PUSH1 0x2A PUSH0 SWAP1 SLOAD SWAP1 PUSH2 0x100 EXP SWAP1 DIV PUSH20 0xFFFFFFFFFFFFFFFFFFFFFFFFFFFFFFFFFFFFFFFF AND SWAP1 DUP1 PUSH1 0x1 DUP2 SLOAD ADD DUP1 DUP3 SSTORE DUP1 SWAP2 POP POP PUSH1 0x1 SWAP1 SUB SWAP1 PUSH0 MSTORE PUSH1 0x20 PUSH0 KECCAK256 ADD PUSH0 SWAP1 SWAP2 SWAP1 SWAP2 SWAP1 SWAP2 PUSH2 0x100 EXP DUP2 SLOAD DUP2 PUSH20 0xFFFFFFFFFFFFFFFFFFFFFFFFFFFFFFFFFFFFFFFF MUL NOT AND SWAP1 DUP4 PUSH20 0xFFFFFFFFFFFFFFFFFFFFFFFFFFFFFFFFFFFFFFFF AND MUL OR SWAP1 SSTORE POP PUSH1 0x1 PUSH1 0x15 PUSH0 PUSH2 0xCC5 PUSH2 0x10C7 PUSH1 0x20 SHL PUSH1 0x20 SHR JUMP JUMPDEST PUSH20 0xFFFFFFFFFFFFFFFFFFFFFFFFFFFFFFFFFFFFFFFF AND PUSH20 0xFFFFFFFFFFFFFFFFFFFFFFFFFFFFFFFFFFFFFFFF AND DUP2 MSTORE PUSH1 0x20 ADD SWAP1 DUP2 MSTORE PUSH1 0x20 ADD PUSH0 KECCAK256 PUSH0 PUSH2 0x100 EXP DUP2 SLOAD DUP2 PUSH1 0xFF MUL NOT AND SWAP1 DUP4 ISZERO ISZERO MUL OR SWAP1 SSTORE POP PUSH1 0x1 PUSH1 0xE PUSH0 PUSH2 0xD27 PUSH2 0x10C7 PUSH1 0x20 SHL PUSH1 0x20 SHR JUMP JUMPDEST PUSH20 0xFFFFFFFFFFFFFFFFFFFFFFFFFFFFFFFFFFFFFFFF AND PUSH20 0xFFFFFFFFFFFFFFFFFFFFFFFFFFFFFFFFFFFFFFFF AND DUP2 MSTORE PUSH1 0x20 ADD SWAP1 DUP2 MSTORE PUSH1 0x20 ADD PUSH0 KECCAK256 PUSH0 PUSH2 0x100 EXP DUP2 SLOAD DUP2 PUSH1 0xFF MUL NOT AND SWAP1 DUP4 ISZERO ISZERO MUL OR SWAP1 SSTORE POP PUSH1 0x1 PUSH1 0x10 PUSH0 PUSH2 0xD89 PUSH2 0x10C7 PUSH1 0x20 SHL PUSH1 0x20 SHR JUMP JUMPDEST PUSH20 0xFFFFFFFFFFFFFFFFFFFFFFFFFFFFFFFFFFFFFFFF AND PUSH20 0xFFFFFFFFFFFFFFFFFFFFFFFFFFFFFFFFFFFFFFFF AND DUP2 MSTORE PUSH1 0x20 ADD SWAP1 DUP2 MSTORE PUSH1 0x20 ADD PUSH0 KECCAK256 PUSH0 PUSH2 0x100 EXP DUP2 SLOAD DUP2 PUSH1 0xFF MUL NOT AND SWAP1 DUP4 ISZERO ISZERO MUL OR SWAP1 SSTORE POP PUSH1 0x12 PUSH2 0xDE8 PUSH2 0x10C7 PUSH1 0x20 SHL PUSH1 0x20 SHR JUMP JUMPDEST SWAP1 DUP1 PUSH1 0x1 DUP2 SLOAD ADD DUP1 DUP3 SSTORE DUP1 SWAP2 POP POP PUSH1 0x1 SWAP1 SUB SWAP1 PUSH0 MSTORE PUSH1 0x20 PUSH0 KECCAK256 ADD PUSH0 SWAP1 SWAP2 SWAP1 SWAP2 SWAP1 SWAP2 PUSH2 0x100 EXP DUP2 SLOAD DUP2 PUSH20 0xFFFFFFFFFFFFFFFFFFFFFFFFFFFFFFFFFFFFFFFF MUL NOT AND SWAP1 DUP4 PUSH20 0xFFFFFFFFFFFFFFFFFFFFFFFFFFFFFFFFFFFFFFFF AND MUL OR SWAP1 SSTORE POP PUSH1 0x13 SLOAD PUSH1 0x11 PUSH0 PUSH2 0xE59 PUSH2 0x10C7 PUSH1 0x20 SHL PUSH1 0x20 SHR JUMP JUMPDEST PUSH20 0xFFFFFFFFFFFFFFFFFFFFFFFFFFFFFFFFFFFFFFFF AND PUSH20 0xFFFFFFFFFFFFFFFFFFFFFFFFFFFFFFFFFFFFFFFF AND DUP2 MSTORE PUSH1 0x20 ADD SWAP1 DUP2 MSTORE PUSH1 0x20 ADD PUSH0 KECCAK256 DUP2 SWAP1 SSTORE POP PUSH1 0xA SLOAD PUSH1 0xB PUSH0 PUSH2 0xEAA PUSH2 0x10C7 PUSH1 0x20 SHL PUSH1 0x20 SHR JUMP JUMPDEST PUSH20 0xFFFFFFFFFFFFFFFFFFFFFFFFFFFFFFFFFFFFFFFF AND PUSH20 0xFFFFFFFFFFFFFFFFFFFFFFFFFFFFFFFFFFFFFFFF AND DUP2 MSTORE PUSH1 0x20 ADD SWAP1 DUP2 MSTORE PUSH1 0x20 ADD PUSH0 KECCAK256 DUP2 SWAP1 SSTORE POP PUSH32 0x2D6D4E863F0FA9C862D9EE858F5F034EAEE470C9210FD90268C80C76702E5042 PUSH1 0xA SLOAD PUSH1 0x40 MLOAD PUSH2 0xF18 SWAP2 SWAP1 PUSH2 0x17C6 JUMP JUMPDEST PUSH1 0x40 MLOAD DUP1 SWAP2 SUB SWAP1 LOG1 PUSH2 0xF2E PUSH2 0x10C7 PUSH1 0x20 SHL PUSH1 0x20 SHR JUMP JUMPDEST PUSH20 0xFFFFFFFFFFFFFFFFFFFFFFFFFFFFFFFFFFFFFFFF AND PUSH0 PUSH20 0xFFFFFFFFFFFFFFFFFFFFFFFFFFFFFFFFFFFFFFFF AND PUSH32 0xDDF252AD1BE2C89B69C2B068FC378DAA952BA7F163C4A11628F55A4DF523B3EF PUSH1 0xA SLOAD PUSH1 0x40 MLOAD PUSH2 0xF8C SWAP2 SWAP1 PUSH2 0x17C6 JUMP JUMPDEST PUSH1 0x40 MLOAD DUP1 SWAP2 SUB SWAP1 LOG3 POP PUSH2 0x18EF JUMP JUMPDEST PUSH0 DUP1 DUP4 EQ DUP1 PUSH2 0xFA8 JUMPI POP PUSH0 DUP3 EQ JUMPDEST ISZERO PUSH2 0xFB5 JUMPI PUSH0 SWAP1 POP PUSH2 0x1016 JUMP JUMPDEST PUSH0 DUP3 DUP5 PUSH2 0xFC2 SWAP2 SWAP1 PUSH2 0x1589 JUMP JUMPDEST SWAP1 POP DUP3 DUP5 DUP3 PUSH2 0xFD1 SWAP2 SWAP1 PUSH2 0x17DF JUMP JUMPDEST EQ PUSH2 0x1011 JUMPI PUSH1 0x40 MLOAD PUSH32 0x8C379A000000000000000000000000000000000000000000000000000000000 DUP2 MSTORE PUSH1 0x4 ADD PUSH2 0x1008 SWAP1 PUSH2 0x1869 JUMP JUMPDEST PUSH1 0x40 MLOAD DUP1 SWAP2 SUB SWAP1 REVERT JUMPDEST DUP1 SWAP2 POP POP JUMPDEST SWAP3 SWAP2 POP POP JUMP JUMPDEST PUSH0 DUP1 DUP3 GT PUSH2 0x105F JUMPI PUSH1 0x40 MLOAD PUSH32 0x8C379A000000000000000000000000000000000000000000000000000000000 DUP2 MSTORE PUSH1 0x4 ADD PUSH2 0x1056 SWAP1 PUSH2 0x18D1 JUMP JUMPDEST PUSH1 0x40 MLOAD DUP1 SWAP2 SUB SWAP1 REVERT JUMPDEST PUSH0 DUP3 DUP5 PUSH2 0x106C SWAP2 SWAP1 PUSH2 0x17DF JUMP JUMPDEST SWAP1 POP DUP1 SWAP2 POP POP SWAP3 SWAP2 POP POP JUMP JUMPDEST PUSH0 PUSH1 0x1 PUSH0 SWAP1 SLOAD SWAP1 PUSH2 0x100 EXP SWAP1 DIV PUSH20 0xFFFFFFFFFFFFFFFFFFFFFFFFFFFFFFFFFFFFFFFF AND SWAP1 POP SWAP1 JUMP JUMPDEST PUSH0 DUP1 PUSH0 SWAP1 SLOAD SWAP1 PUSH2 0x100 EXP SWAP1 DIV PUSH20 0xFFFFFFFFFFFFFFFFFFFFFFFFFFFFFFFFFFFFFFFF AND SWAP1 POP SWAP1 JUMP JUMPDEST PUSH0 CALLER SWAP1 POP SWAP1 JUMP JUMPDEST PUSH0 DUP2 MLOAD SWAP1 POP SWAP2 SWAP1 POP JUMP JUMPDEST PUSH32 0x4E487B7100000000000000000000000000000000000000000000000000000000 PUSH0 MSTORE PUSH1 0x41 PUSH1 0x4 MSTORE PUSH1 0x24 PUSH0 REVERT JUMPDEST PUSH32 0x4E487B7100000000000000000000000000000000000000000000000000000000 PUSH0 MSTORE PUSH1 0x22 PUSH1 0x4 MSTORE PUSH1 0x24 PUSH0 REVERT JUMPDEST PUSH0 PUSH1 0x2 DUP3 DIV SWAP1 POP PUSH1 0x1 DUP3 AND DUP1 PUSH2 0x1149 JUMPI PUSH1 0x7F DUP3 AND SWAP2 POP JUMPDEST PUSH1 0x20 DUP3 LT DUP2 SUB PUSH2 0x115C JUMPI PUSH2 0x115B PUSH2 0x1105 JUMP JUMPDEST JUMPDEST POP SWAP2 SWAP1 POP JUMP JUMPDEST PUSH0 DUP2 SWAP1 POP DUP2 PUSH0 MSTORE PUSH1 0x20 PUSH0 KECCAK256 SWAP1 POP SWAP2 SWAP1 POP JUMP JUMPDEST PUSH0 PUSH1 0x20 PUSH1 0x1F DUP4 ADD DIV SWAP1 POP SWAP2 SWAP1 POP JUMP JUMPDEST PUSH0 DUP3 DUP3 SHL SWAP1 POP SWAP3 SWAP2 POP POP JUMP JUMPDEST PUSH0 PUSH1 0x8 DUP4 MUL PUSH2 0x11BE PUSH32 0xFFFFFFFFFFFFFFFFFFFFFFFFFFFFFFFFFFFFFFFFFFFFFFFFFFFFFFFFFFFFFFFF DUP3 PUSH2 0x1183 JUMP JUMPDEST PUSH2 0x11C8 DUP7 DUP4 PUSH2 0x1183 JUMP JUMPDEST SWAP6 POP DUP1 NOT DUP5 AND SWAP4 POP DUP1 DUP7 AND DUP5 OR SWAP3 POP POP POP SWAP4 SWAP3 POP POP POP JUMP JUMPDEST PUSH0 DUP2 SWAP1 POP SWAP2 SWAP1 POP JUMP JUMPDEST PUSH0 DUP2 SWAP1 POP SWAP2 SWAP1 POP JUMP JUMPDEST PUSH0 PUSH2 0x120C PUSH2 0x1207 PUSH2 0x1202 DUP5 PUSH2 0x11E0 JUMP JUMPDEST PUSH2 0x11E9 JUMP JUMPDEST PUSH2 0x11E0 JUMP JUMPDEST SWAP1 POP SWAP2 SWAP1 POP JUMP JUMPDEST PUSH0 DUP2 SWAP1 POP SWAP2 SWAP1 POP JUMP JUMPDEST PUSH2 0x1225 DUP4 PUSH2 0x11F2 JUMP JUMPDEST PUSH2 0x1239 PUSH2 0x1231 DUP3 PUSH2 0x1213 JUMP JUMPDEST DUP5 DUP5 SLOAD PUSH2 0x118F JUMP JUMPDEST DUP3 SSTORE POP POP POP POP JUMP JUMPDEST PUSH0 SWAP1 JUMP JUMPDEST PUSH2 0x124D PUSH2 0x1241 JUMP JUMPDEST PUSH2 0x1258 DUP2 DUP5 DUP5 PUSH2 0x121C JUMP JUMPDEST POP POP POP JUMP JUMPDEST JUMPDEST DUP2 DUP2 LT ISZERO PUSH2 0x127B JUMPI PUSH2 0x1270 PUSH0 DUP3 PUSH2 0x1245 JUMP JUMPDEST PUSH1 0x1 DUP2 ADD SWAP1 POP PUSH2 0x125E JUMP JUMPDEST POP POP JUMP JUMPDEST PUSH1 0x1F DUP3 GT ISZERO PUSH2 0x12C0 JUMPI PUSH2 0x1291 DUP2 PUSH2 0x1162 JUMP JUMPDEST PUSH2 0x129A DUP5 PUSH2 0x1174 JUMP JUMPDEST DUP2 ADD PUSH1 0x20 DUP6 LT ISZERO PUSH2 0x12A9 JUMPI DUP2 SWAP1 POP JUMPDEST PUSH2 0x12BD PUSH2 0x12B5 DUP6 PUSH2 0x1174 JUMP JUMPDEST DUP4 ADD DUP3 PUSH2 0x125D JUMP JUMPDEST POP POP JUMPDEST POP POP POP JUMP JUMPDEST PUSH0 DUP3 DUP3 SHR SWAP1 POP SWAP3 SWAP2 POP POP JUMP JUMPDEST PUSH0 PUSH2 0x12E0 PUSH0 NOT DUP5 PUSH1 0x8 MUL PUSH2 0x12C5 JUMP JUMPDEST NOT DUP1 DUP4 AND SWAP2 POP POP SWAP3 SWAP2 POP POP JUMP JUMPDEST PUSH0 PUSH2 0x12F8 DUP4 DUP4 PUSH2 0x12D1 JUMP JUMPDEST SWAP2 POP DUP3 PUSH1 0x2 MUL DUP3 OR SWAP1 POP SWAP3 SWAP2 POP POP JUMP JUMPDEST PUSH2 0x1311 DUP3 PUSH2 0x10CE JUMP JUMPDEST PUSH8 0xFFFFFFFFFFFFFFFF DUP2 GT ISZERO PUSH2 0x132A JUMPI PUSH2 0x1329 PUSH2 0x10D8 JUMP JUMPDEST JUMPDEST PUSH2 0x1334 DUP3 SLOAD PUSH2 0x1132 JUMP JUMPDEST PUSH2 0x133F DUP3 DUP3 DUP6 PUSH2 0x127F JUMP JUMPDEST PUSH0 PUSH1 0x20 SWAP1 POP PUSH1 0x1F DUP4 GT PUSH1 0x1 DUP2 EQ PUSH2 0x1370 JUMPI PUSH0 DUP5 ISZERO PUSH2 0x135E JUMPI DUP3 DUP8 ADD MLOAD SWAP1 POP JUMPDEST PUSH2 0x1368 DUP6 DUP3 PUSH2 0x12ED JUMP JUMPDEST DUP7 SSTORE POP PUSH2 0x13CF JUMP JUMPDEST PUSH1 0x1F NOT DUP5 AND PUSH2 0x137E DUP7 PUSH2 0x1162 JUMP JUMPDEST PUSH0 JUMPDEST DUP3 DUP2 LT ISZERO PUSH2 0x13A5 JUMPI DUP5 DUP10 ADD MLOAD DUP3 SSTORE PUSH1 0x1 DUP3 ADD SWAP2 POP PUSH1 0x20 DUP6 ADD SWAP5 POP PUSH1 0x20 DUP2 ADD SWAP1 POP PUSH2 0x1380 JUMP JUMPDEST DUP7 DUP4 LT ISZERO PUSH2 0x13C2 JUMPI DUP5 DUP10 ADD MLOAD PUSH2 0x13BE PUSH1 0x1F DUP10 AND DUP3 PUSH2 0x12D1 JUMP JUMPDEST DUP4 SSTORE POP JUMPDEST PUSH1 0x1 PUSH1 0x2 DUP9 MUL ADD DUP9 SSTORE POP POP POP JUMPDEST POP POP POP POP POP POP JUMP JUMPDEST PUSH32 0x4E487B7100000000000000000000000000000000000000000000000000000000 PUSH0 MSTORE PUSH1 0x11 PUSH1 0x4 MSTORE PUSH1 0x24 PUSH0 REVERT JUMPDEST PUSH0 DUP2 PUSH1 0x1 SHR SWAP1 POP SWAP2 SWAP1 POP JUMP JUMPDEST PUSH0 DUP1 DUP3 SWAP2 POP DUP4 SWAP1 POP JUMPDEST PUSH1 0x1 DUP6 GT ISZERO PUSH2 0x1459 JUMPI DUP1 DUP7 DIV DUP2 GT ISZERO PUSH2 0x1435 JUMPI PUSH2 0x1434 PUSH2 0x13D7 JUMP JUMPDEST JUMPDEST PUSH1 0x1 DUP6 AND ISZERO PUSH2 0x1444 JUMPI DUP1 DUP3 MUL SWAP2 POP JUMPDEST DUP1 DUP2 MUL SWAP1 POP PUSH2 0x1452 DUP6 PUSH2 0x1404 JUMP JUMPDEST SWAP5 POP PUSH2 0x1419 JUMP JUMPDEST SWAP5 POP SWAP5 SWAP3 POP POP POP JUMP JUMPDEST PUSH0 DUP3 PUSH2 0x1471 JUMPI PUSH1 0x1 SWAP1 POP PUSH2 0x152C JUMP JUMPDEST DUP2 PUSH2 0x147E JUMPI PUSH0 SWAP1 POP PUSH2 0x152C JUMP JUMPDEST DUP2 PUSH1 0x1 DUP2 EQ PUSH2 0x1494 JUMPI PUSH1 0x2 DUP2 EQ PUSH2 0x149E JUMPI PUSH2 0x14CD JUMP JUMPDEST PUSH1 0x1 SWAP2 POP POP PUSH2 0x152C JUMP JUMPDEST PUSH1 0xFF DUP5 GT ISZERO PUSH2 0x14B0 JUMPI PUSH2 0x14AF PUSH2 0x13D7 JUMP JUMPDEST JUMPDEST DUP4 PUSH1 0x2 EXP SWAP2 POP DUP5 DUP3 GT ISZERO PUSH2 0x14C7 JUMPI PUSH2 0x14C6 PUSH2 0x13D7 JUMP JUMPDEST JUMPDEST POP PUSH2 0x152C JUMP JUMPDEST POP PUSH1 0x20 DUP4 LT PUSH2 0x133 DUP4 LT AND PUSH1 0x4E DUP5 LT PUSH1 0xB DUP5 LT AND OR ISZERO PUSH2 0x1502 JUMPI DUP3 DUP3 EXP SWAP1 POP DUP4 DUP2 GT ISZERO PUSH2 0x14FD JUMPI PUSH2 0x14FC PUSH2 0x13D7 JUMP JUMPDEST JUMPDEST PUSH2 0x152C JUMP JUMPDEST PUSH2 0x150F DUP5 DUP5 DUP5 PUSH1 0x1 PUSH2 0x1410 JUMP JUMPDEST SWAP3 POP SWAP1 POP DUP2 DUP5 DIV DUP2 GT ISZERO PUSH2 0x1526 JUMPI PUSH2 0x1525 PUSH2 0x13D7 JUMP JUMPDEST JUMPDEST DUP2 DUP2 MUL SWAP1 POP JUMPDEST SWAP4 SWAP3 POP POP POP JUMP JUMPDEST PUSH0 PUSH1 0xFF DUP3 AND SWAP1 POP SWAP2 SWAP1 POP JUMP JUMPDEST PUSH0 PUSH2 0x1549 DUP3 PUSH2 0x11E0 JUMP JUMPDEST SWAP2 POP PUSH2 0x1554 DUP4 PUSH2 0x1533 JUMP JUMPDEST SWAP3 POP PUSH2 0x1581 PUSH32 0xFFFFFFFFFFFFFFFFFFFFFFFFFFFFFFFFFFFFFFFFFFFFFFFFFFFFFFFFFFFFFFFF DUP5 DUP5 PUSH2 0x1462 JUMP JUMPDEST SWAP1 POP SWAP3 SWAP2 POP POP JUMP JUMPDEST PUSH0 PUSH2 0x1593 DUP3 PUSH2 0x11E0 JUMP JUMPDEST SWAP2 POP PUSH2 0x159E DUP4 PUSH2 0x11E0 JUMP JUMPDEST SWAP3 POP DUP3 DUP3 MUL PUSH2 0x15AC DUP2 PUSH2 0x11E0 JUMP JUMPDEST SWAP2 POP DUP3 DUP3 DIV DUP5 EQ DUP4 ISZERO OR PUSH2 0x15C3 JUMPI PUSH2 0x15C2 PUSH2 0x13D7 JUMP JUMPDEST JUMPDEST POP SWAP3 SWAP2 POP POP JUMP JUMPDEST PUSH32 0x4E487B7100000000000000000000000000000000000000000000000000000000 PUSH0 MSTORE PUSH1 0x12 PUSH1 0x4 MSTORE PUSH1 0x24 PUSH0 REVERT JUMPDEST PUSH0 PUSH2 0x1601 DUP3 PUSH2 0x11E0 JUMP JUMPDEST SWAP2 POP PUSH2 0x160C DUP4 PUSH2 0x11E0 JUMP JUMPDEST SWAP3 POP DUP3 PUSH2 0x161C JUMPI PUSH2 0x161B PUSH2 0x15CA JUMP JUMPDEST JUMPDEST DUP3 DUP3 MOD SWAP1 POP SWAP3 SWAP2 POP POP JUMP JUMPDEST PUSH0 PUSH2 0x1631 DUP3 PUSH2 0x11E0 JUMP JUMPDEST SWAP2 POP PUSH2 0x163C DUP4 PUSH2 0x11E0 JUMP JUMPDEST SWAP3 POP DUP3 DUP3 SUB SWAP1 POP DUP2 DUP2 GT ISZERO PUSH2 0x1654 JUMPI PUSH2 0x1653 PUSH2 0x13D7 JUMP JUMPDEST JUMPDEST SWAP3 SWAP2 POP POP JUMP JUMPDEST PUSH0 PUSH2 0x1664 DUP3 PUSH2 0x11E0 JUMP JUMPDEST SWAP2 POP PUSH2 0x166F DUP4 PUSH2 0x11E0 JUMP JUMPDEST SWAP3 POP DUP3 DUP3 ADD SWAP1 POP DUP1 DUP3 GT ISZERO PUSH2 0x1687 JUMPI PUSH2 0x1686 PUSH2 0x13D7 JUMP JUMPDEST JUMPDEST SWAP3 SWAP2 POP POP JUMP JUMPDEST PUSH0 DUP1 REVERT JUMPDEST PUSH0 PUSH20 0xFFFFFFFFFFFFFFFFFFFFFFFFFFFFFFFFFFFFFFFF DUP3 AND SWAP1 POP SWAP2 SWAP1 POP JUMP JUMPDEST PUSH0 PUSH2 0x16BA DUP3 PUSH2 0x1691 JUMP JUMPDEST SWAP1 POP SWAP2 SWAP1 POP JUMP JUMPDEST PUSH2 0x16CA DUP2 PUSH2 0x16B0 JUMP JUMPDEST DUP2 EQ PUSH2 0x16D4 JUMPI PUSH0 DUP1 REVERT JUMPDEST POP JUMP JUMPDEST PUSH0 DUP2 MLOAD SWAP1 POP PUSH2 0x16E5 DUP2 PUSH2 0x16C1 JUMP JUMPDEST SWAP3 SWAP2 POP POP JUMP JUMPDEST PUSH0 PUSH1 0x20 DUP3 DUP5 SUB SLT ISZERO PUSH2 0x1700 JUMPI PUSH2 0x16FF PUSH2 0x168D JUMP JUMPDEST JUMPDEST PUSH0 PUSH2 0x170D DUP5 DUP3 DUP6 ADD PUSH2 0x16D7 JUMP JUMPDEST SWAP2 POP POP SWAP3 SWAP2 POP POP JUMP JUMPDEST PUSH0 PUSH2 0x1730 PUSH2 0x172B PUSH2 0x1726 DUP5 PUSH2 0x1691 JUMP JUMPDEST PUSH2 0x11E9 JUMP JUMPDEST PUSH2 0x1691 JUMP JUMPDEST SWAP1 POP SWAP2 SWAP1 POP JUMP JUMPDEST PUSH0 PUSH2 0x1741 DUP3 PUSH2 0x1716 JUMP JUMPDEST SWAP1 POP SWAP2 SWAP1 POP JUMP JUMPDEST PUSH0 PUSH2 0x1752 DUP3 PUSH2 0x1737 JUMP JUMPDEST SWAP1 POP SWAP2 SWAP1 POP JUMP JUMPDEST PUSH2 0x1762 DUP2 PUSH2 0x1748 JUMP JUMPDEST DUP3 MSTORE POP POP JUMP JUMPDEST PUSH2 0x1771 DUP2 PUSH2 0x16B0 JUMP JUMPDEST DUP3 MSTORE POP POP JUMP JUMPDEST PUSH0 PUSH1 0x40 DUP3 ADD SWAP1 POP PUSH2 0x178A PUSH0 DUP4 ADD DUP6 PUSH2 0x1759 JUMP JUMPDEST PUSH2 0x1797 PUSH1 0x20 DUP4 ADD DUP5 PUSH2 0x1768 JUMP JUMPDEST SWAP4 SWAP3 POP POP POP JUMP JUMPDEST PUSH0 PUSH1 0x20 DUP3 ADD SWAP1 POP PUSH2 0x17B1 PUSH0 DUP4 ADD DUP5 PUSH2 0x1768 JUMP JUMPDEST SWAP3 SWAP2 POP POP JUMP JUMPDEST PUSH2 0x17C0 DUP2 PUSH2 0x11E0 JUMP JUMPDEST DUP3 MSTORE POP POP JUMP JUMPDEST PUSH0 PUSH1 0x20 DUP3 ADD SWAP1 POP PUSH2 0x17D9 PUSH0 DUP4 ADD DUP5 PUSH2 0x17B7 JUMP JUMPDEST SWAP3 SWAP2 POP POP JUMP JUMPDEST PUSH0 PUSH2 0x17E9 DUP3 PUSH2 0x11E0 JUMP JUMPDEST SWAP2 POP PUSH2 0x17F4 DUP4 PUSH2 0x11E0 JUMP JUMPDEST SWAP3 POP DUP3 PUSH2 0x1804 JUMPI PUSH2 0x1803 PUSH2 0x15CA JUMP JUMPDEST JUMPDEST DUP3 DUP3 DIV SWAP1 POP SWAP3 SWAP2 POP POP JUMP JUMPDEST PUSH0 DUP3 DUP3 MSTORE PUSH1 0x20 DUP3 ADD SWAP1 POP SWAP3 SWAP2 POP POP JUMP JUMPDEST PUSH32 0x6D756C7469706C69636174696F6E206F766572666C6F77000000000000000000 PUSH0 DUP3 ADD MSTORE POP JUMP JUMPDEST PUSH0 PUSH2 0x1853 PUSH1 0x17 DUP4 PUSH2 0x180F JUMP JUMPDEST SWAP2 POP PUSH2 0x185E DUP3 PUSH2 0x181F JUMP JUMPDEST PUSH1 0x20 DUP3 ADD SWAP1 POP SWAP2 SWAP1 POP JUMP JUMPDEST PUSH0 PUSH1 0x20 DUP3 ADD SWAP1 POP DUP2 DUP2 SUB PUSH0 DUP4 ADD MSTORE PUSH2 0x1880 DUP2 PUSH2 0x1847 JUMP JUMPDEST SWAP1 POP SWAP2 SWAP1 POP JUMP JUMPDEST PUSH32 0x6469766973696F6E206279207A65726F00000000000000000000000000000000 PUSH0 DUP3 ADD MSTORE POP JUMP JUMPDEST PUSH0 PUSH2 0x18BB PUSH1 0x10 DUP4 PUSH2 0x180F JUMP JUMPDEST SWAP2 POP PUSH2 0x18C6 DUP3 PUSH2 0x1887 JUMP JUMPDEST PUSH1 0x20 DUP3 ADD SWAP1 POP SWAP2 SWAP1 POP JUMP JUMPDEST PUSH0 PUSH1 0x20 DUP3 ADD SWAP1 POP DUP2 DUP2 SUB PUSH0 DUP4 ADD MSTORE PUSH2 0x18E8 DUP2 PUSH2 0x18AF JUMP JUMPDEST SWAP1 POP SWAP2 SWAP1 POP JUMP JUMPDEST PUSH2 0x9DD1 DUP1 PUSH2 0x18FC PUSH0 CODECOPY PUSH0 RETURN INVALID PUSH1 0x80 PUSH1 0x40 MSTORE PUSH1 0x4 CALLDATASIZE LT PUSH2 0x481 JUMPI PUSH0 CALLDATALOAD PUSH1 0xE0 SHR DUP1 PUSH4 0x5BEB3B8F GT PUSH2 0x254 JUMPI DUP1 PUSH4 0xAC18DE43 GT PUSH2 0x143 JUMPI DUP1 PUSH4 0xD7225750 GT PUSH2 0xC0 JUMPI DUP1 PUSH4 0xE57F14E1 GT PUSH2 0x84 JUMPI DUP1 PUSH4 0xE57F14E1 EQ PUSH2 0x13CE JUMPI DUP1 PUSH4 0xE6375D3E EQ PUSH2 0x140A JUMPI DUP1 PUSH4 0xEE75A5FB EQ PUSH2 0x1446 JUMPI DUP1 PUSH4 0xF291EC4A EQ PUSH2 0x1482 JUMPI DUP1 PUSH4 0xF3AE2415 EQ PUSH2 0x14AC JUMPI DUP1 PUSH4 0xFFCFB418 EQ PUSH2 0x14E8 JUMPI PUSH2 0x488 JUMP JUMPDEST DUP1 PUSH4 0xD7225750 EQ PUSH2 0x12B4 JUMPI DUP1 PUSH4 0xDD62ED3E EQ PUSH2 0x12DE JUMPI DUP1 PUSH4 0xDF376D0B EQ PUSH2 0x131A JUMPI DUP1 PUSH4 0xE1285305 EQ PUSH2 0x1356 JUMPI DUP1 PUSH4 0xE56882C0 EQ PUSH2 0x1392 JUMPI PUSH2 0x488 JUMP JUMPDEST DUP1 PUSH4 0xC4DB64C0 GT PUSH2 0x107 JUMPI DUP1 PUSH4 0xC4DB64C0 EQ PUSH2 0x11AC JUMPI DUP1 PUSH4 0xC93EB866 EQ PUSH2 0x11E8 JUMPI DUP1 PUSH4 0xD1966373 EQ PUSH2 0x1212 JUMPI DUP1 PUSH4 0xD1D0ADDB EQ PUSH2 0x124E JUMPI DUP1 PUSH4 0xD3F49AD4 EQ PUSH2 0x1278 JUMPI PUSH2 0x488 JUMP JUMPDEST DUP1 PUSH4 0xAC18DE43 EQ PUSH2 0x10A4 JUMPI DUP1 PUSH4 0xAFC18F75 EQ PUSH2 0x10E0 JUMPI DUP1 PUSH4 0xBA6F43E6 EQ PUSH2 0x111C JUMPI DUP1 PUSH4 0xBA70CAA3 EQ PUSH2 0x1146 JUMPI DUP1 PUSH4 0xBBD04AD0 EQ PUSH2 0x1170 JUMPI PUSH2 0x488 JUMP JUMPDEST DUP1 PUSH4 0x89C74351 GT PUSH2 0x1D1 JUMPI DUP1 PUSH4 0x9FEB9529 GT PUSH2 0x195 JUMPI DUP1 PUSH4 0x9FEB9529 EQ PUSH2 0xF8A JUMPI DUP1 PUSH4 0xA0271855 EQ PUSH2 0xFB4 JUMPI DUP1 PUSH4 0xA457C2D7 EQ PUSH2 0xFF0 JUMPI DUP1 PUSH4 0xA901DD92 EQ PUSH2 0x102C JUMPI DUP1 PUSH4 0xA9059CBB EQ PUSH2 0x1068 JUMPI PUSH2 0x488 JUMP JUMPDEST DUP1 PUSH4 0x89C74351 EQ PUSH2 0xE82 JUMPI DUP1 PUSH4 0x8BF55409 EQ PUSH2 0xEAC JUMPI DUP1 PUSH4 0x8EDCF4A5 EQ PUSH2 0xEE8 JUMPI DUP1 PUSH4 0x9566A7FE EQ PUSH2 0xF24 JUMPI DUP1 PUSH4 0x95D89B41 EQ PUSH2 0xF60 JUMPI PUSH2 0x488 JUMP JUMPDEST DUP1 PUSH4 0x6ADCAA3A GT PUSH2 0x218 JUMPI DUP1 PUSH4 0x6ADCAA3A EQ PUSH2 0xD8C JUMPI DUP1 PUSH4 0x6D3CB8B3 EQ PUSH2 0xDB6 JUMPI DUP1 PUSH4 0x706F1B2A EQ PUSH2 0xDE0 JUMPI DUP1 PUSH4 0x70A08231 EQ PUSH2 0xE1C JUMPI DUP1 PUSH4 0x893D20E8 EQ PUSH2 0xE58 JUMPI PUSH2 0x488 JUMP JUMPDEST DUP1 PUSH4 0x5BEB3B8F EQ PUSH2 0xC72 JUMPI DUP1 PUSH4 0x5C787AB6 EQ PUSH2 0xCAE JUMPI DUP1 PUSH4 0x5CCE86CD EQ PUSH2 0xCEA JUMPI DUP1 PUSH4 0x5D17D5F2 EQ PUSH2 0xD26 JUMPI DUP1 PUSH4 0x69CE640D EQ PUSH2 0xD50 JUMPI PUSH2 0x488 JUMP JUMPDEST DUP1 PUSH4 0x2D06177A GT PUSH2 0x370 JUMPI DUP1 PUSH4 0x461E602D GT PUSH2 0x2ED JUMPI DUP1 PUSH4 0x4B130C7B GT PUSH2 0x2B1 JUMPI DUP1 PUSH4 0x4B130C7B EQ PUSH2 0xB6A JUMPI DUP1 PUSH4 0x4FBEE193 EQ PUSH2 0xB94 JUMPI DUP1 PUSH4 0x51D83869 EQ PUSH2 0xBD0 JUMPI DUP1 PUSH4 0x57A82589 EQ PUSH2 0xC0C JUMPI DUP1 PUSH4 0x5AE31FE1 EQ PUSH2 0xC48 JUMPI PUSH2 0x488 JUMP JUMPDEST DUP1 PUSH4 0x461E602D EQ PUSH2 0xA86 JUMPI DUP1 PUSH4 0x4859CCB3 EQ PUSH2 0xAB0 JUMPI DUP1 PUSH4 0x48A68A00 EQ PUSH2 0xADA JUMPI DUP1 PUSH4 0x495032A6 EQ PUSH2 0xB04 JUMPI DUP1 PUSH4 0x4A37DD91 EQ PUSH2 0xB40 JUMPI PUSH2 0x488 JUMP JUMPDEST DUP1 PUSH4 0x3AEDE27E GT PUSH2 0x334 JUMPI DUP1 PUSH4 0x3AEDE27E EQ PUSH2 0x96C JUMPI DUP1 PUSH4 0x3B356F25 EQ PUSH2 0x9A8 JUMPI DUP1 PUSH4 0x3CA26848 EQ PUSH2 0x9E4 JUMPI DUP1 PUSH4 0x3CF8CE62 EQ PUSH2 0xA20 JUMPI DUP1 PUSH4 0x41AEA9DE EQ PUSH2 0xA4A JUMPI PUSH2 0x488 JUMP JUMPDEST DUP1 PUSH4 0x2D06177A EQ PUSH2 0x864 JUMPI DUP1 PUSH4 0x313CE567 EQ PUSH2 0x8A0 JUMPI DUP1 PUSH4 0x37E47E98 EQ PUSH2 0x8CA JUMPI DUP1 PUSH4 0x39039980 EQ PUSH2 0x8F4 JUMPI DUP1 PUSH4 0x39509351 EQ PUSH2 0x930 JUMPI PUSH2 0x488 JUMP JUMPDEST DUP1 PUSH4 0x1BE38E3A GT PUSH2 0x3FE JUMPI DUP1 PUSH4 0x2509180E GT PUSH2 0x3C2 JUMPI DUP1 PUSH4 0x2509180E EQ PUSH2 0x76E JUMPI DUP1 PUSH4 0x25F25F4D EQ PUSH2 0x798 JUMPI DUP1 PUSH4 0x2A1BCD74 EQ PUSH2 0x7D4 JUMPI DUP1 PUSH4 0x2A4F12CA EQ PUSH2 0x7FE JUMPI DUP1 PUSH4 0x2CC254C2 EQ PUSH2 0x83A JUMPI PUSH2 0x488 JUMP JUMPDEST DUP1 PUSH4 0x1BE38E3A EQ PUSH2 0x678 JUMPI DUP1 PUSH4 0x1CAE2311 EQ PUSH2 0x6A2 JUMPI DUP1 PUSH4 0x1F976B7E EQ PUSH2 0x6CC JUMPI DUP1 PUSH4 0x202341D2 EQ PUSH2 0x6F6 JUMPI DUP1 PUSH4 0x23B872DD EQ PUSH2 0x732 JUMPI PUSH2 0x488 JUMP JUMPDEST DUP1 PUSH4 0xBE2620F GT PUSH2 0x445 JUMPI DUP1 PUSH4 0xBE2620F EQ PUSH2 0x582 JUMPI DUP1 PUSH4 0x1632816F EQ PUSH2 0x5AC JUMPI DUP1 PUSH4 0x168EF101 EQ PUSH2 0x5E8 JUMPI DUP1 PUSH4 0x16A2F82A EQ PUSH2 0x612 JUMPI DUP1 PUSH4 0x18160DDD EQ PUSH2 0x64E JUMPI PUSH2 0x488 JUMP JUMPDEST DUP1 PUSH4 0x44B5D46 EQ PUSH2 0x48C JUMPI DUP1 PUSH4 0x6FDDE03 EQ PUSH2 0x4C8 JUMPI DUP1 PUSH4 0x7B67774 EQ PUSH2 0x4F2 JUMPI DUP1 PUSH4 0x89208D8 EQ PUSH2 0x51C JUMPI DUP1 PUSH4 0x95EA7B3 EQ PUSH2 0x546 JUMPI PUSH2 0x488 JUMP JUMPDEST CALLDATASIZE PUSH2 0x488 JUMPI STOP JUMPDEST PUSH0 DUP1 REVERT JUMPDEST CALLVALUE DUP1 ISZERO PUSH2 0x497 JUMPI PUSH0 DUP1 REVERT JUMPDEST POP PUSH2 0x4B2 PUSH1 0x4 DUP1 CALLDATASIZE SUB DUP2 ADD SWAP1 PUSH2 0x4AD SWAP2 SWAP1 PUSH2 0x8177 JUMP JUMPDEST PUSH2 0x1512 JUMP JUMPDEST PUSH1 0x40 MLOAD PUSH2 0x4BF SWAP2 SWAP1 PUSH2 0x81BC JUMP JUMPDEST PUSH1 0x40 MLOAD DUP1 SWAP2 SUB SWAP1 RETURN JUMPDEST CALLVALUE DUP1 ISZERO PUSH2 0x4D3 JUMPI PUSH0 DUP1 REVERT JUMPDEST POP PUSH2 0x4DC PUSH2 0x1998 JUMP JUMPDEST PUSH1 0x40 MLOAD PUSH2 0x4E9 SWAP2 SWAP1 PUSH2 0x8245 JUMP JUMPDEST PUSH1 0x40 MLOAD DUP1 SWAP2 SUB SWAP1 RETURN JUMPDEST CALLVALUE DUP1 ISZERO PUSH2 0x4FD JUMPI PUSH0 DUP1 REVERT JUMPDEST POP PUSH2 0x506 PUSH2 0x1A28 JUMP JUMPDEST PUSH1 0x40 MLOAD PUSH2 0x513 SWAP2 SWAP1 PUSH2 0x827D JUMP JUMPDEST PUSH1 0x40 MLOAD DUP1 SWAP2 SUB SWAP1 RETURN JUMPDEST CALLVALUE DUP1 ISZERO PUSH2 0x527 JUMPI PUSH0 DUP1 REVERT JUMPDEST POP PUSH2 0x530 PUSH2 0x1A2E JUMP JUMPDEST PUSH1 0x40 MLOAD PUSH2 0x53D SWAP2 SWAP1 PUSH2 0x81BC JUMP JUMPDEST PUSH1 0x40 MLOAD DUP1 SWAP2 SUB SWAP1 RETURN JUMPDEST CALLVALUE DUP1 ISZERO PUSH2 0x551 JUMPI PUSH0 DUP1 REVERT JUMPDEST POP PUSH2 0x56C PUSH1 0x4 DUP1 CALLDATASIZE SUB DUP2 ADD SWAP1 PUSH2 0x567 SWAP2 SWAP1 PUSH2 0x82C0 JUMP JUMPDEST PUSH2 0x1E2A JUMP JUMPDEST PUSH1 0x40 MLOAD PUSH2 0x579 SWAP2 SWAP1 PUSH2 0x81BC JUMP JUMPDEST PUSH1 0x40 MLOAD DUP1 SWAP2 SUB SWAP1 RETURN JUMPDEST CALLVALUE DUP1 ISZERO PUSH2 0x58D JUMPI PUSH0 DUP1 REVERT JUMPDEST POP PUSH2 0x596 PUSH2 0x1E47 JUMP JUMPDEST PUSH1 0x40 MLOAD PUSH2 0x5A3 SWAP2 SWAP1 PUSH2 0x827D JUMP JUMPDEST PUSH1 0x40 MLOAD DUP1 SWAP2 SUB SWAP1 RETURN JUMPDEST CALLVALUE DUP1 ISZERO PUSH2 0x5B7 JUMPI PUSH0 DUP1 REVERT JUMPDEST POP PUSH2 0x5D2 PUSH1 0x4 DUP1 CALLDATASIZE SUB DUP2 ADD SWAP1 PUSH2 0x5CD SWAP2 SWAP1 PUSH2 0x8328 JUMP JUMPDEST PUSH2 0x1E4D JUMP JUMPDEST PUSH1 0x40 MLOAD PUSH2 0x5DF SWAP2 SWAP1 PUSH2 0x81BC JUMP JUMPDEST PUSH1 0x40 MLOAD DUP1 SWAP2 SUB SWAP1 RETURN JUMPDEST CALLVALUE DUP1 ISZERO PUSH2 0x5F3 JUMPI PUSH0 DUP1 REVERT JUMPDEST POP PUSH2 0x5FC PUSH2 0x1F4F JUMP JUMPDEST PUSH1 0x40 MLOAD PUSH2 0x609 SWAP2 SWAP1 PUSH2 0x827D JUMP JUMPDEST PUSH1 0x40 MLOAD DUP1 SWAP2 SUB SWAP1 RETURN JUMPDEST CALLVALUE DUP1 ISZERO PUSH2 0x61D JUMPI PUSH0 DUP1 REVERT JUMPDEST POP PUSH2 0x638 PUSH1 0x4 DUP1 CALLDATASIZE SUB DUP2 ADD SWAP1 PUSH2 0x633 SWAP2 SWAP1 PUSH2 0x8177 JUMP JUMPDEST PUSH2 0x1F55 JUMP JUMPDEST PUSH1 0x40 MLOAD PUSH2 0x645 SWAP2 SWAP1 PUSH2 0x81BC JUMP JUMPDEST PUSH1 0x40 MLOAD DUP1 SWAP2 SUB SWAP1 RETURN JUMPDEST CALLVALUE DUP1 ISZERO PUSH2 0x659 JUMPI PUSH0 DUP1 REVERT JUMPDEST POP PUSH2 0x662 PUSH2 0x2196 JUMP JUMPDEST PUSH1 0x40 MLOAD PUSH2 0x66F SWAP2 SWAP1 PUSH2 0x827D JUMP JUMPDEST PUSH1 0x40 MLOAD DUP1 SWAP2 SUB SWAP1 RETURN JUMPDEST CALLVALUE DUP1 ISZERO PUSH2 0x683 JUMPI PUSH0 DUP1 REVERT JUMPDEST POP PUSH2 0x68C PUSH2 0x219F JUMP JUMPDEST PUSH1 0x40 MLOAD PUSH2 0x699 SWAP2 SWAP1 PUSH2 0x81BC JUMP JUMPDEST PUSH1 0x40 MLOAD DUP1 SWAP2 SUB SWAP1 RETURN JUMPDEST CALLVALUE DUP1 ISZERO PUSH2 0x6AD JUMPI PUSH0 DUP1 REVERT JUMPDEST POP PUSH2 0x6B6 PUSH2 0x21B4 JUMP JUMPDEST PUSH1 0x40 MLOAD PUSH2 0x6C3 SWAP2 SWAP1 PUSH2 0x827D JUMP JUMPDEST PUSH1 0x40 MLOAD DUP1 SWAP2 SUB SWAP1 RETURN JUMPDEST CALLVALUE DUP1 ISZERO PUSH2 0x6D7 JUMPI PUSH0 DUP1 REVERT JUMPDEST POP PUSH2 0x6E0 PUSH2 0x21BA JUMP JUMPDEST PUSH1 0x40 MLOAD PUSH2 0x6ED SWAP2 SWAP1 PUSH2 0x827D JUMP JUMPDEST PUSH1 0x40 MLOAD DUP1 SWAP2 SUB SWAP1 RETURN JUMPDEST CALLVALUE DUP1 ISZERO PUSH2 0x701 JUMPI PUSH0 DUP1 REVERT JUMPDEST POP PUSH2 0x71C PUSH1 0x4 DUP1 CALLDATASIZE SUB DUP2 ADD SWAP1 PUSH2 0x717 SWAP2 SWAP1 PUSH2 0x8353 JUMP JUMPDEST PUSH2 0x21C0 JUMP JUMPDEST PUSH1 0x40 MLOAD PUSH2 0x729 SWAP2 SWAP1 PUSH2 0x81BC JUMP JUMPDEST PUSH1 0x40 MLOAD DUP1 SWAP2 SUB SWAP1 RETURN JUMPDEST CALLVALUE DUP1 ISZERO PUSH2 0x73D JUMPI PUSH0 DUP1 REVERT JUMPDEST POP PUSH2 0x758 PUSH1 0x4 DUP1 CALLDATASIZE SUB DUP2 ADD SWAP1 PUSH2 0x753 SWAP2 SWAP1 PUSH2 0x837E JUMP JUMPDEST PUSH2 0x2331 JUMP JUMPDEST PUSH1 0x40 MLOAD PUSH2 0x765 SWAP2 SWAP1 PUSH2 0x81BC JUMP JUMPDEST PUSH1 0x40 MLOAD DUP1 SWAP2 SUB SWAP1 RETURN JUMPDEST CALLVALUE DUP1 ISZERO PUSH2 0x779 JUMPI PUSH0 DUP1 REVERT JUMPDEST POP PUSH2 0x782 PUSH2 0x2405 JUMP JUMPDEST PUSH1 0x40 MLOAD PUSH2 0x78F SWAP2 SWAP1 PUSH2 0x8429 JUMP JUMPDEST PUSH1 0x40 MLOAD DUP1 SWAP2 SUB SWAP1 RETURN JUMPDEST CALLVALUE DUP1 ISZERO PUSH2 0x7A3 JUMPI PUSH0 DUP1 REVERT JUMPDEST POP PUSH2 0x7BE PUSH1 0x4 DUP1 CALLDATASIZE SUB DUP2 ADD SWAP1 PUSH2 0x7B9 SWAP2 SWAP1 PUSH2 0x8177 JUMP JUMPDEST PUSH2 0x242A JUMP JUMPDEST PUSH1 0x40 MLOAD PUSH2 0x7CB SWAP2 SWAP1 PUSH2 0x81BC JUMP JUMPDEST PUSH1 0x40 MLOAD DUP1 SWAP2 SUB SWAP1 RETURN JUMPDEST CALLVALUE DUP1 ISZERO PUSH2 0x7DF JUMPI PUSH0 DUP1 REVERT JUMPDEST POP PUSH2 0x7E8 PUSH2 0x27BF JUMP JUMPDEST PUSH1 0x40 MLOAD PUSH2 0x7F5 SWAP2 SWAP1 PUSH2 0x81BC JUMP JUMPDEST PUSH1 0x40 MLOAD DUP1 SWAP2 SUB SWAP1 RETURN JUMPDEST CALLVALUE DUP1 ISZERO PUSH2 0x809 JUMPI PUSH0 DUP1 REVERT JUMPDEST POP PUSH2 0x824 PUSH1 0x4 DUP1 CALLDATASIZE SUB DUP2 ADD SWAP1 PUSH2 0x81F SWAP2 SWAP1 PUSH2 0x8442 JUMP JUMPDEST PUSH2 0x27D1 JUMP JUMPDEST PUSH1 0x40 MLOAD PUSH2 0x831 SWAP2 SWAP1 PUSH2 0x81BC JUMP JUMPDEST PUSH1 0x40 MLOAD DUP1 SWAP2 SUB SWAP1 RETURN JUMPDEST CALLVALUE DUP1 ISZERO PUSH2 0x845 JUMPI PUSH0 DUP1 REVERT JUMPDEST POP PUSH2 0x84E PUSH2 0x2911 JUMP JUMPDEST PUSH1 0x40 MLOAD PUSH2 0x85B SWAP2 SWAP1 PUSH2 0x81BC JUMP JUMPDEST PUSH1 0x40 MLOAD DUP1 SWAP2 SUB SWAP1 RETURN JUMPDEST CALLVALUE DUP1 ISZERO PUSH2 0x86F JUMPI PUSH0 DUP1 REVERT JUMPDEST POP PUSH2 0x88A PUSH1 0x4 DUP1 CALLDATASIZE SUB DUP2 ADD SWAP1 PUSH2 0x885 SWAP2 SWAP1 PUSH2 0x8177 JUMP JUMPDEST PUSH2 0x2924 JUMP JUMPDEST PUSH1 0x40 MLOAD PUSH2 0x897 SWAP2 SWAP1 PUSH2 0x81BC JUMP JUMPDEST PUSH1 0x40 MLOAD DUP1 SWAP2 SUB SWAP1 RETURN JUMPDEST CALLVALUE DUP1 ISZERO PUSH2 0x8AB JUMPI PUSH0 DUP1 REVERT JUMPDEST POP PUSH2 0x8B4 PUSH2 0x2C04 JUMP JUMPDEST PUSH1 0x40 MLOAD PUSH2 0x8C1 SWAP2 SWAP1 PUSH2 0x849B JUMP JUMPDEST PUSH1 0x40 MLOAD DUP1 SWAP2 SUB SWAP1 RETURN JUMPDEST CALLVALUE DUP1 ISZERO PUSH2 0x8D5 JUMPI PUSH0 DUP1 REVERT JUMPDEST POP PUSH2 0x8DE PUSH2 0x2C19 JUMP JUMPDEST PUSH1 0x40 MLOAD PUSH2 0x8EB SWAP2 SWAP1 PUSH2 0x84C3 JUMP JUMPDEST PUSH1 0x40 MLOAD DUP1 SWAP2 SUB SWAP1 RETURN JUMPDEST CALLVALUE DUP1 ISZERO PUSH2 0x8FF JUMPI PUSH0 DUP1 REVERT JUMPDEST POP PUSH2 0x91A PUSH1 0x4 DUP1 CALLDATASIZE SUB DUP2 ADD SWAP1 PUSH2 0x915 SWAP2 SWAP1 PUSH2 0x8328 JUMP JUMPDEST PUSH2 0x2C41 JUMP JUMPDEST PUSH1 0x40 MLOAD PUSH2 0x927 SWAP2 SWAP1 PUSH2 0x81BC JUMP JUMPDEST PUSH1 0x40 MLOAD DUP1 SWAP2 SUB SWAP1 RETURN JUMPDEST CALLVALUE DUP1 ISZERO PUSH2 0x93B JUMPI PUSH0 DUP1 REVERT JUMPDEST POP PUSH2 0x956 PUSH1 0x4 DUP1 CALLDATASIZE SUB DUP2 ADD SWAP1 PUSH2 0x951 SWAP2 SWAP1 PUSH2 0x82C0 JUMP JUMPDEST PUSH2 0x2D44 JUMP JUMPDEST PUSH1 0x40 MLOAD PUSH2 0x963 SWAP2 SWAP1 PUSH2 0x81BC JUMP JUMPDEST PUSH1 0x40 MLOAD DUP1 SWAP2 SUB SWAP1 RETURN JUMPDEST CALLVALUE DUP1 ISZERO PUSH2 0x977 JUMPI PUSH0 DUP1 REVERT JUMPDEST POP PUSH2 0x992 PUSH1 0x4 DUP1 CALLDATASIZE SUB DUP2 ADD SWAP1 PUSH2 0x98D SWAP2 SWAP1 PUSH2 0x8328 JUMP JUMPDEST PUSH2 0x2DF2 JUMP JUMPDEST PUSH1 0x40 MLOAD PUSH2 0x99F SWAP2 SWAP1 PUSH2 0x81BC JUMP JUMPDEST PUSH1 0x40 MLOAD DUP1 SWAP2 SUB SWAP1 RETURN JUMPDEST CALLVALUE DUP1 ISZERO PUSH2 0x9B3 JUMPI PUSH0 DUP1 REVERT JUMPDEST POP PUSH2 0x9CE PUSH1 0x4 DUP1 CALLDATASIZE SUB DUP2 ADD SWAP1 PUSH2 0x9C9 SWAP2 SWAP1 PUSH2 0x8353 JUMP JUMPDEST PUSH2 0x2F4B JUMP JUMPDEST PUSH1 0x40 MLOAD PUSH2 0x9DB SWAP2 SWAP1 PUSH2 0x81BC JUMP JUMPDEST PUSH1 0x40 MLOAD DUP1 SWAP2 SUB SWAP1 RETURN JUMPDEST CALLVALUE DUP1 ISZERO PUSH2 0x9EF JUMPI PUSH0 DUP1 REVERT JUMPDEST POP PUSH2 0xA0A PUSH1 0x4 DUP1 CALLDATASIZE SUB DUP2 ADD SWAP1 PUSH2 0xA05 SWAP2 SWAP1 PUSH2 0x8177 JUMP JUMPDEST PUSH2 0x303B JUMP JUMPDEST PUSH1 0x40 MLOAD PUSH2 0xA17 SWAP2 SWAP1 PUSH2 0x81BC JUMP JUMPDEST PUSH1 0x40 MLOAD DUP1 SWAP2 SUB SWAP1 RETURN JUMPDEST CALLVALUE DUP1 ISZERO PUSH2 0xA2B JUMPI PUSH0 DUP1 REVERT JUMPDEST POP PUSH2 0xA34 PUSH2 0x335C JUMP JUMPDEST PUSH1 0x40 MLOAD PUSH2 0xA41 SWAP2 SWAP1 PUSH2 0x827D JUMP JUMPDEST PUSH1 0x40 MLOAD DUP1 SWAP2 SUB SWAP1 RETURN JUMPDEST CALLVALUE DUP1 ISZERO PUSH2 0xA55 JUMPI PUSH0 DUP1 REVERT JUMPDEST POP PUSH2 0xA70 PUSH1 0x4 DUP1 CALLDATASIZE SUB DUP2 ADD SWAP1 PUSH2 0xA6B SWAP2 SWAP1 PUSH2 0x8328 JUMP JUMPDEST PUSH2 0x3362 JUMP JUMPDEST PUSH1 0x40 MLOAD PUSH2 0xA7D SWAP2 SWAP1 PUSH2 0x81BC JUMP JUMPDEST PUSH1 0x40 MLOAD DUP1 SWAP2 SUB SWAP1 RETURN JUMPDEST CALLVALUE DUP1 ISZERO PUSH2 0xA91 JUMPI PUSH0 DUP1 REVERT JUMPDEST POP PUSH2 0xA9A PUSH2 0x3464 JUMP JUMPDEST PUSH1 0x40 MLOAD PUSH2 0xAA7 SWAP2 SWAP1 PUSH2 0x827D JUMP JUMPDEST PUSH1 0x40 MLOAD DUP1 SWAP2 SUB SWAP1 RETURN JUMPDEST CALLVALUE DUP1 ISZERO PUSH2 0xABB JUMPI PUSH0 DUP1 REVERT JUMPDEST POP PUSH2 0xAC4 PUSH2 0x346A JUMP JUMPDEST PUSH1 0x40 MLOAD PUSH2 0xAD1 SWAP2 SWAP1 PUSH2 0x827D JUMP JUMPDEST PUSH1 0x40 MLOAD DUP1 SWAP2 SUB SWAP1 RETURN JUMPDEST CALLVALUE DUP1 ISZERO PUSH2 0xAE5 JUMPI PUSH0 DUP1 REVERT JUMPDEST POP PUSH2 0xAEE PUSH2 0x348F JUMP JUMPDEST PUSH1 0x40 MLOAD PUSH2 0xAFB SWAP2 SWAP1 PUSH2 0x827D JUMP JUMPDEST PUSH1 0x40 MLOAD DUP1 SWAP2 SUB SWAP1 RETURN JUMPDEST CALLVALUE DUP1 ISZERO PUSH2 0xB0F JUMPI PUSH0 DUP1 REVERT JUMPDEST POP PUSH2 0xB2A PUSH1 0x4 DUP1 CALLDATASIZE SUB DUP2 ADD SWAP1 PUSH2 0xB25 SWAP2 SWAP1 PUSH2 0x8353 JUMP JUMPDEST PUSH2 0x3495 JUMP JUMPDEST PUSH1 0x40 MLOAD PUSH2 0xB37 SWAP2 SWAP1 PUSH2 0x84C3 JUMP JUMPDEST PUSH1 0x40 MLOAD DUP1 SWAP2 SUB SWAP1 RETURN JUMPDEST CALLVALUE DUP1 ISZERO PUSH2 0xB4B JUMPI PUSH0 DUP1 REVERT JUMPDEST POP PUSH2 0xB54 PUSH2 0x34D0 JUMP JUMPDEST PUSH1 0x40 MLOAD PUSH2 0xB61 SWAP2 SWAP1 PUSH2 0x827D JUMP JUMPDEST PUSH1 0x40 MLOAD DUP1 SWAP2 SUB SWAP1 RETURN JUMPDEST CALLVALUE DUP1 ISZERO PUSH2 0xB75 JUMPI PUSH0 DUP1 REVERT JUMPDEST POP PUSH2 0xB7E PUSH2 0x34D6 JUMP JUMPDEST PUSH1 0x40 MLOAD PUSH2 0xB8B SWAP2 SWAP1 PUSH2 0x827D JUMP JUMPDEST PUSH1 0x40 MLOAD DUP1 SWAP2 SUB SWAP1 RETURN JUMPDEST CALLVALUE DUP1 ISZERO PUSH2 0xB9F JUMPI PUSH0 DUP1 REVERT JUMPDEST POP PUSH2 0xBBA PUSH1 0x4 DUP1 CALLDATASIZE SUB DUP2 ADD SWAP1 PUSH2 0xBB5 SWAP2 SWAP1 PUSH2 0x8177 JUMP JUMPDEST PUSH2 0x34DC JUMP JUMPDEST PUSH1 0x40 MLOAD PUSH2 0xBC7 SWAP2 SWAP1 PUSH2 0x81BC JUMP JUMPDEST PUSH1 0x40 MLOAD DUP1 SWAP2 SUB SWAP1 RETURN JUMPDEST CALLVALUE DUP1 ISZERO PUSH2 0xBDB JUMPI PUSH0 DUP1 REVERT JUMPDEST POP PUSH2 0xBF6 PUSH1 0x4 DUP1 CALLDATASIZE SUB DUP2 ADD SWAP1 PUSH2 0xBF1 SWAP2 SWAP1 PUSH2 0x8353 JUMP JUMPDEST PUSH2 0x352E JUMP JUMPDEST PUSH1 0x40 MLOAD PUSH2 0xC03 SWAP2 SWAP1 PUSH2 0x81BC JUMP JUMPDEST PUSH1 0x40 MLOAD DUP1 SWAP2 SUB SWAP1 RETURN JUMPDEST CALLVALUE DUP1 ISZERO PUSH2 0xC17 JUMPI PUSH0 DUP1 REVERT JUMPDEST POP PUSH2 0xC32 PUSH1 0x4 DUP1 CALLDATASIZE SUB DUP2 ADD SWAP1 PUSH2 0xC2D SWAP2 SWAP1 PUSH2 0x8177 JUMP JUMPDEST PUSH2 0x361E JUMP JUMPDEST PUSH1 0x40 MLOAD PUSH2 0xC3F SWAP2 SWAP1 PUSH2 0x81BC JUMP JUMPDEST PUSH1 0x40 MLOAD DUP1 SWAP2 SUB SWAP1 RETURN JUMPDEST CALLVALUE DUP1 ISZERO PUSH2 0xC53 JUMPI PUSH0 DUP1 REVERT JUMPDEST POP PUSH2 0xC5C PUSH2 0x395E JUMP JUMPDEST PUSH1 0x40 MLOAD PUSH2 0xC69 SWAP2 SWAP1 PUSH2 0x827D JUMP JUMPDEST PUSH1 0x40 MLOAD DUP1 SWAP2 SUB SWAP1 RETURN JUMPDEST CALLVALUE DUP1 ISZERO PUSH2 0xC7D JUMPI PUSH0 DUP1 REVERT JUMPDEST POP PUSH2 0xC98 PUSH1 0x4 DUP1 CALLDATASIZE SUB DUP2 ADD SWAP1 PUSH2 0xC93 SWAP2 SWAP1 PUSH2 0x8353 JUMP JUMPDEST PUSH2 0x3964 JUMP JUMPDEST PUSH1 0x40 MLOAD PUSH2 0xCA5 SWAP2 SWAP1 PUSH2 0x81BC JUMP JUMPDEST PUSH1 0x40 MLOAD DUP1 SWAP2 SUB SWAP1 RETURN JUMPDEST CALLVALUE DUP1 ISZERO PUSH2 0xCB9 JUMPI PUSH0 DUP1 REVERT JUMPDEST POP PUSH2 0xCD4 PUSH1 0x4 DUP1 CALLDATASIZE SUB DUP2 ADD SWAP1 PUSH2 0xCCF SWAP2 SWAP1 PUSH2 0x8353 JUMP JUMPDEST PUSH2 0x3A98 JUMP JUMPDEST PUSH1 0x40 MLOAD PUSH2 0xCE1 SWAP2 SWAP1 PUSH2 0x81BC JUMP JUMPDEST PUSH1 0x40 MLOAD DUP1 SWAP2 SUB SWAP1 RETURN JUMPDEST CALLVALUE DUP1 ISZERO PUSH2 0xCF5 JUMPI PUSH0 DUP1 REVERT JUMPDEST POP PUSH2 0xD10 PUSH1 0x4 DUP1 CALLDATASIZE SUB DUP2 ADD SWAP1 PUSH2 0xD0B SWAP2 SWAP1 PUSH2 0x8177 JUMP JUMPDEST PUSH2 0x3B88 JUMP JUMPDEST PUSH1 0x40 MLOAD PUSH2 0xD1D SWAP2 SWAP1 PUSH2 0x81BC JUMP JUMPDEST PUSH1 0x40 MLOAD DUP1 SWAP2 SUB SWAP1 RETURN JUMPDEST CALLVALUE DUP1 ISZERO PUSH2 0xD31 JUMPI PUSH0 DUP1 REVERT JUMPDEST POP PUSH2 0xD3A PUSH2 0x3BDA JUMP JUMPDEST PUSH1 0x40 MLOAD PUSH2 0xD47 SWAP2 SWAP1 PUSH2 0x827D JUMP JUMPDEST PUSH1 0x40 MLOAD DUP1 SWAP2 SUB SWAP1 RETURN JUMPDEST CALLVALUE DUP1 ISZERO PUSH2 0xD5B JUMPI PUSH0 DUP1 REVERT JUMPDEST POP PUSH2 0xD76 PUSH1 0x4 DUP1 CALLDATASIZE SUB DUP2 ADD SWAP1 PUSH2 0xD71 SWAP2 SWAP1 PUSH2 0x8177 JUMP JUMPDEST PUSH2 0x3BE0 JUMP JUMPDEST PUSH1 0x40 MLOAD PUSH2 0xD83 SWAP2 SWAP1 PUSH2 0x81BC JUMP JUMPDEST PUSH1 0x40 MLOAD DUP1 SWAP2 SUB SWAP1 RETURN JUMPDEST CALLVALUE DUP1 ISZERO PUSH2 0xD97 JUMPI PUSH0 DUP1 REVERT JUMPDEST POP PUSH2 0xDA0 PUSH2 0x3E21 JUMP JUMPDEST PUSH1 0x40 MLOAD PUSH2 0xDAD SWAP2 SWAP1 PUSH2 0x827D JUMP JUMPDEST PUSH1 0x40 MLOAD DUP1 SWAP2 SUB SWAP1 RETURN JUMPDEST CALLVALUE DUP1 ISZERO PUSH2 0xDC1 JUMPI PUSH0 DUP1 REVERT JUMPDEST POP PUSH2 0xDCA PUSH2 0x3E27 JUMP JUMPDEST PUSH1 0x40 MLOAD PUSH2 0xDD7 SWAP2 SWAP1 PUSH2 0x827D JUMP JUMPDEST PUSH1 0x40 MLOAD DUP1 SWAP2 SUB SWAP1 RETURN JUMPDEST CALLVALUE DUP1 ISZERO PUSH2 0xDEB JUMPI PUSH0 DUP1 REVERT JUMPDEST POP PUSH2 0xE06 PUSH1 0x4 DUP1 CALLDATASIZE SUB DUP2 ADD SWAP1 PUSH2 0xE01 SWAP2 SWAP1 PUSH2 0x8353 JUMP JUMPDEST PUSH2 0x3E2D JUMP JUMPDEST PUSH1 0x40 MLOAD PUSH2 0xE13 SWAP2 SWAP1 PUSH2 0x81BC JUMP JUMPDEST PUSH1 0x40 MLOAD DUP1 SWAP2 SUB SWAP1 RETURN JUMPDEST CALLVALUE DUP1 ISZERO PUSH2 0xE27 JUMPI PUSH0 DUP1 REVERT JUMPDEST POP PUSH2 0xE42 PUSH1 0x4 DUP1 CALLDATASIZE SUB DUP2 ADD SWAP1 PUSH2 0xE3D SWAP2 SWAP1 PUSH2 0x8177 JUMP JUMPDEST PUSH2 0x3F61 JUMP JUMPDEST PUSH1 0x40 MLOAD PUSH2 0xE4F SWAP2 SWAP1 PUSH2 0x827D JUMP JUMPDEST PUSH1 0x40 MLOAD DUP1 SWAP2 SUB SWAP1 RETURN JUMPDEST CALLVALUE DUP1 ISZERO PUSH2 0xE63 JUMPI PUSH0 DUP1 REVERT JUMPDEST POP PUSH2 0xE6C PUSH2 0x4052 JUMP JUMPDEST PUSH1 0x40 MLOAD PUSH2 0xE79 SWAP2 SWAP1 PUSH2 0x84C3 JUMP JUMPDEST PUSH1 0x40 MLOAD DUP1 SWAP2 SUB SWAP1 RETURN JUMPDEST CALLVALUE DUP1 ISZERO PUSH2 0xE8D JUMPI PUSH0 DUP1 REVERT JUMPDEST POP PUSH2 0xE96 PUSH2 0x4060 JUMP JUMPDEST PUSH1 0x40 MLOAD PUSH2 0xEA3 SWAP2 SWAP1 PUSH2 0x827D JUMP JUMPDEST PUSH1 0x40 MLOAD DUP1 SWAP2 SUB SWAP1 RETURN JUMPDEST CALLVALUE DUP1 ISZERO PUSH2 0xEB7 JUMPI PUSH0 DUP1 REVERT JUMPDEST POP PUSH2 0xED2 PUSH1 0x4 DUP1 CALLDATASIZE SUB DUP2 ADD SWAP1 PUSH2 0xECD SWAP2 SWAP1 PUSH2 0x8353 JUMP JUMPDEST PUSH2 0x4066 JUMP JUMPDEST PUSH1 0x40 MLOAD PUSH2 0xEDF SWAP2 SWAP1 PUSH2 0x81BC JUMP JUMPDEST PUSH1 0x40 MLOAD DUP1 SWAP2 SUB SWAP1 RETURN JUMPDEST CALLVALUE DUP1 ISZERO PUSH2 0xEF3 JUMPI PUSH0 DUP1 REVERT JUMPDEST POP PUSH2 0xF0E PUSH1 0x4 DUP1 CALLDATASIZE SUB DUP2 ADD SWAP1 PUSH2 0xF09 SWAP2 SWAP1 PUSH2 0x8353 JUMP JUMPDEST PUSH2 0x419B JUMP JUMPDEST PUSH1 0x40 MLOAD PUSH2 0xF1B SWAP2 SWAP1 PUSH2 0x81BC JUMP JUMPDEST PUSH1 0x40 MLOAD DUP1 SWAP2 SUB SWAP1 RETURN JUMPDEST CALLVALUE DUP1 ISZERO PUSH2 0xF2F JUMPI PUSH0 DUP1 REVERT JUMPDEST POP PUSH2 0xF4A PUSH1 0x4 DUP1 CALLDATASIZE SUB DUP2 ADD SWAP1 PUSH2 0xF45 SWAP2 SWAP1 PUSH2 0x8353 JUMP JUMPDEST PUSH2 0x428D JUMP JUMPDEST PUSH1 0x40 MLOAD PUSH2 0xF57 SWAP2 SWAP1 PUSH2 0x81BC JUMP JUMPDEST PUSH1 0x40 MLOAD DUP1 SWAP2 SUB SWAP1 RETURN JUMPDEST CALLVALUE DUP1 ISZERO PUSH2 0xF6B JUMPI PUSH0 DUP1 REVERT JUMPDEST POP PUSH2 0xF74 PUSH2 0x43FE JUMP JUMPDEST PUSH1 0x40 MLOAD PUSH2 0xF81 SWAP2 SWAP1 PUSH2 0x8245 JUMP JUMPDEST PUSH1 0x40 MLOAD DUP1 SWAP2 SUB SWAP1 RETURN JUMPDEST CALLVALUE DUP1 ISZERO PUSH2 0xF95 JUMPI PUSH0 DUP1 REVERT JUMPDEST POP PUSH2 0xF9E PUSH2 0x448E JUMP JUMPDEST PUSH1 0x40 MLOAD PUSH2 0xFAB SWAP2 SWAP1 PUSH2 0x827D JUMP JUMPDEST PUSH1 0x40 MLOAD DUP1 SWAP2 SUB SWAP1 RETURN JUMPDEST CALLVALUE DUP1 ISZERO PUSH2 0xFBF JUMPI PUSH0 DUP1 REVERT JUMPDEST POP PUSH2 0xFDA PUSH1 0x4 DUP1 CALLDATASIZE SUB DUP2 ADD SWAP1 PUSH2 0xFD5 SWAP2 SWAP1 PUSH2 0x8353 JUMP JUMPDEST PUSH2 0x4494 JUMP JUMPDEST PUSH1 0x40 MLOAD PUSH2 0xFE7 SWAP2 SWAP1 PUSH2 0x81BC JUMP JUMPDEST PUSH1 0x40 MLOAD DUP1 SWAP2 SUB SWAP1 RETURN JUMPDEST CALLVALUE DUP1 ISZERO PUSH2 0xFFB JUMPI PUSH0 DUP1 REVERT JUMPDEST POP PUSH2 0x1016 PUSH1 0x4 DUP1 CALLDATASIZE SUB DUP2 ADD SWAP1 PUSH2 0x1011 SWAP2 SWAP1 PUSH2 0x82C0 JUMP JUMPDEST PUSH2 0x4605 JUMP JUMPDEST PUSH1 0x40 MLOAD PUSH2 0x1023 SWAP2 SWAP1 PUSH2 0x81BC JUMP JUMPDEST PUSH1 0x40 MLOAD DUP1 SWAP2 SUB SWAP1 RETURN JUMPDEST CALLVALUE DUP1 ISZERO PUSH2 0x1037 JUMPI PUSH0 DUP1 REVERT JUMPDEST POP PUSH2 0x1052 PUSH1 0x4 DUP1 CALLDATASIZE SUB DUP2 ADD SWAP1 PUSH2 0x104D SWAP2 SWAP1 PUSH2 0x8328 JUMP JUMPDEST PUSH2 0x4751 JUMP JUMPDEST PUSH1 0x40 MLOAD PUSH2 0x105F SWAP2 SWAP1 PUSH2 0x81BC JUMP JUMPDEST PUSH1 0x40 MLOAD DUP1 SWAP2 SUB SWAP1 RETURN JUMPDEST CALLVALUE DUP1 ISZERO PUSH2 0x1073 JUMPI PUSH0 DUP1 REVERT JUMPDEST POP PUSH2 0x108E PUSH1 0x4 DUP1 CALLDATASIZE SUB DUP2 ADD SWAP1 PUSH2 0x1089 SWAP2 SWAP1 PUSH2 0x82C0 JUMP JUMPDEST PUSH2 0x4872 JUMP JUMPDEST PUSH1 0x40 MLOAD PUSH2 0x109B SWAP2 SWAP1 PUSH2 0x81BC JUMP JUMPDEST PUSH1 0x40 MLOAD DUP1 SWAP2 SUB SWAP1 RETURN JUMPDEST CALLVALUE DUP1 ISZERO PUSH2 0x10AF JUMPI PUSH0 DUP1 REVERT JUMPDEST POP PUSH2 0x10CA PUSH1 0x4 DUP1 CALLDATASIZE SUB DUP2 ADD SWAP1 PUSH2 0x10C5 SWAP2 SWAP1 PUSH2 0x8177 JUMP JUMPDEST PUSH2 0x488F JUMP JUMPDEST PUSH1 0x40 MLOAD PUSH2 0x10D7 SWAP2 SWAP1 PUSH2 0x81BC JUMP JUMPDEST PUSH1 0x40 MLOAD DUP1 SWAP2 SUB SWAP1 RETURN JUMPDEST CALLVALUE DUP1 ISZERO PUSH2 0x10EB JUMPI PUSH0 DUP1 REVERT JUMPDEST POP PUSH2 0x1106 PUSH1 0x4 DUP1 CALLDATASIZE SUB DUP2 ADD SWAP1 PUSH2 0x1101 SWAP2 SWAP1 PUSH2 0x8353 JUMP JUMPDEST PUSH2 0x4CA8 JUMP JUMPDEST PUSH1 0x40 MLOAD PUSH2 0x1113 SWAP2 SWAP1 PUSH2 0x81BC JUMP JUMPDEST PUSH1 0x40 MLOAD DUP1 SWAP2 SUB SWAP1 RETURN JUMPDEST CALLVALUE DUP1 ISZERO PUSH2 0x1127 JUMPI PUSH0 DUP1 REVERT JUMPDEST POP PUSH2 0x1130 PUSH2 0x4E19 JUMP JUMPDEST PUSH1 0x40 MLOAD PUSH2 0x113D SWAP2 SWAP1 PUSH2 0x84FC JUMP JUMPDEST PUSH1 0x40 MLOAD DUP1 SWAP2 SUB SWAP1 RETURN JUMPDEST CALLVALUE DUP1 ISZERO PUSH2 0x1151 JUMPI PUSH0 DUP1 REVERT JUMPDEST POP PUSH2 0x115A PUSH2 0x4E3E JUMP JUMPDEST PUSH1 0x40 MLOAD PUSH2 0x1167 SWAP2 SWAP1 PUSH2 0x81BC JUMP JUMPDEST PUSH1 0x40 MLOAD DUP1 SWAP2 SUB SWAP1 RETURN JUMPDEST CALLVALUE DUP1 ISZERO PUSH2 0x117B JUMPI PUSH0 DUP1 REVERT JUMPDEST POP PUSH2 0x1196 PUSH1 0x4 DUP1 CALLDATASIZE SUB DUP2 ADD SWAP1 PUSH2 0x1191 SWAP2 SWAP1 PUSH2 0x8353 JUMP JUMPDEST PUSH2 0x4E50 JUMP JUMPDEST PUSH1 0x40 MLOAD PUSH2 0x11A3 SWAP2 SWAP1 PUSH2 0x81BC JUMP JUMPDEST PUSH1 0x40 MLOAD DUP1 SWAP2 SUB SWAP1 RETURN JUMPDEST CALLVALUE DUP1 ISZERO PUSH2 0x11B7 JUMPI PUSH0 DUP1 REVERT JUMPDEST POP PUSH2 0x11D2 PUSH1 0x4 DUP1 CALLDATASIZE SUB DUP2 ADD SWAP1 PUSH2 0x11CD SWAP2 SWAP1 PUSH2 0x8353 JUMP JUMPDEST PUSH2 0x4FAF JUMP JUMPDEST PUSH1 0x40 MLOAD PUSH2 0x11DF SWAP2 SWAP1 PUSH2 0x81BC JUMP JUMPDEST PUSH1 0x40 MLOAD DUP1 SWAP2 SUB SWAP1 RETURN JUMPDEST CALLVALUE DUP1 ISZERO PUSH2 0x11F3 JUMPI PUSH0 DUP1 REVERT JUMPDEST POP PUSH2 0x11FC PUSH2 0x5120 JUMP JUMPDEST PUSH1 0x40 MLOAD PUSH2 0x1209 SWAP2 SWAP1 PUSH2 0x84C3 JUMP JUMPDEST PUSH1 0x40 MLOAD DUP1 SWAP2 SUB SWAP1 RETURN JUMPDEST CALLVALUE DUP1 ISZERO PUSH2 0x121D JUMPI PUSH0 DUP1 REVERT JUMPDEST POP PUSH2 0x1238 PUSH1 0x4 DUP1 CALLDATASIZE SUB DUP2 ADD SWAP1 PUSH2 0x1233 SWAP2 SWAP1 PUSH2 0x8177 JUMP JUMPDEST PUSH2 0x5145 JUMP JUMPDEST PUSH1 0x40 MLOAD PUSH2 0x1245 SWAP2 SWAP1 PUSH2 0x81BC JUMP JUMPDEST PUSH1 0x40 MLOAD DUP1 SWAP2 SUB SWAP1 RETURN JUMPDEST CALLVALUE DUP1 ISZERO PUSH2 0x1259 JUMPI PUSH0 DUP1 REVERT JUMPDEST POP PUSH2 0x1262 PUSH2 0x53B6 JUMP JUMPDEST PUSH1 0x40 MLOAD PUSH2 0x126F SWAP2 SWAP1 PUSH2 0x81BC JUMP JUMPDEST PUSH1 0x40 MLOAD DUP1 SWAP2 SUB SWAP1 RETURN JUMPDEST CALLVALUE DUP1 ISZERO PUSH2 0x1283 JUMPI PUSH0 DUP1 REVERT JUMPDEST POP PUSH2 0x129E PUSH1 0x4 DUP1 CALLDATASIZE SUB DUP2 ADD SWAP1 PUSH2 0x1299 SWAP2 SWAP1 PUSH2 0x8353 JUMP JUMPDEST PUSH2 0x54FC JUMP JUMPDEST PUSH1 0x40 MLOAD PUSH2 0x12AB SWAP2 SWAP1 PUSH2 0x81BC JUMP JUMPDEST PUSH1 0x40 MLOAD DUP1 SWAP2 SUB SWAP1 RETURN JUMPDEST CALLVALUE DUP1 ISZERO PUSH2 0x12BF JUMPI PUSH0 DUP1 REVERT JUMPDEST POP PUSH2 0x12C8 PUSH2 0x5630 JUMP JUMPDEST PUSH1 0x40 MLOAD PUSH2 0x12D5 SWAP2 SWAP1 PUSH2 0x81BC JUMP JUMPDEST PUSH1 0x40 MLOAD DUP1 SWAP2 SUB SWAP1 RETURN JUMPDEST CALLVALUE DUP1 ISZERO PUSH2 0x12E9 JUMPI PUSH0 DUP1 REVERT JUMPDEST POP PUSH2 0x1304 PUSH1 0x4 DUP1 CALLDATASIZE SUB DUP2 ADD SWAP1 PUSH2 0x12FF SWAP2 SWAP1 PUSH2 0x8515 JUMP JUMPDEST PUSH2 0x5642 JUMP JUMPDEST PUSH1 0x40 MLOAD PUSH2 0x1311 SWAP2 SWAP1 PUSH2 0x827D JUMP JUMPDEST PUSH1 0x40 MLOAD DUP1 SWAP2 SUB SWAP1 RETURN JUMPDEST CALLVALUE DUP1 ISZERO PUSH2 0x1325 JUMPI PUSH0 DUP1 REVERT JUMPDEST POP PUSH2 0x1340 PUSH1 0x4 DUP1 CALLDATASIZE SUB DUP2 ADD SWAP1 PUSH2 0x133B SWAP2 SWAP1 PUSH2 0x8177 JUMP JUMPDEST PUSH2 0x56C4 JUMP JUMPDEST PUSH1 0x40 MLOAD PUSH2 0x134D SWAP2 SWAP1 PUSH2 0x81BC JUMP JUMPDEST PUSH1 0x40 MLOAD DUP1 SWAP2 SUB SWAP1 RETURN JUMPDEST CALLVALUE DUP1 ISZERO PUSH2 0x1361 JUMPI PUSH0 DUP1 REVERT JUMPDEST POP PUSH2 0x137C PUSH1 0x4 DUP1 CALLDATASIZE SUB DUP2 ADD SWAP1 PUSH2 0x1377 SWAP2 SWAP1 PUSH2 0x8353 JUMP JUMPDEST PUSH2 0x5802 JUMP JUMPDEST PUSH1 0x40 MLOAD PUSH2 0x1389 SWAP2 SWAP1 PUSH2 0x81BC JUMP JUMPDEST PUSH1 0x40 MLOAD DUP1 SWAP2 SUB SWAP1 RETURN JUMPDEST CALLVALUE DUP1 ISZERO PUSH2 0x139D JUMPI PUSH0 DUP1 REVERT JUMPDEST POP PUSH2 0x13B8 PUSH1 0x4 DUP1 CALLDATASIZE SUB DUP2 ADD SWAP1 PUSH2 0x13B3 SWAP2 SWAP1 PUSH2 0x8353 JUMP JUMPDEST PUSH2 0x58F4 JUMP JUMPDEST PUSH1 0x40 MLOAD PUSH2 0x13C5 SWAP2 SWAP1 PUSH2 0x81BC JUMP JUMPDEST PUSH1 0x40 MLOAD DUP1 SWAP2 SUB SWAP1 RETURN JUMPDEST CALLVALUE DUP1 ISZERO PUSH2 0x13D9 JUMPI PUSH0 DUP1 REVERT JUMPDEST POP PUSH2 0x13F4 PUSH1 0x4 DUP1 CALLDATASIZE SUB DUP2 ADD SWAP1 PUSH2 0x13EF SWAP2 SWAP1 PUSH2 0x8177 JUMP JUMPDEST PUSH2 0x59E6 JUMP JUMPDEST PUSH1 0x40 MLOAD PUSH2 0x1401 SWAP2 SWAP1 PUSH2 0x81BC JUMP JUMPDEST PUSH1 0x40 MLOAD DUP1 SWAP2 SUB SWAP1 RETURN JUMPDEST CALLVALUE DUP1 ISZERO PUSH2 0x1415 JUMPI PUSH0 DUP1 REVERT JUMPDEST POP PUSH2 0x1430 PUSH1 0x4 DUP1 CALLDATASIZE SUB DUP2 ADD SWAP1 PUSH2 0x142B SWAP2 SWAP1 PUSH2 0x8177 JUMP JUMPDEST PUSH2 0x5B24 JUMP JUMPDEST PUSH1 0x40 MLOAD PUSH2 0x143D SWAP2 SWAP1 PUSH2 0x81BC JUMP JUMPDEST PUSH1 0x40 MLOAD DUP1 SWAP2 SUB SWAP1 RETURN JUMPDEST CALLVALUE DUP1 ISZERO PUSH2 0x1451 JUMPI PUSH0 DUP1 REVERT JUMPDEST POP PUSH2 0x146C PUSH1 0x4 DUP1 CALLDATASIZE SUB DUP2 ADD SWAP1 PUSH2 0x1467 SWAP2 SWAP1 PUSH2 0x8353 JUMP JUMPDEST PUSH2 0x5B76 JUMP JUMPDEST PUSH1 0x40 MLOAD PUSH2 0x1479 SWAP2 SWAP1 PUSH2 0x81BC JUMP JUMPDEST PUSH1 0x40 MLOAD DUP1 SWAP2 SUB SWAP1 RETURN JUMPDEST CALLVALUE DUP1 ISZERO PUSH2 0x148D JUMPI PUSH0 DUP1 REVERT JUMPDEST POP PUSH2 0x1496 PUSH2 0x5CE7 JUMP JUMPDEST PUSH1 0x40 MLOAD PUSH2 0x14A3 SWAP2 SWAP1 PUSH2 0x827D JUMP JUMPDEST PUSH1 0x40 MLOAD DUP1 SWAP2 SUB SWAP1 RETURN JUMPDEST CALLVALUE DUP1 ISZERO PUSH2 0x14B7 JUMPI PUSH0 DUP1 REVERT JUMPDEST POP PUSH2 0x14D2 PUSH1 0x4 DUP1 CALLDATASIZE SUB DUP2 ADD SWAP1 PUSH2 0x14CD SWAP2 SWAP1 PUSH2 0x8177 JUMP JUMPDEST PUSH2 0x5CED JUMP JUMPDEST PUSH1 0x40 MLOAD PUSH2 0x14DF SWAP2 SWAP1 PUSH2 0x81BC JUMP JUMPDEST PUSH1 0x40 MLOAD DUP1 SWAP2 SUB SWAP1 RETURN JUMPDEST CALLVALUE DUP1 ISZERO PUSH2 0x14F3 JUMPI PUSH0 DUP1 REVERT JUMPDEST POP PUSH2 0x14FC PUSH2 0x5D3F JUMP JUMPDEST PUSH1 0x40 MLOAD PUSH2 0x1509 SWAP2 SWAP1 PUSH2 0x81BC JUMP JUMPDEST PUSH1 0x40 MLOAD DUP1 SWAP2 SUB SWAP1 RETURN JUMPDEST PUSH0 PUSH1 0x3 PUSH0 PUSH2 0x151E PUSH2 0x5D51 JUMP JUMPDEST PUSH20 0xFFFFFFFFFFFFFFFFFFFFFFFFFFFFFFFFFFFFFFFF AND PUSH20 0xFFFFFFFFFFFFFFFFFFFFFFFFFFFFFFFFFFFFFFFF AND DUP2 MSTORE PUSH1 0x20 ADD SWAP1 DUP2 MSTORE PUSH1 0x20 ADD PUSH0 KECCAK256 PUSH0 SWAP1 SLOAD SWAP1 PUSH2 0x100 EXP SWAP1 DIV PUSH1 0xFF AND PUSH2 0x15A3 JUMPI PUSH1 0x40 MLOAD PUSH32 0x8C379A000000000000000000000000000000000000000000000000000000000 DUP2 MSTORE PUSH1 0x4 ADD PUSH2 0x159A SWAP1 PUSH2 0x859D JUMP JUMPDEST PUSH1 0x40 MLOAD DUP1 SWAP2 SUB SWAP1 REVERT JUMPDEST PUSH1 0x5 PUSH0 SWAP1 SLOAD SWAP1 PUSH2 0x100 EXP SWAP1 DIV PUSH1 0xFF AND ISZERO PUSH2 0x15F2 JUMPI PUSH1 0x40 MLOAD PUSH32 0x8C379A000000000000000000000000000000000000000000000000000000000 DUP2 MSTORE PUSH1 0x4 ADD PUSH2 0x15E9 SWAP1 PUSH2 0x8605 JUMP JUMPDEST PUSH1 0x40 MLOAD DUP1 SWAP2 SUB SWAP1 REVERT JUMPDEST PUSH2 0x15FA PUSH2 0x5D58 JUMP JUMPDEST PUSH20 0xFFFFFFFFFFFFFFFFFFFFFFFFFFFFFFFFFFFFFFFF AND DUP3 PUSH20 0xFFFFFFFFFFFFFFFFFFFFFFFFFFFFFFFFFFFFFFFF AND SUB PUSH2 0x1667 JUMPI PUSH1 0x40 MLOAD PUSH32 0x8C379A000000000000000000000000000000000000000000000000000000000 DUP2 MSTORE PUSH1 0x4 ADD PUSH2 0x165E SWAP1 PUSH2 0x8693 JUMP JUMPDEST PUSH1 0x40 MLOAD DUP1 SWAP2 SUB SWAP1 REVERT JUMPDEST PUSH1 0x1F PUSH0 SWAP1 SLOAD SWAP1 PUSH2 0x100 EXP SWAP1 DIV PUSH20 0xFFFFFFFFFFFFFFFFFFFFFFFFFFFFFFFFFFFFFFFF AND PUSH20 0xFFFFFFFFFFFFFFFFFFFFFFFFFFFFFFFFFFFFFFFF AND DUP3 PUSH20 0xFFFFFFFFFFFFFFFFFFFFFFFFFFFFFFFFFFFFFFFF AND SUB PUSH2 0x16F6 JUMPI PUSH1 0x40 MLOAD PUSH32 0x8C379A000000000000000000000000000000000000000000000000000000000 DUP2 MSTORE PUSH1 0x4 ADD PUSH2 0x16ED SWAP1 PUSH2 0x8721 JUMP JUMPDEST PUSH1 0x40 MLOAD DUP1 SWAP2 SUB SWAP1 REVERT JUMPDEST PUSH1 0x10 PUSH0 DUP4 PUSH20 0xFFFFFFFFFFFFFFFFFFFFFFFFFFFFFFFFFFFFFFFF AND PUSH20 0xFFFFFFFFFFFFFFFFFFFFFFFFFFFFFFFFFFFFFFFF AND DUP2 MSTORE PUSH1 0x20 ADD SWAP1 DUP2 MSTORE PUSH1 0x20 ADD PUSH0 KECCAK256 PUSH0 SWAP1 SLOAD SWAP1 PUSH2 0x100 EXP SWAP1 DIV PUSH1 0xFF AND PUSH2 0x177F JUMPI PUSH1 0x40 MLOAD PUSH32 0x8C379A000000000000000000000000000000000000000000000000000000000 DUP2 MSTORE PUSH1 0x4 ADD PUSH2 0x1776 SWAP1 PUSH2 0x87AF JUMP JUMPDEST PUSH1 0x40 MLOAD DUP1 SWAP2 SUB SWAP1 REVERT JUMPDEST PUSH0 JUMPDEST PUSH1 0x12 DUP1 SLOAD SWAP1 POP DUP2 LT ISZERO PUSH2 0x198E JUMPI DUP3 PUSH20 0xFFFFFFFFFFFFFFFFFFFFFFFFFFFFFFFFFFFFFFFF AND PUSH1 0x12 DUP3 DUP2 SLOAD DUP2 LT PUSH2 0x17B9 JUMPI PUSH2 0x17B8 PUSH2 0x87CD JUMP JUMPDEST JUMPDEST SWAP1 PUSH0 MSTORE PUSH1 0x20 PUSH0 KECCAK256 ADD PUSH0 SWAP1 SLOAD SWAP1 PUSH2 0x100 EXP SWAP1 DIV PUSH20 0xFFFFFFFFFFFFFFFFFFFFFFFFFFFFFFFFFFFFFFFF AND PUSH20 0xFFFFFFFFFFFFFFFFFFFFFFFFFFFFFFFFFFFFFFFF AND SUB PUSH2 0x1981 JUMPI PUSH1 0x12 PUSH1 0x1 PUSH1 0x12 DUP1 SLOAD SWAP1 POP PUSH2 0x1810 SWAP2 SWAP1 PUSH2 0x8827 JUMP JUMPDEST DUP2 SLOAD DUP2 LT PUSH2 0x1821 JUMPI PUSH2 0x1820 PUSH2 0x87CD JUMP JUMPDEST JUMPDEST SWAP1 PUSH0 MSTORE PUSH1 0x20 PUSH0 KECCAK256 ADD PUSH0 SWAP1 SLOAD SWAP1 PUSH2 0x100 EXP SWAP1 DIV PUSH20 0xFFFFFFFFFFFFFFFFFFFFFFFFFFFFFFFFFFFFFFFF AND PUSH1 0x12 DUP3 DUP2 SLOAD DUP2 LT PUSH2 0x185D JUMPI PUSH2 0x185C PUSH2 0x87CD JUMP JUMPDEST JUMPDEST SWAP1 PUSH0 MSTORE PUSH1 0x20 PUSH0 KECCAK256 ADD PUSH0 PUSH2 0x100 EXP DUP2 SLOAD DUP2 PUSH20 0xFFFFFFFFFFFFFFFFFFFFFFFFFFFFFFFFFFFFFFFF MUL NOT AND SWAP1 DUP4 PUSH20 0xFFFFFFFFFFFFFFFFFFFFFFFFFFFFFFFFFFFFFFFF AND MUL OR SWAP1 SSTORE POP PUSH0 PUSH1 0xB PUSH0 DUP6 PUSH20 0xFFFFFFFFFFFFFFFFFFFFFFFFFFFFFFFFFFFFFFFF AND PUSH20 0xFFFFFFFFFFFFFFFFFFFFFFFFFFFFFFFFFFFFFFFF AND DUP2 MSTORE PUSH1 0x20 ADD SWAP1 DUP2 MSTORE PUSH1 0x20 ADD PUSH0 KECCAK256 DUP2 SWAP1 SSTORE POP PUSH0 PUSH1 0x10 PUSH0 DUP6 PUSH20 0xFFFFFFFFFFFFFFFFFFFFFFFFFFFFFFFFFFFFFFFF AND PUSH20 0xFFFFFFFFFFFFFFFFFFFFFFFFFFFFFFFFFFFFFFFF AND DUP2 MSTORE PUSH1 0x20 ADD SWAP1 DUP2 MSTORE PUSH1 0x20 ADD PUSH0 KECCAK256 PUSH0 PUSH2 0x100 EXP DUP2 SLOAD DUP2 PUSH1 0xFF MUL NOT AND SWAP1 DUP4 ISZERO ISZERO MUL OR SWAP1 SSTORE POP PUSH1 0x12 DUP1 SLOAD DUP1 PUSH2 0x194A JUMPI PUSH2 0x1949 PUSH2 0x885A JUMP JUMPDEST JUMPDEST PUSH1 0x1 SWAP1 SUB DUP2 DUP2 SWAP1 PUSH0 MSTORE PUSH1 0x20 PUSH0 KECCAK256 ADD PUSH0 PUSH2 0x100 EXP DUP2 SLOAD SWAP1 PUSH20 0xFFFFFFFFFFFFFFFFFFFFFFFFFFFFFFFFFFFFFFFF MUL NOT AND SWAP1 SSTORE SWAP1 SSTORE PUSH2 0x198E JUMP JUMPDEST DUP1 DUP1 PUSH1 0x1 ADD SWAP2 POP POP PUSH2 0x1781 JUMP JUMPDEST POP PUSH1 0x1 SWAP1 POP SWAP2 SWAP1 POP JUMP JUMPDEST PUSH1 0x60 PUSH1 0x7 DUP1 SLOAD PUSH2 0x19A7 SWAP1 PUSH2 0x88B4 JUMP JUMPDEST DUP1 PUSH1 0x1F ADD PUSH1 0x20 DUP1 SWAP2 DIV MUL PUSH1 0x20 ADD PUSH1 0x40 MLOAD SWAP1 DUP2 ADD PUSH1 0x40 MSTORE DUP1 SWAP3 SWAP2 SWAP1 DUP2 DUP2 MSTORE PUSH1 0x20 ADD DUP3 DUP1 SLOAD PUSH2 0x19D3 SWAP1 PUSH2 0x88B4 JUMP JUMPDEST DUP1 ISZERO PUSH2 0x1A1E JUMPI DUP1 PUSH1 0x1F LT PUSH2 0x19F5 JUMPI PUSH2 0x100 DUP1 DUP4 SLOAD DIV MUL DUP4 MSTORE SWAP2 PUSH1 0x20 ADD SWAP2 PUSH2 0x1A1E JUMP JUMPDEST DUP3 ADD SWAP2 SWAP1 PUSH0 MSTORE PUSH1 0x20 PUSH0 KECCAK256 SWAP1 JUMPDEST DUP2 SLOAD DUP2 MSTORE SWAP1 PUSH1 0x1 ADD SWAP1 PUSH1 0x20 ADD DUP1 DUP4 GT PUSH2 0x1A01 JUMPI DUP3 SWAP1 SUB PUSH1 0x1F AND DUP3 ADD SWAP2 JUMPDEST POP POP POP POP POP SWAP1 POP SWAP1 JUMP JUMPDEST PUSH1 0x29 SLOAD DUP2 JUMP JUMPDEST PUSH0 PUSH1 0x2 PUSH0 SWAP1 SLOAD SWAP1 PUSH2 0x100 EXP SWAP1 DIV PUSH20 0xFFFFFFFFFFFFFFFFFFFFFFFFFFFFFFFFFFFFFFFF AND PUSH20 0xFFFFFFFFFFFFFFFFFFFFFFFFFFFFFFFFFFFFFFFF AND PUSH2 0x1A6F PUSH2 0x5D51 JUMP JUMPDEST PUSH20 0xFFFFFFFFFFFFFFFFFFFFFFFFFFFFFFFFFFFFFFFF AND EQ PUSH2 0x1AC5 JUMPI PUSH1 0x40 MLOAD PUSH32 0x8C379A000000000000000000000000000000000000000000000000000000000 DUP2 MSTORE PUSH1 0x4 ADD PUSH2 0x1ABC SWAP1 PUSH2 0x8954 JUMP JUMPDEST PUSH1 0x40 MLOAD DUP1 SWAP2 SUB SWAP1 REVERT JUMPDEST PUSH1 0x5 PUSH0 SWAP1 SLOAD SWAP1 PUSH2 0x100 EXP SWAP1 DIV PUSH1 0xFF AND ISZERO DUP1 PUSH2 0x1AE2 JUMPI POP PUSH1 0x6 SLOAD TIMESTAMP LT ISZERO JUMPDEST PUSH2 0x1B21 JUMPI PUSH1 0x40 MLOAD PUSH32 0x8C379A000000000000000000000000000000000000000000000000000000000 DUP2 MSTORE PUSH1 0x4 ADD PUSH2 0x1B18 SWAP1 PUSH2 0x8605 JUMP JUMPDEST PUSH1 0x40 MLOAD DUP1 SWAP2 SUB SWAP1 REVERT JUMPDEST JUMPDEST PUSH0 PUSH1 0x4 DUP1 SLOAD SWAP1 POP GT ISZERO PUSH2 0x1DF7 JUMPI PUSH0 PUSH1 0x3 PUSH0 PUSH1 0x4 PUSH1 0x1 PUSH1 0x4 DUP1 SLOAD SWAP1 POP PUSH2 0x1B47 SWAP2 SWAP1 PUSH2 0x8827 JUMP JUMPDEST DUP2 SLOAD DUP2 LT PUSH2 0x1B58 JUMPI PUSH2 0x1B57 PUSH2 0x87CD JUMP JUMPDEST JUMPDEST SWAP1 PUSH0 MSTORE PUSH1 0x20 PUSH0 KECCAK256 ADD PUSH0 SWAP1 SLOAD SWAP1 PUSH2 0x100 EXP SWAP1 DIV PUSH20 0xFFFFFFFFFFFFFFFFFFFFFFFFFFFFFFFFFFFFFFFF AND PUSH20 0xFFFFFFFFFFFFFFFFFFFFFFFFFFFFFFFFFFFFFFFF AND PUSH20 0xFFFFFFFFFFFFFFFFFFFFFFFFFFFFFFFFFFFFFFFF AND DUP2 MSTORE PUSH1 0x20 ADD SWAP1 DUP2 MSTORE PUSH1 0x20 ADD PUSH0 KECCAK256 PUSH0 PUSH2 0x100 EXP DUP2 SLOAD DUP2 PUSH1 0xFF MUL NOT AND SWAP1 DUP4 ISZERO ISZERO MUL OR SWAP1 SSTORE POP PUSH32 0xEF69F7D97228658C92417BE1B16B19058315DE71FECB435D07B7D23728B6BD31 PUSH1 0x4 PUSH1 0x1 PUSH1 0x4 DUP1 SLOAD SWAP1 POP PUSH2 0x1C04 SWAP2 SWAP1 PUSH2 0x8827 JUMP JUMPDEST DUP2 SLOAD DUP2 LT PUSH2 0x1C15 JUMPI PUSH2 0x1C14 PUSH2 0x87CD JUMP JUMPDEST JUMPDEST SWAP1 PUSH0 MSTORE PUSH1 0x20 PUSH0 KECCAK256 ADD PUSH0 SWAP1 SLOAD SWAP1 PUSH2 0x100 EXP SWAP1 DIV PUSH20 0xFFFFFFFFFFFFFFFFFFFFFFFFFFFFFFFFFFFFFFFF AND PUSH1 0x40 MLOAD PUSH2 0x1C4A SWAP2 SWAP1 PUSH2 0x84C3 JUMP JUMPDEST PUSH1 0x40 MLOAD DUP1 SWAP2 SUB SWAP1 LOG1 PUSH1 0x2 PUSH0 SWAP1 SLOAD SWAP1 PUSH2 0x100 EXP SWAP1 DIV PUSH20 0xFFFFFFFFFFFFFFFFFFFFFFFFFFFFFFFFFFFFFFFF AND PUSH20 0xFFFFFFFFFFFFFFFFFFFFFFFFFFFFFFFFFFFFFFFF AND PUSH1 0x4 PUSH1 0x1 PUSH1 0x4 DUP1 SLOAD SWAP1 POP PUSH2 0x1C9E SWAP2 SWAP1 PUSH2 0x8827 JUMP JUMPDEST DUP2 SLOAD DUP2 LT PUSH2 0x1CAF JUMPI PUSH2 0x1CAE PUSH2 0x87CD JUMP JUMPDEST JUMPDEST SWAP1 PUSH0 MSTORE PUSH1 0x20 PUSH0 KECCAK256 ADD PUSH0 SWAP1 SLOAD SWAP1 PUSH2 0x100 EXP SWAP1 DIV PUSH20 0xFFFFFFFFFFFFFFFFFFFFFFFFFFFFFFFFFFFFFFFF AND PUSH20 0xFFFFFFFFFFFFFFFFFFFFFFFFFFFFFFFFFFFFFFFF AND SUB PUSH2 0x1DAE JUMPI PUSH0 PUSH20 0xFFFFFFFFFFFFFFFFFFFFFFFFFFFFFFFFFFFFFFFF AND PUSH1 0x2 PUSH0 SWAP1 SLOAD SWAP1 PUSH2 0x100 EXP SWAP1 DIV PUSH20 0xFFFFFFFFFFFFFFFFFFFFFFFFFFFFFFFFFFFFFFFF AND PUSH20 0xFFFFFFFFFFFFFFFFFFFFFFFFFFFFFFFFFFFFFFFF AND PUSH32 0x673A58B10C6459336F2ACBF0E261B33A424C335800064DCCE68AEA56343404C5 PUSH1 0x40 MLOAD PUSH1 0x40 MLOAD DUP1 SWAP2 SUB SWAP1 LOG3 PUSH0 PUSH1 0x2 PUSH0 PUSH2 0x100 EXP DUP2 SLOAD DUP2 PUSH20 0xFFFFFFFFFFFFFFFFFFFFFFFFFFFFFFFFFFFFFFFF MUL NOT AND SWAP1 DUP4 PUSH20 0xFFFFFFFFFFFFFFFFFFFFFFFFFFFFFFFFFFFFFFFF AND MUL OR SWAP1 SSTORE POP JUMPDEST PUSH1 0x4 DUP1 SLOAD DUP1 PUSH2 0x1DC0 JUMPI PUSH2 0x1DBF PUSH2 0x885A JUMP JUMPDEST JUMPDEST PUSH1 0x1 SWAP1 SUB DUP2 DUP2 SWAP1 PUSH0 MSTORE PUSH1 0x20 PUSH0 KECCAK256 ADD PUSH0 PUSH2 0x100 EXP DUP2 SLOAD SWAP1 PUSH20 0xFFFFFFFFFFFFFFFFFFFFFFFFFFFFFFFFFFFFFFFF MUL NOT AND SWAP1 SSTORE SWAP1 SSTORE PUSH2 0x1B22 JUMP JUMPDEST PUSH32 0xC395865725B8BD5E4E5C82E80339842E1A46A1BC27443A26D31C502B1FED7A06 PUSH1 0x40 MLOAD PUSH1 0x40 MLOAD DUP1 SWAP2 SUB SWAP1 LOG1 PUSH1 0x1 SWAP1 POP SWAP1 JUMP JUMPDEST PUSH0 PUSH2 0x1E3D PUSH2 0x1E36 PUSH2 0x5D51 JUMP JUMPDEST DUP5 DUP5 PUSH2 0x5D7F JUMP JUMPDEST PUSH1 0x1 SWAP1 POP SWAP3 SWAP2 POP POP JUMP JUMPDEST PUSH1 0x19 SLOAD DUP2 JUMP JUMPDEST PUSH0 PUSH1 0x3 PUSH0 PUSH2 0x1E59 PUSH2 0x5D51 JUMP JUMPDEST PUSH20 0xFFFFFFFFFFFFFFFFFFFFFFFFFFFFFFFFFFFFFFFF AND PUSH20 0xFFFFFFFFFFFFFFFFFFFFFFFFFFFFFFFFFFFFFFFF AND DUP2 MSTORE PUSH1 0x20 ADD SWAP1 DUP2 MSTORE PUSH1 0x20 ADD PUSH0 KECCAK256 PUSH0 SWAP1 SLOAD SWAP1 PUSH2 0x100 EXP SWAP1 DIV PUSH1 0xFF AND PUSH2 0x1EDE JUMPI PUSH1 0x40 MLOAD PUSH32 0x8C379A000000000000000000000000000000000000000000000000000000000 DUP2 MSTORE PUSH1 0x4 ADD PUSH2 0x1ED5 SWAP1 PUSH2 0x859D JUMP JUMPDEST PUSH1 0x40 MLOAD DUP1 SWAP2 SUB SWAP1 REVERT JUMPDEST PUSH1 0x5 PUSH0 SWAP1 SLOAD SWAP1 PUSH2 0x100 EXP SWAP1 DIV PUSH1 0xFF AND ISZERO PUSH2 0x1F2D JUMPI PUSH1 0x40 MLOAD PUSH32 0x8C379A000000000000000000000000000000000000000000000000000000000 DUP2 MSTORE PUSH1 0x4 ADD PUSH2 0x1F24 SWAP1 PUSH2 0x8605 JUMP JUMPDEST PUSH1 0x40 MLOAD DUP1 SWAP2 SUB SWAP1 REVERT JUMPDEST DUP2 PUSH1 0x2D PUSH0 PUSH2 0x100 EXP DUP2 SLOAD DUP2 PUSH1 0xFF MUL NOT AND SWAP1 DUP4 ISZERO ISZERO MUL OR SWAP1 SSTORE POP PUSH1 0x1 SWAP1 POP SWAP2 SWAP1 POP JUMP JUMPDEST PUSH1 0x22 SLOAD DUP2 JUMP JUMPDEST PUSH0 PUSH1 0x3 PUSH0 PUSH2 0x1F61 PUSH2 0x5D51 JUMP JUMPDEST PUSH20 0xFFFFFFFFFFFFFFFFFFFFFFFFFFFFFFFFFFFFFFFF AND PUSH20 0xFFFFFFFFFFFFFFFFFFFFFFFFFFFFFFFFFFFFFFFF AND DUP2 MSTORE PUSH1 0x20 ADD SWAP1 DUP2 MSTORE PUSH1 0x20 ADD PUSH0 KECCAK256 PUSH0 SWAP1 SLOAD SWAP1 PUSH2 0x100 EXP SWAP1 DIV PUSH1 0xFF AND PUSH2 0x1FE6 JUMPI PUSH1 0x40 MLOAD PUSH32 0x8C379A000000000000000000000000000000000000000000000000000000000 DUP2 MSTORE PUSH1 0x4 ADD PUSH2 0x1FDD SWAP1 PUSH2 0x859D JUMP JUMPDEST PUSH1 0x40 MLOAD DUP1 SWAP2 SUB SWAP1 REVERT JUMPDEST PUSH1 0x5 PUSH0 SWAP1 SLOAD SWAP1 PUSH2 0x100 EXP SWAP1 DIV PUSH1 0xFF AND ISZERO PUSH2 0x2035 JUMPI PUSH1 0x40 MLOAD PUSH32 0x8C379A000000000000000000000000000000000000000000000000000000000 DUP2 MSTORE PUSH1 0x4 ADD PUSH2 0x202C SWAP1 PUSH2 0x8605 JUMP JUMPDEST PUSH1 0x40 MLOAD DUP1 SWAP2 SUB SWAP1 REVERT JUMPDEST PUSH2 0x203D PUSH2 0x5D58 JUMP JUMPDEST PUSH20 0xFFFFFFFFFFFFFFFFFFFFFFFFFFFFFFFFFFFFFFFF AND DUP3 PUSH20 0xFFFFFFFFFFFFFFFFFFFFFFFFFFFFFFFFFFFFFFFF AND SUB PUSH2 0x20AA JUMPI PUSH1 0x40 MLOAD PUSH32 0x8C379A000000000000000000000000000000000000000000000000000000000 DUP2 MSTORE PUSH1 0x4 ADD PUSH2 0x20A1 SWAP1 PUSH2 0x89E2 JUMP JUMPDEST PUSH1 0x40 MLOAD DUP1 SWAP2 SUB SWAP1 REVERT JUMPDEST PUSH1 0x2A PUSH0 SWAP1 SLOAD SWAP1 PUSH2 0x100 EXP SWAP1 DIV PUSH20 0xFFFFFFFFFFFFFFFFFFFFFFFFFFFFFFFFFFFFFFFF AND PUSH20 0xFFFFFFFFFFFFFFFFFFFFFFFFFFFFFFFFFFFFFFFF AND DUP3 PUSH20 0xFFFFFFFFFFFFFFFFFFFFFFFFFFFFFFFFFFFFFFFF AND SUB PUSH2 0x2139 JUMPI PUSH1 0x40 MLOAD PUSH32 0x8C379A000000000000000000000000000000000000000000000000000000000 DUP2 MSTORE PUSH1 0x4 ADD PUSH2 0x2130 SWAP1 PUSH2 0x8A70 JUMP JUMPDEST PUSH1 0x40 MLOAD DUP1 SWAP2 SUB SWAP1 REVERT JUMPDEST PUSH0 PUSH1 0x15 PUSH0 DUP5 PUSH20 0xFFFFFFFFFFFFFFFFFFFFFFFFFFFFFFFFFFFFFFFF AND PUSH20 0xFFFFFFFFFFFFFFFFFFFFFFFFFFFFFFFFFFFFFFFF AND DUP2 MSTORE PUSH1 0x20 ADD SWAP1 DUP2 MSTORE PUSH1 0x20 ADD PUSH0 KECCAK256 PUSH0 PUSH2 0x100 EXP DUP2 SLOAD DUP2 PUSH1 0xFF MUL NOT AND SWAP1 DUP4 ISZERO ISZERO MUL OR SWAP1 SSTORE POP PUSH1 0x1 SWAP1 POP SWAP2 SWAP1 POP JUMP JUMPDEST PUSH0 PUSH1 0xA SLOAD SWAP1 POP SWAP1 JUMP JUMPDEST PUSH0 PUSH1 0x5 PUSH0 SWAP1 SLOAD SWAP1 PUSH2 0x100 EXP SWAP1 DIV PUSH1 0xFF AND SWAP1 POP SWAP1 JUMP JUMPDEST PUSH1 0x17 SLOAD DUP2 JUMP JUMPDEST PUSH1 0xF SLOAD DUP2 JUMP JUMPDEST PUSH0 PUSH1 0x3 PUSH0 PUSH2 0x21CC PUSH2 0x5D51 JUMP JUMPDEST PUSH20 0xFFFFFFFFFFFFFFFFFFFFFFFFFFFFFFFFFFFFFFFF AND PUSH20 0xFFFFFFFFFFFFFFFFFFFFFFFFFFFFFFFFFFFFFFFF AND DUP2 MSTORE PUSH1 0x20 ADD SWAP1 DUP2 MSTORE PUSH1 0x20 ADD PUSH0 KECCAK256 PUSH0 SWAP1 SLOAD SWAP1 PUSH2 0x100 EXP SWAP1 DIV PUSH1 0xFF AND PUSH2 0x2251 JUMPI PUSH1 0x40 MLOAD PUSH32 0x8C379A000000000000000000000000000000000000000000000000000000000 DUP2 MSTORE PUSH1 0x4 ADD PUSH2 0x2248 SWAP1 PUSH2 0x859D JUMP JUMPDEST PUSH1 0x40 MLOAD DUP1 SWAP2 SUB SWAP1 REVERT JUMPDEST PUSH1 0x5 PUSH0 SWAP1 SLOAD SWAP1 PUSH2 0x100 EXP SWAP1 DIV PUSH1 0xFF AND ISZERO PUSH2 0x22A0 JUMPI PUSH1 0x40 MLOAD PUSH32 0x8C379A000000000000000000000000000000000000000000000000000000000 DUP2 MSTORE PUSH1 0x4 ADD PUSH2 0x2297 SWAP1 PUSH2 0x8605 JUMP JUMPDEST PUSH1 0x40 MLOAD DUP1 SWAP2 SUB SWAP1 REVERT JUMPDEST PUSH1 0x14 DUP3 PUSH1 0x18 SLOAD PUSH1 0x1C SLOAD PUSH2 0x22B3 SWAP2 SWAP1 PUSH2 0x8827 JUMP JUMPDEST PUSH2 0x22BD SWAP2 SWAP1 PUSH2 0x8A8E JUMP JUMPDEST GT ISZERO PUSH2 0x22FE JUMPI PUSH1 0x40 MLOAD PUSH32 0x8C379A000000000000000000000000000000000000000000000000000000000 DUP2 MSTORE PUSH1 0x4 ADD PUSH2 0x22F5 SWAP1 PUSH2 0x8B0B JUMP JUMPDEST PUSH1 0x40 MLOAD DUP1 SWAP2 SUB SWAP1 REVERT JUMPDEST DUP2 PUSH1 0x18 DUP2 SWAP1 SSTORE POP PUSH1 0x18 SLOAD PUSH1 0x17 SLOAD PUSH1 0x16 SLOAD PUSH2 0x2318 SWAP2 SWAP1 PUSH2 0x8A8E JUMP JUMPDEST PUSH2 0x2322 SWAP2 SWAP1 PUSH2 0x8A8E JUMP JUMPDEST PUSH1 0x1C DUP2 SWAP1 SSTORE POP PUSH1 0x1 SWAP1 POP SWAP2 SWAP1 POP JUMP JUMPDEST PUSH0 PUSH2 0x233D DUP5 DUP5 DUP5 PUSH2 0x5F42 JUMP JUMPDEST PUSH2 0x23FA DUP5 PUSH2 0x2349 PUSH2 0x5D51 JUMP JUMPDEST PUSH2 0x23F5 DUP6 PUSH1 0x40 MLOAD DUP1 PUSH1 0x60 ADD PUSH1 0x40 MSTORE DUP1 PUSH1 0x2B DUP2 MSTORE PUSH1 0x20 ADD PUSH2 0x9D71 PUSH1 0x2B SWAP2 CODECOPY PUSH1 0xC PUSH0 DUP12 PUSH20 0xFFFFFFFFFFFFFFFFFFFFFFFFFFFFFFFFFFFFFFFF AND PUSH20 0xFFFFFFFFFFFFFFFFFFFFFFFFFFFFFFFFFFFFFFFF AND DUP2 MSTORE PUSH1 0x20 ADD SWAP1 DUP2 MSTORE PUSH1 0x20 ADD PUSH0 KECCAK256 PUSH0 PUSH2 0x23AC PUSH2 0x5D51 JUMP JUMPDEST PUSH20 0xFFFFFFFFFFFFFFFFFFFFFFFFFFFFFFFFFFFFFFFF AND PUSH20 0xFFFFFFFFFFFFFFFFFFFFFFFFFFFFFFFFFFFFFFFF AND DUP2 MSTORE PUSH1 0x20 ADD SWAP1 DUP2 MSTORE PUSH1 0x20 ADD PUSH0 KECCAK256 SLOAD PUSH2 0x71FE SWAP1 SWAP3 SWAP2 SWAP1 PUSH4 0xFFFFFFFF AND JUMP JUMPDEST PUSH2 0x5D7F JUMP JUMPDEST PUSH1 0x1 SWAP1 POP SWAP4 SWAP3 POP POP POP JUMP JUMPDEST PUSH1 0x1F PUSH0 SWAP1 SLOAD SWAP1 PUSH2 0x100 EXP SWAP1 DIV PUSH20 0xFFFFFFFFFFFFFFFFFFFFFFFFFFFFFFFFFFFFFFFF AND DUP2 JUMP JUMPDEST PUSH0 PUSH1 0x3 PUSH0 PUSH2 0x2436 PUSH2 0x5D51 JUMP JUMPDEST PUSH20 0xFFFFFFFFFFFFFFFFFFFFFFFFFFFFFFFFFFFFFFFF AND PUSH20 0xFFFFFFFFFFFFFFFFFFFFFFFFFFFFFFFFFFFFFFFF AND DUP2 MSTORE PUSH1 0x20 ADD SWAP1 DUP2 MSTORE PUSH1 0x20 ADD PUSH0 KECCAK256 PUSH0 SWAP1 SLOAD SWAP1 PUSH2 0x100 EXP SWAP1 DIV PUSH1 0xFF AND PUSH2 0x24BB JUMPI PUSH1 0x40 MLOAD PUSH32 0x8C379A000000000000000000000000000000000000000000000000000000000 DUP2 MSTORE PUSH1 0x4 ADD PUSH2 0x24B2 SWAP1 PUSH2 0x859D JUMP JUMPDEST PUSH1 0x40 MLOAD DUP1 SWAP2 SUB SWAP1 REVERT JUMPDEST PUSH1 0x5 PUSH0 SWAP1 SLOAD SWAP1 PUSH2 0x100 EXP SWAP1 DIV PUSH1 0xFF AND ISZERO PUSH2 0x250A JUMPI PUSH1 0x40 MLOAD PUSH32 0x8C379A000000000000000000000000000000000000000000000000000000000 DUP2 MSTORE PUSH1 0x4 ADD PUSH2 0x2501 SWAP1 PUSH2 0x8605 JUMP JUMPDEST PUSH1 0x40 MLOAD DUP1 SWAP2 SUB SWAP1 REVERT JUMPDEST PUSH1 0x10 PUSH0 DUP4 PUSH20 0xFFFFFFFFFFFFFFFFFFFFFFFFFFFFFFFFFFFFFFFF AND PUSH20 0xFFFFFFFFFFFFFFFFFFFFFFFFFFFFFFFFFFFFFFFF AND DUP2 MSTORE PUSH1 0x20 ADD SWAP1 DUP2 MSTORE PUSH1 0x20 ADD PUSH0 KECCAK256 PUSH0 SWAP1 SLOAD SWAP1 PUSH2 0x100 EXP SWAP1 DIV PUSH1 0xFF AND ISZERO PUSH2 0x2594 JUMPI PUSH1 0x40 MLOAD PUSH32 0x8C379A000000000000000000000000000000000000000000000000000000000 DUP2 MSTORE PUSH1 0x4 ADD PUSH2 0x258B SWAP1 PUSH2 0x8B99 JUMP JUMPDEST PUSH1 0x40 MLOAD DUP1 SWAP2 SUB SWAP1 REVERT JUMPDEST PUSH1 0x2A PUSH0 SWAP1 SLOAD SWAP1 PUSH2 0x100 EXP SWAP1 DIV PUSH20 0xFFFFFFFFFFFFFFFFFFFFFFFFFFFFFFFFFFFFFFFF AND PUSH20 0xFFFFFFFFFFFFFFFFFFFFFFFFFFFFFFFFFFFFFFFF AND DUP3 PUSH20 0xFFFFFFFFFFFFFFFFFFFFFFFFFFFFFFFFFFFFFFFF AND SUB PUSH2 0x2623 JUMPI PUSH1 0x40 MLOAD PUSH32 0x8C379A000000000000000000000000000000000000000000000000000000000 DUP2 MSTORE PUSH1 0x4 ADD PUSH2 0x261A SWAP1 PUSH2 0x8C27 JUMP JUMPDEST PUSH1 0x40 MLOAD DUP1 SWAP2 SUB SWAP1 REVERT JUMPDEST PUSH0 PUSH1 0x11 PUSH0 DUP5 PUSH20 0xFFFFFFFFFFFFFFFFFFFFFFFFFFFFFFFFFFFFFFFF AND PUSH20 0xFFFFFFFFFFFFFFFFFFFFFFFFFFFFFFFFFFFFFFFF AND DUP2 MSTORE PUSH1 0x20 ADD SWAP1 DUP2 MSTORE PUSH1 0x20 ADD PUSH0 KECCAK256 SLOAD GT ISZERO PUSH2 0x2701 JUMPI PUSH2 0x26BF PUSH2 0x2673 PUSH2 0x7260 JUMP JUMPDEST PUSH1 0x11 PUSH0 DUP6 PUSH20 0xFFFFFFFFFFFFFFFFFFFFFFFFFFFFFFFFFFFFFFFF AND PUSH20 0xFFFFFFFFFFFFFFFFFFFFFFFFFFFFFFFFFFFFFFFF AND DUP2 MSTORE PUSH1 0x20 ADD SWAP1 DUP2 MSTORE PUSH1 0x20 ADD PUSH0 KECCAK256 SLOAD PUSH2 0x7289 SWAP1 SWAP2 SWAP1 PUSH4 0xFFFFFFFF AND JUMP JUMPDEST PUSH1 0xB PUSH0 DUP5 PUSH20 0xFFFFFFFFFFFFFFFFFFFFFFFFFFFFFFFFFFFFFFFF AND PUSH20 0xFFFFFFFFFFFFFFFFFFFFFFFFFFFFFFFFFFFFFFFF AND DUP2 MSTORE PUSH1 0x20 ADD SWAP1 DUP2 MSTORE PUSH1 0x20 ADD PUSH0 KECCAK256 DUP2 SWAP1 SSTORE POP JUMPDEST PUSH1 0x1 PUSH1 0x10 PUSH0 DUP5 PUSH20 0xFFFFFFFFFFFFFFFFFFFFFFFFFFFFFFFFFFFFFFFF AND PUSH20 0xFFFFFFFFFFFFFFFFFFFFFFFFFFFFFFFFFFFFFFFF AND DUP2 MSTORE PUSH1 0x20 ADD SWAP1 DUP2 MSTORE PUSH1 0x20 ADD PUSH0 KECCAK256 PUSH0 PUSH2 0x100 EXP DUP2 SLOAD DUP2 PUSH1 0xFF MUL NOT AND SWAP1 DUP4 ISZERO ISZERO MUL OR SWAP1 SSTORE POP PUSH1 0x12 DUP3 SWAP1 DUP1 PUSH1 0x1 DUP2 SLOAD ADD DUP1 DUP3 SSTORE DUP1 SWAP2 POP POP PUSH1 0x1 SWAP1 SUB SWAP1 PUSH0 MSTORE PUSH1 0x20 PUSH0 KECCAK256 ADD PUSH0 SWAP1 SWAP2 SWAP1 SWAP2 SWAP1 SWAP2 PUSH2 0x100 EXP DUP2 SLOAD DUP2 PUSH20 0xFFFFFFFFFFFFFFFFFFFFFFFFFFFFFFFFFFFFFFFF MUL NOT AND SWAP1 DUP4 PUSH20 0xFFFFFFFFFFFFFFFFFFFFFFFFFFFFFFFFFFFFFFFF AND MUL OR SWAP1 SSTORE POP PUSH1 0x1 SWAP1 POP SWAP2 SWAP1 POP JUMP JUMPDEST PUSH1 0x2D PUSH0 SWAP1 SLOAD SWAP1 PUSH2 0x100 EXP SWAP1 DIV PUSH1 0xFF AND DUP2 JUMP JUMPDEST PUSH0 PUSH1 0x3 PUSH0 PUSH2 0x27DD PUSH2 0x5D51 JUMP JUMPDEST PUSH20 0xFFFFFFFFFFFFFFFFFFFFFFFFFFFFFFFFFFFFFFFF AND PUSH20 0xFFFFFFFFFFFFFFFFFFFFFFFFFFFFFFFFFFFFFFFF AND DUP2 MSTORE PUSH1 0x20 ADD SWAP1 DUP2 MSTORE PUSH1 0x20 ADD PUSH0 KECCAK256 PUSH0 SWAP1 SLOAD SWAP1 PUSH2 0x100 EXP SWAP1 DIV PUSH1 0xFF AND PUSH2 0x2862 JUMPI PUSH1 0x40 MLOAD PUSH32 0x8C379A000000000000000000000000000000000000000000000000000000000 DUP2 MSTORE PUSH1 0x4 ADD PUSH2 0x2859 SWAP1 PUSH2 0x859D JUMP JUMPDEST PUSH1 0x40 MLOAD DUP1 SWAP2 SUB SWAP1 REVERT JUMPDEST PUSH1 0x5 PUSH0 SWAP1 SLOAD SWAP1 PUSH2 0x100 EXP SWAP1 DIV PUSH1 0xFF AND ISZERO PUSH2 0x28B1 JUMPI PUSH1 0x40 MLOAD PUSH32 0x8C379A000000000000000000000000000000000000000000000000000000000 DUP2 MSTORE PUSH1 0x4 ADD PUSH2 0x28A8 SWAP1 PUSH2 0x8605 JUMP JUMPDEST PUSH1 0x40 MLOAD DUP1 SWAP2 SUB SWAP1 REVERT JUMPDEST DUP3 PUSH1 0x14 PUSH0 PUSH2 0x100 EXP DUP2 SLOAD DUP2 PUSH1 0xFF MUL NOT AND SWAP1 DUP4 ISZERO ISZERO MUL OR SWAP1 SSTORE POP DUP3 PUSH2 0x28ED JUMPI PUSH0 PUSH1 0x23 PUSH0 PUSH2 0x100 EXP DUP2 SLOAD DUP2 PUSH1 0xFF MUL NOT AND SWAP1 DUP4 ISZERO ISZERO MUL OR SWAP1 SSTORE POP PUSH2 0x2907 JUMP JUMPDEST DUP2 PUSH1 0x23 PUSH0 PUSH2 0x100 EXP DUP2 SLOAD DUP2 PUSH1 0xFF MUL NOT AND SWAP1 DUP4 ISZERO ISZERO MUL OR SWAP1 SSTORE POP JUMPDEST PUSH1 0x1 SWAP1 POP SWAP3 SWAP2 POP POP JUMP JUMPDEST PUSH1 0x2A PUSH1 0x14 SWAP1 SLOAD SWAP1 PUSH2 0x100 EXP SWAP1 DIV PUSH1 0xFF AND DUP2 JUMP JUMPDEST PUSH0 PUSH1 0x2 PUSH0 SWAP1 SLOAD SWAP1 PUSH2 0x100 EXP SWAP1 DIV PUSH20 0xFFFFFFFFFFFFFFFFFFFFFFFFFFFFFFFFFFFFFFFF AND PUSH20 0xFFFFFFFFFFFFFFFFFFFFFFFFFFFFFFFFFFFFFFFF AND PUSH2 0x2965 PUSH2 0x5D51 JUMP JUMPDEST PUSH20 0xFFFFFFFFFFFFFFFFFFFFFFFFFFFFFFFFFFFFFFFF AND EQ PUSH2 0x29BB JUMPI PUSH1 0x40 MLOAD PUSH32 0x8C379A000000000000000000000000000000000000000000000000000000000 DUP2 MSTORE PUSH1 0x4 ADD PUSH2 0x29B2 SWAP1 PUSH2 0x8954 JUMP JUMPDEST PUSH1 0x40 MLOAD DUP1 SWAP2 SUB SWAP1 REVERT JUMPDEST PUSH1 0x5 PUSH0 SWAP1 SLOAD SWAP1 PUSH2 0x100 EXP SWAP1 DIV PUSH1 0xFF AND ISZERO DUP1 PUSH2 0x29D8 JUMPI POP PUSH1 0x6 SLOAD TIMESTAMP LT ISZERO JUMPDEST PUSH2 0x2A17 JUMPI PUSH1 0x40 MLOAD PUSH32 0x8C379A000000000000000000000000000000000000000000000000000000000 DUP2 MSTORE PUSH1 0x4 ADD PUSH2 0x2A0E SWAP1 PUSH2 0x8605 JUMP JUMPDEST PUSH1 0x40 MLOAD DUP1 SWAP2 SUB SWAP1 REVERT JUMPDEST PUSH1 0x3 PUSH0 DUP4 PUSH20 0xFFFFFFFFFFFFFFFFFFFFFFFFFFFFFFFFFFFFFFFF AND PUSH20 0xFFFFFFFFFFFFFFFFFFFFFFFFFFFFFFFFFFFFFFFF AND DUP2 MSTORE PUSH1 0x20 ADD SWAP1 DUP2 MSTORE PUSH1 0x20 ADD PUSH0 KECCAK256 PUSH0 SWAP1 SLOAD SWAP1 PUSH2 0x100 EXP SWAP1 DIV PUSH1 0xFF AND ISZERO PUSH2 0x2AA1 JUMPI PUSH1 0x40 MLOAD PUSH32 0x8C379A000000000000000000000000000000000000000000000000000000000 DUP2 MSTORE PUSH1 0x4 ADD PUSH2 0x2A98 SWAP1 PUSH2 0x8C8F JUMP JUMPDEST PUSH1 0x40 MLOAD DUP1 SWAP2 SUB SWAP1 REVERT JUMPDEST PUSH0 PUSH20 0xFFFFFFFFFFFFFFFFFFFFFFFFFFFFFFFFFFFFFFFF AND DUP3 PUSH20 0xFFFFFFFFFFFFFFFFFFFFFFFFFFFFFFFFFFFFFFFF AND SUB PUSH2 0x2B0F JUMPI PUSH1 0x40 MLOAD PUSH32 0x8C379A000000000000000000000000000000000000000000000000000000000 DUP2 MSTORE PUSH1 0x4 ADD PUSH2 0x2B06 SWAP1 PUSH2 0x8CF7 JUMP JUMPDEST PUSH1 0x40 MLOAD DUP1 SWAP2 SUB SWAP1 REVERT JUMPDEST PUSH1 0x1 PUSH1 0x3 PUSH0 DUP5 PUSH20 0xFFFFFFFFFFFFFFFFFFFFFFFFFFFFFFFFFFFFFFFF AND PUSH20 0xFFFFFFFFFFFFFFFFFFFFFFFFFFFFFFFFFFFFFFFF AND DUP2 MSTORE PUSH1 0x20 ADD SWAP1 DUP2 MSTORE PUSH1 0x20 ADD PUSH0 KECCAK256 PUSH0 PUSH2 0x100 EXP DUP2 SLOAD DUP2 PUSH1 0xFF MUL NOT AND SWAP1 DUP4 ISZERO ISZERO MUL OR SWAP1 SSTORE POP PUSH1 0x4 DUP3 SWAP1 DUP1 PUSH1 0x1 DUP2 SLOAD ADD DUP1 DUP3 SSTORE DUP1 SWAP2 POP POP PUSH1 0x1 SWAP1 SUB SWAP1 PUSH0 MSTORE PUSH1 0x20 PUSH0 KECCAK256 ADD PUSH0 SWAP1 SWAP2 SWAP1 SWAP2 SWAP1 SWAP2 PUSH2 0x100 EXP DUP2 SLOAD DUP2 PUSH20 0xFFFFFFFFFFFFFFFFFFFFFFFFFFFFFFFFFFFFFFFF MUL NOT AND SWAP1 DUP4 PUSH20 0xFFFFFFFFFFFFFFFFFFFFFFFFFFFFFFFFFFFFFFFF AND MUL OR SWAP1 SSTORE POP PUSH32 0x3B4A40CCCF2058C593542587329DD385BE4F0B588DB5471FBD9598E56DD7093A DUP3 PUSH1 0x40 MLOAD PUSH2 0x2BF3 SWAP2 SWAP1 PUSH2 0x84C3 JUMP JUMPDEST PUSH1 0x40 MLOAD DUP1 SWAP2 SUB SWAP1 LOG1 PUSH1 0x1 SWAP1 POP SWAP2 SWAP1 POP JUMP JUMPDEST PUSH0 PUSH1 0x9 PUSH0 SWAP1 SLOAD SWAP1 PUSH2 0x100 EXP SWAP1 DIV PUSH1 0xFF AND SWAP1 POP SWAP1 JUMP JUMPDEST PUSH0 PUSH1 0x2 PUSH0 SWAP1 SLOAD SWAP1 PUSH2 0x100 EXP SWAP1 DIV PUSH20 0xFFFFFFFFFFFFFFFFFFFFFFFFFFFFFFFFFFFFFFFF AND SWAP1 POP SWAP1 JUMP JUMPDEST PUSH0 PUSH1 0x3 PUSH0 PUSH2 0x2C4D PUSH2 0x5D51 JUMP JUMPDEST PUSH20 0xFFFFFFFFFFFFFFFFFFFFFFFFFFFFFFFFFFFFFFFF AND PUSH20 0xFFFFFFFFFFFFFFFFFFFFFFFFFFFFFFFFFFFFFFFF AND DUP2 MSTORE PUSH1 0x20 ADD SWAP1 DUP2 MSTORE PUSH1 0x20 ADD PUSH0 KECCAK256 PUSH0 SWAP1 SLOAD SWAP1 PUSH2 0x100 EXP SWAP1 DIV PUSH1 0xFF AND PUSH2 0x2CD2 JUMPI PUSH1 0x40 MLOAD PUSH32 0x8C379A000000000000000000000000000000000000000000000000000000000 DUP2 MSTORE PUSH1 0x4 ADD PUSH2 0x2CC9 SWAP1 PUSH2 0x859D JUMP JUMPDEST PUSH1 0x40 MLOAD DUP1 SWAP2 SUB SWAP1 REVERT JUMPDEST PUSH1 0x5 PUSH0 SWAP1 SLOAD SWAP1 PUSH2 0x100 EXP SWAP1 DIV PUSH1 0xFF AND ISZERO PUSH2 0x2D21 JUMPI PUSH1 0x40 MLOAD PUSH32 0x8C379A000000000000000000000000000000000000000000000000000000000 DUP2 MSTORE PUSH1 0x4 ADD PUSH2 0x2D18 SWAP1 PUSH2 0x8605 JUMP JUMPDEST PUSH1 0x40 MLOAD DUP1 SWAP2 SUB SWAP1 REVERT JUMPDEST DUP2 PUSH1 0x2A PUSH1 0x14 PUSH2 0x100 EXP DUP2 SLOAD DUP2 PUSH1 0xFF MUL NOT AND SWAP1 DUP4 ISZERO ISZERO MUL OR SWAP1 SSTORE POP PUSH1 0x1 SWAP1 POP SWAP2 SWAP1 POP JUMP JUMPDEST PUSH0 PUSH2 0x2DE8 PUSH2 0x2D50 PUSH2 0x5D51 JUMP JUMPDEST DUP5 PUSH2 0x2DE3 DUP6 PUSH1 0xC PUSH0 PUSH2 0x2D60 PUSH2 0x5D51 JUMP JUMPDEST PUSH20 0xFFFFFFFFFFFFFFFFFFFFFFFFFFFFFFFFFFFFFFFF AND PUSH20 0xFFFFFFFFFFFFFFFFFFFFFFFFFFFFFFFFFFFFFFFF AND DUP2 MSTORE PUSH1 0x20 ADD SWAP1 DUP2 MSTORE PUSH1 0x20 ADD PUSH0 KECCAK256 PUSH0 DUP10 PUSH20 0xFFFFFFFFFFFFFFFFFFFFFFFFFFFFFFFFFFFFFFFF AND PUSH20 0xFFFFFFFFFFFFFFFFFFFFFFFFFFFFFFFFFFFFFFFF AND DUP2 MSTORE PUSH1 0x20 ADD SWAP1 DUP2 MSTORE PUSH1 0x20 ADD PUSH0 KECCAK256 SLOAD PUSH2 0x72E5 SWAP1 SWAP2 SWAP1 PUSH4 0xFFFFFFFF AND JUMP JUMPDEST PUSH2 0x5D7F JUMP JUMPDEST PUSH1 0x1 SWAP1 POP SWAP3 SWAP2 POP POP JUMP JUMPDEST PUSH0 PUSH1 0x3 PUSH0 PUSH2 0x2DFE PUSH2 0x5D51 JUMP JUMPDEST PUSH20 0xFFFFFFFFFFFFFFFFFFFFFFFFFFFFFFFFFFFFFFFF AND PUSH20 0xFFFFFFFFFFFFFFFFFFFFFFFFFFFFFFFFFFFFFFFF AND DUP2 MSTORE PUSH1 0x20 ADD SWAP1 DUP2 MSTORE PUSH1 0x20 ADD PUSH0 KECCAK256 PUSH0 SWAP1 SLOAD SWAP1 PUSH2 0x100 EXP SWAP1 DIV PUSH1 0xFF AND PUSH2 0x2E83 JUMPI PUSH1 0x40 MLOAD PUSH32 0x8C379A000000000000000000000000000000000000000000000000000000000 DUP2 MSTORE PUSH1 0x4 ADD PUSH2 0x2E7A SWAP1 PUSH2 0x859D JUMP JUMPDEST PUSH1 0x40 MLOAD DUP1 SWAP2 SUB SWAP1 REVERT JUMPDEST PUSH1 0x5 PUSH0 SWAP1 SLOAD SWAP1 PUSH2 0x100 EXP SWAP1 DIV PUSH1 0xFF AND ISZERO PUSH2 0x2ED2 JUMPI PUSH1 0x40 MLOAD PUSH32 0x8C379A000000000000000000000000000000000000000000000000000000000 DUP2 MSTORE PUSH1 0x4 ADD PUSH2 0x2EC9 SWAP1 PUSH2 0x8605 JUMP JUMPDEST PUSH1 0x40 MLOAD DUP1 SWAP2 SUB SWAP1 REVERT JUMPDEST PUSH1 0x14 PUSH0 SWAP1 SLOAD SWAP1 PUSH2 0x100 EXP SWAP1 DIV PUSH1 0xFF AND DUP1 PUSH2 0x2EEA JUMPI POP DUP2 ISZERO JUMPDEST PUSH2 0x2F29 JUMPI PUSH1 0x40 MLOAD PUSH32 0x8C379A000000000000000000000000000000000000000000000000000000000 DUP2 MSTORE PUSH1 0x4 ADD PUSH2 0x2F20 SWAP1 PUSH2 0x8D85 JUMP JUMPDEST PUSH1 0x40 MLOAD DUP1 SWAP2 SUB SWAP1 REVERT JUMPDEST DUP2 PUSH1 0x23 PUSH0 PUSH2 0x100 EXP DUP2 SLOAD DUP2 PUSH1 0xFF MUL NOT AND SWAP1 DUP4 ISZERO ISZERO MUL OR SWAP1 SSTORE POP PUSH1 0x1 SWAP1 POP SWAP2 SWAP1 POP JUMP JUMPDEST PUSH0 PUSH1 0x3 PUSH0 PUSH2 0x2F57 PUSH2 0x5D51 JUMP JUMPDEST PUSH20 0xFFFFFFFFFFFFFFFFFFFFFFFFFFFFFFFFFFFFFFFF AND PUSH20 0xFFFFFFFFFFFFFFFFFFFFFFFFFFFFFFFFFFFFFFFF AND DUP2 MSTORE PUSH1 0x20 ADD SWAP1 DUP2 MSTORE PUSH1 0x20 ADD PUSH0 KECCAK256 PUSH0 SWAP1 SLOAD SWAP1 PUSH2 0x100 EXP SWAP1 DIV PUSH1 0xFF AND PUSH2 0x2FDC JUMPI PUSH1 0x40 MLOAD PUSH32 0x8C379A000000000000000000000000000000000000000000000000000000000 DUP2 MSTORE PUSH1 0x4 ADD PUSH2 0x2FD3 SWAP1 PUSH2 0x859D JUMP JUMPDEST PUSH1 0x40 MLOAD DUP1 SWAP2 SUB SWAP1 REVERT JUMPDEST PUSH1 0x5 PUSH0 SWAP1 SLOAD SWAP1 PUSH2 0x100 EXP SWAP1 DIV PUSH1 0xFF AND ISZERO PUSH2 0x302B JUMPI PUSH1 0x40 MLOAD PUSH32 0x8C379A000000000000000000000000000000000000000000000000000000000 DUP2 MSTORE PUSH1 0x4 ADD PUSH2 0x3022 SWAP1 PUSH2 0x8605 JUMP JUMPDEST PUSH1 0x40 MLOAD DUP1 SWAP2 SUB SWAP1 REVERT JUMPDEST DUP2 PUSH1 0x24 DUP2 SWAP1 SSTORE POP PUSH1 0x1 SWAP1 POP SWAP2 SWAP1 POP JUMP JUMPDEST PUSH0 PUSH1 0x2 PUSH0 SWAP1 SLOAD SWAP1 PUSH2 0x100 EXP SWAP1 DIV PUSH20 0xFFFFFFFFFFFFFFFFFFFFFFFFFFFFFFFFFFFFFFFF AND PUSH20 0xFFFFFFFFFFFFFFFFFFFFFFFFFFFFFFFFFFFFFFFF AND PUSH2 0x307C PUSH2 0x5D51 JUMP JUMPDEST PUSH20 0xFFFFFFFFFFFFFFFFFFFFFFFFFFFFFFFFFFFFFFFF AND EQ PUSH2 0x30D2 JUMPI PUSH1 0x40 MLOAD PUSH32 0x8C379A000000000000000000000000000000000000000000000000000000000 DUP2 MSTORE PUSH1 0x4 ADD PUSH2 0x30C9 SWAP1 PUSH2 0x8954 JUMP JUMPDEST PUSH1 0x40 MLOAD DUP1 SWAP2 SUB SWAP1 REVERT JUMPDEST PUSH1 0x5 PUSH0 SWAP1 SLOAD SWAP1 PUSH2 0x100 EXP SWAP1 DIV PUSH1 0xFF AND ISZERO DUP1 PUSH2 0x30EF JUMPI POP PUSH1 0x6 SLOAD TIMESTAMP LT ISZERO JUMPDEST PUSH2 0x312E JUMPI PUSH1 0x40 MLOAD PUSH32 0x8C379A000000000000000000000000000000000000000000000000000000000 DUP2 MSTORE PUSH1 0x4 ADD PUSH2 0x3125 SWAP1 PUSH2 0x8605 JUMP JUMPDEST PUSH1 0x40 MLOAD DUP1 SWAP2 SUB SWAP1 REVERT JUMPDEST PUSH1 0x2 PUSH0 SWAP1 SLOAD SWAP1 PUSH2 0x100 EXP SWAP1 DIV PUSH20 0xFFFFFFFFFFFFFFFFFFFFFFFFFFFFFFFFFFFFFFFF AND PUSH20 0xFFFFFFFFFFFFFFFFFFFFFFFFFFFFFFFFFFFFFFFF AND DUP3 PUSH20 0xFFFFFFFFFFFFFFFFFFFFFFFFFFFFFFFFFFFFFFFF AND SUB PUSH2 0x31BD JUMPI PUSH1 0x40 MLOAD PUSH32 0x8C379A000000000000000000000000000000000000000000000000000000000 DUP2 MSTORE PUSH1 0x4 ADD PUSH2 0x31B4 SWAP1 PUSH2 0x8DED JUMP JUMPDEST PUSH1 0x40 MLOAD DUP1 SWAP2 SUB SWAP1 REVERT JUMPDEST PUSH1 0x3 PUSH0 DUP4 PUSH20 0xFFFFFFFFFFFFFFFFFFFFFFFFFFFFFFFFFFFFFFFF AND PUSH20 0xFFFFFFFFFFFFFFFFFFFFFFFFFFFFFFFFFFFFFFFF AND DUP2 MSTORE PUSH1 0x20 ADD SWAP1 DUP2 MSTORE PUSH1 0x20 ADD PUSH0 KECCAK256 PUSH0 SWAP1 SLOAD SWAP1 PUSH2 0x100 EXP SWAP1 DIV PUSH1 0xFF AND PUSH2 0x3298 JUMPI PUSH1 0x1 PUSH1 0x3 PUSH0 DUP5 PUSH20 0xFFFFFFFFFFFFFFFFFFFFFFFFFFFFFFFFFFFFFFFF AND PUSH20 0xFFFFFFFFFFFFFFFFFFFFFFFFFFFFFFFFFFFFFFFF AND DUP2 MSTORE PUSH1 0x20 ADD SWAP1 DUP2 MSTORE PUSH1 0x20 ADD PUSH0 KECCAK256 PUSH0 PUSH2 0x100 EXP DUP2 SLOAD DUP2 PUSH1 0xFF MUL NOT AND SWAP1 DUP4 ISZERO ISZERO MUL OR SWAP1 SSTORE POP PUSH32 0x3B4A40CCCF2058C593542587329DD385BE4F0B588DB5471FBD9598E56DD7093A DUP3 PUSH1 0x40 MLOAD PUSH2 0x328F SWAP2 SWAP1 PUSH2 0x84C3 JUMP JUMPDEST PUSH1 0x40 MLOAD DUP1 SWAP2 SUB SWAP1 LOG1 JUMPDEST DUP2 PUSH1 0x2 PUSH0 PUSH2 0x100 EXP DUP2 SLOAD DUP2 PUSH20 0xFFFFFFFFFFFFFFFFFFFFFFFFFFFFFFFFFFFFFFFF MUL NOT AND SWAP1 DUP4 PUSH20 0xFFFFFFFFFFFFFFFFFFFFFFFFFFFFFFFFFFFFFFFF AND MUL OR SWAP1 SSTORE POP DUP2 PUSH20 0xFFFFFFFFFFFFFFFFFFFFFFFFFFFFFFFFFFFFFFFF AND PUSH1 0x2 PUSH0 SWAP1 SLOAD SWAP1 PUSH2 0x100 EXP SWAP1 DIV PUSH20 0xFFFFFFFFFFFFFFFFFFFFFFFFFFFFFFFFFFFFFFFF AND PUSH20 0xFFFFFFFFFFFFFFFFFFFFFFFFFFFFFFFFFFFFFFFF AND PUSH32 0x673A58B10C6459336F2ACBF0E261B33A424C335800064DCCE68AEA56343404C5 PUSH1 0x40 MLOAD PUSH1 0x40 MLOAD DUP1 SWAP2 SUB SWAP1 LOG3 PUSH1 0x1 SWAP1 POP SWAP2 SWAP1 POP JUMP JUMPDEST PUSH1 0x1B SLOAD DUP2 JUMP JUMPDEST PUSH0 PUSH1 0x3 PUSH0 PUSH2 0x336E PUSH2 0x5D51 JUMP JUMPDEST PUSH20 0xFFFFFFFFFFFFFFFFFFFFFFFFFFFFFFFFFFFFFFFF AND PUSH20 0xFFFFFFFFFFFFFFFFFFFFFFFFFFFFFFFFFFFFFFFF AND DUP2 MSTORE PUSH1 0x20 ADD SWAP1 DUP2 MSTORE PUSH1 0x20 ADD PUSH0 KECCAK256 PUSH0 SWAP1 SLOAD SWAP1 PUSH2 0x100 EXP SWAP1 DIV PUSH1 0xFF AND PUSH2 0x33F3 JUMPI PUSH1 0x40 MLOAD PUSH32 0x8C379A000000000000000000000000000000000000000000000000000000000 DUP2 MSTORE PUSH1 0x4 ADD PUSH2 0x33EA SWAP1 PUSH2 0x859D JUMP JUMPDEST PUSH1 0x40 MLOAD DUP1 SWAP2 SUB SWAP1 REVERT JUMPDEST PUSH1 0x5 PUSH0 SWAP1 SLOAD SWAP1 PUSH2 0x100 EXP SWAP1 DIV PUSH1 0xFF AND ISZERO PUSH2 0x3442 JUMPI PUSH1 0x40 MLOAD PUSH32 0x8C379A000000000000000000000000000000000000000000000000000000000 DUP2 MSTORE PUSH1 0x4 ADD PUSH2 0x3439 SWAP1 PUSH2 0x8605 JUMP JUMPDEST PUSH1 0x40 MLOAD DUP1 SWAP2 SUB SWAP1 REVERT JUMPDEST DUP2 PUSH1 0xD PUSH0 PUSH2 0x100 EXP DUP2 SLOAD DUP2 PUSH1 0xFF MUL NOT AND SWAP1 DUP4 ISZERO ISZERO MUL OR SWAP1 SSTORE POP PUSH1 0x1 SWAP1 POP SWAP2 SWAP1 POP JUMP JUMPDEST PUSH1 0x1C SLOAD DUP2 JUMP JUMPDEST PUSH0 PUSH1 0x6 SLOAD TIMESTAMP LT ISZERO PUSH2 0x3488 JUMPI TIMESTAMP PUSH1 0x6 SLOAD PUSH2 0x3483 SWAP2 SWAP1 PUSH2 0x8827 JUMP JUMPDEST PUSH2 0x348A JUMP JUMPDEST PUSH0 JUMPDEST SWAP1 POP SWAP1 JUMP JUMPDEST PUSH1 0x2C SLOAD DUP2 JUMP JUMPDEST PUSH1 0x20 DUP2 DUP2 SLOAD DUP2 LT PUSH2 0x34A4 JUMPI PUSH0 DUP1 REVERT JUMPDEST SWAP1 PUSH0 MSTORE PUSH1 0x20 PUSH0 KECCAK256 ADD PUSH0 SWAP2 POP SLOAD SWAP1 PUSH2 0x100 EXP SWAP1 DIV PUSH20 0xFFFFFFFFFFFFFFFFFFFFFFFFFFFFFFFFFFFFFFFF AND DUP2 JUMP JUMPDEST PUSH1 0x1D SLOAD DUP2 JUMP JUMPDEST PUSH1 0x2F SLOAD DUP2 JUMP JUMPDEST PUSH0 PUSH1 0x15 PUSH0 DUP4 PUSH20 0xFFFFFFFFFFFFFFFFFFFFFFFFFFFFFFFFFFFFFFFF AND PUSH20 0xFFFFFFFFFFFFFFFFFFFFFFFFFFFFFFFFFFFFFFFF AND DUP2 MSTORE PUSH1 0x20 ADD SWAP1 DUP2 MSTORE PUSH1 0x20 ADD PUSH0 KECCAK256 PUSH0 SWAP1 SLOAD SWAP1 PUSH2 0x100 EXP SWAP1 DIV PUSH1 0xFF AND SWAP1 POP SWAP2 SWAP1 POP JUMP JUMPDEST PUSH0 PUSH1 0x3 PUSH0 PUSH2 0x353A PUSH2 0x5D51 JUMP JUMPDEST PUSH20 0xFFFFFFFFFFFFFFFFFFFFFFFFFFFFFFFFFFFFFFFF AND PUSH20 0xFFFFFFFFFFFFFFFFFFFFFFFFFFFFFFFFFFFFFFFF AND DUP2 MSTORE PUSH1 0x20 ADD SWAP1 DUP2 MSTORE PUSH1 0x20 ADD PUSH0 KECCAK256 PUSH0 SWAP1 SLOAD SWAP1 PUSH2 0x100 EXP SWAP1 DIV PUSH1 0xFF AND PUSH2 0x35BF JUMPI PUSH1 0x40 MLOAD PUSH32 0x8C379A000000000000000000000000000000000000000000000000000000000 DUP2 MSTORE PUSH1 0x4 ADD PUSH2 0x35B6 SWAP1 PUSH2 0x859D JUMP JUMPDEST PUSH1 0x40 MLOAD DUP1 SWAP2 SUB SWAP1 REVERT JUMPDEST PUSH1 0x5 PUSH0 SWAP1 SLOAD SWAP1 PUSH2 0x100 EXP SWAP1 DIV PUSH1 0xFF AND ISZERO PUSH2 0x360E JUMPI PUSH1 0x40 MLOAD PUSH32 0x8C379A000000000000000000000000000000000000000000000000000000000 DUP2 MSTORE PUSH1 0x4 ADD PUSH2 0x3605 SWAP1 PUSH2 0x8605 JUMP JUMPDEST PUSH1 0x40 MLOAD DUP1 SWAP2 SUB SWAP1 REVERT JUMPDEST DUP2 PUSH1 0x2B DUP2 SWAP1 SSTORE POP PUSH1 0x1 SWAP1 POP SWAP2 SWAP1 POP JUMP JUMPDEST PUSH0 PUSH1 0x3 PUSH0 PUSH2 0x362A PUSH2 0x5D51 JUMP JUMPDEST PUSH20 0xFFFFFFFFFFFFFFFFFFFFFFFFFFFFFFFFFFFFFFFF AND PUSH20 0xFFFFFFFFFFFFFFFFFFFFFFFFFFFFFFFFFFFFFFFF AND DUP2 MSTORE PUSH1 0x20 ADD SWAP1 DUP2 MSTORE PUSH1 0x20 ADD PUSH0 KECCAK256 PUSH0 SWAP1 SLOAD SWAP1 PUSH2 0x100 EXP SWAP1 DIV PUSH1 0xFF AND PUSH2 0x36AF JUMPI PUSH1 0x40 MLOAD PUSH32 0x8C379A000000000000000000000000000000000000000000000000000000000 DUP2 MSTORE PUSH1 0x4 ADD PUSH2 0x36A6 SWAP1 PUSH2 0x859D JUMP JUMPDEST PUSH1 0x40 MLOAD DUP1 SWAP2 SUB SWAP1 REVERT JUMPDEST PUSH1 0x5 PUSH0 SWAP1 SLOAD SWAP1 PUSH2 0x100 EXP SWAP1 DIV PUSH1 0xFF AND ISZERO PUSH2 0x36FE JUMPI PUSH1 0x40 MLOAD PUSH32 0x8C379A000000000000000000000000000000000000000000000000000000000 DUP2 MSTORE PUSH1 0x4 ADD PUSH2 0x36F5 SWAP1 PUSH2 0x8605 JUMP JUMPDEST PUSH1 0x40 MLOAD DUP1 SWAP2 SUB SWAP1 REVERT JUMPDEST PUSH1 0x21 PUSH0 DUP4 PUSH20 0xFFFFFFFFFFFFFFFFFFFFFFFFFFFFFFFFFFFFFFFF AND PUSH20 0xFFFFFFFFFFFFFFFFFFFFFFFFFFFFFFFFFFFFFFFF AND DUP2 MSTORE PUSH1 0x20 ADD SWAP1 DUP2 MSTORE PUSH1 0x20 ADD PUSH0 KECCAK256 PUSH0 SWAP1 SLOAD SWAP1 PUSH2 0x100 EXP SWAP1 DIV PUSH1 0xFF AND PUSH2 0x3787 JUMPI PUSH1 0x40 MLOAD PUSH32 0x8C379A000000000000000000000000000000000000000000000000000000000 DUP2 MSTORE PUSH1 0x4 ADD PUSH2 0x377E SWAP1 PUSH2 0x8E7B JUMP JUMPDEST PUSH1 0x40 MLOAD DUP1 SWAP2 SUB SWAP1 REVERT JUMPDEST PUSH0 JUMPDEST PUSH1 0x20 DUP1 SLOAD SWAP1 POP DUP2 LT ISZERO PUSH2 0x3954 JUMPI DUP3 PUSH20 0xFFFFFFFFFFFFFFFFFFFFFFFFFFFFFFFFFFFFFFFF AND PUSH1 0x20 DUP3 DUP2 SLOAD DUP2 LT PUSH2 0x37C1 JUMPI PUSH2 0x37C0 PUSH2 0x87CD JUMP JUMPDEST JUMPDEST SWAP1 PUSH0 MSTORE PUSH1 0x20 PUSH0 KECCAK256 ADD PUSH0 SWAP1 SLOAD SWAP1 PUSH2 0x100 EXP SWAP1 DIV PUSH20 0xFFFFFFFFFFFFFFFFFFFFFFFFFFFFFFFFFFFFFFFF AND PUSH20 0xFFFFFFFFFFFFFFFFFFFFFFFFFFFFFFFFFFFFFFFF AND SUB PUSH2 0x3947 JUMPI PUSH1 0x20 PUSH1 0x1 PUSH1 0x12 DUP1 SLOAD SWAP1 POP PUSH2 0x3818 SWAP2 SWAP1 PUSH2 0x8827 JUMP JUMPDEST DUP2 SLOAD DUP2 LT PUSH2 0x3829 JUMPI PUSH2 0x3828 PUSH2 0x87CD JUMP JUMPDEST JUMPDEST SWAP1 PUSH0 MSTORE PUSH1 0x20 PUSH0 KECCAK256 ADD PUSH0 SWAP1 SLOAD SWAP1 PUSH2 0x100 EXP SWAP1 DIV PUSH20 0xFFFFFFFFFFFFFFFFFFFFFFFFFFFFFFFFFFFFFFFF AND PUSH1 0x20 DUP3 DUP2 SLOAD DUP2 LT PUSH2 0x3865 JUMPI PUSH2 0x3864 PUSH2 0x87CD JUMP JUMPDEST JUMPDEST SWAP1 PUSH0 MSTORE PUSH1 0x20 PUSH0 KECCAK256 ADD PUSH0 PUSH2 0x100 EXP DUP2 SLOAD DUP2 PUSH20 0xFFFFFFFFFFFFFFFFFFFFFFFFFFFFFFFFFFFFFFFF MUL NOT AND SWAP1 DUP4 PUSH20 0xFFFFFFFFFFFFFFFFFFFFFFFFFFFFFFFFFFFFFFFF AND MUL OR SWAP1 SSTORE POP PUSH0 PUSH1 0x21 PUSH0 DUP6 PUSH20 0xFFFFFFFFFFFFFFFFFFFFFFFFFFFFFFFFFFFFFFFF AND PUSH20 0xFFFFFFFFFFFFFFFFFFFFFFFFFFFFFFFFFFFFFFFF AND DUP2 MSTORE PUSH1 0x20 ADD SWAP1 DUP2 MSTORE PUSH1 0x20 ADD PUSH0 KECCAK256 PUSH0 PUSH2 0x100 EXP DUP2 SLOAD DUP2 PUSH1 0xFF MUL NOT AND SWAP1 DUP4 ISZERO ISZERO MUL OR SWAP1 SSTORE POP PUSH1 0x20 DUP1 SLOAD DUP1 PUSH2 0x3910 JUMPI PUSH2 0x390F PUSH2 0x885A JUMP JUMPDEST JUMPDEST PUSH1 0x1 SWAP1 SUB DUP2 DUP2 SWAP1 PUSH0 MSTORE PUSH1 0x20 PUSH0 KECCAK256 ADD PUSH0 PUSH2 0x100 EXP DUP2 SLOAD SWAP1 PUSH20 0xFFFFFFFFFFFFFFFFFFFFFFFFFFFFFFFFFFFFFFFF MUL NOT AND SWAP1 SSTORE SWAP1 SSTORE PUSH2 0x3954 JUMP JUMPDEST DUP1 DUP1 PUSH1 0x1 ADD SWAP2 POP POP PUSH2 0x3789 JUMP JUMPDEST POP PUSH1 0x1 SWAP1 POP SWAP2 SWAP1 POP JUMP JUMPDEST PUSH1 0x18 SLOAD DUP2 JUMP JUMPDEST PUSH0 PUSH1 0x3 PUSH0 PUSH2 0x3970 PUSH2 0x5D51 JUMP JUMPDEST PUSH20 0xFFFFFFFFFFFFFFFFFFFFFFFFFFFFFFFFFFFFFFFF AND PUSH20 0xFFFFFFFFFFFFFFFFFFFFFFFFFFFFFFFFFFFFFFFF AND DUP2 MSTORE PUSH1 0x20 ADD SWAP1 DUP2 MSTORE PUSH1 0x20 ADD PUSH0 KECCAK256 PUSH0 SWAP1 SLOAD SWAP1 PUSH2 0x100 EXP SWAP1 DIV PUSH1 0xFF AND PUSH2 0x39F5 JUMPI PUSH1 0x40 MLOAD PUSH32 0x8C379A000000000000000000000000000000000000000000000000000000000 DUP2 MSTORE PUSH1 0x4 ADD PUSH2 0x39EC SWAP1 PUSH2 0x859D JUMP JUMPDEST PUSH1 0x40 MLOAD DUP1 SWAP2 SUB SWAP1 REVERT JUMPDEST PUSH1 0x5 PUSH0 SWAP1 SLOAD SWAP1 PUSH2 0x100 EXP SWAP1 DIV PUSH1 0xFF AND ISZERO PUSH2 0x3A44 JUMPI PUSH1 0x40 MLOAD PUSH32 0x8C379A000000000000000000000000000000000000000000000000000000000 DUP2 MSTORE PUSH1 0x4 ADD PUSH2 0x3A3B SWAP1 PUSH2 0x8605 JUMP JUMPDEST PUSH1 0x40 MLOAD DUP1 SWAP2 SUB SWAP1 REVERT JUMPDEST PUSH1 0x64 DUP3 GT ISZERO PUSH2 0x3A88 JUMPI PUSH1 0x40 MLOAD PUSH32 0x8C379A000000000000000000000000000000000000000000000000000000000 DUP2 MSTORE PUSH1 0x4 ADD PUSH2 0x3A7F SWAP1 PUSH2 0x8F09 JUMP JUMPDEST PUSH1 0x40 MLOAD DUP1 SWAP2 SUB SWAP1 REVERT JUMPDEST DUP2 PUSH1 0x25 DUP2 SWAP1 SSTORE POP PUSH1 0x1 SWAP1 POP SWAP2 SWAP1 POP JUMP JUMPDEST PUSH0 PUSH1 0x3 PUSH0 PUSH2 0x3AA4 PUSH2 0x5D51 JUMP JUMPDEST PUSH20 0xFFFFFFFFFFFFFFFFFFFFFFFFFFFFFFFFFFFFFFFF AND PUSH20 0xFFFFFFFFFFFFFFFFFFFFFFFFFFFFFFFFFFFFFFFF AND DUP2 MSTORE PUSH1 0x20 ADD SWAP1 DUP2 MSTORE PUSH1 0x20 ADD PUSH0 KECCAK256 PUSH0 SWAP1 SLOAD SWAP1 PUSH2 0x100 EXP SWAP1 DIV PUSH1 0xFF AND PUSH2 0x3B29 JUMPI PUSH1 0x40 MLOAD PUSH32 0x8C379A000000000000000000000000000000000000000000000000000000000 DUP2 MSTORE PUSH1 0x4 ADD PUSH2 0x3B20 SWAP1 PUSH2 0x859D JUMP JUMPDEST PUSH1 0x40 MLOAD DUP1 SWAP2 SUB SWAP1 REVERT JUMPDEST PUSH1 0x5 PUSH0 SWAP1 SLOAD SWAP1 PUSH2 0x100 EXP SWAP1 DIV PUSH1 0xFF AND ISZERO PUSH2 0x3B78 JUMPI PUSH1 0x40 MLOAD PUSH32 0x8C379A000000000000000000000000000000000000000000000000000000000 DUP2 MSTORE PUSH1 0x4 ADD PUSH2 0x3B6F SWAP1 PUSH2 0x8605 JUMP JUMPDEST PUSH1 0x40 MLOAD DUP1 SWAP2 SUB SWAP1 REVERT JUMPDEST DUP2 PUSH1 0x2E DUP2 SWAP1 SSTORE POP PUSH1 0x1 SWAP1 POP SWAP2 SWAP1 POP JUMP JUMPDEST PUSH0 PUSH1 0xE PUSH0 DUP4 PUSH20 0xFFFFFFFFFFFFFFFFFFFFFFFFFFFFFFFFFFFFFFFF AND PUSH20 0xFFFFFFFFFFFFFFFFFFFFFFFFFFFFFFFFFFFFFFFF AND DUP2 MSTORE PUSH1 0x20 ADD SWAP1 DUP2 MSTORE PUSH1 0x20 ADD PUSH0 KECCAK256 PUSH0 SWAP1 SLOAD SWAP1 PUSH2 0x100 EXP SWAP1 DIV PUSH1 0xFF AND SWAP1 POP SWAP2 SWAP1 POP JUMP JUMPDEST PUSH1 0x24 SLOAD DUP2 JUMP JUMPDEST PUSH0 PUSH1 0x3 PUSH0 PUSH2 0x3BEC PUSH2 0x5D51 JUMP JUMPDEST PUSH20 0xFFFFFFFFFFFFFFFFFFFFFFFFFFFFFFFFFFFFFFFF AND PUSH20 0xFFFFFFFFFFFFFFFFFFFFFFFFFFFFFFFFFFFFFFFF AND DUP2 MSTORE PUSH1 0x20 ADD SWAP1 DUP2 MSTORE PUSH1 0x20 ADD PUSH0 KECCAK256 PUSH0 SWAP1 SLOAD SWAP1 PUSH2 0x100 EXP SWAP1 DIV PUSH1 0xFF AND PUSH2 0x3C71 JUMPI PUSH1 0x40 MLOAD PUSH32 0x8C379A000000000000000000000000000000000000000000000000000000000 DUP2 MSTORE PUSH1 0x4 ADD PUSH2 0x3C68 SWAP1 PUSH2 0x859D JUMP JUMPDEST PUSH1 0x40 MLOAD DUP1 SWAP2 SUB SWAP1 REVERT JUMPDEST PUSH1 0x5 PUSH0 SWAP1 SLOAD SWAP1 PUSH2 0x100 EXP SWAP1 DIV PUSH1 0xFF AND ISZERO PUSH2 0x3CC0 JUMPI PUSH1 0x40 MLOAD PUSH32 0x8C379A000000000000000000000000000000000000000000000000000000000 DUP2 MSTORE PUSH1 0x4 ADD PUSH2 0x3CB7 SWAP1 PUSH2 0x8605 JUMP JUMPDEST PUSH1 0x40 MLOAD DUP1 SWAP2 SUB SWAP1 REVERT JUMPDEST PUSH2 0x3CC8 PUSH2 0x5D58 JUMP JUMPDEST PUSH20 0xFFFFFFFFFFFFFFFFFFFFFFFFFFFFFFFFFFFFFFFF AND DUP3 PUSH20 0xFFFFFFFFFFFFFFFFFFFFFFFFFFFFFFFFFFFFFFFF AND SUB PUSH2 0x3D35 JUMPI PUSH1 0x40 MLOAD PUSH32 0x8C379A000000000000000000000000000000000000000000000000000000000 DUP2 MSTORE PUSH1 0x4 ADD PUSH2 0x3D2C SWAP1 PUSH2 0x8F97 JUMP JUMPDEST PUSH1 0x40 MLOAD DUP1 SWAP2 SUB SWAP1 REVERT JUMPDEST PUSH1 0x2A PUSH0 SWAP1 SLOAD SWAP1 PUSH2 0x100 EXP SWAP1 DIV PUSH20 0xFFFFFFFFFFFFFFFFFFFFFFFFFFFFFFFFFFFFFFFF AND PUSH20 0xFFFFFFFFFFFFFFFFFFFFFFFFFFFFFFFFFFFFFFFF AND DUP3 PUSH20 0xFFFFFFFFFFFFFFFFFFFFFFFFFFFFFFFFFFFFFFFF AND SUB PUSH2 0x3DC4 JUMPI PUSH1 0x40 MLOAD PUSH32 0x8C379A000000000000000000000000000000000000000000000000000000000 DUP2 MSTORE PUSH1 0x4 ADD PUSH2 0x3DBB SWAP1 PUSH2 0x9025 JUMP JUMPDEST PUSH1 0x40 MLOAD DUP1 SWAP2 SUB SWAP1 REVERT JUMPDEST PUSH0 PUSH1 0xE PUSH0 DUP5 PUSH20 0xFFFFFFFFFFFFFFFFFFFFFFFFFFFFFFFFFFFFFFFF AND PUSH20 0xFFFFFFFFFFFFFFFFFFFFFFFFFFFFFFFFFFFFFFFF AND DUP2 MSTORE PUSH1 0x20 ADD SWAP1 DUP2 MSTORE PUSH1 0x20 ADD PUSH0 KECCAK256 PUSH0 PUSH2 0x100 EXP DUP2 SLOAD DUP2 PUSH1 0xFF MUL NOT AND SWAP1 DUP4 ISZERO ISZERO MUL OR SWAP1 SSTORE POP PUSH1 0x1 SWAP1 POP SWAP2 SWAP1 POP JUMP JUMPDEST PUSH1 0x2E SLOAD DUP2 JUMP JUMPDEST PUSH1 0x16 SLOAD DUP2 JUMP JUMPDEST PUSH0 PUSH1 0x3 PUSH0 PUSH2 0x3E39 PUSH2 0x5D51 JUMP JUMPDEST PUSH20 0xFFFFFFFFFFFFFFFFFFFFFFFFFFFFFFFFFFFFFFFF AND PUSH20 0xFFFFFFFFFFFFFFFFFFFFFFFFFFFFFFFFFFFFFFFF AND DUP2 MSTORE PUSH1 0x20 ADD SWAP1 DUP2 MSTORE PUSH1 0x20 ADD PUSH0 KECCAK256 PUSH0 SWAP1 SLOAD SWAP1 PUSH2 0x100 EXP SWAP1 DIV PUSH1 0xFF AND PUSH2 0x3EBE JUMPI PUSH1 0x40 MLOAD PUSH32 0x8C379A000000000000000000000000000000000000000000000000000000000 DUP2 MSTORE PUSH1 0x4 ADD PUSH2 0x3EB5 SWAP1 PUSH2 0x859D JUMP JUMPDEST PUSH1 0x40 MLOAD DUP1 SWAP2 SUB SWAP1 REVERT JUMPDEST PUSH1 0x5 PUSH0 SWAP1 SLOAD SWAP1 PUSH2 0x100 EXP SWAP1 DIV PUSH1 0xFF AND ISZERO PUSH2 0x3F0D JUMPI PUSH1 0x40 MLOAD PUSH32 0x8C379A000000000000000000000000000000000000000000000000000000000 DUP2 MSTORE PUSH1 0x4 ADD PUSH2 0x3F04 SWAP1 PUSH2 0x8605 JUMP JUMPDEST PUSH1 0x40 MLOAD DUP1 SWAP2 SUB SWAP1 REVERT JUMPDEST PUSH1 0x64 DUP3 GT ISZERO PUSH2 0x3F51 JUMPI PUSH1 0x40 MLOAD PUSH32 0x8C379A000000000000000000000000000000000000000000000000000000000 DUP2 MSTORE PUSH1 0x4 ADD PUSH2 0x3F48 SWAP1 PUSH2 0x90B3 JUMP JUMPDEST PUSH1 0x40 MLOAD DUP1 SWAP2 SUB SWAP1 REVERT JUMPDEST DUP2 PUSH1 0x2C DUP2 SWAP1 SSTORE POP PUSH1 0x1 SWAP1 POP SWAP2 SWAP1 POP JUMP JUMPDEST PUSH0 PUSH1 0x10 PUSH0 DUP4 PUSH20 0xFFFFFFFFFFFFFFFFFFFFFFFFFFFFFFFFFFFFFFFF AND PUSH20 0xFFFFFFFFFFFFFFFFFFFFFFFFFFFFFFFFFFFFFFFF AND DUP2 MSTORE PUSH1 0x20 ADD SWAP1 DUP2 MSTORE PUSH1 0x20 ADD PUSH0 KECCAK256 PUSH0 SWAP1 SLOAD SWAP1 PUSH2 0x100 EXP SWAP1 DIV PUSH1 0xFF AND PUSH2 0x400C JUMPI PUSH2 0x4007 PUSH2 0x3FBB PUSH2 0x7260 JUMP JUMPDEST PUSH1 0x11 PUSH0 DUP6 PUSH20 0xFFFFFFFFFFFFFFFFFFFFFFFFFFFFFFFFFFFFFFFF AND PUSH20 0xFFFFFFFFFFFFFFFFFFFFFFFFFFFFFFFFFFFFFFFF AND DUP2 MSTORE PUSH1 0x20 ADD SWAP1 DUP2 MSTORE PUSH1 0x20 ADD PUSH0 KECCAK256 SLOAD PUSH2 0x7289 SWAP1 SWAP2 SWAP1 PUSH4 0xFFFFFFFF AND JUMP JUMPDEST PUSH2 0x404B JUMP JUMPDEST PUSH1 0xB PUSH0 DUP4 PUSH20 0xFFFFFFFFFFFFFFFFFFFFFFFFFFFFFFFFFFFFFFFF AND PUSH20 0xFFFFFFFFFFFFFFFFFFFFFFFFFFFFFFFFFFFFFFFF AND DUP2 MSTORE PUSH1 0x20 ADD SWAP1 DUP2 MSTORE PUSH1 0x20 ADD PUSH0 KECCAK256 SLOAD JUMPDEST SWAP1 POP SWAP2 SWAP1 POP JUMP JUMPDEST PUSH0 PUSH2 0x405B PUSH2 0x2C19 JUMP JUMPDEST SWAP1 POP SWAP1 JUMP JUMPDEST PUSH1 0x1A SLOAD DUP2 JUMP JUMPDEST PUSH0 PUSH1 0x3 PUSH0 PUSH2 0x4072 PUSH2 0x5D51 JUMP JUMPDEST PUSH20 0xFFFFFFFFFFFFFFFFFFFFFFFFFFFFFFFFFFFFFFFF AND PUSH20 0xFFFFFFFFFFFFFFFFFFFFFFFFFFFFFFFFFFFFFFFF AND DUP2 MSTORE PUSH1 0x20 ADD SWAP1 DUP2 MSTORE PUSH1 0x20 ADD PUSH0 KECCAK256 PUSH0 SWAP1 SLOAD SWAP1 PUSH2 0x100 EXP SWAP1 DIV PUSH1 0xFF AND PUSH2 0x40F7 JUMPI PUSH1 0x40 MLOAD PUSH32 0x8C379A000000000000000000000000000000000000000000000000000000000 DUP2 MSTORE PUSH1 0x4 ADD PUSH2 0x40EE SWAP1 PUSH2 0x859D JUMP JUMPDEST PUSH1 0x40 MLOAD DUP1 SWAP2 SUB SWAP1 REVERT JUMPDEST PUSH1 0x5 PUSH0 SWAP1 SLOAD SWAP1 PUSH2 0x100 EXP SWAP1 DIV PUSH1 0xFF AND ISZERO PUSH2 0x4146 JUMPI PUSH1 0x40 MLOAD PUSH32 0x8C379A000000000000000000000000000000000000000000000000000000000 DUP2 MSTORE PUSH1 0x4 ADD PUSH2 0x413D SWAP1 PUSH2 0x8605 JUMP JUMPDEST PUSH1 0x40 MLOAD DUP1 SWAP2 SUB SWAP1 REVERT JUMPDEST PUSH1 0xA SLOAD DUP3 GT ISZERO PUSH2 0x418B JUMPI PUSH1 0x40 MLOAD PUSH32 0x8C379A000000000000000000000000000000000000000000000000000000000 DUP2 MSTORE PUSH1 0x4 ADD PUSH2 0x4182 SWAP1 PUSH2 0x9141 JUMP JUMPDEST PUSH1 0x40 MLOAD DUP1 SWAP2 SUB SWAP1 REVERT JUMPDEST DUP2 PUSH1 0xF DUP2 SWAP1 SSTORE POP PUSH1 0x1 SWAP1 POP SWAP2 SWAP1 POP JUMP JUMPDEST PUSH0 PUSH1 0x3 PUSH0 PUSH2 0x41A7 PUSH2 0x5D51 JUMP JUMPDEST PUSH20 0xFFFFFFFFFFFFFFFFFFFFFFFFFFFFFFFFFFFFFFFF AND PUSH20 0xFFFFFFFFFFFFFFFFFFFFFFFFFFFFFFFFFFFFFFFF AND DUP2 MSTORE PUSH1 0x20 ADD SWAP1 DUP2 MSTORE PUSH1 0x20 ADD PUSH0 KECCAK256 PUSH0 SWAP1 SLOAD SWAP1 PUSH2 0x100 EXP SWAP1 DIV PUSH1 0xFF AND PUSH2 0x422C JUMPI PUSH1 0x40 MLOAD PUSH32 0x8C379A000000000000000000000000000000000000000000000000000000000 DUP2 MSTORE PUSH1 0x4 ADD PUSH2 0x4223 SWAP1 PUSH2 0x859D JUMP JUMPDEST PUSH1 0x40 MLOAD DUP1 SWAP2 SUB SWAP1 REVERT JUMPDEST PUSH1 0x5 PUSH0 SWAP1 SLOAD SWAP1 PUSH2 0x100 EXP SWAP1 DIV PUSH1 0xFF AND ISZERO PUSH2 0x427B JUMPI PUSH1 0x40 MLOAD PUSH32 0x8C379A000000000000000000000000000000000000000000000000000000000 DUP2 MSTORE PUSH1 0x4 ADD PUSH2 0x4272 SWAP1 PUSH2 0x8605 JUMP JUMPDEST PUSH1 0x40 MLOAD DUP1 SWAP2 SUB SWAP1 REVERT JUMPDEST PUSH2 0x4284 DUP3 PUSH2 0x7342 JUMP JUMPDEST PUSH1 0x1 SWAP1 POP SWAP2 SWAP1 POP JUMP JUMPDEST PUSH0 PUSH1 0x3 PUSH0 PUSH2 0x4299 PUSH2 0x5D51 JUMP JUMPDEST PUSH20 0xFFFFFFFFFFFFFFFFFFFFFFFFFFFFFFFFFFFFFFFF AND PUSH20 0xFFFFFFFFFFFFFFFFFFFFFFFFFFFFFFFFFFFFFFFF AND DUP2 MSTORE PUSH1 0x20 ADD SWAP1 DUP2 MSTORE PUSH1 0x20 ADD PUSH0 KECCAK256 PUSH0 SWAP1 SLOAD SWAP1 PUSH2 0x100 EXP SWAP1 DIV PUSH1 0xFF AND PUSH2 0x431E JUMPI PUSH1 0x40 MLOAD PUSH32 0x8C379A000000000000000000000000000000000000000000000000000000000 DUP2 MSTORE PUSH1 0x4 ADD PUSH2 0x4315 SWAP1 PUSH2 0x859D JUMP JUMPDEST PUSH1 0x40 MLOAD DUP1 SWAP2 SUB SWAP1 REVERT JUMPDEST PUSH1 0x5 PUSH0 SWAP1 SLOAD SWAP1 PUSH2 0x100 EXP SWAP1 DIV PUSH1 0xFF AND ISZERO PUSH2 0x436D JUMPI PUSH1 0x40 MLOAD PUSH32 0x8C379A000000000000000000000000000000000000000000000000000000000 DUP2 MSTORE PUSH1 0x4 ADD PUSH2 0x4364 SWAP1 PUSH2 0x8605 JUMP JUMPDEST PUSH1 0x40 MLOAD DUP1 SWAP2 SUB SWAP1 REVERT JUMPDEST PUSH1 0x14 DUP3 PUSH1 0x17 SLOAD PUSH1 0x1C SLOAD PUSH2 0x4380 SWAP2 SWAP1 PUSH2 0x8827 JUMP JUMPDEST PUSH2 0x438A SWAP2 SWAP1 PUSH2 0x8A8E JUMP JUMPDEST GT ISZERO PUSH2 0x43CB JUMPI PUSH1 0x40 MLOAD PUSH32 0x8C379A000000000000000000000000000000000000000000000000000000000 DUP2 MSTORE PUSH1 0x4 ADD PUSH2 0x43C2 SWAP1 PUSH2 0x8B0B JUMP JUMPDEST PUSH1 0x40 MLOAD DUP1 SWAP2 SUB SWAP1 REVERT JUMPDEST DUP2 PUSH1 0x17 DUP2 SWAP1 SSTORE POP PUSH1 0x18 SLOAD PUSH1 0x17 SLOAD PUSH1 0x16 SLOAD PUSH2 0x43E5 SWAP2 SWAP1 PUSH2 0x8A8E JUMP JUMPDEST PUSH2 0x43EF SWAP2 SWAP1 PUSH2 0x8A8E JUMP JUMPDEST PUSH1 0x1C DUP2 SWAP1 SSTORE POP PUSH1 0x1 SWAP1 POP SWAP2 SWAP1 POP JUMP JUMPDEST PUSH1 0x60 PUSH1 0x8 DUP1 SLOAD PUSH2 0x440D SWAP1 PUSH2 0x88B4 JUMP JUMPDEST DUP1 PUSH1 0x1F ADD PUSH1 0x20 DUP1 SWAP2 DIV MUL PUSH1 0x20 ADD PUSH1 0x40 MLOAD SWAP1 DUP2 ADD PUSH1 0x40 MSTORE DUP1 SWAP3 SWAP2 SWAP1 DUP2 DUP2 MSTORE PUSH1 0x20 ADD DUP3 DUP1 SLOAD PUSH2 0x4439 SWAP1 PUSH2 0x88B4 JUMP JUMPDEST DUP1 ISZERO PUSH2 0x4484 JUMPI DUP1 PUSH1 0x1F LT PUSH2 0x445B JUMPI PUSH2 0x100 DUP1 DUP4 SLOAD DIV MUL DUP4 MSTORE SWAP2 PUSH1 0x20 ADD SWAP2 PUSH2 0x4484 JUMP JUMPDEST DUP3 ADD SWAP2 SWAP1 PUSH0 MSTORE PUSH1 0x20 PUSH0 KECCAK256 SWAP1 JUMPDEST DUP2 SLOAD DUP2 MSTORE SWAP1 PUSH1 0x1 ADD SWAP1 PUSH1 0x20 ADD DUP1 DUP4 GT PUSH2 0x4467 JUMPI DUP3 SWAP1 SUB PUSH1 0x1F AND DUP3 ADD SWAP2 JUMPDEST POP POP POP POP POP SWAP1 POP SWAP1 JUMP JUMPDEST PUSH1 0x2B SLOAD DUP2 JUMP JUMPDEST PUSH0 PUSH1 0x3 PUSH0 PUSH2 0x44A0 PUSH2 0x5D51 JUMP JUMPDEST PUSH20 0xFFFFFFFFFFFFFFFFFFFFFFFFFFFFFFFFFFFFFFFF AND PUSH20 0xFFFFFFFFFFFFFFFFFFFFFFFFFFFFFFFFFFFFFFFF AND DUP2 MSTORE PUSH1 0x20 ADD SWAP1 DUP2 MSTORE PUSH1 0x20 ADD PUSH0 KECCAK256 PUSH0 SWAP1 SLOAD SWAP1 PUSH2 0x100 EXP SWAP1 DIV PUSH1 0xFF AND PUSH2 0x4525 JUMPI PUSH1 0x40 MLOAD PUSH32 0x8C379A000000000000000000000000000000000000000000000000000000000 DUP2 MSTORE PUSH1 0x4 ADD PUSH2 0x451C SWAP1 PUSH2 0x859D JUMP JUMPDEST PUSH1 0x40 MLOAD DUP1 SWAP2 SUB SWAP1 REVERT JUMPDEST PUSH1 0x5 PUSH0 SWAP1 SLOAD SWAP1 PUSH2 0x100 EXP SWAP1 DIV PUSH1 0xFF AND ISZERO PUSH2 0x4574 JUMPI PUSH1 0x40 MLOAD PUSH32 0x8C379A000000000000000000000000000000000000000000000000000000000 DUP2 MSTORE PUSH1 0x4 ADD PUSH2 0x456B SWAP1 PUSH2 0x8605 JUMP JUMPDEST PUSH1 0x40 MLOAD DUP1 SWAP2 SUB SWAP1 REVERT JUMPDEST PUSH1 0x14 DUP3 PUSH1 0x1A SLOAD PUSH1 0x1D SLOAD PUSH2 0x4587 SWAP2 SWAP1 PUSH2 0x8827 JUMP JUMPDEST PUSH2 0x4591 SWAP2 SWAP1 PUSH2 0x8A8E JUMP JUMPDEST GT ISZERO PUSH2 0x45D2 JUMPI PUSH1 0x40 MLOAD PUSH32 0x8C379A000000000000000000000000000000000000000000000000000000000 DUP2 MSTORE PUSH1 0x4 ADD PUSH2 0x45C9 SWAP1 PUSH2 0x91A9 JUMP JUMPDEST PUSH1 0x40 MLOAD DUP1 SWAP2 SUB SWAP1 REVERT JUMPDEST DUP2 PUSH1 0x1A DUP2 SWAP1 SSTORE POP PUSH1 0x1B SLOAD PUSH1 0x1A SLOAD PUSH1 0x19 SLOAD PUSH2 0x45EC SWAP2 SWAP1 PUSH2 0x8A8E JUMP JUMPDEST PUSH2 0x45F6 SWAP2 SWAP1 PUSH2 0x8A8E JUMP JUMPDEST PUSH1 0x1D DUP2 SWAP1 SSTORE POP PUSH1 0x1 SWAP1 POP SWAP2 SWAP1 POP JUMP JUMPDEST PUSH0 PUSH1 0xC PUSH0 PUSH2 0x4611 PUSH2 0x5D51 JUMP JUMPDEST PUSH20 0xFFFFFFFFFFFFFFFFFFFFFFFFFFFFFFFFFFFFFFFF AND PUSH20 0xFFFFFFFFFFFFFFFFFFFFFFFFFFFFFFFFFFFFFFFF AND DUP2 MSTORE PUSH1 0x20 ADD SWAP1 DUP2 MSTORE PUSH1 0x20 ADD PUSH0 KECCAK256 PUSH0 DUP5 PUSH20 0xFFFFFFFFFFFFFFFFFFFFFFFFFFFFFFFFFFFFFFFF AND PUSH20 0xFFFFFFFFFFFFFFFFFFFFFFFFFFFFFFFFFFFFFFFF AND DUP2 MSTORE PUSH1 0x20 ADD SWAP1 DUP2 MSTORE PUSH1 0x20 ADD PUSH0 KECCAK256 SLOAD DUP3 GT PUSH2 0x4734 JUMPI PUSH2 0x472F PUSH2 0x4697 PUSH2 0x5D51 JUMP JUMPDEST DUP5 PUSH2 0x472A DUP6 PUSH1 0xC PUSH0 PUSH2 0x46A7 PUSH2 0x5D51 JUMP JUMPDEST PUSH20 0xFFFFFFFFFFFFFFFFFFFFFFFFFFFFFFFFFFFFFFFF AND PUSH20 0xFFFFFFFFFFFFFFFFFFFFFFFFFFFFFFFFFFFFFFFF AND DUP2 MSTORE PUSH1 0x20 ADD SWAP1 DUP2 MSTORE PUSH1 0x20 ADD PUSH0 KECCAK256 PUSH0 DUP10 PUSH20 0xFFFFFFFFFFFFFFFFFFFFFFFFFFFFFFFFFFFFFFFF AND PUSH20 0xFFFFFFFFFFFFFFFFFFFFFFFFFFFFFFFFFFFFFFFF AND DUP2 MSTORE PUSH1 0x20 ADD SWAP1 DUP2 MSTORE PUSH1 0x20 ADD PUSH0 KECCAK256 SLOAD PUSH2 0x75A7 SWAP1 SWAP2 SWAP1 PUSH4 0xFFFFFFFF AND JUMP JUMPDEST PUSH2 0x5D7F JUMP JUMPDEST PUSH2 0x4747 JUMP JUMPDEST PUSH2 0x4746 PUSH2 0x473F PUSH2 0x5D51 JUMP JUMPDEST DUP5 PUSH0 PUSH2 0x5D7F JUMP JUMPDEST JUMPDEST PUSH1 0x1 SWAP1 POP SWAP3 SWAP2 POP POP JUMP JUMPDEST PUSH0 PUSH1 0x3 PUSH0 PUSH2 0x475D PUSH2 0x5D51 JUMP JUMPDEST PUSH20 0xFFFFFFFFFFFFFFFFFFFFFFFFFFFFFFFFFFFFFFFF AND PUSH20 0xFFFFFFFFFFFFFFFFFFFFFFFFFFFFFFFFFFFFFFFF AND DUP2 MSTORE PUSH1 0x20 ADD SWAP1 DUP2 MSTORE PUSH1 0x20 ADD PUSH0 KECCAK256 PUSH0 SWAP1 SLOAD SWAP1 PUSH2 0x100 EXP SWAP1 DIV PUSH1 0xFF AND PUSH2 0x47E2 JUMPI PUSH1 0x40 MLOAD PUSH32 0x8C379A000000000000000000000000000000000000000000000000000000000 DUP2 MSTORE PUSH1 0x4 ADD PUSH2 0x47D9 SWAP1 PUSH2 0x859D JUMP JUMPDEST PUSH1 0x40 MLOAD DUP1 SWAP2 SUB SWAP1 REVERT JUMPDEST PUSH1 0x5 PUSH0 SWAP1 SLOAD SWAP1 PUSH2 0x100 EXP SWAP1 DIV PUSH1 0xFF AND ISZERO PUSH2 0x4831 JUMPI PUSH1 0x40 MLOAD PUSH32 0x8C379A000000000000000000000000000000000000000000000000000000000 DUP2 MSTORE PUSH1 0x4 ADD PUSH2 0x4828 SWAP1 PUSH2 0x8605 JUMP JUMPDEST PUSH1 0x40 MLOAD DUP1 SWAP2 SUB SWAP1 REVERT JUMPDEST DUP2 PUSH1 0x14 PUSH0 PUSH2 0x100 EXP DUP2 SLOAD DUP2 PUSH1 0xFF MUL NOT AND SWAP1 DUP4 ISZERO ISZERO MUL OR SWAP1 SSTORE POP DUP2 PUSH2 0x4869 JUMPI PUSH0 PUSH1 0x23 PUSH0 PUSH2 0x100 EXP DUP2 SLOAD DUP2 PUSH1 0xFF MUL NOT AND SWAP1 DUP4 ISZERO ISZERO MUL OR SWAP1 SSTORE POP JUMPDEST PUSH1 0x1 SWAP1 POP SWAP2 SWAP1 POP JUMP JUMPDEST PUSH0 PUSH2 0x4885 PUSH2 0x487E PUSH2 0x5D51 JUMP JUMPDEST DUP5 DUP5 PUSH2 0x5F42 JUMP JUMPDEST PUSH1 0x1 SWAP1 POP SWAP3 SWAP2 POP POP JUMP JUMPDEST PUSH0 PUSH1 0x2 PUSH0 SWAP1 SLOAD SWAP1 PUSH2 0x100 EXP SWAP1 DIV PUSH20 0xFFFFFFFFFFFFFFFFFFFFFFFFFFFFFFFFFFFFFFFF AND PUSH20 0xFFFFFFFFFFFFFFFFFFFFFFFFFFFFFFFFFFFFFFFF AND PUSH2 0x48D0 PUSH2 0x5D51 JUMP JUMPDEST PUSH20 0xFFFFFFFFFFFFFFFFFFFFFFFFFFFFFFFFFFFFFFFF AND EQ PUSH2 0x4926 JUMPI PUSH1 0x40 MLOAD PUSH32 0x8C379A000000000000000000000000000000000000000000000000000000000 DUP2 MSTORE PUSH1 0x4 ADD PUSH2 0x491D SWAP1 PUSH2 0x8954 JUMP JUMPDEST PUSH1 0x40 MLOAD DUP1 SWAP2 SUB SWAP1 REVERT JUMPDEST PUSH1 0x5 PUSH0 SWAP1 SLOAD SWAP1 PUSH2 0x100 EXP SWAP1 DIV PUSH1 0xFF AND ISZERO DUP1 PUSH2 0x4943 JUMPI POP PUSH1 0x6 SLOAD TIMESTAMP LT ISZERO JUMPDEST PUSH2 0x4982 JUMPI PUSH1 0x40 MLOAD PUSH32 0x8C379A000000000000000000000000000000000000000000000000000000000 DUP2 MSTORE PUSH1 0x4 ADD PUSH2 0x4979 SWAP1 PUSH2 0x8605 JUMP JUMPDEST PUSH1 0x40 MLOAD DUP1 SWAP2 SUB SWAP1 REVERT JUMPDEST PUSH1 0x3 PUSH0 DUP4 PUSH20 0xFFFFFFFFFFFFFFFFFFFFFFFFFFFFFFFFFFFFFFFF AND PUSH20 0xFFFFFFFFFFFFFFFFFFFFFFFFFFFFFFFFFFFFFFFF AND DUP2 MSTORE PUSH1 0x20 ADD SWAP1 DUP2 MSTORE PUSH1 0x20 ADD PUSH0 KECCAK256 PUSH0 SWAP1 SLOAD SWAP1 PUSH2 0x100 EXP SWAP1 DIV PUSH1 0xFF AND PUSH2 0x4A0B JUMPI PUSH1 0x40 MLOAD PUSH32 0x8C379A000000000000000000000000000000000000000000000000000000000 DUP2 MSTORE PUSH1 0x4 ADD PUSH2 0x4A02 SWAP1 PUSH2 0x9211 JUMP JUMPDEST PUSH1 0x40 MLOAD DUP1 SWAP2 SUB SWAP1 REVERT JUMPDEST PUSH1 0x2 PUSH0 SWAP1 SLOAD SWAP1 PUSH2 0x100 EXP SWAP1 DIV PUSH20 0xFFFFFFFFFFFFFFFFFFFFFFFFFFFFFFFFFFFFFFFF AND PUSH20 0xFFFFFFFFFFFFFFFFFFFFFFFFFFFFFFFFFFFFFFFF AND DUP3 PUSH20 0xFFFFFFFFFFFFFFFFFFFFFFFFFFFFFFFFFFFFFFFF AND SUB PUSH2 0x4A9A JUMPI PUSH1 0x40 MLOAD PUSH32 0x8C379A000000000000000000000000000000000000000000000000000000000 DUP2 MSTORE PUSH1 0x4 ADD PUSH2 0x4A91 SWAP1 PUSH2 0x929F JUMP JUMPDEST PUSH1 0x40 MLOAD DUP1 SWAP2 SUB SWAP1 REVERT JUMPDEST PUSH0 PUSH1 0x3 PUSH0 DUP5 PUSH20 0xFFFFFFFFFFFFFFFFFFFFFFFFFFFFFFFFFFFFFFFF AND PUSH20 0xFFFFFFFFFFFFFFFFFFFFFFFFFFFFFFFFFFFFFFFF AND DUP2 MSTORE PUSH1 0x20 ADD SWAP1 DUP2 MSTORE PUSH1 0x20 ADD PUSH0 KECCAK256 PUSH0 PUSH2 0x100 EXP DUP2 SLOAD DUP2 PUSH1 0xFF MUL NOT AND SWAP1 DUP4 ISZERO ISZERO MUL OR SWAP1 SSTORE POP PUSH0 JUMPDEST PUSH1 0x4 DUP1 SLOAD SWAP1 POP DUP2 LT ISZERO PUSH2 0x4C67 JUMPI DUP3 PUSH20 0xFFFFFFFFFFFFFFFFFFFFFFFFFFFFFFFFFFFFFFFF AND PUSH1 0x4 DUP3 DUP2 SLOAD DUP2 LT PUSH2 0x4B28 JUMPI PUSH2 0x4B27 PUSH2 0x87CD JUMP JUMPDEST JUMPDEST SWAP1 PUSH0 MSTORE PUSH1 0x20 PUSH0 KECCAK256 ADD PUSH0 SWAP1 SLOAD SWAP1 PUSH2 0x100 EXP SWAP1 DIV PUSH20 0xFFFFFFFFFFFFFFFFFFFFFFFFFFFFFFFFFFFFFFFF AND PUSH20 0xFFFFFFFFFFFFFFFFFFFFFFFFFFFFFFFFFFFFFFFF AND SUB PUSH2 0x4C5A JUMPI PUSH1 0x4 PUSH1 0x1 PUSH1 0x4 DUP1 SLOAD SWAP1 POP PUSH2 0x4B7F SWAP2 SWAP1 PUSH2 0x8827 JUMP JUMPDEST DUP2 SLOAD DUP2 LT PUSH2 0x4B90 JUMPI PUSH2 0x4B8F PUSH2 0x87CD JUMP JUMPDEST JUMPDEST SWAP1 PUSH0 MSTORE PUSH1 0x20 PUSH0 KECCAK256 ADD PUSH0 SWAP1 SLOAD SWAP1 PUSH2 0x100 EXP SWAP1 DIV PUSH20 0xFFFFFFFFFFFFFFFFFFFFFFFFFFFFFFFFFFFFFFFF AND PUSH1 0x4 DUP3 DUP2 SLOAD DUP2 LT PUSH2 0x4BCC JUMPI PUSH2 0x4BCB PUSH2 0x87CD JUMP JUMPDEST JUMPDEST SWAP1 PUSH0 MSTORE PUSH1 0x20 PUSH0 KECCAK256 ADD PUSH0 PUSH2 0x100 EXP DUP2 SLOAD DUP2 PUSH20 0xFFFFFFFFFFFFFFFFFFFFFFFFFFFFFFFFFFFFFFFF MUL NOT AND SWAP1 DUP4 PUSH20 0xFFFFFFFFFFFFFFFFFFFFFFFFFFFFFFFFFFFFFFFF AND MUL OR SWAP1 SSTORE POP PUSH1 0x4 DUP1 SLOAD DUP1 PUSH2 0x4C23 JUMPI PUSH2 0x4C22 PUSH2 0x885A JUMP JUMPDEST JUMPDEST PUSH1 0x1 SWAP1 SUB DUP2 DUP2 SWAP1 PUSH0 MSTORE PUSH1 0x20 PUSH0 KECCAK256 ADD PUSH0 PUSH2 0x100 EXP DUP2 SLOAD SWAP1 PUSH20 0xFFFFFFFFFFFFFFFFFFFFFFFFFFFFFFFFFFFFFFFF MUL NOT AND SWAP1 SSTORE SWAP1 SSTORE PUSH2 0x4C67 JUMP JUMPDEST DUP1 DUP1 PUSH1 0x1 ADD SWAP2 POP POP PUSH2 0x4AF0 JUMP JUMPDEST POP PUSH32 0xEF69F7D97228658C92417BE1B16B19058315DE71FECB435D07B7D23728B6BD31 DUP3 PUSH1 0x40 MLOAD PUSH2 0x4C97 SWAP2 SWAP1 PUSH2 0x84C3 JUMP JUMPDEST PUSH1 0x40 MLOAD DUP1 SWAP2 SUB SWAP1 LOG1 PUSH1 0x1 SWAP1 POP SWAP2 SWAP1 POP JUMP JUMPDEST PUSH0 PUSH1 0x3 PUSH0 PUSH2 0x4CB4 PUSH2 0x5D51 JUMP JUMPDEST PUSH20 0xFFFFFFFFFFFFFFFFFFFFFFFFFFFFFFFFFFFFFFFF AND PUSH20 0xFFFFFFFFFFFFFFFFFFFFFFFFFFFFFFFFFFFFFFFF AND DUP2 MSTORE PUSH1 0x20 ADD SWAP1 DUP2 MSTORE PUSH1 0x20 ADD PUSH0 KECCAK256 PUSH0 SWAP1 SLOAD SWAP1 PUSH2 0x100 EXP SWAP1 DIV PUSH1 0xFF AND PUSH2 0x4D39 JUMPI PUSH1 0x40 MLOAD PUSH32 0x8C379A000000000000000000000000000000000000000000000000000000000 DUP2 MSTORE PUSH1 0x4 ADD PUSH2 0x4D30 SWAP1 PUSH2 0x859D JUMP JUMPDEST PUSH1 0x40 MLOAD DUP1 SWAP2 SUB SWAP1 REVERT JUMPDEST PUSH1 0x5 PUSH0 SWAP1 SLOAD SWAP1 PUSH2 0x100 EXP SWAP1 DIV PUSH1 0xFF AND ISZERO PUSH2 0x4D88 JUMPI PUSH1 0x40 MLOAD PUSH32 0x8C379A000000000000000000000000000000000000000000000000000000000 DUP2 MSTORE PUSH1 0x4 ADD PUSH2 0x4D7F SWAP1 PUSH2 0x8605 JUMP JUMPDEST PUSH1 0x40 MLOAD DUP1 SWAP2 SUB SWAP1 REVERT JUMPDEST PUSH1 0x14 DUP3 PUSH1 0x16 SLOAD PUSH1 0x1C SLOAD PUSH2 0x4D9B SWAP2 SWAP1 PUSH2 0x8827 JUMP JUMPDEST PUSH2 0x4DA5 SWAP2 SWAP1 PUSH2 0x8A8E JUMP JUMPDEST GT ISZERO PUSH2 0x4DE6 JUMPI PUSH1 0x40 MLOAD PUSH32 0x8C379A000000000000000000000000000000000000000000000000000000000 DUP2 MSTORE PUSH1 0x4 ADD PUSH2 0x4DDD SWAP1 PUSH2 0x8B0B JUMP JUMPDEST PUSH1 0x40 MLOAD DUP1 SWAP2 SUB SWAP1 REVERT JUMPDEST DUP2 PUSH1 0x16 DUP2 SWAP1 SSTORE POP PUSH1 0x18 SLOAD PUSH1 0x17 SLOAD PUSH1 0x16 SLOAD PUSH2 0x4E00 SWAP2 SWAP1 PUSH2 0x8A8E JUMP JUMPDEST PUSH2 0x4E0A SWAP2 SWAP1 PUSH2 0x8A8E JUMP JUMPDEST PUSH1 0x1C DUP2 SWAP1 SSTORE POP PUSH1 0x1 SWAP1 POP SWAP2 SWAP1 POP JUMP JUMPDEST PUSH1 0x1E PUSH0 SWAP1 SLOAD SWAP1 PUSH2 0x100 EXP SWAP1 DIV PUSH20 0xFFFFFFFFFFFFFFFFFFFFFFFFFFFFFFFFFFFFFFFF AND DUP2 JUMP JUMPDEST PUSH1 0x23 PUSH0 SWAP1 SLOAD SWAP1 PUSH2 0x100 EXP SWAP1 DIV PUSH1 0xFF AND DUP2 JUMP JUMPDEST PUSH0 PUSH1 0x2 PUSH0 SWAP1 SLOAD SWAP1 PUSH2 0x100 EXP SWAP1 DIV PUSH20 0xFFFFFFFFFFFFFFFFFFFFFFFFFFFFFFFFFFFFFFFF AND PUSH20 0xFFFFFFFFFFFFFFFFFFFFFFFFFFFFFFFFFFFFFFFF AND PUSH2 0x4E91 PUSH2 0x5D51 JUMP JUMPDEST PUSH20 0xFFFFFFFFFFFFFFFFFFFFFFFFFFFFFFFFFFFFFFFF AND EQ PUSH2 0x4EE7 JUMPI PUSH1 0x40 MLOAD PUSH32 0x8C379A000000000000000000000000000000000000000000000000000000000 DUP2 MSTORE PUSH1 0x4 ADD PUSH2 0x4EDE SWAP1 PUSH2 0x8954 JUMP JUMPDEST PUSH1 0x40 MLOAD DUP1 SWAP2 SUB SWAP1 REVERT JUMPDEST PUSH1 0x5 PUSH0 SWAP1 SLOAD SWAP1 PUSH2 0x100 EXP SWAP1 DIV PUSH1 0xFF AND ISZERO DUP1 PUSH2 0x4F04 JUMPI POP PUSH1 0x6 SLOAD TIMESTAMP LT ISZERO JUMPDEST PUSH2 0x4F43 JUMPI PUSH1 0x40 MLOAD PUSH32 0x8C379A000000000000000000000000000000000000000000000000000000000 DUP2 MSTORE PUSH1 0x4 ADD PUSH2 0x4F3A SWAP1 PUSH2 0x8605 JUMP JUMPDEST PUSH1 0x40 MLOAD DUP1 SWAP2 SUB SWAP1 REVERT JUMPDEST PUSH1 0x1 PUSH1 0x5 PUSH0 PUSH2 0x100 EXP DUP2 SLOAD DUP2 PUSH1 0xFF MUL NOT AND SWAP1 DUP4 ISZERO ISZERO MUL OR SWAP1 SSTORE POP DUP2 TIMESTAMP PUSH2 0x4F69 SWAP2 SWAP1 PUSH2 0x8A8E JUMP JUMPDEST PUSH1 0x6 DUP2 SWAP1 SSTORE POP PUSH32 0xA0A82351CD05389C57E6D30F1B1479DBEF372A3F6FFC76B0D5AE7D5DE835C1E4 DUP3 PUSH1 0x40 MLOAD PUSH2 0x4F9E SWAP2 SWAP1 PUSH2 0x827D JUMP JUMPDEST PUSH1 0x40 MLOAD DUP1 SWAP2 SUB SWAP1 LOG1 PUSH1 0x1 SWAP1 POP SWAP2 SWAP1 POP JUMP JUMPDEST PUSH0 PUSH1 0x3 PUSH0 PUSH2 0x4FBB PUSH2 0x5D51 JUMP JUMPDEST PUSH20 0xFFFFFFFFFFFFFFFFFFFFFFFFFFFFFFFFFFFFFFFF AND PUSH20 0xFFFFFFFFFFFFFFFFFFFFFFFFFFFFFFFFFFFFFFFF AND DUP2 MSTORE PUSH1 0x20 ADD SWAP1 DUP2 MSTORE PUSH1 0x20 ADD PUSH0 KECCAK256 PUSH0 SWAP1 SLOAD SWAP1 PUSH2 0x100 EXP SWAP1 DIV PUSH1 0xFF AND PUSH2 0x5040 JUMPI PUSH1 0x40 MLOAD PUSH32 0x8C379A000000000000000000000000000000000000000000000000000000000 DUP2 MSTORE PUSH1 0x4 ADD PUSH2 0x5037 SWAP1 PUSH2 0x859D JUMP JUMPDEST PUSH1 0x40 MLOAD DUP1 SWAP2 SUB SWAP1 REVERT JUMPDEST PUSH1 0x5 PUSH0 SWAP1 SLOAD SWAP1 PUSH2 0x100 EXP SWAP1 DIV PUSH1 0xFF AND ISZERO PUSH2 0x508F JUMPI PUSH1 0x40 MLOAD PUSH32 0x8C379A000000000000000000000000000000000000000000000000000000000 DUP2 MSTORE PUSH1 0x4 ADD PUSH2 0x5086 SWAP1 PUSH2 0x8605 JUMP JUMPDEST PUSH1 0x40 MLOAD DUP1 SWAP2 SUB SWAP1 REVERT JUMPDEST PUSH1 0x14 DUP3 PUSH1 0x19 SLOAD PUSH1 0x1D SLOAD PUSH2 0x50A2 SWAP2 SWAP1 PUSH2 0x8827 JUMP JUMPDEST PUSH2 0x50AC SWAP2 SWAP1 PUSH2 0x8A8E JUMP JUMPDEST GT ISZERO PUSH2 0x50ED JUMPI PUSH1 0x40 MLOAD PUSH32 0x8C379A000000000000000000000000000000000000000000000000000000000 DUP2 MSTORE PUSH1 0x4 ADD PUSH2 0x50E4 SWAP1 PUSH2 0x91A9 JUMP JUMPDEST PUSH1 0x40 MLOAD DUP1 SWAP2 SUB SWAP1 REVERT JUMPDEST DUP2 PUSH1 0x19 DUP2 SWAP1 SSTORE POP PUSH1 0x1B SLOAD PUSH1 0x1A SLOAD PUSH1 0x19 SLOAD PUSH2 0x5107 SWAP2 SWAP1 PUSH2 0x8A8E JUMP JUMPDEST PUSH2 0x5111 SWAP2 SWAP1 PUSH2 0x8A8E JUMP JUMPDEST PUSH1 0x1D DUP2 SWAP1 SSTORE POP PUSH1 0x1 SWAP1 POP SWAP2 SWAP1 POP JUMP JUMPDEST PUSH1 0x2A PUSH0 SWAP1 SLOAD SWAP1 PUSH2 0x100 EXP SWAP1 DIV PUSH20 0xFFFFFFFFFFFFFFFFFFFFFFFFFFFFFFFFFFFFFFFF AND DUP2 JUMP JUMPDEST PUSH0 PUSH1 0x3 PUSH0 PUSH2 0x5151 PUSH2 0x5D51 JUMP JUMPDEST PUSH20 0xFFFFFFFFFFFFFFFFFFFFFFFFFFFFFFFFFFFFFFFF AND PUSH20 0xFFFFFFFFFFFFFFFFFFFFFFFFFFFFFFFFFFFFFFFF AND DUP2 MSTORE PUSH1 0x20 ADD SWAP1 DUP2 MSTORE PUSH1 0x20 ADD PUSH0 KECCAK256 PUSH0 SWAP1 SLOAD SWAP1 PUSH2 0x100 EXP SWAP1 DIV PUSH1 0xFF AND PUSH2 0x51D6 JUMPI PUSH1 0x40 MLOAD PUSH32 0x8C379A000000000000000000000000000000000000000000000000000000000 DUP2 MSTORE PUSH1 0x4 ADD PUSH2 0x51CD SWAP1 PUSH2 0x859D JUMP JUMPDEST PUSH1 0x40 MLOAD DUP1 SWAP2 SUB SWAP1 REVERT JUMPDEST PUSH1 0x5 PUSH0 SWAP1 SLOAD SWAP1 PUSH2 0x100 EXP SWAP1 DIV PUSH1 0xFF AND ISZERO PUSH2 0x5225 JUMPI PUSH1 0x40 MLOAD PUSH32 0x8C379A000000000000000000000000000000000000000000000000000000000 DUP2 MSTORE PUSH1 0x4 ADD PUSH2 0x521C SWAP1 PUSH2 0x8605 JUMP JUMPDEST PUSH1 0x40 MLOAD DUP1 SWAP2 SUB SWAP1 REVERT JUMPDEST PUSH1 0x21 PUSH0 DUP4 PUSH20 0xFFFFFFFFFFFFFFFFFFFFFFFFFFFFFFFFFFFFFFFF AND PUSH20 0xFFFFFFFFFFFFFFFFFFFFFFFFFFFFFFFFFFFFFFFF AND DUP2 MSTORE PUSH1 0x20 ADD SWAP1 DUP2 MSTORE PUSH1 0x20 ADD PUSH0 KECCAK256 PUSH0 SWAP1 SLOAD SWAP1 PUSH2 0x100 EXP SWAP1 DIV PUSH1 0xFF AND ISZERO PUSH2 0x52AF JUMPI PUSH1 0x40 MLOAD PUSH32 0x8C379A000000000000000000000000000000000000000000000000000000000 DUP2 MSTORE PUSH1 0x4 ADD PUSH2 0x52A6 SWAP1 PUSH2 0x932D JUMP JUMPDEST PUSH1 0x40 MLOAD DUP1 SWAP2 SUB SWAP1 REVERT JUMPDEST PUSH1 0x22 SLOAD PUSH1 0x20 DUP1 SLOAD SWAP1 POP LT PUSH2 0x52F8 JUMPI PUSH1 0x40 MLOAD PUSH32 0x8C379A000000000000000000000000000000000000000000000000000000000 DUP2 MSTORE PUSH1 0x4 ADD PUSH2 0x52EF SWAP1 PUSH2 0x93BB JUMP JUMPDEST PUSH1 0x40 MLOAD DUP1 SWAP2 SUB SWAP1 REVERT JUMPDEST PUSH1 0x20 DUP3 SWAP1 DUP1 PUSH1 0x1 DUP2 SLOAD ADD DUP1 DUP3 SSTORE DUP1 SWAP2 POP POP PUSH1 0x1 SWAP1 SUB SWAP1 PUSH0 MSTORE PUSH1 0x20 PUSH0 KECCAK256 ADD PUSH0 SWAP1 SWAP2 SWAP1 SWAP2 SWAP1 SWAP2 PUSH2 0x100 EXP DUP2 SLOAD DUP2 PUSH20 0xFFFFFFFFFFFFFFFFFFFFFFFFFFFFFFFFFFFFFFFF MUL NOT AND SWAP1 DUP4 PUSH20 0xFFFFFFFFFFFFFFFFFFFFFFFFFFFFFFFFFFFFFFFF AND MUL OR SWAP1 SSTORE POP PUSH1 0x1 PUSH1 0x21 PUSH0 DUP5 PUSH20 0xFFFFFFFFFFFFFFFFFFFFFFFFFFFFFFFFFFFFFFFF AND PUSH20 0xFFFFFFFFFFFFFFFFFFFFFFFFFFFFFFFFFFFFFFFF AND DUP2 MSTORE PUSH1 0x20 ADD SWAP1 DUP2 MSTORE PUSH1 0x20 ADD PUSH0 KECCAK256 PUSH0 PUSH2 0x100 EXP DUP2 SLOAD DUP2 PUSH1 0xFF MUL NOT AND SWAP1 DUP4 ISZERO ISZERO MUL OR SWAP1 SSTORE POP PUSH1 0x1 SWAP1 POP SWAP2 SWAP1 POP JUMP JUMPDEST PUSH0 PUSH1 0x2 PUSH0 SWAP1 SLOAD SWAP1 PUSH2 0x100 EXP SWAP1 DIV PUSH20 0xFFFFFFFFFFFFFFFFFFFFFFFFFFFFFFFFFFFFFFFF AND PUSH20 0xFFFFFFFFFFFFFFFFFFFFFFFFFFFFFFFFFFFFFFFF AND PUSH2 0x53F7 PUSH2 0x5D51 JUMP JUMPDEST PUSH20 0xFFFFFFFFFFFFFFFFFFFFFFFFFFFFFFFFFFFFFFFF AND EQ PUSH2 0x544D JUMPI PUSH1 0x40 MLOAD PUSH32 0x8C379A000000000000000000000000000000000000000000000000000000000 DUP2 MSTORE PUSH1 0x4 ADD PUSH2 0x5444 SWAP1 PUSH2 0x8954 JUMP JUMPDEST PUSH1 0x40 MLOAD DUP1 SWAP2 SUB SWAP1 REVERT JUMPDEST PUSH1 0x5 PUSH0 SWAP1 SLOAD SWAP1 PUSH2 0x100 EXP SWAP1 DIV PUSH1 0xFF AND ISZERO DUP1 PUSH2 0x546A JUMPI POP PUSH1 0x6 SLOAD TIMESTAMP LT ISZERO JUMPDEST PUSH2 0x54A9 JUMPI PUSH1 0x40 MLOAD PUSH32 0x8C379A000000000000000000000000000000000000000000000000000000000 DUP2 MSTORE PUSH1 0x4 ADD PUSH2 0x54A0 SWAP1 PUSH2 0x8605 JUMP JUMPDEST PUSH1 0x40 MLOAD DUP1 SWAP2 SUB SWAP1 REVERT JUMPDEST PUSH0 PUSH1 0x5 PUSH0 PUSH2 0x100 EXP DUP2 SLOAD DUP2 PUSH1 0xFF MUL NOT AND SWAP1 DUP4 ISZERO ISZERO MUL OR SWAP1 SSTORE POP PUSH0 PUSH1 0x6 DUP2 SWAP1 SSTORE POP PUSH32 0xB9F923D80A880854FB5F4BFA138D5AE90743699549B3E05FE92F2F17C95BC853 PUSH1 0x40 MLOAD PUSH1 0x40 MLOAD DUP1 SWAP2 SUB SWAP1 LOG1 PUSH1 0x1 SWAP1 POP SWAP1 JUMP JUMPDEST PUSH0 PUSH1 0x3 PUSH0 PUSH2 0x5508 PUSH2 0x5D51 JUMP JUMPDEST PUSH20 0xFFFFFFFFFFFFFFFFFFFFFFFFFFFFFFFFFFFFFFFF AND PUSH20 0xFFFFFFFFFFFFFFFFFFFFFFFFFFFFFFFFFFFFFFFF AND DUP2 MSTORE PUSH1 0x20 ADD SWAP1 DUP2 MSTORE PUSH1 0x20 ADD PUSH0 KECCAK256 PUSH0 SWAP1 SLOAD SWAP1 PUSH2 0x100 EXP SWAP1 DIV PUSH1 0xFF AND PUSH2 0x558D JUMPI PUSH1 0x40 MLOAD PUSH32 0x8C379A000000000000000000000000000000000000000000000000000000000 DUP2 MSTORE PUSH1 0x4 ADD PUSH2 0x5584 SWAP1 PUSH2 0x859D JUMP JUMPDEST PUSH1 0x40 MLOAD DUP1 SWAP2 SUB SWAP1 REVERT JUMPDEST PUSH1 0x5 PUSH0 SWAP1 SLOAD SWAP1 PUSH2 0x100 EXP SWAP1 DIV PUSH1 0xFF AND ISZERO PUSH2 0x55DC JUMPI PUSH1 0x40 MLOAD PUSH32 0x8C379A000000000000000000000000000000000000000000000000000000000 DUP2 MSTORE PUSH1 0x4 ADD PUSH2 0x55D3 SWAP1 PUSH2 0x8605 JUMP JUMPDEST PUSH1 0x40 MLOAD DUP1 SWAP2 SUB SWAP1 REVERT JUMPDEST PUSH1 0x64 DUP3 GT ISZERO PUSH2 0x5620 JUMPI PUSH1 0x40 MLOAD PUSH32 0x8C379A000000000000000000000000000000000000000000000000000000000 DUP2 MSTORE PUSH1 0x4 ADD PUSH2 0x5617 SWAP1 PUSH2 0x9449 JUMP JUMPDEST PUSH1 0x40 MLOAD DUP1 SWAP2 SUB SWAP1 REVERT JUMPDEST DUP2 PUSH1 0x2F DUP2 SWAP1 SSTORE POP PUSH1 0x1 SWAP1 POP SWAP2 SWAP1 POP JUMP JUMPDEST PUSH1 0xD PUSH0 SWAP1 SLOAD SWAP1 PUSH2 0x100 EXP SWAP1 DIV PUSH1 0xFF AND DUP2 JUMP JUMPDEST PUSH0 PUSH1 0xC PUSH0 DUP5 PUSH20 0xFFFFFFFFFFFFFFFFFFFFFFFFFFFFFFFFFFFFFFFF AND PUSH20 0xFFFFFFFFFFFFFFFFFFFFFFFFFFFFFFFFFFFFFFFF AND DUP2 MSTORE PUSH1 0x20 ADD SWAP1 DUP2 MSTORE PUSH1 0x20 ADD PUSH0 KECCAK256 PUSH0 DUP4 PUSH20 0xFFFFFFFFFFFFFFFFFFFFFFFFFFFFFFFFFFFFFFFF AND PUSH20 0xFFFFFFFFFFFFFFFFFFFFFFFFFFFFFFFFFFFFFFFF AND DUP2 MSTORE PUSH1 0x20 ADD SWAP1 DUP2 MSTORE PUSH1 0x20 ADD PUSH0 KECCAK256 SLOAD SWAP1 POP SWAP3 SWAP2 POP POP JUMP JUMPDEST PUSH0 PUSH1 0x3 PUSH0 PUSH2 0x56D0 PUSH2 0x5D51 JUMP JUMPDEST PUSH20 0xFFFFFFFFFFFFFFFFFFFFFFFFFFFFFFFFFFFFFFFF AND PUSH20 0xFFFFFFFFFFFFFFFFFFFFFFFFFFFFFFFFFFFFFFFF AND DUP2 MSTORE PUSH1 0x20 ADD SWAP1 DUP2 MSTORE PUSH1 0x20 ADD PUSH0 KECCAK256 PUSH0 SWAP1 SLOAD SWAP1 PUSH2 0x100 EXP SWAP1 DIV PUSH1 0xFF AND PUSH2 0x5755 JUMPI PUSH1 0x40 MLOAD PUSH32 0x8C379A000000000000000000000000000000000000000000000000000000000 DUP2 MSTORE PUSH1 0x4 ADD PUSH2 0x574C SWAP1 PUSH2 0x859D JUMP JUMPDEST PUSH1 0x40 MLOAD DUP1 SWAP2 SUB SWAP1 REVERT JUMPDEST PUSH1 0x5 PUSH0 SWAP1 SLOAD SWAP1 PUSH2 0x100 EXP SWAP1 DIV PUSH1 0xFF AND ISZERO PUSH2 0x57A4 JUMPI PUSH1 0x40 MLOAD PUSH32 0x8C379A000000000000000000000000000000000000000000000000000000000 DUP2 MSTORE PUSH1 0x4 ADD PUSH2 0x579B SWAP1 PUSH2 0x8605 JUMP JUMPDEST PUSH1 0x40 MLOAD DUP1 SWAP2 SUB SWAP1 REVERT JUMPDEST PUSH1 0x1 PUSH1 0xE PUSH0 DUP5 PUSH20 0xFFFFFFFFFFFFFFFFFFFFFFFFFFFFFFFFFFFFFFFF AND PUSH20 0xFFFFFFFFFFFFFFFFFFFFFFFFFFFFFFFFFFFFFFFF AND DUP2 MSTORE PUSH1 0x20 ADD SWAP1 DUP2 MSTORE PUSH1 0x20 ADD PUSH0 KECCAK256 PUSH0 PUSH2 0x100 EXP DUP2 SLOAD DUP2 PUSH1 0xFF MUL NOT AND SWAP1 DUP4 ISZERO ISZERO MUL OR SWAP1 SSTORE POP PUSH1 0x1 SWAP1 POP SWAP2 SWAP1 POP JUMP JUMPDEST PUSH0 PUSH1 0x3 PUSH0 PUSH2 0x580E PUSH2 0x5D51 JUMP JUMPDEST PUSH20 0xFFFFFFFFFFFFFFFFFFFFFFFFFFFFFFFFFFFFFFFF AND PUSH20 0xFFFFFFFFFFFFFFFFFFFFFFFFFFFFFFFFFFFFFFFF AND DUP2 MSTORE PUSH1 0x20 ADD SWAP1 DUP2 MSTORE PUSH1 0x20 ADD PUSH0 KECCAK256 PUSH0 SWAP1 SLOAD SWAP1 PUSH2 0x100 EXP SWAP1 DIV PUSH1 0xFF AND PUSH2 0x5893 JUMPI PUSH1 0x40 MLOAD PUSH32 0x8C379A000000000000000000000000000000000000000000000000000000000 DUP2 MSTORE PUSH1 0x4 ADD PUSH2 0x588A SWAP1 PUSH2 0x859D JUMP JUMPDEST PUSH1 0x40 MLOAD DUP1 SWAP2 SUB SWAP1 REVERT JUMPDEST PUSH1 0x5 PUSH0 SWAP1 SLOAD SWAP1 PUSH2 0x100 EXP SWAP1 DIV PUSH1 0xFF AND ISZERO PUSH2 0x58E2 JUMPI PUSH1 0x40 MLOAD PUSH32 0x8C379A000000000000000000000000000000000000000000000000000000000 DUP2 MSTORE PUSH1 0x4 ADD PUSH2 0x58D9 SWAP1 PUSH2 0x8605 JUMP JUMPDEST PUSH1 0x40 MLOAD DUP1 SWAP2 SUB SWAP1 REVERT JUMPDEST PUSH2 0x58EB DUP3 PUSH2 0x75D1 JUMP JUMPDEST PUSH1 0x1 SWAP1 POP SWAP2 SWAP1 POP JUMP JUMPDEST PUSH0 PUSH1 0x3 PUSH0 PUSH2 0x5900 PUSH2 0x5D51 JUMP JUMPDEST PUSH20 0xFFFFFFFFFFFFFFFFFFFFFFFFFFFFFFFFFFFFFFFF AND PUSH20 0xFFFFFFFFFFFFFFFFFFFFFFFFFFFFFFFFFFFFFFFF AND DUP2 MSTORE PUSH1 0x20 ADD SWAP1 DUP2 MSTORE PUSH1 0x20 ADD PUSH0 KECCAK256 PUSH0 SWAP1 SLOAD SWAP1 PUSH2 0x100 EXP SWAP1 DIV PUSH1 0xFF AND PUSH2 0x5985 JUMPI PUSH1 0x40 MLOAD PUSH32 0x8C379A000000000000000000000000000000000000000000000000000000000 DUP2 MSTORE PUSH1 0x4 ADD PUSH2 0x597C SWAP1 PUSH2 0x859D JUMP JUMPDEST PUSH1 0x40 MLOAD DUP1 SWAP2 SUB SWAP1 REVERT JUMPDEST PUSH1 0x5 PUSH0 SWAP1 SLOAD SWAP1 PUSH2 0x100 EXP SWAP1 DIV PUSH1 0xFF AND ISZERO PUSH2 0x59D4 JUMPI PUSH1 0x40 MLOAD PUSH32 0x8C379A000000000000000000000000000000000000000000000000000000000 DUP2 MSTORE PUSH1 0x4 ADD PUSH2 0x59CB SWAP1 PUSH2 0x8605 JUMP JUMPDEST PUSH1 0x40 MLOAD DUP1 SWAP2 SUB SWAP1 REVERT JUMPDEST PUSH2 0x59DD DUP3 PUSH2 0x7916 JUMP JUMPDEST PUSH1 0x1 SWAP1 POP SWAP2 SWAP1 POP JUMP JUMPDEST PUSH0 PUSH1 0x3 PUSH0 PUSH2 0x59F2 PUSH2 0x5D51 JUMP JUMPDEST PUSH20 0xFFFFFFFFFFFFFFFFFFFFFFFFFFFFFFFFFFFFFFFF AND PUSH20 0xFFFFFFFFFFFFFFFFFFFFFFFFFFFFFFFFFFFFFFFF AND DUP2 MSTORE PUSH1 0x20 ADD SWAP1 DUP2 MSTORE PUSH1 0x20 ADD PUSH0 KECCAK256 PUSH0 SWAP1 SLOAD SWAP1 PUSH2 0x100 EXP SWAP1 DIV PUSH1 0xFF AND PUSH2 0x5A77 JUMPI PUSH1 0x40 MLOAD PUSH32 0x8C379A000000000000000000000000000000000000000000000000000000000 DUP2 MSTORE PUSH1 0x4 ADD PUSH2 0x5A6E SWAP1 PUSH2 0x859D JUMP JUMPDEST PUSH1 0x40 MLOAD DUP1 SWAP2 SUB SWAP1 REVERT JUMPDEST PUSH1 0x5 PUSH0 SWAP1 SLOAD SWAP1 PUSH2 0x100 EXP SWAP1 DIV PUSH1 0xFF AND ISZERO PUSH2 0x5AC6 JUMPI PUSH1 0x40 MLOAD PUSH32 0x8C379A000000000000000000000000000000000000000000000000000000000 DUP2 MSTORE PUSH1 0x4 ADD PUSH2 0x5ABD SWAP1 PUSH2 0x8605 JUMP JUMPDEST PUSH1 0x40 MLOAD DUP1 SWAP2 SUB SWAP1 REVERT JUMPDEST PUSH1 0x1 PUSH1 0x15 PUSH0 DUP5 PUSH20 0xFFFFFFFFFFFFFFFFFFFFFFFFFFFFFFFFFFFFFFFF AND PUSH20 0xFFFFFFFFFFFFFFFFFFFFFFFFFFFFFFFFFFFFFFFF AND DUP2 MSTORE PUSH1 0x20 ADD SWAP1 DUP2 MSTORE PUSH1 0x20 ADD PUSH0 KECCAK256 PUSH0 PUSH2 0x100 EXP DUP2 SLOAD DUP2 PUSH1 0xFF MUL NOT AND SWAP1 DUP4 ISZERO ISZERO MUL OR SWAP1 SSTORE POP PUSH1 0x1 SWAP1 POP SWAP2 SWAP1 POP JUMP JUMPDEST PUSH0 PUSH1 0x10 PUSH0 DUP4 PUSH20 0xFFFFFFFFFFFFFFFFFFFFFFFFFFFFFFFFFFFFFFFF AND PUSH20 0xFFFFFFFFFFFFFFFFFFFFFFFFFFFFFFFFFFFFFFFF AND DUP2 MSTORE PUSH1 0x20 ADD SWAP1 DUP2 MSTORE PUSH1 0x20 ADD PUSH0 KECCAK256 PUSH0 SWAP1 SLOAD SWAP1 PUSH2 0x100 EXP SWAP1 DIV PUSH1 0xFF AND SWAP1 POP SWAP2 SWAP1 POP JUMP JUMPDEST PUSH0 PUSH1 0x3 PUSH0 PUSH2 0x5B82 PUSH2 0x5D51 JUMP JUMPDEST PUSH20 0xFFFFFFFFFFFFFFFFFFFFFFFFFFFFFFFFFFFFFFFF AND PUSH20 0xFFFFFFFFFFFFFFFFFFFFFFFFFFFFFFFFFFFFFFFF AND DUP2 MSTORE PUSH1 0x20 ADD SWAP1 DUP2 MSTORE PUSH1 0x20 ADD PUSH0 KECCAK256 PUSH0 SWAP1 SLOAD SWAP1 PUSH2 0x100 EXP SWAP1 DIV PUSH1 0xFF AND PUSH2 0x5C07 JUMPI PUSH1 0x40 MLOAD PUSH32 0x8C379A000000000000000000000000000000000000000000000000000000000 DUP2 MSTORE PUSH1 0x4 ADD PUSH2 0x5BFE SWAP1 PUSH2 0x859D JUMP JUMPDEST PUSH1 0x40 MLOAD DUP1 SWAP2 SUB SWAP1 REVERT JUMPDEST PUSH1 0x5 PUSH0 SWAP1 SLOAD SWAP1 PUSH2 0x100 EXP SWAP1 DIV PUSH1 0xFF AND ISZERO PUSH2 0x5C56 JUMPI PUSH1 0x40 MLOAD PUSH32 0x8C379A000000000000000000000000000000000000000000000000000000000 DUP2 MSTORE PUSH1 0x4 ADD PUSH2 0x5C4D SWAP1 PUSH2 0x8605 JUMP JUMPDEST PUSH1 0x40 MLOAD DUP1 SWAP2 SUB SWAP1 REVERT JUMPDEST PUSH1 0x14 DUP3 PUSH1 0x1B SLOAD PUSH1 0x1D SLOAD PUSH2 0x5C69 SWAP2 SWAP1 PUSH2 0x8827 JUMP JUMPDEST PUSH2 0x5C73 SWAP2 SWAP1 PUSH2 0x8A8E JUMP JUMPDEST GT ISZERO PUSH2 0x5CB4 JUMPI PUSH1 0x40 MLOAD PUSH32 0x8C379A000000000000000000000000000000000000000000000000000000000 DUP2 MSTORE PUSH1 0x4 ADD PUSH2 0x5CAB SWAP1 PUSH2 0x91A9 JUMP JUMPDEST PUSH1 0x40 MLOAD DUP1 SWAP2 SUB SWAP1 REVERT JUMPDEST DUP2 PUSH1 0x1B DUP2 SWAP1 SSTORE POP PUSH1 0x1B SLOAD PUSH1 0x1A SLOAD PUSH1 0x19 SLOAD PUSH2 0x5CCE SWAP2 SWAP1 PUSH2 0x8A8E JUMP JUMPDEST PUSH2 0x5CD8 SWAP2 SWAP1 PUSH2 0x8A8E JUMP JUMPDEST PUSH1 0x1D DUP2 SWAP1 SSTORE POP PUSH1 0x1 SWAP1 POP SWAP2 SWAP1 POP JUMP JUMPDEST PUSH1 0x25 SLOAD DUP2 JUMP JUMPDEST PUSH0 PUSH1 0x3 PUSH0 DUP4 PUSH20 0xFFFFFFFFFFFFFFFFFFFFFFFFFFFFFFFFFFFFFFFF AND PUSH20 0xFFFFFFFFFFFFFFFFFFFFFFFFFFFFFFFFFFFFFFFF AND DUP2 MSTORE PUSH1 0x20 ADD SWAP1 DUP2 MSTORE PUSH1 0x20 ADD PUSH0 KECCAK256 PUSH0 SWAP1 SLOAD SWAP1 PUSH2 0x100 EXP SWAP1 DIV PUSH1 0xFF AND SWAP1 POP SWAP2 SWAP1 POP JUMP JUMPDEST PUSH1 0x14 PUSH0 SWAP1 SLOAD SWAP1 PUSH2 0x100 EXP SWAP1 DIV PUSH1 0xFF AND DUP2 JUMP JUMPDEST PUSH0 CALLER SWAP1 POP SWAP1 JUMP JUMPDEST PUSH0 DUP1 PUSH0 SWAP1 SLOAD SWAP1 PUSH2 0x100 EXP SWAP1 DIV PUSH20 0xFFFFFFFFFFFFFFFFFFFFFFFFFFFFFFFFFFFFFFFF AND SWAP1 POP SWAP1 JUMP JUMPDEST PUSH0 PUSH20 0xFFFFFFFFFFFFFFFFFFFFFFFFFFFFFFFFFFFFFFFF AND DUP4 PUSH20 0xFFFFFFFFFFFFFFFFFFFFFFFFFFFFFFFFFFFFFFFF AND SUB PUSH2 0x5DED JUMPI PUSH1 0x40 MLOAD PUSH32 0x8C379A000000000000000000000000000000000000000000000000000000000 DUP2 MSTORE PUSH1 0x4 ADD PUSH2 0x5DE4 SWAP1 PUSH2 0x94D7 JUMP JUMPDEST PUSH1 0x40 MLOAD DUP1 SWAP2 SUB SWAP1 REVERT JUMPDEST PUSH0 PUSH20 0xFFFFFFFFFFFFFFFFFFFFFFFFFFFFFFFFFFFFFFFF AND DUP3 PUSH20 0xFFFFFFFFFFFFFFFFFFFFFFFFFFFFFFFFFFFFFFFF AND SUB PUSH2 0x5E5B JUMPI PUSH1 0x40 MLOAD PUSH32 0x8C379A000000000000000000000000000000000000000000000000000000000 DUP2 MSTORE PUSH1 0x4 ADD PUSH2 0x5E52 SWAP1 PUSH2 0x9565 JUMP JUMPDEST PUSH1 0x40 MLOAD DUP1 SWAP2 SUB SWAP1 REVERT JUMPDEST DUP1 PUSH1 0xC PUSH0 DUP6 PUSH20 0xFFFFFFFFFFFFFFFFFFFFFFFFFFFFFFFFFFFFFFFF AND PUSH20 0xFFFFFFFFFFFFFFFFFFFFFFFFFFFFFFFFFFFFFFFF AND DUP2 MSTORE PUSH1 0x20 ADD SWAP1 DUP2 MSTORE PUSH1 0x20 ADD PUSH0 KECCAK256 PUSH0 DUP5 PUSH20 0xFFFFFFFFFFFFFFFFFFFFFFFFFFFFFFFFFFFFFFFF AND PUSH20 0xFFFFFFFFFFFFFFFFFFFFFFFFFFFFFFFFFFFFFFFF AND DUP2 MSTORE PUSH1 0x20 ADD SWAP1 DUP2 MSTORE PUSH1 0x20 ADD PUSH0 KECCAK256 DUP2 SWAP1 SSTORE POP DUP2 PUSH20 0xFFFFFFFFFFFFFFFFFFFFFFFFFFFFFFFFFFFFFFFF AND DUP4 PUSH20 0xFFFFFFFFFFFFFFFFFFFFFFFFFFFFFFFFFFFFFFFF AND PUSH32 0x8C5BE1E5EBEC7D5BD14F71427D1E84F3DD0314C0F7B2291E5B200AC8C7C3B925 DUP4 PUSH1 0x40 MLOAD PUSH2 0x5F35 SWAP2 SWAP1 PUSH2 0x827D JUMP JUMPDEST PUSH1 0x40 MLOAD DUP1 SWAP2 SUB SWAP1 LOG3 POP POP POP JUMP JUMPDEST PUSH0 PUSH20 0xFFFFFFFFFFFFFFFFFFFFFFFFFFFFFFFFFFFFFFFF AND DUP4 PUSH20 0xFFFFFFFFFFFFFFFFFFFFFFFFFFFFFFFFFFFFFFFF AND EQ ISZERO DUP1 ISZERO PUSH2 0x5FAA JUMPI POP PUSH0 PUSH20 0xFFFFFFFFFFFFFFFFFFFFFFFFFFFFFFFFFFFFFFFF AND DUP3 PUSH20 0xFFFFFFFFFFFFFFFFFFFFFFFFFFFFFFFFFFFFFFFF AND EQ ISZERO JUMPDEST PUSH2 0x5FE9 JUMPI PUSH1 0x40 MLOAD PUSH32 0x8C379A000000000000000000000000000000000000000000000000000000000 DUP2 MSTORE PUSH1 0x4 ADD PUSH2 0x5FE0 SWAP1 PUSH2 0x95F3 JUMP JUMPDEST PUSH1 0x40 MLOAD DUP1 SWAP2 SUB SWAP1 REVERT JUMPDEST PUSH1 0xF SLOAD DUP2 GT ISZERO DUP1 PUSH2 0x6006 JUMPI POP PUSH1 0xD PUSH0 SWAP1 SLOAD SWAP1 PUSH2 0x100 EXP SWAP1 DIV PUSH1 0xFF AND ISZERO JUMPDEST DUP1 PUSH2 0x6057 JUMPI POP PUSH1 0xE PUSH0 DUP5 PUSH20 0xFFFFFFFFFFFFFFFFFFFFFFFFFFFFFFFFFFFFFFFF AND PUSH20 0xFFFFFFFFFFFFFFFFFFFFFFFFFFFFFFFFFFFFFFFF AND DUP2 MSTORE PUSH1 0x20 ADD SWAP1 DUP2 MSTORE PUSH1 0x20 ADD PUSH0 KECCAK256 PUSH0 SWAP1 SLOAD SWAP1 PUSH2 0x100 EXP SWAP1 DIV PUSH1 0xFF AND JUMPDEST DUP1 PUSH2 0x60A8 JUMPI POP PUSH1 0xE PUSH0 DUP4 PUSH20 0xFFFFFFFFFFFFFFFFFFFFFFFFFFFFFFFFFFFFFFFF AND PUSH20 0xFFFFFFFFFFFFFFFFFFFFFFFFFFFFFFFFFFFFFFFF AND DUP2 MSTORE PUSH1 0x20 ADD SWAP1 DUP2 MSTORE PUSH1 0x20 ADD PUSH0 KECCAK256 PUSH0 SWAP1 SLOAD SWAP1 PUSH2 0x100 EXP SWAP1 DIV PUSH1 0xFF AND JUMPDEST PUSH2 0x60E7 JUMPI PUSH1 0x40 MLOAD PUSH32 0x8C379A000000000000000000000000000000000000000000000000000000000 DUP2 MSTORE PUSH1 0x4 ADD PUSH2 0x60DE SWAP1 PUSH2 0x9681 JUMP JUMPDEST PUSH1 0x40 MLOAD DUP1 SWAP2 SUB SWAP1 REVERT JUMPDEST PUSH0 DUP2 SUB ISZERO PUSH2 0x71F9 JUMPI PUSH0 PUSH2 0x60F9 DUP5 PUSH2 0x3F61 JUMP JUMPDEST SWAP1 POP DUP2 DUP2 LT ISZERO PUSH2 0x613E JUMPI PUSH1 0x40 MLOAD PUSH32 0x8C379A000000000000000000000000000000000000000000000000000000000 DUP2 MSTORE PUSH1 0x4 ADD PUSH2 0x6135 SWAP1 PUSH2 0x970F JUMP JUMPDEST PUSH1 0x40 MLOAD DUP1 SWAP2 SUB SWAP1 REVERT JUMPDEST PUSH0 PUSH2 0x6147 PUSH2 0x7260 JUMP JUMPDEST SWAP1 POP PUSH0 DUP1 PUSH0 PUSH1 0x14 PUSH0 SWAP1 SLOAD SWAP1 PUSH2 0x100 EXP SWAP1 DIV PUSH1 0xFF AND DUP1 ISZERO PUSH2 0x61FF JUMPI POP PUSH1 0x15 PUSH0 DUP10 PUSH20 0xFFFFFFFFFFFFFFFFFFFFFFFFFFFFFFFFFFFFFFFF AND PUSH20 0xFFFFFFFFFFFFFFFFFFFFFFFFFFFFFFFFFFFFFFFF AND DUP2 MSTORE PUSH1 0x20 ADD SWAP1 DUP2 MSTORE PUSH1 0x20 ADD PUSH0 KECCAK256 PUSH0 SWAP1 SLOAD SWAP1 PUSH2 0x100 EXP SWAP1 DIV PUSH1 0xFF AND DUP1 PUSH2 0x61FD JUMPI POP PUSH1 0x15 PUSH0 DUP9 PUSH20 0xFFFFFFFFFFFFFFFFFFFFFFFFFFFFFFFFFFFFFFFF AND PUSH20 0xFFFFFFFFFFFFFFFFFFFFFFFFFFFFFFFFFFFFFFFF AND DUP2 MSTORE PUSH1 0x20 ADD SWAP1 DUP2 MSTORE PUSH1 0x20 ADD PUSH0 KECCAK256 PUSH0 SWAP1 SLOAD SWAP1 PUSH2 0x100 EXP SWAP1 DIV PUSH1 0xFF AND JUMPDEST ISZERO JUMPDEST ISZERO PUSH2 0x63B0 JUMPI PUSH1 0x1F PUSH0 SWAP1 SLOAD SWAP1 PUSH2 0x100 EXP SWAP1 DIV PUSH20 0xFFFFFFFFFFFFFFFFFFFFFFFFFFFFFFFFFFFFFFFF AND PUSH20 0xFFFFFFFFFFFFFFFFFFFFFFFFFFFFFFFFFFFFFFFF AND DUP9 PUSH20 0xFFFFFFFFFFFFFFFFFFFFFFFFFFFFFFFFFFFFFFFF AND SUB PUSH2 0x62DB JUMPI PUSH2 0x6280 PUSH1 0x64 PUSH2 0x6272 PUSH1 0x16 SLOAD DUP10 PUSH2 0x7DFB SWAP1 SWAP2 SWAP1 PUSH4 0xFFFFFFFF AND JUMP JUMPDEST PUSH2 0x7289 SWAP1 SWAP2 SWAP1 PUSH4 0xFFFFFFFF AND JUMP JUMPDEST SWAP3 POP PUSH2 0x62AA PUSH1 0x64 PUSH2 0x629C PUSH1 0x17 SLOAD DUP10 PUSH2 0x7DFB SWAP1 SWAP2 SWAP1 PUSH4 0xFFFFFFFF AND JUMP JUMPDEST PUSH2 0x7289 SWAP1 SWAP2 SWAP1 PUSH4 0xFFFFFFFF AND JUMP JUMPDEST SWAP2 POP PUSH2 0x62D4 PUSH1 0x64 PUSH2 0x62C6 PUSH1 0x18 SLOAD DUP10 PUSH2 0x7DFB SWAP1 SWAP2 SWAP1 PUSH4 0xFFFFFFFF AND JUMP JUMPDEST PUSH2 0x7289 SWAP1 SWAP2 SWAP1 PUSH4 0xFFFFFFFF AND JUMP JUMPDEST SWAP1 POP PUSH2 0x63AF JUMP JUMPDEST PUSH1 0x1F PUSH0 SWAP1 SLOAD SWAP1 PUSH2 0x100 EXP SWAP1 DIV PUSH20 0xFFFFFFFFFFFFFFFFFFFFFFFFFFFFFFFFFFFFFFFF AND PUSH20 0xFFFFFFFFFFFFFFFFFFFFFFFFFFFFFFFFFFFFFFFF AND DUP8 PUSH20 0xFFFFFFFFFFFFFFFFFFFFFFFFFFFFFFFFFFFFFFFF AND SUB PUSH2 0x63AE JUMPI PUSH2 0x6357 PUSH1 0x64 PUSH2 0x6349 PUSH1 0x19 SLOAD DUP10 PUSH2 0x7DFB SWAP1 SWAP2 SWAP1 PUSH4 0xFFFFFFFF AND JUMP JUMPDEST PUSH2 0x7289 SWAP1 SWAP2 SWAP1 PUSH4 0xFFFFFFFF AND JUMP JUMPDEST SWAP3 POP PUSH2 0x6381 PUSH1 0x64 PUSH2 0x6373 PUSH1 0x1A SLOAD DUP10 PUSH2 0x7DFB SWAP1 SWAP2 SWAP1 PUSH4 0xFFFFFFFF AND JUMP JUMPDEST PUSH2 0x7289 SWAP1 SWAP2 SWAP1 PUSH4 0xFFFFFFFF AND JUMP JUMPDEST SWAP2 POP PUSH2 0x63AB PUSH1 0x64 PUSH2 0x639D PUSH1 0x1B SLOAD DUP10 PUSH2 0x7DFB SWAP1 SWAP2 SWAP1 PUSH4 0xFFFFFFFF AND JUMP JUMPDEST PUSH2 0x7289 SWAP1 SWAP2 SWAP1 PUSH4 0xFFFFFFFF AND JUMP JUMPDEST SWAP1 POP JUMPDEST JUMPDEST JUMPDEST PUSH0 PUSH2 0x63E8 DUP3 PUSH2 0x63DA DUP6 PUSH2 0x63CC DUP9 DUP13 PUSH2 0x75A7 SWAP1 SWAP2 SWAP1 PUSH4 0xFFFFFFFF AND JUMP JUMPDEST PUSH2 0x75A7 SWAP1 SWAP2 SWAP1 PUSH4 0xFFFFFFFF AND JUMP JUMPDEST PUSH2 0x75A7 SWAP1 SWAP2 SWAP1 PUSH4 0xFFFFFFFF AND JUMP JUMPDEST SWAP1 POP PUSH0 PUSH2 0x63FE DUP7 DUP10 PUSH2 0x7DFB SWAP1 SWAP2 SWAP1 PUSH4 0xFFFFFFFF AND JUMP JUMPDEST SWAP1 POP PUSH0 PUSH2 0x6414 DUP8 DUP5 PUSH2 0x7DFB SWAP1 SWAP2 SWAP1 PUSH4 0xFFFFFFFF AND JUMP JUMPDEST SWAP1 POP PUSH1 0x1F PUSH0 SWAP1 SLOAD SWAP1 PUSH2 0x100 EXP SWAP1 DIV PUSH20 0xFFFFFFFFFFFFFFFFFFFFFFFFFFFFFFFFFFFFFFFF AND PUSH20 0xFFFFFFFFFFFFFFFFFFFFFFFFFFFFFFFFFFFFFFFF AND DUP11 PUSH20 0xFFFFFFFFFFFFFFFFFFFFFFFFFFFFFFFFFFFFFFFF AND EQ DUP1 ISZERO PUSH2 0x647E JUMPI POP PUSH1 0x26 PUSH0 SWAP1 SLOAD SWAP1 PUSH2 0x100 EXP SWAP1 DIV PUSH1 0xFF AND ISZERO JUMPDEST ISZERO PUSH2 0x6582 JUMPI PUSH1 0x23 PUSH0 SWAP1 SLOAD SWAP1 PUSH2 0x100 EXP SWAP1 DIV PUSH1 0xFF AND DUP1 ISZERO PUSH2 0x64A2 JUMPI POP PUSH1 0x24 SLOAD PUSH1 0x29 SLOAD LT ISZERO JUMPDEST ISZERO PUSH2 0x64B3 JUMPI PUSH2 0x64B2 PUSH1 0x25 SLOAD PUSH2 0x7916 JUMP JUMPDEST JUMPDEST PUSH1 0x2A PUSH1 0x14 SWAP1 SLOAD SWAP1 PUSH2 0x100 EXP SWAP1 DIV PUSH1 0xFF AND DUP1 ISZERO PUSH2 0x64EF JUMPI POP PUSH1 0x2B SLOAD PUSH2 0x64D5 PUSH2 0x5D58 JUMP JUMPDEST PUSH20 0xFFFFFFFFFFFFFFFFFFFFFFFFFFFFFFFFFFFFFFFF AND BALANCE LT ISZERO JUMPDEST ISZERO PUSH2 0x6500 JUMPI PUSH2 0x64FF PUSH1 0x2C SLOAD PUSH2 0x75D1 JUMP JUMPDEST JUMPDEST PUSH1 0x2D PUSH0 SWAP1 SLOAD SWAP1 PUSH2 0x100 EXP SWAP1 DIV PUSH1 0xFF AND DUP1 ISZERO PUSH2 0x653B JUMPI POP PUSH1 0x2E SLOAD PUSH2 0x6521 PUSH2 0x5D58 JUMP JUMPDEST PUSH20 0xFFFFFFFFFFFFFFFFFFFFFFFFFFFFFFFFFFFFFFFF AND BALANCE LT ISZERO JUMPDEST DUP1 ISZERO PUSH2 0x6570 JUMPI POP PUSH0 PUSH2 0x656D PUSH1 0x2A PUSH0 SWAP1 SLOAD SWAP1 PUSH2 0x100 EXP SWAP1 DIV PUSH20 0xFFFFFFFFFFFFFFFFFFFFFFFFFFFFFFFFFFFFFFFF AND PUSH2 0x3F61 JUMP JUMPDEST EQ ISZERO JUMPDEST ISZERO PUSH2 0x6581 JUMPI PUSH2 0x6580 PUSH1 0x2F SLOAD PUSH2 0x7342 JUMP JUMPDEST JUMPDEST JUMPDEST PUSH1 0x14 PUSH0 SWAP1 SLOAD SWAP1 PUSH2 0x100 EXP SWAP1 DIV PUSH1 0xFF AND DUP1 ISZERO PUSH2 0x6635 JUMPI POP PUSH1 0x15 PUSH0 DUP12 PUSH20 0xFFFFFFFFFFFFFFFFFFFFFFFFFFFFFFFFFFFFFFFF AND PUSH20 0xFFFFFFFFFFFFFFFFFFFFFFFFFFFFFFFFFFFFFFFF AND DUP2 MSTORE PUSH1 0x20 ADD SWAP1 DUP2 MSTORE PUSH1 0x20 ADD PUSH0 KECCAK256 PUSH0 SWAP1 SLOAD SWAP1 PUSH2 0x100 EXP SWAP1 DIV PUSH1 0xFF AND DUP1 PUSH2 0x6633 JUMPI POP PUSH1 0x15 PUSH0 DUP13 PUSH20 0xFFFFFFFFFFFFFFFFFFFFFFFFFFFFFFFFFFFFFFFF AND PUSH20 0xFFFFFFFFFFFFFFFFFFFFFFFFFFFFFFFFFFFFFFFF AND DUP2 MSTORE PUSH1 0x20 ADD SWAP1 DUP2 MSTORE PUSH1 0x20 ADD PUSH0 KECCAK256 PUSH0 SWAP1 SLOAD SWAP1 PUSH2 0x100 EXP SWAP1 DIV PUSH1 0xFF AND JUMPDEST ISZERO JUMPDEST ISZERO PUSH2 0x68C8 JUMPI PUSH2 0x669C DUP6 DUP8 PUSH2 0x6649 SWAP2 SWAP1 PUSH2 0x8A8E JUMP JUMPDEST PUSH1 0xB PUSH0 PUSH2 0x6654 PUSH2 0x5D58 JUMP JUMPDEST PUSH20 0xFFFFFFFFFFFFFFFFFFFFFFFFFFFFFFFFFFFFFFFF AND PUSH20 0xFFFFFFFFFFFFFFFFFFFFFFFFFFFFFFFFFFFFFFFF AND DUP2 MSTORE PUSH1 0x20 ADD SWAP1 DUP2 MSTORE PUSH1 0x20 ADD PUSH0 KECCAK256 SLOAD PUSH2 0x72E5 SWAP1 SWAP2 SWAP1 PUSH4 0xFFFFFFFF AND JUMP JUMPDEST PUSH1 0xB PUSH0 PUSH2 0x66A7 PUSH2 0x5D58 JUMP JUMPDEST PUSH20 0xFFFFFFFFFFFFFFFFFFFFFFFFFFFFFFFFFFFFFFFF AND PUSH20 0xFFFFFFFFFFFFFFFFFFFFFFFFFFFFFFFFFFFFFFFF AND DUP2 MSTORE PUSH1 0x20 ADD SWAP1 DUP2 MSTORE PUSH1 0x20 ADD PUSH0 KECCAK256 DUP2 SWAP1 SSTORE POP PUSH2 0x6758 PUSH2 0x6705 DUP9 DUP8 DUP10 PUSH2 0x66F7 SWAP2 SWAP1 PUSH2 0x8A8E JUMP JUMPDEST PUSH2 0x7DFB SWAP1 SWAP2 SWAP1 PUSH4 0xFFFFFFFF AND JUMP JUMPDEST PUSH1 0x11 PUSH0 PUSH2 0x6710 PUSH2 0x5D58 JUMP JUMPDEST PUSH20 0xFFFFFFFFFFFFFFFFFFFFFFFFFFFFFFFFFFFFFFFF AND PUSH20 0xFFFFFFFFFFFFFFFFFFFFFFFFFFFFFFFFFFFFFFFF AND DUP2 MSTORE PUSH1 0x20 ADD SWAP1 DUP2 MSTORE PUSH1 0x20 ADD PUSH0 KECCAK256 SLOAD PUSH2 0x72E5 SWAP1 SWAP2 SWAP1 PUSH4 0xFFFFFFFF AND JUMP JUMPDEST PUSH1 0x11 PUSH0 PUSH2 0x6763 PUSH2 0x5D58 JUMP JUMPDEST PUSH20 0xFFFFFFFFFFFFFFFFFFFFFFFFFFFFFFFFFFFFFFFF AND PUSH20 0xFFFFFFFFFFFFFFFFFFFFFFFFFFFFFFFFFFFFFFFF AND DUP2 MSTORE PUSH1 0x20 ADD SWAP1 DUP2 MSTORE PUSH1 0x20 ADD PUSH0 KECCAK256 DUP2 SWAP1 SSTORE POP PUSH2 0x67A8 PUSH2 0x5D58 JUMP JUMPDEST PUSH20 0xFFFFFFFFFFFFFFFFFFFFFFFFFFFFFFFFFFFFFFFF AND DUP12 PUSH20 0xFFFFFFFFFFFFFFFFFFFFFFFFFFFFFFFFFFFFFFFF AND PUSH32 0xDDF252AD1BE2C89B69C2B068FC378DAA952BA7F163C4A11628F55A4DF523B3EF DUP8 DUP10 PUSH2 0x6802 SWAP2 SWAP1 PUSH2 0x8A8E JUMP JUMPDEST PUSH1 0x40 MLOAD PUSH2 0x680F SWAP2 SWAP1 PUSH2 0x827D JUMP JUMPDEST PUSH1 0x40 MLOAD DUP1 SWAP2 SUB SWAP1 LOG3 PUSH2 0x682C DUP7 PUSH1 0x27 SLOAD PUSH2 0x72E5 SWAP1 SWAP2 SWAP1 PUSH4 0xFFFFFFFF AND JUMP JUMPDEST PUSH1 0x27 DUP2 SWAP1 SSTORE POP PUSH2 0x6847 DUP6 PUSH1 0x28 SLOAD PUSH2 0x72E5 SWAP1 SWAP2 SWAP1 PUSH4 0xFFFFFFFF AND JUMP JUMPDEST PUSH1 0x28 DUP2 SWAP1 SSTORE POP PUSH1 0x28 SLOAD PUSH1 0x27 SLOAD PUSH2 0x685D SWAP2 SWAP1 PUSH2 0x8A8E JUMP JUMPDEST PUSH1 0x29 DUP2 SWAP1 SSTORE POP PUSH2 0x688A PUSH2 0x6879 DUP9 DUP7 PUSH2 0x7DFB SWAP1 SWAP2 SWAP1 PUSH4 0xFFFFFFFF AND JUMP JUMPDEST PUSH1 0x13 SLOAD PUSH2 0x75A7 SWAP1 SWAP2 SWAP1 PUSH4 0xFFFFFFFF AND JUMP JUMPDEST PUSH1 0x13 DUP2 SWAP1 SSTORE POP PUSH32 0x5C1ED6067100D7C0B1AB0374561D4C79AAE0B726D35668BF58CB3A7395250BE0 DUP5 PUSH1 0x40 MLOAD PUSH2 0x68BF SWAP2 SWAP1 PUSH2 0x827D JUMP JUMPDEST PUSH1 0x40 MLOAD DUP1 SWAP2 SUB SWAP1 LOG1 JUMPDEST PUSH1 0x10 PUSH0 DUP13 PUSH20 0xFFFFFFFFFFFFFFFFFFFFFFFFFFFFFFFFFFFFFFFF AND PUSH20 0xFFFFFFFFFFFFFFFFFFFFFFFFFFFFFFFFFFFFFFFF AND DUP2 MSTORE PUSH1 0x20 ADD SWAP1 DUP2 MSTORE PUSH1 0x20 ADD PUSH0 KECCAK256 PUSH0 SWAP1 SLOAD SWAP1 PUSH2 0x100 EXP SWAP1 DIV PUSH1 0xFF AND DUP1 ISZERO PUSH2 0x6965 JUMPI POP PUSH1 0x10 PUSH0 DUP12 PUSH20 0xFFFFFFFFFFFFFFFFFFFFFFFFFFFFFFFFFFFFFFFF AND PUSH20 0xFFFFFFFFFFFFFFFFFFFFFFFFFFFFFFFFFFFFFFFF AND DUP2 MSTORE PUSH1 0x20 ADD SWAP1 DUP2 MSTORE PUSH1 0x20 ADD PUSH0 KECCAK256 PUSH0 SWAP1 SLOAD SWAP1 PUSH2 0x100 EXP SWAP1 DIV PUSH1 0xFF AND ISZERO JUMPDEST ISZERO PUSH2 0x6B22 JUMPI PUSH2 0x69BA DUP10 PUSH1 0xB PUSH0 DUP15 PUSH20 0xFFFFFFFFFFFFFFFFFFFFFFFFFFFFFFFFFFFFFFFF AND PUSH20 0xFFFFFFFFFFFFFFFFFFFFFFFFFFFFFFFFFFFFFFFF AND DUP2 MSTORE PUSH1 0x20 ADD SWAP1 DUP2 MSTORE PUSH1 0x20 ADD PUSH0 KECCAK256 SLOAD PUSH2 0x75A7 SWAP1 SWAP2 SWAP1 PUSH4 0xFFFFFFFF AND JUMP JUMPDEST PUSH1 0xB PUSH0 DUP14 PUSH20 0xFFFFFFFFFFFFFFFFFFFFFFFFFFFFFFFFFFFFFFFF AND PUSH20 0xFFFFFFFFFFFFFFFFFFFFFFFFFFFFFFFFFFFFFFFF AND DUP2 MSTORE PUSH1 0x20 ADD SWAP1 DUP2 MSTORE PUSH1 0x20 ADD PUSH0 KECCAK256 DUP2 SWAP1 SSTORE POP PUSH2 0x6A4B DUP3 PUSH1 0x11 PUSH0 DUP15 PUSH20 0xFFFFFFFFFFFFFFFFFFFFFFFFFFFFFFFFFFFFFFFF AND PUSH20 0xFFFFFFFFFFFFFFFFFFFFFFFFFFFFFFFFFFFFFFFF AND DUP2 MSTORE PUSH1 0x20 ADD SWAP1 DUP2 MSTORE PUSH1 0x20 ADD PUSH0 KECCAK256 SLOAD PUSH2 0x75A7 SWAP1 SWAP2 SWAP1 PUSH4 0xFFFFFFFF AND JUMP JUMPDEST PUSH1 0x11 PUSH0 DUP14 PUSH20 0xFFFFFFFFFFFFFFFFFFFFFFFFFFFFFFFFFFFFFFFF AND PUSH20 0xFFFFFFFFFFFFFFFFFFFFFFFFFFFFFFFFFFFFFFFF AND DUP2 MSTORE PUSH1 0x20 ADD SWAP1 DUP2 MSTORE PUSH1 0x20 ADD PUSH0 KECCAK256 DUP2 SWAP1 SSTORE POP PUSH2 0x6ADC DUP2 PUSH1 0x11 PUSH0 DUP14 PUSH20 0xFFFFFFFFFFFFFFFFFFFFFFFFFFFFFFFFFFFFFFFF AND PUSH20 0xFFFFFFFFFFFFFFFFFFFFFFFFFFFFFFFFFFFFFFFF AND DUP2 MSTORE PUSH1 0x20 ADD SWAP1 DUP2 MSTORE PUSH1 0x20 ADD PUSH0 KECCAK256 SLOAD PUSH2 0x72E5 SWAP1 SWAP2 SWAP1 PUSH4 0xFFFFFFFF AND JUMP JUMPDEST PUSH1 0x11 PUSH0 DUP13 PUSH20 0xFFFFFFFFFFFFFFFFFFFFFFFFFFFFFFFFFFFFFFFF AND PUSH20 0xFFFFFFFFFFFFFFFFFFFFFFFFFFFFFFFFFFFFFFFF AND DUP2 MSTORE PUSH1 0x20 ADD SWAP1 DUP2 MSTORE PUSH1 0x20 ADD PUSH0 KECCAK256 DUP2 SWAP1 SSTORE POP PUSH2 0x718B JUMP JUMPDEST PUSH1 0x10 PUSH0 DUP13 PUSH20 0xFFFFFFFFFFFFFFFFFFFFFFFFFFFFFFFFFFFFFFFF AND PUSH20 0xFFFFFFFFFFFFFFFFFFFFFFFFFFFFFFFFFFFFFFFF AND DUP2 MSTORE PUSH1 0x20 ADD SWAP1 DUP2 MSTORE PUSH1 0x20 ADD PUSH0 KECCAK256 PUSH0 SWAP1 SLOAD SWAP1 PUSH2 0x100 EXP SWAP1 DIV PUSH1 0xFF AND ISZERO DUP1 ISZERO PUSH2 0x6BBF JUMPI POP PUSH1 0x10 PUSH0 DUP12 PUSH20 0xFFFFFFFFFFFFFFFFFFFFFFFFFFFFFFFFFFFFFFFF AND PUSH20 0xFFFFFFFFFFFFFFFFFFFFFFFFFFFFFFFFFFFFFFFF AND DUP2 MSTORE PUSH1 0x20 ADD SWAP1 DUP2 MSTORE PUSH1 0x20 ADD PUSH0 KECCAK256 PUSH0 SWAP1 SLOAD SWAP1 PUSH2 0x100 EXP SWAP1 DIV PUSH1 0xFF AND JUMPDEST ISZERO PUSH2 0x6D7C JUMPI PUSH2 0x6C14 DUP3 PUSH1 0x11 PUSH0 DUP15 PUSH20 0xFFFFFFFFFFFFFFFFFFFFFFFFFFFFFFFFFFFFFFFF AND PUSH20 0xFFFFFFFFFFFFFFFFFFFFFFFFFFFFFFFFFFFFFFFF AND DUP2 MSTORE PUSH1 0x20 ADD SWAP1 DUP2 MSTORE PUSH1 0x20 ADD PUSH0 KECCAK256 SLOAD PUSH2 0x75A7 SWAP1 SWAP2 SWAP1 PUSH4 0xFFFFFFFF AND JUMP JUMPDEST PUSH1 0x11 PUSH0 DUP14 PUSH20 0xFFFFFFFFFFFFFFFFFFFFFFFFFFFFFFFFFFFFFFFF AND PUSH20 0xFFFFFFFFFFFFFFFFFFFFFFFFFFFFFFFFFFFFFFFF AND DUP2 MSTORE PUSH1 0x20 ADD SWAP1 DUP2 MSTORE PUSH1 0x20 ADD PUSH0 KECCAK256 DUP2 SWAP1 SSTORE POP PUSH2 0x6CA5 DUP4 PUSH1 0xB PUSH0 DUP14 PUSH20 0xFFFFFFFFFFFFFFFFFFFFFFFFFFFFFFFFFFFFFFFF AND PUSH20 0xFFFFFFFFFFFFFFFFFFFFFFFFFFFFFFFFFFFFFFFF AND DUP2 MSTORE PUSH1 0x20 ADD SWAP1 DUP2 MSTORE PUSH1 0x20 ADD PUSH0 KECCAK256 SLOAD PUSH2 0x72E5 SWAP1 SWAP2 SWAP1 PUSH4 0xFFFFFFFF AND JUMP JUMPDEST PUSH1 0xB PUSH0 DUP13 PUSH20 0xFFFFFFFFFFFFFFFFFFFFFFFFFFFFFFFFFFFFFFFF AND PUSH20 0xFFFFFFFFFFFFFFFFFFFFFFFFFFFFFFFFFFFFFFFF AND DUP2 MSTORE PUSH1 0x20 ADD SWAP1 DUP2 MSTORE PUSH1 0x20 ADD PUSH0 KECCAK256 DUP2 SWAP1 SSTORE POP PUSH2 0x6D36 DUP2 PUSH1 0x11 PUSH0 DUP14 PUSH20 0xFFFFFFFFFFFFFFFFFFFFFFFFFFFFFFFFFFFFFFFF AND PUSH20 0xFFFFFFFFFFFFFFFFFFFFFFFFFFFFFFFFFFFFFFFF AND DUP2 MSTORE PUSH1 0x20 ADD SWAP1 DUP2 MSTORE PUSH1 0x20 ADD PUSH0 KECCAK256 SLOAD PUSH2 0x72E5 SWAP1 SWAP2 SWAP1 PUSH4 0xFFFFFFFF AND JUMP JUMPDEST PUSH1 0x11 PUSH0 DUP13 PUSH20 0xFFFFFFFFFFFFFFFFFFFFFFFFFFFFFFFFFFFFFFFF AND PUSH20 0xFFFFFFFFFFFFFFFFFFFFFFFFFFFFFFFFFFFFFFFF AND DUP2 MSTORE PUSH1 0x20 ADD SWAP1 DUP2 MSTORE PUSH1 0x20 ADD PUSH0 KECCAK256 DUP2 SWAP1 SSTORE POP PUSH2 0x718A JUMP JUMPDEST PUSH1 0x10 PUSH0 DUP13 PUSH20 0xFFFFFFFFFFFFFFFFFFFFFFFFFFFFFFFFFFFFFFFF AND PUSH20 0xFFFFFFFFFFFFFFFFFFFFFFFFFFFFFFFFFFFFFFFF AND DUP2 MSTORE PUSH1 0x20 ADD SWAP1 DUP2 MSTORE PUSH1 0x20 ADD PUSH0 KECCAK256 PUSH0 SWAP1 SLOAD SWAP1 PUSH2 0x100 EXP SWAP1 DIV PUSH1 0xFF AND DUP1 ISZERO PUSH2 0x6E18 JUMPI POP PUSH1 0x10 PUSH0 DUP12 PUSH20 0xFFFFFFFFFFFFFFFFFFFFFFFFFFFFFFFFFFFFFFFF AND PUSH20 0xFFFFFFFFFFFFFFFFFFFFFFFFFFFFFFFFFFFFFFFF AND DUP2 MSTORE PUSH1 0x20 ADD SWAP1 DUP2 MSTORE PUSH1 0x20 ADD PUSH0 KECCAK256 PUSH0 SWAP1 SLOAD SWAP1 PUSH2 0x100 EXP SWAP1 DIV PUSH1 0xFF AND JUMPDEST ISZERO PUSH2 0x7066 JUMPI PUSH2 0x6E6D DUP10 PUSH1 0xB PUSH0 DUP15 PUSH20 0xFFFFFFFFFFFFFFFFFFFFFFFFFFFFFFFFFFFFFFFF AND PUSH20 0xFFFFFFFFFFFFFFFFFFFFFFFFFFFFFFFFFFFFFFFF AND DUP2 MSTORE PUSH1 0x20 ADD SWAP1 DUP2 MSTORE PUSH1 0x20 ADD PUSH0 KECCAK256 SLOAD PUSH2 0x75A7 SWAP1 SWAP2 SWAP1 PUSH4 0xFFFFFFFF AND JUMP JUMPDEST PUSH1 0xB PUSH0 DUP14 PUSH20 0xFFFFFFFFFFFFFFFFFFFFFFFFFFFFFFFFFFFFFFFF AND PUSH20 0xFFFFFFFFFFFFFFFFFFFFFFFFFFFFFFFFFFFFFFFF AND DUP2 MSTORE PUSH1 0x20 ADD SWAP1 DUP2 MSTORE PUSH1 0x20 ADD PUSH0 KECCAK256 DUP2 SWAP1 SSTORE POP PUSH2 0x6EFE DUP3 PUSH1 0x11 PUSH0 DUP15 PUSH20 0xFFFFFFFFFFFFFFFFFFFFFFFFFFFFFFFFFFFFFFFF AND PUSH20 0xFFFFFFFFFFFFFFFFFFFFFFFFFFFFFFFFFFFFFFFF AND DUP2 MSTORE PUSH1 0x20 ADD SWAP1 DUP2 MSTORE PUSH1 0x20 ADD PUSH0 KECCAK256 SLOAD PUSH2 0x75A7 SWAP1 SWAP2 SWAP1 PUSH4 0xFFFFFFFF AND JUMP JUMPDEST PUSH1 0x11 PUSH0 DUP14 PUSH20 0xFFFFFFFFFFFFFFFFFFFFFFFFFFFFFFFFFFFFFFFF AND PUSH20 0xFFFFFFFFFFFFFFFFFFFFFFFFFFFFFFFFFFFFFFFF AND DUP2 MSTORE PUSH1 0x20 ADD SWAP1 DUP2 MSTORE PUSH1 0x20 ADD PUSH0 KECCAK256 DUP2 SWAP1 SSTORE POP PUSH2 0x6F8F DUP4 PUSH1 0xB PUSH0 DUP14 PUSH20 0xFFFFFFFFFFFFFFFFFFFFFFFFFFFFFFFFFFFFFFFF AND PUSH20 0xFFFFFFFFFFFFFFFFFFFFFFFFFFFFFFFFFFFFFFFF AND DUP2 MSTORE PUSH1 0x20 ADD SWAP1 DUP2 MSTORE PUSH1 0x20 ADD PUSH0 KECCAK256 SLOAD PUSH2 0x72E5 SWAP1 SWAP2 SWAP1 PUSH4 0xFFFFFFFF AND JUMP JUMPDEST PUSH1 0xB PUSH0 DUP13 PUSH20 0xFFFFFFFFFFFFFFFFFFFFFFFFFFFFFFFFFFFFFFFF AND PUSH20 0xFFFFFFFFFFFFFFFFFFFFFFFFFFFFFFFFFFFFFFFF AND DUP2 MSTORE PUSH1 0x20 ADD SWAP1 DUP2 MSTORE PUSH1 0x20 ADD PUSH0 KECCAK256 DUP2 SWAP1 SSTORE POP PUSH2 0x7020 DUP2 PUSH1 0x11 PUSH0 DUP14 PUSH20 0xFFFFFFFFFFFFFFFFFFFFFFFFFFFFFFFFFFFFFFFF AND PUSH20 0xFFFFFFFFFFFFFFFFFFFFFFFFFFFFFFFFFFFFFFFF AND DUP2 MSTORE PUSH1 0x20 ADD SWAP1 DUP2 MSTORE PUSH1 0x20 ADD PUSH0 KECCAK256 SLOAD PUSH2 0x72E5 SWAP1 SWAP2 SWAP1 PUSH4 0xFFFFFFFF AND JUMP JUMPDEST PUSH1 0x11 PUSH0 DUP13 PUSH20 0xFFFFFFFFFFFFFFFFFFFFFFFFFFFFFFFFFFFFFFFF AND PUSH20 0xFFFFFFFFFFFFFFFFFFFFFFFFFFFFFFFFFFFFFFFF AND DUP2 MSTORE PUSH1 0x20 ADD SWAP1 DUP2 MSTORE PUSH1 0x20 ADD PUSH0 KECCAK256 DUP2 SWAP1 SSTORE POP PUSH2 0x7189 JUMP JUMPDEST PUSH2 0x70B6 DUP3 PUSH1 0x11 PUSH0 DUP15 PUSH20 0xFFFFFFFFFFFFFFFFFFFFFFFFFFFFFFFFFFFFFFFF AND PUSH20 0xFFFFFFFFFFFFFFFFFFFFFFFFFFFFFFFFFFFFFFFF AND DUP2 MSTORE PUSH1 0x20 ADD SWAP1 DUP2 MSTORE PUSH1 0x20 ADD PUSH0 KECCAK256 SLOAD PUSH2 0x75A7 SWAP1 SWAP2 SWAP1 PUSH4 0xFFFFFFFF AND JUMP JUMPDEST PUSH1 0x11 PUSH0 DUP14 PUSH20 0xFFFFFFFFFFFFFFFFFFFFFFFFFFFFFFFFFFFFFFFF AND PUSH20 0xFFFFFFFFFFFFFFFFFFFFFFFFFFFFFFFFFFFFFFFF AND DUP2 MSTORE PUSH1 0x20 ADD SWAP1 DUP2 MSTORE PUSH1 0x20 ADD PUSH0 KECCAK256 DUP2 SWAP1 SSTORE POP PUSH2 0x7147 DUP2 PUSH1 0x11 PUSH0 DUP14 PUSH20 0xFFFFFFFFFFFFFFFFFFFFFFFFFFFFFFFFFFFFFFFF AND PUSH20 0xFFFFFFFFFFFFFFFFFFFFFFFFFFFFFFFFFFFFFFFF AND DUP2 MSTORE PUSH1 0x20 ADD SWAP1 DUP2 MSTORE PUSH1 0x20 ADD PUSH0 KECCAK256 SLOAD PUSH2 0x72E5 SWAP1 SWAP2 SWAP1 PUSH4 0xFFFFFFFF AND JUMP JUMPDEST PUSH1 0x11 PUSH0 DUP13 PUSH20 0xFFFFFFFFFFFFFFFFFFFFFFFFFFFFFFFFFFFFFFFF AND PUSH20 0xFFFFFFFFFFFFFFFFFFFFFFFFFFFFFFFFFFFFFFFF AND DUP2 MSTORE PUSH1 0x20 ADD SWAP1 DUP2 MSTORE PUSH1 0x20 ADD PUSH0 KECCAK256 DUP2 SWAP1 SSTORE POP JUMPDEST JUMPDEST JUMPDEST DUP10 PUSH20 0xFFFFFFFFFFFFFFFFFFFFFFFFFFFFFFFFFFFFFFFF AND DUP12 PUSH20 0xFFFFFFFFFFFFFFFFFFFFFFFFFFFFFFFFFFFFFFFF AND PUSH32 0xDDF252AD1BE2C89B69C2B068FC378DAA952BA7F163C4A11628F55A4DF523B3EF DUP6 PUSH1 0x40 MLOAD PUSH2 0x71E8 SWAP2 SWAP1 PUSH2 0x827D JUMP JUMPDEST PUSH1 0x40 MLOAD DUP1 SWAP2 SUB SWAP1 LOG3 POP POP POP POP POP POP POP POP JUMPDEST POP POP POP JUMP JUMPDEST PUSH0 DUP4 DUP4 GT ISZERO DUP3 SWAP1 PUSH2 0x7245 JUMPI PUSH1 0x40 MLOAD PUSH32 0x8C379A000000000000000000000000000000000000000000000000000000000 DUP2 MSTORE PUSH1 0x4 ADD PUSH2 0x723C SWAP2 SWAP1 PUSH2 0x8245 JUMP JUMPDEST PUSH1 0x40 MLOAD DUP1 SWAP2 SUB SWAP1 REVERT JUMPDEST POP PUSH0 DUP4 DUP6 PUSH2 0x7253 SWAP2 SWAP1 PUSH2 0x8827 JUMP JUMPDEST SWAP1 POP DUP1 SWAP2 POP POP SWAP4 SWAP3 POP POP POP JUMP JUMPDEST PUSH0 DUP1 PUSH0 PUSH2 0x726B PUSH2 0x7E7D JUMP JUMPDEST SWAP2 POP SWAP2 POP PUSH2 0x7282 DUP2 DUP4 PUSH2 0x7289 SWAP1 SWAP2 SWAP1 PUSH4 0xFFFFFFFF AND JUMP JUMPDEST SWAP3 POP POP POP SWAP1 JUMP JUMPDEST PUSH0 DUP1 DUP3 GT PUSH2 0x72CC JUMPI PUSH1 0x40 MLOAD PUSH32 0x8C379A000000000000000000000000000000000000000000000000000000000 DUP2 MSTORE PUSH1 0x4 ADD PUSH2 0x72C3 SWAP1 PUSH2 0x9777 JUMP JUMPDEST PUSH1 0x40 MLOAD DUP1 SWAP2 SUB SWAP1 REVERT JUMPDEST PUSH0 DUP3 DUP5 PUSH2 0x72D9 SWAP2 SWAP1 PUSH2 0x97C2 JUMP JUMPDEST SWAP1 POP DUP1 SWAP2 POP POP SWAP3 SWAP2 POP POP JUMP JUMPDEST PUSH0 DUP1 DUP3 DUP5 PUSH2 0x72F3 SWAP2 SWAP1 PUSH2 0x8A8E JUMP JUMPDEST SWAP1 POP DUP4 DUP2 LT ISZERO PUSH2 0x7338 JUMPI PUSH1 0x40 MLOAD PUSH32 0x8C379A000000000000000000000000000000000000000000000000000000000 DUP2 MSTORE PUSH1 0x4 ADD PUSH2 0x732F SWAP1 PUSH2 0x983C JUMP JUMPDEST PUSH1 0x40 MLOAD DUP1 SWAP2 SUB SWAP1 REVERT JUMPDEST DUP1 SWAP2 POP POP SWAP3 SWAP2 POP POP JUMP JUMPDEST PUSH1 0x1 PUSH1 0x26 PUSH0 PUSH2 0x100 EXP DUP2 SLOAD DUP2 PUSH1 0xFF MUL NOT AND SWAP1 DUP4 ISZERO ISZERO MUL OR SWAP1 SSTORE POP PUSH1 0x64 DUP2 GT ISZERO PUSH2 0x73A0 JUMPI PUSH1 0x40 MLOAD PUSH32 0x8C379A000000000000000000000000000000000000000000000000000000000 DUP2 MSTORE PUSH1 0x4 ADD PUSH2 0x7397 SWAP1 PUSH2 0x98CA JUMP JUMPDEST PUSH1 0x40 MLOAD DUP1 SWAP2 SUB SWAP1 REVERT JUMPDEST PUSH0 PUSH2 0x73CB PUSH1 0x2A PUSH0 SWAP1 SLOAD SWAP1 PUSH2 0x100 EXP SWAP1 DIV PUSH20 0xFFFFFFFFFFFFFFFFFFFFFFFFFFFFFFFFFFFFFFFF AND PUSH2 0x3F61 JUMP JUMPDEST SWAP1 POP PUSH2 0x7400 PUSH1 0x2A PUSH0 SWAP1 SLOAD SWAP1 PUSH2 0x100 EXP SWAP1 DIV PUSH20 0xFFFFFFFFFFFFFFFFFFFFFFFFFFFFFFFFFFFFFFFF AND PUSH2 0x73FA PUSH2 0x5D58 JUMP JUMPDEST DUP4 PUSH2 0x5F42 JUMP JUMPDEST PUSH2 0x7433 PUSH2 0x740B PUSH2 0x5D58 JUMP JUMPDEST PUSH1 0x1E PUSH0 SWAP1 SLOAD SWAP1 PUSH2 0x100 EXP SWAP1 DIV PUSH20 0xFFFFFFFFFFFFFFFFFFFFFFFFFFFFFFFFFFFFFFFF AND DUP4 PUSH2 0x5D7F JUMP JUMPDEST PUSH1 0x1E PUSH0 SWAP1 SLOAD SWAP1 PUSH2 0x100 EXP SWAP1 DIV PUSH20 0xFFFFFFFFFFFFFFFFFFFFFFFFFFFFFFFFFFFFFFFF AND PUSH20 0xFFFFFFFFFFFFFFFFFFFFFFFFFFFFFFFFFFFFFFFF AND PUSH4 0xF305D719 PUSH2 0x74B4 PUSH1 0x64 PUSH2 0x74A6 DUP7 PUSH2 0x7481 PUSH2 0x5D58 JUMP JUMPDEST PUSH20 0xFFFFFFFFFFFFFFFFFFFFFFFFFFFFFFFFFFFFFFFF AND BALANCE PUSH2 0x7DFB SWAP1 SWAP2 SWAP1 PUSH4 0xFFFFFFFF AND JUMP JUMPDEST PUSH2 0x7289 SWAP1 SWAP2 SWAP1 PUSH4 0xFFFFFFFF AND JUMP JUMPDEST PUSH2 0x74BC PUSH2 0x5D58 JUMP JUMPDEST DUP5 PUSH0 DUP1 PUSH2 0x74C7 PUSH2 0x5D58 JUMP JUMPDEST PUSH2 0x74CF PUSH2 0x8112 JUMP JUMPDEST PUSH1 0x40 MLOAD DUP9 PUSH4 0xFFFFFFFF AND PUSH1 0xE0 SHL DUP2 MSTORE PUSH1 0x4 ADD PUSH2 0x74F0 SWAP7 SWAP6 SWAP5 SWAP4 SWAP3 SWAP2 SWAP1 PUSH2 0x9941 JUMP JUMPDEST PUSH1 0x60 PUSH1 0x40 MLOAD DUP1 DUP4 SUB DUP2 DUP6 DUP9 GAS CALL ISZERO DUP1 ISZERO PUSH2 0x750C JUMPI RETURNDATASIZE PUSH0 DUP1 RETURNDATACOPY RETURNDATASIZE PUSH0 REVERT JUMPDEST POP POP POP POP POP PUSH1 0x40 MLOAD RETURNDATASIZE PUSH1 0x1F NOT PUSH1 0x1F DUP3 ADD AND DUP3 ADD DUP1 PUSH1 0x40 MSTORE POP DUP2 ADD SWAP1 PUSH2 0x7531 SWAP2 SWAP1 PUSH2 0x99B4 JUMP JUMPDEST POP POP POP PUSH2 0x758A PUSH2 0x753F PUSH2 0x5D58 JUMP JUMPDEST PUSH1 0x2A PUSH0 SWAP1 SLOAD SWAP1 PUSH2 0x100 EXP SWAP1 DIV PUSH20 0xFFFFFFFFFFFFFFFFFFFFFFFFFFFFFFFFFFFFFFFF AND PUSH2 0x7585 PUSH1 0x29 SLOAD PUSH2 0x7577 PUSH2 0x7572 PUSH2 0x5D58 JUMP JUMPDEST PUSH2 0x3F61 JUMP JUMPDEST PUSH2 0x75A7 SWAP1 SWAP2 SWAP1 PUSH4 0xFFFFFFFF AND JUMP JUMPDEST PUSH2 0x5F42 JUMP JUMPDEST POP PUSH0 PUSH1 0x26 PUSH0 PUSH2 0x100 EXP DUP2 SLOAD DUP2 PUSH1 0xFF MUL NOT AND SWAP1 DUP4 ISZERO ISZERO MUL OR SWAP1 SSTORE POP POP JUMP JUMPDEST PUSH0 DUP3 DUP3 LT PUSH2 0x75B7 JUMPI PUSH0 SWAP1 POP PUSH2 0x75CB JUMP JUMPDEST PUSH0 DUP3 DUP5 PUSH2 0x75C4 SWAP2 SWAP1 PUSH2 0x8827 JUMP JUMPDEST SWAP1 POP DUP1 SWAP2 POP POP JUMPDEST SWAP3 SWAP2 POP POP JUMP JUMPDEST PUSH1 0x1 PUSH1 0x26 PUSH0 PUSH2 0x100 EXP DUP2 SLOAD DUP2 PUSH1 0xFF MUL NOT AND SWAP1 DUP4 ISZERO ISZERO MUL OR SWAP1 SSTORE POP PUSH1 0x64 DUP2 GT ISZERO PUSH2 0x762F JUMPI PUSH1 0x40 MLOAD PUSH32 0x8C379A000000000000000000000000000000000000000000000000000000000 DUP2 MSTORE PUSH1 0x4 ADD PUSH2 0x7626 SWAP1 PUSH2 0x9A4E JUMP JUMPDEST PUSH1 0x40 MLOAD DUP1 SWAP2 SUB SWAP1 REVERT JUMPDEST PUSH0 PUSH1 0x2 PUSH8 0xFFFFFFFFFFFFFFFF DUP2 GT ISZERO PUSH2 0x764B JUMPI PUSH2 0x764A PUSH2 0x9A6C JUMP JUMPDEST JUMPDEST PUSH1 0x40 MLOAD SWAP1 DUP1 DUP3 MSTORE DUP1 PUSH1 0x20 MUL PUSH1 0x20 ADD DUP3 ADD PUSH1 0x40 MSTORE DUP1 ISZERO PUSH2 0x7679 JUMPI DUP2 PUSH1 0x20 ADD PUSH1 0x20 DUP3 MUL DUP1 CALLDATASIZE DUP4 CALLDATACOPY DUP1 DUP3 ADD SWAP2 POP POP SWAP1 POP JUMPDEST POP SWAP1 POP PUSH1 0x1E PUSH0 SWAP1 SLOAD SWAP1 PUSH2 0x100 EXP SWAP1 DIV PUSH20 0xFFFFFFFFFFFFFFFFFFFFFFFFFFFFFFFFFFFFFFFF AND PUSH20 0xFFFFFFFFFFFFFFFFFFFFFFFFFFFFFFFFFFFFFFFF AND PUSH4 0xAD5C4648 PUSH1 0x40 MLOAD DUP2 PUSH4 0xFFFFFFFF AND PUSH1 0xE0 SHL DUP2 MSTORE PUSH1 0x4 ADD PUSH1 0x20 PUSH1 0x40 MLOAD DUP1 DUP4 SUB DUP2 DUP7 GAS STATICCALL ISZERO DUP1 ISZERO PUSH2 0x76E6 JUMPI RETURNDATASIZE PUSH0 DUP1 RETURNDATACOPY RETURNDATASIZE PUSH0 REVERT JUMPDEST POP POP POP POP PUSH1 0x40 MLOAD RETURNDATASIZE PUSH1 0x1F NOT PUSH1 0x1F DUP3 ADD AND DUP3 ADD DUP1 PUSH1 0x40 MSTORE POP DUP2 ADD SWAP1 PUSH2 0x770A SWAP2 SWAP1 PUSH2 0x9AAD JUMP JUMPDEST DUP2 PUSH0 DUP2 MLOAD DUP2 LT PUSH2 0x771D JUMPI PUSH2 0x771C PUSH2 0x87CD JUMP JUMPDEST JUMPDEST PUSH1 0x20 MUL PUSH1 0x20 ADD ADD SWAP1 PUSH20 0xFFFFFFFFFFFFFFFFFFFFFFFFFFFFFFFFFFFFFFFF AND SWAP1 DUP2 PUSH20 0xFFFFFFFFFFFFFFFFFFFFFFFFFFFFFFFFFFFFFFFF AND DUP2 MSTORE POP POP PUSH2 0x775F PUSH2 0x5D58 JUMP JUMPDEST DUP2 PUSH1 0x1 DUP2 MLOAD DUP2 LT PUSH2 0x7773 JUMPI PUSH2 0x7772 PUSH2 0x87CD JUMP JUMPDEST JUMPDEST PUSH1 0x20 MUL PUSH1 0x20 ADD ADD SWAP1 PUSH20 0xFFFFFFFFFFFFFFFFFFFFFFFFFFFFFFFFFFFFFFFF AND SWAP1 DUP2 PUSH20 0xFFFFFFFFFFFFFFFFFFFFFFFFFFFFFFFFFFFFFFFF AND DUP2 MSTORE POP POP PUSH0 PUSH2 0x77F2 PUSH1 0x64 PUSH2 0x77E4 DUP6 PUSH2 0x77BF PUSH2 0x5D58 JUMP JUMPDEST PUSH20 0xFFFFFFFFFFFFFFFFFFFFFFFFFFFFFFFFFFFFFFFF AND BALANCE PUSH2 0x7DFB SWAP1 SWAP2 SWAP1 PUSH4 0xFFFFFFFF AND JUMP JUMPDEST PUSH2 0x7289 SWAP1 SWAP2 SWAP1 PUSH4 0xFFFFFFFF AND JUMP JUMPDEST SWAP1 POP PUSH1 0x1E PUSH0 SWAP1 SLOAD SWAP1 PUSH2 0x100 EXP SWAP1 DIV PUSH20 0xFFFFFFFFFFFFFFFFFFFFFFFFFFFFFFFFFFFFFFFF AND PUSH20 0xFFFFFFFFFFFFFFFFFFFFFFFFFFFFFFFFFFFFFFFF AND PUSH4 0xB6F9DE95 DUP3 PUSH0 DUP6 PUSH1 0x2A PUSH0 SWAP1 SLOAD SWAP1 PUSH2 0x100 EXP SWAP1 DIV PUSH20 0xFFFFFFFFFFFFFFFFFFFFFFFFFFFFFFFFFFFFFFFF AND PUSH2 0x7872 PUSH2 0x12C PUSH2 0x7864 PUSH2 0x8112 JUMP JUMPDEST PUSH2 0x72E5 SWAP1 SWAP2 SWAP1 PUSH4 0xFFFFFFFF AND JUMP JUMPDEST PUSH1 0x40 MLOAD DUP7 PUSH4 0xFFFFFFFF AND PUSH1 0xE0 SHL DUP2 MSTORE PUSH1 0x4 ADD PUSH2 0x7891 SWAP5 SWAP4 SWAP3 SWAP2 SWAP1 PUSH2 0x9B8F JUMP JUMPDEST PUSH0 PUSH1 0x40 MLOAD DUP1 DUP4 SUB DUP2 DUP6 DUP9 DUP1 EXTCODESIZE ISZERO DUP1 ISZERO PUSH2 0x78A8 JUMPI PUSH0 DUP1 REVERT JUMPDEST POP GAS CALL ISZERO DUP1 ISZERO PUSH2 0x78BA JUMPI RETURNDATASIZE PUSH0 DUP1 RETURNDATACOPY RETURNDATASIZE PUSH0 REVERT JUMPDEST POP POP POP POP POP PUSH32 0x6FD378A9D8B7345C2E5B18229AAF1E39D32B177B501D0A0D26A0A858A23A9624 DUP2 DUP4 PUSH1 0x40 MLOAD PUSH2 0x78F0 SWAP3 SWAP2 SWAP1 PUSH2 0x9BD9 JUMP JUMPDEST PUSH1 0x40 MLOAD DUP1 SWAP2 SUB SWAP1 LOG1 POP POP PUSH0 PUSH1 0x26 PUSH0 PUSH2 0x100 EXP DUP2 SLOAD DUP2 PUSH1 0xFF MUL NOT AND SWAP1 DUP4 ISZERO ISZERO MUL OR SWAP1 SSTORE POP POP JUMP JUMPDEST PUSH1 0x1 PUSH1 0x26 PUSH0 PUSH2 0x100 EXP DUP2 SLOAD DUP2 PUSH1 0xFF MUL NOT AND SWAP1 DUP4 ISZERO ISZERO MUL OR SWAP1 SSTORE POP PUSH1 0x64 DUP2 GT ISZERO PUSH2 0x7974 JUMPI PUSH1 0x40 MLOAD PUSH32 0x8C379A000000000000000000000000000000000000000000000000000000000 DUP2 MSTORE PUSH1 0x4 ADD PUSH2 0x796B SWAP1 PUSH2 0x9C51 JUMP JUMPDEST PUSH1 0x40 MLOAD DUP1 SWAP2 SUB SWAP1 REVERT JUMPDEST PUSH0 PUSH2 0x799D PUSH1 0x64 PUSH2 0x798F DUP5 PUSH1 0x27 SLOAD PUSH2 0x7DFB SWAP1 SWAP2 SWAP1 PUSH4 0xFFFFFFFF AND JUMP JUMPDEST PUSH2 0x7289 SWAP1 SWAP2 SWAP1 PUSH4 0xFFFFFFFF AND JUMP JUMPDEST SWAP1 POP PUSH0 PUSH2 0x79C8 PUSH1 0x64 PUSH2 0x79BA DUP6 PUSH1 0x28 SLOAD PUSH2 0x7DFB SWAP1 SWAP2 SWAP1 PUSH4 0xFFFFFFFF AND JUMP JUMPDEST PUSH2 0x7289 SWAP1 SWAP2 SWAP1 PUSH4 0xFFFFFFFF AND JUMP JUMPDEST SWAP1 POP PUSH0 DUP2 DUP4 PUSH2 0x79D7 SWAP2 SWAP1 PUSH2 0x8A8E JUMP JUMPDEST SWAP1 POP PUSH0 PUSH2 0x79E2 PUSH2 0x5D58 JUMP JUMPDEST PUSH20 0xFFFFFFFFFFFFFFFFFFFFFFFFFFFFFFFFFFFFFFFF AND BALANCE SWAP1 POP PUSH0 PUSH1 0x2 PUSH8 0xFFFFFFFFFFFFFFFF DUP2 GT ISZERO PUSH2 0x7A17 JUMPI PUSH2 0x7A16 PUSH2 0x9A6C JUMP JUMPDEST JUMPDEST PUSH1 0x40 MLOAD SWAP1 DUP1 DUP3 MSTORE DUP1 PUSH1 0x20 MUL PUSH1 0x20 ADD DUP3 ADD PUSH1 0x40 MSTORE DUP1 ISZERO PUSH2 0x7A45 JUMPI DUP2 PUSH1 0x20 ADD PUSH1 0x20 DUP3 MUL DUP1 CALLDATASIZE DUP4 CALLDATACOPY DUP1 DUP3 ADD SWAP2 POP POP SWAP1 POP JUMPDEST POP SWAP1 POP PUSH2 0x7A50 PUSH2 0x5D58 JUMP JUMPDEST DUP2 PUSH0 DUP2 MLOAD DUP2 LT PUSH2 0x7A63 JUMPI PUSH2 0x7A62 PUSH2 0x87CD JUMP JUMPDEST JUMPDEST PUSH1 0x20 MUL PUSH1 0x20 ADD ADD SWAP1 PUSH20 0xFFFFFFFFFFFFFFFFFFFFFFFFFFFFFFFFFFFFFFFF AND SWAP1 DUP2 PUSH20 0xFFFFFFFFFFFFFFFFFFFFFFFFFFFFFFFFFFFFFFFF AND DUP2 MSTORE POP POP PUSH1 0x1E PUSH0 SWAP1 SLOAD SWAP1 PUSH2 0x100 EXP SWAP1 DIV PUSH20 0xFFFFFFFFFFFFFFFFFFFFFFFFFFFFFFFFFFFFFFFF AND PUSH20 0xFFFFFFFFFFFFFFFFFFFFFFFFFFFFFFFFFFFFFFFF AND PUSH4 0xAD5C4648 PUSH1 0x40 MLOAD DUP2 PUSH4 0xFFFFFFFF AND PUSH1 0xE0 SHL DUP2 MSTORE PUSH1 0x4 ADD PUSH1 0x20 PUSH1 0x40 MLOAD DUP1 DUP4 SUB DUP2 DUP7 GAS STATICCALL ISZERO DUP1 ISZERO PUSH2 0x7B07 JUMPI RETURNDATASIZE PUSH0 DUP1 RETURNDATACOPY RETURNDATASIZE PUSH0 REVERT JUMPDEST POP POP POP POP PUSH1 0x40 MLOAD RETURNDATASIZE PUSH1 0x1F NOT PUSH1 0x1F DUP3 ADD AND DUP3 ADD DUP1 PUSH1 0x40 MSTORE POP DUP2 ADD SWAP1 PUSH2 0x7B2B SWAP2 SWAP1 PUSH2 0x9AAD JUMP JUMPDEST DUP2 PUSH1 0x1 DUP2 MLOAD DUP2 LT PUSH2 0x7B3F JUMPI PUSH2 0x7B3E PUSH2 0x87CD JUMP JUMPDEST JUMPDEST PUSH1 0x20 MUL PUSH1 0x20 ADD ADD SWAP1 PUSH20 0xFFFFFFFFFFFFFFFFFFFFFFFFFFFFFFFFFFFFFFFF AND SWAP1 DUP2 PUSH20 0xFFFFFFFFFFFFFFFFFFFFFFFFFFFFFFFFFFFFFFFF AND DUP2 MSTORE POP POP PUSH2 0x7BAC PUSH2 0x7B84 PUSH2 0x5D58 JUMP JUMPDEST PUSH1 0x1E PUSH0 SWAP1 SLOAD SWAP1 PUSH2 0x100 EXP SWAP1 DIV PUSH20 0xFFFFFFFFFFFFFFFFFFFFFFFFFFFFFFFFFFFFFFFF AND DUP6 PUSH2 0x5D7F JUMP JUMPDEST PUSH1 0x1E PUSH0 SWAP1 SLOAD SWAP1 PUSH2 0x100 EXP SWAP1 DIV PUSH20 0xFFFFFFFFFFFFFFFFFFFFFFFFFFFFFFFFFFFFFFFF AND PUSH20 0xFFFFFFFFFFFFFFFFFFFFFFFFFFFFFFFFFFFFFFFF AND PUSH4 0x791AC947 DUP5 PUSH0 DUP5 PUSH2 0x7BF4 PUSH2 0x5D58 JUMP JUMPDEST PUSH2 0x7BFC PUSH2 0x8112 JUMP JUMPDEST PUSH1 0x40 MLOAD DUP7 PUSH4 0xFFFFFFFF AND PUSH1 0xE0 SHL DUP2 MSTORE PUSH1 0x4 ADD PUSH2 0x7C1C SWAP6 SWAP5 SWAP4 SWAP3 SWAP2 SWAP1 PUSH2 0x9C6F JUMP JUMPDEST PUSH0 PUSH1 0x40 MLOAD DUP1 DUP4 SUB DUP2 PUSH0 DUP8 DUP1 EXTCODESIZE ISZERO DUP1 ISZERO PUSH2 0x7C33 JUMPI PUSH0 DUP1 REVERT JUMPDEST POP GAS CALL ISZERO DUP1 ISZERO PUSH2 0x7C45 JUMPI RETURNDATASIZE PUSH0 DUP1 RETURNDATACOPY RETURNDATASIZE PUSH0 REVERT JUMPDEST POP POP POP POP PUSH32 0x32CDE87EB454F3A0B875AB23547023107CFAD454363EC88BA5695E2C24AA52A7 DUP4 DUP3 PUSH1 0x40 MLOAD PUSH2 0x7C7A SWAP3 SWAP2 SWAP1 PUSH2 0x9BD9 JUMP JUMPDEST PUSH1 0x40 MLOAD DUP1 SWAP2 SUB SWAP1 LOG1 PUSH2 0x7C97 DUP6 PUSH1 0x27 SLOAD PUSH2 0x75A7 SWAP1 SWAP2 SWAP1 PUSH4 0xFFFFFFFF AND JUMP JUMPDEST PUSH1 0x27 DUP2 SWAP1 SSTORE POP PUSH2 0x7CB2 DUP5 PUSH1 0x28 SLOAD PUSH2 0x75A7 SWAP1 SWAP2 SWAP1 PUSH4 0xFFFFFFFF AND JUMP JUMPDEST PUSH1 0x28 DUP2 SWAP1 SSTORE POP PUSH1 0x28 SLOAD PUSH1 0x27 SLOAD PUSH2 0x7CC8 SWAP2 SWAP1 PUSH2 0x8A8E JUMP JUMPDEST PUSH1 0x29 DUP2 SWAP1 SSTORE POP PUSH0 PUSH2 0x7D3B PUSH1 0x20 DUP1 SLOAD SWAP1 POP PUSH2 0x7D2D DUP7 PUSH2 0x7D1F DUP11 PUSH2 0x7D11 DUP10 PUSH2 0x7CEC PUSH2 0x5D58 JUMP JUMPDEST PUSH20 0xFFFFFFFFFFFFFFFFFFFFFFFFFFFFFFFFFFFFFFFF AND BALANCE PUSH2 0x75A7 SWAP1 SWAP2 SWAP1 PUSH4 0xFFFFFFFF AND JUMP JUMPDEST PUSH2 0x7DFB SWAP1 SWAP2 SWAP1 PUSH4 0xFFFFFFFF AND JUMP JUMPDEST PUSH2 0x7289 SWAP1 SWAP2 SWAP1 PUSH4 0xFFFFFFFF AND JUMP JUMPDEST PUSH2 0x7289 SWAP1 SWAP2 SWAP1 PUSH4 0xFFFFFFFF AND JUMP JUMPDEST SWAP1 POP PUSH0 JUMPDEST PUSH1 0x20 DUP1 SLOAD SWAP1 POP DUP2 LT ISZERO PUSH2 0x7DD8 JUMPI PUSH1 0x20 DUP2 DUP2 SLOAD DUP2 LT PUSH2 0x7D60 JUMPI PUSH2 0x7D5F PUSH2 0x87CD JUMP JUMPDEST JUMPDEST SWAP1 PUSH0 MSTORE PUSH1 0x20 PUSH0 KECCAK256 ADD PUSH0 SWAP1 SLOAD SWAP1 PUSH2 0x100 EXP SWAP1 DIV PUSH20 0xFFFFFFFFFFFFFFFFFFFFFFFFFFFFFFFFFFFFFFFF AND PUSH20 0xFFFFFFFFFFFFFFFFFFFFFFFFFFFFFFFFFFFFFFFF AND PUSH2 0x8FC DUP4 SWAP1 DUP2 ISZERO MUL SWAP1 PUSH1 0x40 MLOAD PUSH0 PUSH1 0x40 MLOAD DUP1 DUP4 SUB DUP2 DUP6 DUP9 DUP9 CALL SWAP4 POP POP POP POP ISZERO DUP1 ISZERO PUSH2 0x7DCA JUMPI RETURNDATASIZE PUSH0 DUP1 RETURNDATACOPY RETURNDATASIZE PUSH0 REVERT JUMPDEST POP DUP1 DUP1 PUSH1 0x1 ADD SWAP2 POP POP PUSH2 0x7D3F JUMP JUMPDEST POP POP POP POP POP POP POP PUSH0 PUSH1 0x26 PUSH0 PUSH2 0x100 EXP DUP2 SLOAD DUP2 PUSH1 0xFF MUL NOT AND SWAP1 DUP4 ISZERO ISZERO MUL OR SWAP1 SSTORE POP POP JUMP JUMPDEST PUSH0 DUP1 DUP4 EQ DUP1 PUSH2 0x7E09 JUMPI POP PUSH0 DUP3 EQ JUMPDEST ISZERO PUSH2 0x7E16 JUMPI PUSH0 SWAP1 POP PUSH2 0x7E77 JUMP JUMPDEST PUSH0 DUP3 DUP5 PUSH2 0x7E23 SWAP2 SWAP1 PUSH2 0x9CC7 JUMP JUMPDEST SWAP1 POP DUP3 DUP5 DUP3 PUSH2 0x7E32 SWAP2 SWAP1 PUSH2 0x97C2 JUMP JUMPDEST EQ PUSH2 0x7E72 JUMPI PUSH1 0x40 MLOAD PUSH32 0x8C379A000000000000000000000000000000000000000000000000000000000 DUP2 MSTORE PUSH1 0x4 ADD PUSH2 0x7E69 SWAP1 PUSH2 0x9D52 JUMP JUMPDEST PUSH1 0x40 MLOAD DUP1 SWAP2 SUB SWAP1 REVERT JUMPDEST DUP1 SWAP2 POP POP JUMPDEST SWAP3 SWAP2 POP POP JUMP JUMPDEST PUSH0 DUP1 PUSH0 PUSH1 0x13 SLOAD SWAP1 POP PUSH0 PUSH1 0xA SLOAD SWAP1 POP PUSH0 JUMPDEST PUSH1 0x12 DUP1 SLOAD SWAP1 POP DUP2 LT ISZERO PUSH2 0x80D5 JUMPI DUP3 PUSH1 0x11 PUSH0 PUSH1 0x12 DUP5 DUP2 SLOAD DUP2 LT PUSH2 0x7EB2 JUMPI PUSH2 0x7EB1 PUSH2 0x87CD JUMP JUMPDEST JUMPDEST SWAP1 PUSH0 MSTORE PUSH1 0x20 PUSH0 KECCAK256 ADD PUSH0 SWAP1 SLOAD SWAP1 PUSH2 0x100 EXP SWAP1 DIV PUSH20 0xFFFFFFFFFFFFFFFFFFFFFFFFFFFFFFFFFFFFFFFF AND PUSH20 0xFFFFFFFFFFFFFFFFFFFFFFFFFFFFFFFFFFFFFFFF AND PUSH20 0xFFFFFFFFFFFFFFFFFFFFFFFFFFFFFFFFFFFFFFFF AND DUP2 MSTORE PUSH1 0x20 ADD SWAP1 DUP2 MSTORE PUSH1 0x20 ADD PUSH0 KECCAK256 SLOAD GT DUP1 PUSH2 0x7F97 JUMPI POP DUP2 PUSH1 0xB PUSH0 PUSH1 0x12 DUP5 DUP2 SLOAD DUP2 LT PUSH2 0x7F33 JUMPI PUSH2 0x7F32 PUSH2 0x87CD JUMP JUMPDEST JUMPDEST SWAP1 PUSH0 MSTORE PUSH1 0x20 PUSH0 KECCAK256 ADD PUSH0 SWAP1 SLOAD SWAP1 PUSH2 0x100 EXP SWAP1 DIV PUSH20 0xFFFFFFFFFFFFFFFFFFFFFFFFFFFFFFFFFFFFFFFF AND PUSH20 0xFFFFFFFFFFFFFFFFFFFFFFFFFFFFFFFFFFFFFFFF AND PUSH20 0xFFFFFFFFFFFFFFFFFFFFFFFFFFFFFFFFFFFFFFFF AND DUP2 MSTORE PUSH1 0x20 ADD SWAP1 DUP2 MSTORE PUSH1 0x20 ADD PUSH0 KECCAK256 SLOAD GT JUMPDEST ISZERO PUSH2 0x7FAE JUMPI PUSH1 0x13 SLOAD PUSH1 0xA SLOAD SWAP5 POP SWAP5 POP POP POP POP PUSH2 0x810E JUMP JUMPDEST PUSH2 0x8039 PUSH1 0x11 PUSH0 PUSH1 0x12 DUP5 DUP2 SLOAD DUP2 LT PUSH2 0x7FC8 JUMPI PUSH2 0x7FC7 PUSH2 0x87CD JUMP JUMPDEST JUMPDEST SWAP1 PUSH0 MSTORE PUSH1 0x20 PUSH0 KECCAK256 ADD PUSH0 SWAP1 SLOAD SWAP1 PUSH2 0x100 EXP SWAP1 DIV PUSH20 0xFFFFFFFFFFFFFFFFFFFFFFFFFFFFFFFFFFFFFFFF AND PUSH20 0xFFFFFFFFFFFFFFFFFFFFFFFFFFFFFFFFFFFFFFFF AND PUSH20 0xFFFFFFFFFFFFFFFFFFFFFFFFFFFFFFFFFFFFFFFF AND DUP2 MSTORE PUSH1 0x20 ADD SWAP1 DUP2 MSTORE PUSH1 0x20 ADD PUSH0 KECCAK256 SLOAD DUP5 PUSH2 0x75A7 SWAP1 SWAP2 SWAP1 PUSH4 0xFFFFFFFF AND JUMP JUMPDEST SWAP3 POP PUSH2 0x80C6 PUSH1 0xB PUSH0 PUSH1 0x12 DUP5 DUP2 SLOAD DUP2 LT PUSH2 0x8055 JUMPI PUSH2 0x8054 PUSH2 0x87CD JUMP JUMPDEST JUMPDEST SWAP1 PUSH0 MSTORE PUSH1 0x20 PUSH0 KECCAK256 ADD PUSH0 SWAP1 SLOAD SWAP1 PUSH2 0x100 EXP SWAP1 DIV PUSH20 0xFFFFFFFFFFFFFFFFFFFFFFFFFFFFFFFFFFFFFFFF AND PUSH20 0xFFFFFFFFFFFFFFFFFFFFFFFFFFFFFFFFFFFFFFFF AND PUSH20 0xFFFFFFFFFFFFFFFFFFFFFFFFFFFFFFFFFFFFFFFF AND DUP2 MSTORE PUSH1 0x20 ADD SWAP1 DUP2 MSTORE PUSH1 0x20 ADD PUSH0 KECCAK256 SLOAD DUP4 PUSH2 0x75A7 SWAP1 SWAP2 SWAP1 PUSH4 0xFFFFFFFF AND JUMP JUMPDEST SWAP2 POP DUP1 DUP1 PUSH1 0x1 ADD SWAP2 POP POP PUSH2 0x7E8D JUMP JUMPDEST POP PUSH2 0x80ED PUSH1 0xA SLOAD PUSH1 0x13 SLOAD PUSH2 0x7289 SWAP1 SWAP2 SWAP1 PUSH4 0xFFFFFFFF AND JUMP JUMPDEST DUP3 LT ISZERO PUSH2 0x8105 JUMPI PUSH1 0x13 SLOAD PUSH1 0xA SLOAD SWAP4 POP SWAP4 POP POP POP PUSH2 0x810E JUMP JUMPDEST DUP2 DUP2 SWAP4 POP SWAP4 POP POP POP JUMPDEST SWAP1 SWAP2 JUMP JUMPDEST PUSH0 TIMESTAMP SWAP1 POP SWAP1 JUMP JUMPDEST PUSH0 DUP1 REVERT JUMPDEST PUSH0 PUSH20 0xFFFFFFFFFFFFFFFFFFFFFFFFFFFFFFFFFFFFFFFF DUP3 AND SWAP1 POP SWAP2 SWAP1 POP JUMP JUMPDEST PUSH0 PUSH2 0x8146 DUP3 PUSH2 0x811D JUMP JUMPDEST SWAP1 POP SWAP2 SWAP1 POP JUMP JUMPDEST PUSH2 0x8156 DUP2 PUSH2 0x813C JUMP JUMPDEST DUP2 EQ PUSH2 0x8160 JUMPI PUSH0 DUP1 REVERT JUMPDEST POP JUMP JUMPDEST PUSH0 DUP2 CALLDATALOAD SWAP1 POP PUSH2 0x8171 DUP2 PUSH2 0x814D JUMP JUMPDEST SWAP3 SWAP2 POP POP JUMP JUMPDEST PUSH0 PUSH1 0x20 DUP3 DUP5 SUB SLT ISZERO PUSH2 0x818C JUMPI PUSH2 0x818B PUSH2 0x8119 JUMP JUMPDEST JUMPDEST PUSH0 PUSH2 0x8199 DUP5 DUP3 DUP6 ADD PUSH2 0x8163 JUMP JUMPDEST SWAP2 POP POP SWAP3 SWAP2 POP POP JUMP JUMPDEST PUSH0 DUP2 ISZERO ISZERO SWAP1 POP SWAP2 SWAP1 POP JUMP JUMPDEST PUSH2 0x81B6 DUP2 PUSH2 0x81A2 JUMP JUMPDEST DUP3 MSTORE POP POP JUMP JUMPDEST PUSH0 PUSH1 0x20 DUP3 ADD SWAP1 POP PUSH2 0x81CF PUSH0 DUP4 ADD DUP5 PUSH2 0x81AD JUMP JUMPDEST SWAP3 SWAP2 POP POP JUMP JUMPDEST PUSH0 DUP2 MLOAD SWAP1 POP SWAP2 SWAP1 POP JUMP JUMPDEST PUSH0 DUP3 DUP3 MSTORE PUSH1 0x20 DUP3 ADD SWAP1 POP SWAP3 SWAP2 POP POP JUMP JUMPDEST DUP3 DUP2 DUP4 MCOPY PUSH0 DUP4 DUP4 ADD MSTORE POP POP POP JUMP JUMPDEST PUSH0 PUSH1 0x1F NOT PUSH1 0x1F DUP4 ADD AND SWAP1 POP SWAP2 SWAP1 POP JUMP JUMPDEST PUSH0 PUSH2 0x8217 DUP3 PUSH2 0x81D5 JUMP JUMPDEST PUSH2 0x8221 DUP2 DUP6 PUSH2 0x81DF JUMP JUMPDEST SWAP4 POP PUSH2 0x8231 DUP2 DUP6 PUSH1 0x20 DUP7 ADD PUSH2 0x81EF JUMP JUMPDEST PUSH2 0x823A DUP2 PUSH2 0x81FD JUMP JUMPDEST DUP5 ADD SWAP2 POP POP SWAP3 SWAP2 POP POP JUMP JUMPDEST PUSH0 PUSH1 0x20 DUP3 ADD SWAP1 POP DUP2 DUP2 SUB PUSH0 DUP4 ADD MSTORE PUSH2 0x825D DUP2 DUP5 PUSH2 0x820D JUMP JUMPDEST SWAP1 POP SWAP3 SWAP2 POP POP JUMP JUMPDEST PUSH0 DUP2 SWAP1 POP SWAP2 SWAP1 POP JUMP JUMPDEST PUSH2 0x8277 DUP2 PUSH2 0x8265 JUMP JUMPDEST DUP3 MSTORE POP POP JUMP JUMPDEST PUSH0 PUSH1 0x20 DUP3 ADD SWAP1 POP PUSH2 0x8290 PUSH0 DUP4 ADD DUP5 PUSH2 0x826E JUMP JUMPDEST SWAP3 SWAP2 POP POP JUMP JUMPDEST PUSH2 0x829F DUP2 PUSH2 0x8265 JUMP JUMPDEST DUP2 EQ PUSH2 0x82A9 JUMPI PUSH0 DUP1 REVERT JUMPDEST POP JUMP JUMPDEST PUSH0 DUP2 CALLDATALOAD SWAP1 POP PUSH2 0x82BA DUP2 PUSH2 0x8296 JUMP JUMPDEST SWAP3 SWAP2 POP POP JUMP JUMPDEST PUSH0 DUP1 PUSH1 0x40 DUP4 DUP6 SUB SLT ISZERO PUSH2 0x82D6 JUMPI PUSH2 0x82D5 PUSH2 0x8119 JUMP JUMPDEST JUMPDEST PUSH0 PUSH2 0x82E3 DUP6 DUP3 DUP7 ADD PUSH2 0x8163 JUMP JUMPDEST SWAP3 POP POP PUSH1 0x20 PUSH2 0x82F4 DUP6 DUP3 DUP7 ADD PUSH2 0x82AC JUMP JUMPDEST SWAP2 POP POP SWAP3 POP SWAP3 SWAP1 POP JUMP JUMPDEST PUSH2 0x8307 DUP2 PUSH2 0x81A2 JUMP JUMPDEST DUP2 EQ PUSH2 0x8311 JUMPI PUSH0 DUP1 REVERT JUMPDEST POP JUMP JUMPDEST PUSH0 DUP2 CALLDATALOAD SWAP1 POP PUSH2 0x8322 DUP2 PUSH2 0x82FE JUMP JUMPDEST SWAP3 SWAP2 POP POP JUMP JUMPDEST PUSH0 PUSH1 0x20 DUP3 DUP5 SUB SLT ISZERO PUSH2 0x833D JUMPI PUSH2 0x833C PUSH2 0x8119 JUMP JUMPDEST JUMPDEST PUSH0 PUSH2 0x834A DUP5 DUP3 DUP6 ADD PUSH2 0x8314 JUMP JUMPDEST SWAP2 POP POP SWAP3 SWAP2 POP POP JUMP JUMPDEST PUSH0 PUSH1 0x20 DUP3 DUP5 SUB SLT ISZERO PUSH2 0x8368 JUMPI PUSH2 0x8367 PUSH2 0x8119 JUMP JUMPDEST JUMPDEST PUSH0 PUSH2 0x8375 DUP5 DUP3 DUP6 ADD PUSH2 0x82AC JUMP JUMPDEST SWAP2 POP POP SWAP3 SWAP2 POP POP JUMP JUMPDEST PUSH0 DUP1 PUSH0 PUSH1 0x60 DUP5 DUP7 SUB SLT ISZERO PUSH2 0x8395 JUMPI PUSH2 0x8394 PUSH2 0x8119 JUMP JUMPDEST JUMPDEST PUSH0 PUSH2 0x83A2 DUP7 DUP3 DUP8 ADD PUSH2 0x8163 JUMP JUMPDEST SWAP4 POP POP PUSH1 0x20 PUSH2 0x83B3 DUP7 DUP3 DUP8 ADD PUSH2 0x8163 JUMP JUMPDEST SWAP3 POP POP PUSH1 0x40 PUSH2 0x83C4 DUP7 DUP3 DUP8 ADD PUSH2 0x82AC JUMP JUMPDEST SWAP2 POP POP SWAP3 POP SWAP3 POP SWAP3 JUMP JUMPDEST PUSH0 DUP2 SWAP1 POP SWAP2 SWAP1 POP JUMP JUMPDEST PUSH0 PUSH2 0x83F1 PUSH2 0x83EC PUSH2 0x83E7 DUP5 PUSH2 0x811D JUMP JUMPDEST PUSH2 0x83CE JUMP JUMPDEST PUSH2 0x811D JUMP JUMPDEST SWAP1 POP SWAP2 SWAP1 POP JUMP JUMPDEST PUSH0 PUSH2 0x8402 DUP3 PUSH2 0x83D7 JUMP JUMPDEST SWAP1 POP SWAP2 SWAP1 POP JUMP JUMPDEST PUSH0 PUSH2 0x8413 DUP3 PUSH2 0x83F8 JUMP JUMPDEST SWAP1 POP SWAP2 SWAP1 POP JUMP JUMPDEST PUSH2 0x8423 DUP2 PUSH2 0x8409 JUMP JUMPDEST DUP3 MSTORE POP POP JUMP JUMPDEST PUSH0 PUSH1 0x20 DUP3 ADD SWAP1 POP PUSH2 0x843C PUSH0 DUP4 ADD DUP5 PUSH2 0x841A JUMP JUMPDEST SWAP3 SWAP2 POP POP JUMP JUMPDEST PUSH0 DUP1 PUSH1 0x40 DUP4 DUP6 SUB SLT ISZERO PUSH2 0x8458 JUMPI PUSH2 0x8457 PUSH2 0x8119 JUMP JUMPDEST JUMPDEST PUSH0 PUSH2 0x8465 DUP6 DUP3 DUP7 ADD PUSH2 0x8314 JUMP JUMPDEST SWAP3 POP POP PUSH1 0x20 PUSH2 0x8476 DUP6 DUP3 DUP7 ADD PUSH2 0x8314 JUMP JUMPDEST SWAP2 POP POP SWAP3 POP SWAP3 SWAP1 POP JUMP JUMPDEST PUSH0 PUSH1 0xFF DUP3 AND SWAP1 POP SWAP2 SWAP1 POP JUMP JUMPDEST PUSH2 0x8495 DUP2 PUSH2 0x8480 JUMP JUMPDEST DUP3 MSTORE POP POP JUMP JUMPDEST PUSH0 PUSH1 0x20 DUP3 ADD SWAP1 POP PUSH2 0x84AE PUSH0 DUP4 ADD DUP5 PUSH2 0x848C JUMP JUMPDEST SWAP3 SWAP2 POP POP JUMP JUMPDEST PUSH2 0x84BD DUP2 PUSH2 0x813C JUMP JUMPDEST DUP3 MSTORE POP POP JUMP JUMPDEST PUSH0 PUSH1 0x20 DUP3 ADD SWAP1 POP PUSH2 0x84D6 PUSH0 DUP4 ADD DUP5 PUSH2 0x84B4 JUMP JUMPDEST SWAP3 SWAP2 POP POP JUMP JUMPDEST PUSH0 PUSH2 0x84E6 DUP3 PUSH2 0x83F8 JUMP JUMPDEST SWAP1 POP SWAP2 SWAP1 POP JUMP JUMPDEST PUSH2 0x84F6 DUP2 PUSH2 0x84DC JUMP JUMPDEST DUP3 MSTORE POP POP JUMP JUMPDEST PUSH0 PUSH1 0x20 DUP3 ADD SWAP1 POP PUSH2 0x850F PUSH0 DUP4 ADD DUP5 PUSH2 0x84ED JUMP JUMPDEST SWAP3 SWAP2 POP POP JUMP JUMPDEST PUSH0 DUP1 PUSH1 0x40 DUP4 DUP6 SUB SLT ISZERO PUSH2 0x852B JUMPI PUSH2 0x852A PUSH2 0x8119 JUMP JUMPDEST JUMPDEST PUSH0 PUSH2 0x8538 DUP6 DUP3 DUP7 ADD PUSH2 0x8163 JUMP JUMPDEST SWAP3 POP POP PUSH1 0x20 PUSH2 0x8549 DUP6 DUP3 DUP7 ADD PUSH2 0x8163 JUMP JUMPDEST SWAP2 POP POP SWAP3 POP SWAP3 SWAP1 POP JUMP JUMPDEST PUSH32 0x43616C6C6572206973206E6F742061206D616E61676572000000000000000000 PUSH0 DUP3 ADD MSTORE POP JUMP JUMPDEST PUSH0 PUSH2 0x8587 PUSH1 0x17 DUP4 PUSH2 0x81DF JUMP JUMPDEST SWAP2 POP PUSH2 0x8592 DUP3 PUSH2 0x8553 JUMP JUMPDEST PUSH1 0x20 DUP3 ADD SWAP1 POP SWAP2 SWAP1 POP JUMP JUMPDEST PUSH0 PUSH1 0x20 DUP3 ADD SWAP1 POP DUP2 DUP2 SUB PUSH0 DUP4 ADD MSTORE PUSH2 0x85B4 DUP2 PUSH2 0x857B JUMP JUMPDEST SWAP1 POP SWAP2 SWAP1 POP JUMP JUMPDEST PUSH32 0x4D616E6167656D656E74206973206C6F636B6564000000000000000000000000 PUSH0 DUP3 ADD MSTORE POP JUMP JUMPDEST PUSH0 PUSH2 0x85EF PUSH1 0x14 DUP4 PUSH2 0x81DF JUMP JUMPDEST SWAP2 POP PUSH2 0x85FA DUP3 PUSH2 0x85BB JUMP JUMPDEST PUSH1 0x20 DUP3 ADD SWAP1 POP SWAP2 SWAP1 POP JUMP JUMPDEST PUSH0 PUSH1 0x20 DUP3 ADD SWAP1 POP DUP2 DUP2 SUB PUSH0 DUP4 ADD MSTORE PUSH2 0x861C DUP2 PUSH2 0x85E3 JUMP JUMPDEST SWAP1 POP SWAP2 SWAP1 POP JUMP JUMPDEST PUSH32 0x63616E6E6F7420696E636C75646520746F6B656E206164647265737320696E20 PUSH0 DUP3 ADD MSTORE PUSH32 0x7265666C656374696F6E73000000000000000000000000000000000000000000 PUSH1 0x20 DUP3 ADD MSTORE POP JUMP JUMPDEST PUSH0 PUSH2 0x867D PUSH1 0x2B DUP4 PUSH2 0x81DF JUMP JUMPDEST SWAP2 POP PUSH2 0x8688 DUP3 PUSH2 0x8623 JUMP JUMPDEST PUSH1 0x40 DUP3 ADD SWAP1 POP SWAP2 SWAP1 POP JUMP JUMPDEST PUSH0 PUSH1 0x20 DUP3 ADD SWAP1 POP DUP2 DUP2 SUB PUSH0 DUP4 ADD MSTORE PUSH2 0x86AA DUP2 PUSH2 0x8671 JUMP JUMPDEST SWAP1 POP SWAP2 SWAP1 POP JUMP JUMPDEST PUSH32 0x63616E6E6F7420696E636C7564652070616E63616B65207061697220696E2072 PUSH0 DUP3 ADD MSTORE PUSH32 0x65666C656374696F6E7300000000000000000000000000000000000000000000 PUSH1 0x20 DUP3 ADD MSTORE POP JUMP JUMPDEST PUSH0 PUSH2 0x870B PUSH1 0x2A DUP4 PUSH2 0x81DF JUMP JUMPDEST SWAP2 POP PUSH2 0x8716 DUP3 PUSH2 0x86B1 JUMP JUMPDEST PUSH1 0x40 DUP3 ADD SWAP1 POP SWAP2 SWAP1 POP JUMP JUMPDEST PUSH0 PUSH1 0x20 DUP3 ADD SWAP1 POP DUP2 DUP2 SUB PUSH0 DUP4 ADD MSTORE PUSH2 0x8738 DUP2 PUSH2 0x86FF JUMP JUMPDEST SWAP1 POP SWAP2 SWAP1 POP JUMP JUMPDEST PUSH32 0x6163636F756E7420697320616C726561647920696E636C7564656420696E2072 PUSH0 DUP3 ADD MSTORE PUSH32 0x65666C656374696F6E7300000000000000000000000000000000000000000000 PUSH1 0x20 DUP3 ADD MSTORE POP JUMP JUMPDEST PUSH0 PUSH2 0x8799 PUSH1 0x2A DUP4 PUSH2 0x81DF JUMP JUMPDEST SWAP2 POP PUSH2 0x87A4 DUP3 PUSH2 0x873F JUMP JUMPDEST PUSH1 0x40 DUP3 ADD SWAP1 POP SWAP2 SWAP1 POP JUMP JUMPDEST PUSH0 PUSH1 0x20 DUP3 ADD SWAP1 POP DUP2 DUP2 SUB PUSH0 DUP4 ADD MSTORE PUSH2 0x87C6 DUP2 PUSH2 0x878D JUMP JUMPDEST SWAP1 POP SWAP2 SWAP1 POP JUMP JUMPDEST PUSH32 0x4E487B7100000000000000000000000000000000000000000000000000000000 PUSH0 MSTORE PUSH1 0x32 PUSH1 0x4 MSTORE PUSH1 0x24 PUSH0 REVERT JUMPDEST PUSH32 0x4E487B7100000000000000000000000000000000000000000000000000000000 PUSH0 MSTORE PUSH1 0x11 PUSH1 0x4 MSTORE PUSH1 0x24 PUSH0 REVERT JUMPDEST PUSH0 PUSH2 0x8831 DUP3 PUSH2 0x8265 JUMP JUMPDEST SWAP2 POP PUSH2 0x883C DUP4 PUSH2 0x8265 JUMP JUMPDEST SWAP3 POP DUP3 DUP3 SUB SWAP1 POP DUP2 DUP2 GT ISZERO PUSH2 0x8854 JUMPI PUSH2 0x8853 PUSH2 0x87FA JUMP JUMPDEST JUMPDEST SWAP3 SWAP2 POP POP JUMP JUMPDEST PUSH32 0x4E487B7100000000000000000000000000000000000000000000000000000000 PUSH0 MSTORE PUSH1 0x31 PUSH1 0x4 MSTORE PUSH1 0x24 PUSH0 REVERT JUMPDEST PUSH32 0x4E487B7100000000000000000000000000000000000000000000000000000000 PUSH0 MSTORE PUSH1 0x22 PUSH1 0x4 MSTORE PUSH1 0x24 PUSH0 REVERT JUMPDEST PUSH0 PUSH1 0x2 DUP3 DIV SWAP1 POP PUSH1 0x1 DUP3 AND DUP1 PUSH2 0x88CB JUMPI PUSH1 0x7F DUP3 AND SWAP2 POP JUMPDEST PUSH1 0x20 DUP3 LT DUP2 SUB PUSH2 0x88DE JUMPI PUSH2 0x88DD PUSH2 0x8887 JUMP JUMPDEST JUMPDEST POP SWAP2 SWAP1 POP JUMP JUMPDEST PUSH32 0x43616C6C6572206973206E6F742074686520657865637574697665206D616E61 PUSH0 DUP3 ADD MSTORE PUSH32 0x6765720000000000000000000000000000000000000000000000000000000000 PUSH1 0x20 DUP3 ADD MSTORE POP JUMP JUMPDEST PUSH0 PUSH2 0x893E PUSH1 0x23 DUP4 PUSH2 0x81DF JUMP JUMPDEST SWAP2 POP PUSH2 0x8949 DUP3 PUSH2 0x88E4 JUMP JUMPDEST PUSH1 0x40 DUP3 ADD SWAP1 POP SWAP2 SWAP1 POP JUMP JUMPDEST PUSH0 PUSH1 0x20 DUP3 ADD SWAP1 POP DUP2 DUP2 SUB PUSH0 DUP4 ADD MSTORE PUSH2 0x896B DUP2 PUSH2 0x8932 JUMP JUMPDEST SWAP1 POP SWAP2 SWAP1 POP JUMP JUMPDEST PUSH32 0x63616E6E6F7420696E636C75646520746F6B656E206164647265737320696E20 PUSH0 DUP3 ADD MSTORE PUSH32 0x6665657300000000000000000000000000000000000000000000000000000000 PUSH1 0x20 DUP3 ADD MSTORE POP JUMP JUMPDEST PUSH0 PUSH2 0x89CC PUSH1 0x24 DUP4 PUSH2 0x81DF JUMP JUMPDEST SWAP2 POP PUSH2 0x89D7 DUP3 PUSH2 0x8972 JUMP JUMPDEST PUSH1 0x40 DUP3 ADD SWAP1 POP SWAP2 SWAP1 POP JUMP JUMPDEST PUSH0 PUSH1 0x20 DUP3 ADD SWAP1 POP DUP2 DUP2 SUB PUSH0 DUP4 ADD MSTORE PUSH2 0x89F9 DUP2 PUSH2 0x89C0 JUMP JUMPDEST SWAP1 POP SWAP2 SWAP1 POP JUMP JUMPDEST PUSH32 0x63616E6E6F7420696E636C7564652064656164206164647265737320696E2066 PUSH0 DUP3 ADD MSTORE PUSH32 0x6565730000000000000000000000000000000000000000000000000000000000 PUSH1 0x20 DUP3 ADD MSTORE POP JUMP JUMPDEST PUSH0 PUSH2 0x8A5A PUSH1 0x23 DUP4 PUSH2 0x81DF JUMP JUMPDEST SWAP2 POP PUSH2 0x8A65 DUP3 PUSH2 0x8A00 JUMP JUMPDEST PUSH1 0x40 DUP3 ADD SWAP1 POP SWAP2 SWAP1 POP JUMP JUMPDEST PUSH0 PUSH1 0x20 DUP3 ADD SWAP1 POP DUP2 DUP2 SUB PUSH0 DUP4 ADD MSTORE PUSH2 0x8A87 DUP2 PUSH2 0x8A4E JUMP JUMPDEST SWAP1 POP SWAP2 SWAP1 POP JUMP JUMPDEST PUSH0 PUSH2 0x8A98 DUP3 PUSH2 0x8265 JUMP JUMPDEST SWAP2 POP PUSH2 0x8AA3 DUP4 PUSH2 0x8265 JUMP JUMPDEST SWAP3 POP DUP3 DUP3 ADD SWAP1 POP DUP1 DUP3 GT ISZERO PUSH2 0x8ABB JUMPI PUSH2 0x8ABA PUSH2 0x87FA JUMP JUMPDEST JUMPDEST SWAP3 SWAP2 POP POP JUMP JUMPDEST PUSH32 0x746F74616C2062757920666565732063616E6E6F742065786365656420323000 PUSH0 DUP3 ADD MSTORE POP JUMP JUMPDEST PUSH0 PUSH2 0x8AF5 PUSH1 0x1F DUP4 PUSH2 0x81DF JUMP JUMPDEST SWAP2 POP PUSH2 0x8B00 DUP3 PUSH2 0x8AC1 JUMP JUMPDEST PUSH1 0x20 DUP3 ADD SWAP1 POP SWAP2 SWAP1 POP JUMP JUMPDEST PUSH0 PUSH1 0x20 DUP3 ADD SWAP1 POP DUP2 DUP2 SUB PUSH0 DUP4 ADD MSTORE PUSH2 0x8B22 DUP2 PUSH2 0x8AE9 JUMP JUMPDEST SWAP1 POP SWAP2 SWAP1 POP JUMP JUMPDEST PUSH32 0x6163636F756E7420697320616C7265616479206578636C756465642066726F6D PUSH0 DUP3 ADD MSTORE PUSH32 0x207265666C656374696F6E730000000000000000000000000000000000000000 PUSH1 0x20 DUP3 ADD MSTORE POP JUMP JUMPDEST PUSH0 PUSH2 0x8B83 PUSH1 0x2C DUP4 PUSH2 0x81DF JUMP JUMPDEST SWAP2 POP PUSH2 0x8B8E DUP3 PUSH2 0x8B29 JUMP JUMPDEST PUSH1 0x40 DUP3 ADD SWAP1 POP SWAP2 SWAP1 POP JUMP JUMPDEST PUSH0 PUSH1 0x20 DUP3 ADD SWAP1 POP DUP2 DUP2 SUB PUSH0 DUP4 ADD MSTORE PUSH2 0x8BB0 DUP2 PUSH2 0x8B77 JUMP JUMPDEST SWAP1 POP SWAP2 SWAP1 POP JUMP JUMPDEST PUSH32 0x63616E6E6F7420696E636C7564652064656164206164647265737320696E2072 PUSH0 DUP3 ADD MSTORE PUSH32 0x65666C656374696F6E7300000000000000000000000000000000000000000000 PUSH1 0x20 DUP3 ADD MSTORE POP JUMP JUMPDEST PUSH0 PUSH2 0x8C11 PUSH1 0x2A DUP4 PUSH2 0x81DF JUMP JUMPDEST SWAP2 POP PUSH2 0x8C1C DUP3 PUSH2 0x8BB7 JUMP JUMPDEST PUSH1 0x40 DUP3 ADD SWAP1 POP SWAP2 SWAP1 POP JUMP JUMPDEST PUSH0 PUSH1 0x20 DUP3 ADD SWAP1 POP DUP2 DUP2 SUB PUSH0 DUP4 ADD MSTORE PUSH2 0x8C3E DUP2 PUSH2 0x8C05 JUMP JUMPDEST SWAP1 POP SWAP2 SWAP1 POP JUMP JUMPDEST PUSH32 0x4163636F756E7420697320616C72656164792061206D616E6167657200000000 PUSH0 DUP3 ADD MSTORE POP JUMP JUMPDEST PUSH0 PUSH2 0x8C79 PUSH1 0x1C DUP4 PUSH2 0x81DF JUMP JUMPDEST SWAP2 POP PUSH2 0x8C84 DUP3 PUSH2 0x8C45 JUMP JUMPDEST PUSH1 0x20 DUP3 ADD SWAP1 POP SWAP2 SWAP1 POP JUMP JUMPDEST PUSH0 PUSH1 0x20 DUP3 ADD SWAP1 POP DUP2 DUP2 SUB PUSH0 DUP4 ADD MSTORE PUSH2 0x8CA6 DUP2 PUSH2 0x8C6D JUMP JUMPDEST SWAP1 POP SWAP2 SWAP1 POP JUMP JUMPDEST PUSH32 0x3020616464726573732063616E6E6F74206265206D616465206D616E61676572 PUSH0 DUP3 ADD MSTORE POP JUMP JUMPDEST PUSH0 PUSH2 0x8CE1 PUSH1 0x20 DUP4 PUSH2 0x81DF JUMP JUMPDEST SWAP2 POP PUSH2 0x8CEC DUP3 PUSH2 0x8CAD JUMP JUMPDEST PUSH1 0x20 DUP3 ADD SWAP1 POP SWAP2 SWAP1 POP JUMP JUMPDEST PUSH0 PUSH1 0x20 DUP3 ADD SWAP1 POP DUP2 DUP2 SUB PUSH0 DUP4 ADD MSTORE PUSH2 0x8D0E DUP2 PUSH2 0x8CD5 JUMP JUMPDEST SWAP1 POP SWAP2 SWAP1 POP JUMP JUMPDEST PUSH32 0x66656573206D75737420626520656E61626C656420746F20656E61626C652061 PUSH0 DUP3 ADD MSTORE PUSH32 0x75746F20666565206C6971756966790000000000000000000000000000000000 PUSH1 0x20 DUP3 ADD MSTORE POP JUMP JUMPDEST PUSH0 PUSH2 0x8D6F PUSH1 0x2F DUP4 PUSH2 0x81DF JUMP JUMPDEST SWAP2 POP PUSH2 0x8D7A DUP3 PUSH2 0x8D15 JUMP JUMPDEST PUSH1 0x40 DUP3 ADD SWAP1 POP SWAP2 SWAP1 POP JUMP JUMPDEST PUSH0 PUSH1 0x20 DUP3 ADD SWAP1 POP DUP2 DUP2 SUB PUSH0 DUP4 ADD MSTORE PUSH2 0x8D9C DUP2 PUSH2 0x8D63 JUMP JUMPDEST SWAP1 POP SWAP2 SWAP1 POP JUMP JUMPDEST PUSH32 0x4D616E6167657220697320616C72656164792074686520657865637574697665 PUSH0 DUP3 ADD MSTORE POP JUMP JUMPDEST PUSH0 PUSH2 0x8DD7 PUSH1 0x20 DUP4 PUSH2 0x81DF JUMP JUMPDEST SWAP2 POP PUSH2 0x8DE2 DUP3 PUSH2 0x8DA3 JUMP JUMPDEST PUSH1 0x20 DUP3 ADD SWAP1 POP SWAP2 SWAP1 POP JUMP JUMPDEST PUSH0 PUSH1 0x20 DUP3 ADD SWAP1 POP DUP2 DUP2 SUB PUSH0 DUP4 ADD MSTORE PUSH2 0x8E04 DUP2 PUSH2 0x8DCB JUMP JUMPDEST SWAP1 POP SWAP2 SWAP1 POP JUMP JUMPDEST PUSH32 0x6164647265737320697320616C7265616479206E6F742061206D616E6167656D PUSH0 DUP3 ADD MSTORE PUSH32 0x656E742066656573207265636965766572000000000000000000000000000000 PUSH1 0x20 DUP3 ADD MSTORE POP JUMP JUMPDEST PUSH0 PUSH2 0x8E65 PUSH1 0x31 DUP4 PUSH2 0x81DF JUMP JUMPDEST SWAP2 POP PUSH2 0x8E70 DUP3 PUSH2 0x8E0B JUMP JUMPDEST PUSH1 0x40 DUP3 ADD SWAP1 POP SWAP2 SWAP1 POP JUMP JUMPDEST PUSH0 PUSH1 0x20 DUP3 ADD SWAP1 POP DUP2 DUP2 SUB PUSH0 DUP4 ADD MSTORE PUSH2 0x8E92 DUP2 PUSH2 0x8E59 JUMP JUMPDEST SWAP1 POP SWAP2 SWAP1 POP JUMP JUMPDEST PUSH32 0x6175746F206C69717569667920666163746F722063616E6E6F74206563656564 PUSH0 DUP3 ADD MSTORE PUSH32 0x2031303000000000000000000000000000000000000000000000000000000000 PUSH1 0x20 DUP3 ADD MSTORE POP JUMP JUMPDEST PUSH0 PUSH2 0x8EF3 PUSH1 0x24 DUP4 PUSH2 0x81DF JUMP JUMPDEST SWAP2 POP PUSH2 0x8EFE DUP3 PUSH2 0x8E99 JUMP JUMPDEST PUSH1 0x40 DUP3 ADD SWAP1 POP SWAP2 SWAP1 POP JUMP JUMPDEST PUSH0 PUSH1 0x20 DUP3 ADD SWAP1 POP DUP2 DUP2 SUB PUSH0 DUP4 ADD MSTORE PUSH2 0x8F20 DUP2 PUSH2 0x8EE7 JUMP JUMPDEST SWAP1 POP SWAP2 SWAP1 POP JUMP JUMPDEST PUSH32 0x63616E6E6F7420696E636C75646520746F6B656E206164647265737320696E20 PUSH0 DUP3 ADD MSTORE PUSH32 0x6C696D6974730000000000000000000000000000000000000000000000000000 PUSH1 0x20 DUP3 ADD MSTORE POP JUMP JUMPDEST PUSH0 PUSH2 0x8F81 PUSH1 0x26 DUP4 PUSH2 0x81DF JUMP JUMPDEST SWAP2 POP PUSH2 0x8F8C DUP3 PUSH2 0x8F27 JUMP JUMPDEST PUSH1 0x40 DUP3 ADD SWAP1 POP SWAP2 SWAP1 POP JUMP JUMPDEST PUSH0 PUSH1 0x20 DUP3 ADD SWAP1 POP DUP2 DUP2 SUB PUSH0 DUP4 ADD MSTORE PUSH2 0x8FAE DUP2 PUSH2 0x8F75 JUMP JUMPDEST SWAP1 POP SWAP2 SWAP1 POP JUMP JUMPDEST PUSH32 0x63616E6E6F7420696E636C7564652064656164206164647265737320696E206C PUSH0 DUP3 ADD MSTORE PUSH32 0x696D697473000000000000000000000000000000000000000000000000000000 PUSH1 0x20 DUP3 ADD MSTORE POP JUMP JUMPDEST PUSH0 PUSH2 0x900F PUSH1 0x25 DUP4 PUSH2 0x81DF JUMP JUMPDEST SWAP2 POP PUSH2 0x901A DUP3 PUSH2 0x8FB5 JUMP JUMPDEST PUSH1 0x40 DUP3 ADD SWAP1 POP SWAP2 SWAP1 POP JUMP JUMPDEST PUSH0 PUSH1 0x20 DUP3 ADD SWAP1 POP DUP2 DUP2 SUB PUSH0 DUP4 ADD MSTORE PUSH2 0x903C DUP2 PUSH2 0x9003 JUMP JUMPDEST SWAP1 POP SWAP2 SWAP1 POP JUMP JUMPDEST PUSH32 0x6175746F206275796261636B20666163746F722063616E6E6F74206578636565 PUSH0 DUP3 ADD MSTORE PUSH32 0x6420313030000000000000000000000000000000000000000000000000000000 PUSH1 0x20 DUP3 ADD MSTORE POP JUMP JUMPDEST PUSH0 PUSH2 0x909D PUSH1 0x25 DUP4 PUSH2 0x81DF JUMP JUMPDEST SWAP2 POP PUSH2 0x90A8 DUP3 PUSH2 0x9043 JUMP JUMPDEST PUSH1 0x40 DUP3 ADD SWAP1 POP SWAP2 SWAP1 POP JUMP JUMPDEST PUSH0 PUSH1 0x20 DUP3 ADD SWAP1 POP DUP2 DUP2 SUB PUSH0 DUP4 ADD MSTORE PUSH2 0x90CA DUP2 PUSH2 0x9091 JUMP JUMPDEST SWAP1 POP SWAP2 SWAP1 POP JUMP JUMPDEST PUSH32 0x6D6178207472616E7366657220616D6F756E742063616E6E6F74206578636565 PUSH0 DUP3 ADD MSTORE PUSH32 0x6420746F6B656E20737570706C79000000000000000000000000000000000000 PUSH1 0x20 DUP3 ADD MSTORE POP JUMP JUMPDEST PUSH0 PUSH2 0x912B PUSH1 0x2E DUP4 PUSH2 0x81DF JUMP JUMPDEST SWAP2 POP PUSH2 0x9136 DUP3 PUSH2 0x90D1 JUMP JUMPDEST PUSH1 0x40 DUP3 ADD SWAP1 POP SWAP2 SWAP1 POP JUMP JUMPDEST PUSH0 PUSH1 0x20 DUP3 ADD SWAP1 POP DUP2 DUP2 SUB PUSH0 DUP4 ADD MSTORE PUSH2 0x9158 DUP2 PUSH2 0x911F JUMP JUMPDEST SWAP1 POP SWAP2 SWAP1 POP JUMP JUMPDEST PUSH32 0x746F74616C2073656C6C20666565732063616E6E6F7420657863656564203230 PUSH0 DUP3 ADD MSTORE POP JUMP JUMPDEST PUSH0 PUSH2 0x9193 PUSH1 0x20 DUP4 PUSH2 0x81DF JUMP JUMPDEST SWAP2 POP PUSH2 0x919E DUP3 PUSH2 0x915F JUMP JUMPDEST PUSH1 0x20 DUP3 ADD SWAP1 POP SWAP2 SWAP1 POP JUMP JUMPDEST PUSH0 PUSH1 0x20 DUP3 ADD SWAP1 POP DUP2 DUP2 SUB PUSH0 DUP4 ADD MSTORE PUSH2 0x91C0 DUP2 PUSH2 0x9187 JUMP JUMPDEST SWAP1 POP SWAP2 SWAP1 POP JUMP JUMPDEST PUSH32 0x4163636F756E7420697320616C7265616479206E6F742061206D616E61676572 PUSH0 DUP3 ADD MSTORE POP JUMP JUMPDEST PUSH0 PUSH2 0x91FB PUSH1 0x20 DUP4 PUSH2 0x81DF JUMP JUMPDEST SWAP2 POP PUSH2 0x9206 DUP3 PUSH2 0x91C7 JUMP JUMPDEST PUSH1 0x20 DUP3 ADD SWAP1 POP SWAP2 SWAP1 POP JUMP JUMPDEST PUSH0 PUSH1 0x20 DUP3 ADD SWAP1 POP DUP2 DUP2 SUB PUSH0 DUP4 ADD MSTORE PUSH2 0x9228 DUP2 PUSH2 0x91EF JUMP JUMPDEST SWAP1 POP SWAP2 SWAP1 POP JUMP JUMPDEST PUSH32 0x457865637574697665206D616E616765722063616E6E6F742062652072656D6F PUSH0 DUP3 ADD MSTORE PUSH32 0x7665640000000000000000000000000000000000000000000000000000000000 PUSH1 0x20 DUP3 ADD MSTORE POP JUMP JUMPDEST PUSH0 PUSH2 0x9289 PUSH1 0x23 DUP4 PUSH2 0x81DF JUMP JUMPDEST SWAP2 POP PUSH2 0x9294 DUP3 PUSH2 0x922F JUMP JUMPDEST PUSH1 0x40 DUP3 ADD SWAP1 POP SWAP2 SWAP1 POP JUMP JUMPDEST PUSH0 PUSH1 0x20 DUP3 ADD SWAP1 POP DUP2 DUP2 SUB PUSH0 DUP4 ADD MSTORE PUSH2 0x92B6 DUP2 PUSH2 0x927D JUMP JUMPDEST SWAP1 POP SWAP2 SWAP1 POP JUMP JUMPDEST PUSH32 0x6164647265737320697320616C72656164792061206D616E6167656D656E7420 PUSH0 DUP3 ADD MSTORE PUSH32 0x6665657320726563696576657200000000000000000000000000000000000000 PUSH1 0x20 DUP3 ADD MSTORE POP JUMP JUMPDEST PUSH0 PUSH2 0x9317 PUSH1 0x2D DUP4 PUSH2 0x81DF JUMP JUMPDEST SWAP2 POP PUSH2 0x9322 DUP3 PUSH2 0x92BD JUMP JUMPDEST PUSH1 0x40 DUP3 ADD SWAP1 POP SWAP2 SWAP1 POP JUMP JUMPDEST PUSH0 PUSH1 0x20 DUP3 ADD SWAP1 POP DUP2 DUP2 SUB PUSH0 DUP4 ADD MSTORE PUSH2 0x9344 DUP2 PUSH2 0x930B JUMP JUMPDEST SWAP1 POP SWAP2 SWAP1 POP JUMP JUMPDEST PUSH32 0x6D6178206E756D626572206F66206D616E6167656D656E742066656573207265 PUSH0 DUP3 ADD MSTORE PUSH32 0x6369657665727320616C72656164792072656163686564000000000000000000 PUSH1 0x20 DUP3 ADD MSTORE POP JUMP JUMPDEST PUSH0 PUSH2 0x93A5 PUSH1 0x37 DUP4 PUSH2 0x81DF JUMP JUMPDEST SWAP2 POP PUSH2 0x93B0 DUP3 PUSH2 0x934B JUMP JUMPDEST PUSH1 0x40 DUP3 ADD SWAP1 POP SWAP2 SWAP1 POP JUMP JUMPDEST PUSH0 PUSH1 0x20 DUP3 ADD SWAP1 POP DUP2 DUP2 SUB PUSH0 DUP4 ADD MSTORE PUSH2 0x93D2 DUP2 PUSH2 0x9399 JUMP JUMPDEST SWAP1 POP SWAP2 SWAP1 POP JUMP JUMPDEST PUSH32 0x6175746F207265696E6A65637420666163746F722063616E6E6F742065786365 PUSH0 DUP3 ADD MSTORE PUSH32 0x6564203130300000000000000000000000000000000000000000000000000000 PUSH1 0x20 DUP3 ADD MSTORE POP JUMP JUMPDEST PUSH0 PUSH2 0x9433 PUSH1 0x26 DUP4 PUSH2 0x81DF JUMP JUMPDEST SWAP2 POP PUSH2 0x943E DUP3 PUSH2 0x93D9 JUMP JUMPDEST PUSH1 0x40 DUP3 ADD SWAP1 POP SWAP2 SWAP1 POP JUMP JUMPDEST PUSH0 PUSH1 0x20 DUP3 ADD SWAP1 POP DUP2 DUP2 SUB PUSH0 DUP4 ADD MSTORE PUSH2 0x9460 DUP2 PUSH2 0x9427 JUMP JUMPDEST SWAP1 POP SWAP2 SWAP1 POP JUMP JUMPDEST PUSH32 0x63616E6E6F7420617070726F766520616C6C776F616E63652066726F6D207468 PUSH0 DUP3 ADD MSTORE PUSH32 0x65207A65726F2061646472657373000000000000000000000000000000000000 PUSH1 0x20 DUP3 ADD MSTORE POP JUMP JUMPDEST PUSH0 PUSH2 0x94C1 PUSH1 0x2E DUP4 PUSH2 0x81DF JUMP JUMPDEST SWAP2 POP PUSH2 0x94CC DUP3 PUSH2 0x9467 JUMP JUMPDEST PUSH1 0x40 DUP3 ADD SWAP1 POP SWAP2 SWAP1 POP JUMP JUMPDEST PUSH0 PUSH1 0x20 DUP3 ADD SWAP1 POP DUP2 DUP2 SUB PUSH0 DUP4 ADD MSTORE PUSH2 0x94EE DUP2 PUSH2 0x94B5 JUMP JUMPDEST SWAP1 POP SWAP2 SWAP1 POP JUMP JUMPDEST PUSH32 0x63616E6E6F7420617070726F766520616C6C776F616E636520746F2074686520 PUSH0 DUP3 ADD MSTORE PUSH32 0x7A65726F20616464726573730000000000000000000000000000000000000000 PUSH1 0x20 DUP3 ADD MSTORE POP JUMP JUMPDEST PUSH0 PUSH2 0x954F PUSH1 0x2C DUP4 PUSH2 0x81DF JUMP JUMPDEST SWAP2 POP PUSH2 0x955A DUP3 PUSH2 0x94F5 JUMP JUMPDEST PUSH1 0x40 DUP3 ADD SWAP1 POP SWAP2 SWAP1 POP JUMP JUMPDEST PUSH0 PUSH1 0x20 DUP3 ADD SWAP1 POP DUP2 DUP2 SUB PUSH0 DUP4 ADD MSTORE PUSH2 0x957C DUP2 PUSH2 0x9543 JUMP JUMPDEST SWAP1 POP SWAP2 SWAP1 POP JUMP JUMPDEST PUSH32 0x63616E6E6F74207472616E7366657220746F6B656E732066726F6D206F722074 PUSH0 DUP3 ADD MSTORE PUSH32 0x6F20746865207A65726F20616464726573730000000000000000000000000000 PUSH1 0x20 DUP3 ADD MSTORE POP JUMP JUMPDEST PUSH0 PUSH2 0x95DD PUSH1 0x32 DUP4 PUSH2 0x81DF JUMP JUMPDEST SWAP2 POP PUSH2 0x95E8 DUP3 PUSH2 0x9583 JUMP JUMPDEST PUSH1 0x40 DUP3 ADD SWAP1 POP SWAP2 SWAP1 POP JUMP JUMPDEST PUSH0 PUSH1 0x20 DUP3 ADD SWAP1 POP DUP2 DUP2 SUB PUSH0 DUP4 ADD MSTORE PUSH2 0x960A DUP2 PUSH2 0x95D1 JUMP JUMPDEST SWAP1 POP SWAP2 SWAP1 POP JUMP JUMPDEST PUSH32 0x7472616E7366657220616D6F756E742065786365656473207472616E73616374 PUSH0 DUP3 ADD MSTORE PUSH32 0x696F6E206C696D69740000000000000000000000000000000000000000000000 PUSH1 0x20 DUP3 ADD MSTORE POP JUMP JUMPDEST PUSH0 PUSH2 0x966B PUSH1 0x29 DUP4 PUSH2 0x81DF JUMP JUMPDEST SWAP2 POP PUSH2 0x9676 DUP3 PUSH2 0x9611 JUMP JUMPDEST PUSH1 0x40 DUP3 ADD SWAP1 POP SWAP2 SWAP1 POP JUMP JUMPDEST PUSH0 PUSH1 0x20 DUP3 ADD SWAP1 POP DUP2 DUP2 SUB PUSH0 DUP4 ADD MSTORE PUSH2 0x9698 DUP2 PUSH2 0x965F JUMP JUMPDEST SWAP1 POP SWAP2 SWAP1 POP JUMP JUMPDEST PUSH32 0x696E737566666963656E742066726F6D206163636F756E7420746F6B656E2062 PUSH0 DUP3 ADD MSTORE PUSH32 0x616C616E63650000000000000000000000000000000000000000000000000000 PUSH1 0x20 DUP3 ADD MSTORE POP JUMP JUMPDEST PUSH0 PUSH2 0x96F9 PUSH1 0x26 DUP4 PUSH2 0x81DF JUMP JUMPDEST SWAP2 POP PUSH2 0x9704 DUP3 PUSH2 0x969F JUMP JUMPDEST PUSH1 0x40 DUP3 ADD SWAP1 POP SWAP2 SWAP1 POP JUMP JUMPDEST PUSH0 PUSH1 0x20 DUP3 ADD SWAP1 POP DUP2 DUP2 SUB PUSH0 DUP4 ADD MSTORE PUSH2 0x9726 DUP2 PUSH2 0x96ED JUMP JUMPDEST SWAP1 POP SWAP2 SWAP1 POP JUMP JUMPDEST PUSH32 0x6469766973696F6E206279207A65726F00000000000000000000000000000000 PUSH0 DUP3 ADD MSTORE POP JUMP JUMPDEST PUSH0 PUSH2 0x9761 PUSH1 0x10 DUP4 PUSH2 0x81DF JUMP JUMPDEST SWAP2 POP PUSH2 0x976C DUP3 PUSH2 0x972D JUMP JUMPDEST PUSH1 0x20 DUP3 ADD SWAP1 POP SWAP2 SWAP1 POP JUMP JUMPDEST PUSH0 PUSH1 0x20 DUP3 ADD SWAP1 POP DUP2 DUP2 SUB PUSH0 DUP4 ADD MSTORE PUSH2 0x978E DUP2 PUSH2 0x9755 JUMP JUMPDEST SWAP1 POP SWAP2 SWAP1 POP JUMP JUMPDEST PUSH32 0x4E487B7100000000000000000000000000000000000000000000000000000000 PUSH0 MSTORE PUSH1 0x12 PUSH1 0x4 MSTORE PUSH1 0x24 PUSH0 REVERT JUMPDEST PUSH0 PUSH2 0x97CC DUP3 PUSH2 0x8265 JUMP JUMPDEST SWAP2 POP PUSH2 0x97D7 DUP4 PUSH2 0x8265 JUMP JUMPDEST SWAP3 POP DUP3 PUSH2 0x97E7 JUMPI PUSH2 0x97E6 PUSH2 0x9795 JUMP JUMPDEST JUMPDEST DUP3 DUP3 DIV SWAP1 POP SWAP3 SWAP2 POP POP JUMP JUMPDEST PUSH32 0x6164646974696F6E206F766572666C6F77000000000000000000000000000000 PUSH0 DUP3 ADD MSTORE POP JUMP JUMPDEST PUSH0 PUSH2 0x9826 PUSH1 0x11 DUP4 PUSH2 0x81DF JUMP JUMPDEST SWAP2 POP PUSH2 0x9831 DUP3 PUSH2 0x97F2 JUMP JUMPDEST PUSH1 0x20 DUP3 ADD SWAP1 POP SWAP2 SWAP1 POP JUMP JUMPDEST PUSH0 PUSH1 0x20 DUP3 ADD SWAP1 POP DUP2 DUP2 SUB PUSH0 DUP4 ADD MSTORE PUSH2 0x9853 DUP2 PUSH2 0x981A JUMP JUMPDEST SWAP1 POP SWAP2 SWAP1 POP JUMP JUMPDEST PUSH32 0x7265696E6A65637420666163746F722063616E6E6F7420657863656564203130 PUSH0 DUP3 ADD MSTORE PUSH32 0x3000000000000000000000000000000000000000000000000000000000000000 PUSH1 0x20 DUP3 ADD MSTORE POP JUMP JUMPDEST PUSH0 PUSH2 0x98B4 PUSH1 0x21 DUP4 PUSH2 0x81DF JUMP JUMPDEST SWAP2 POP PUSH2 0x98BF DUP3 PUSH2 0x985A JUMP JUMPDEST PUSH1 0x40 DUP3 ADD SWAP1 POP SWAP2 SWAP1 POP JUMP JUMPDEST PUSH0 PUSH1 0x20 DUP3 ADD SWAP1 POP DUP2 DUP2 SUB PUSH0 DUP4 ADD MSTORE PUSH2 0x98E1 DUP2 PUSH2 0x98A8 JUMP JUMPDEST SWAP1 POP SWAP2 SWAP1 POP JUMP JUMPDEST PUSH0 PUSH2 0x98F2 DUP3 PUSH2 0x83F8 JUMP JUMPDEST SWAP1 POP SWAP2 SWAP1 POP JUMP JUMPDEST PUSH2 0x9902 DUP2 PUSH2 0x98E8 JUMP JUMPDEST DUP3 MSTORE POP POP JUMP JUMPDEST PUSH0 DUP2 SWAP1 POP SWAP2 SWAP1 POP JUMP JUMPDEST PUSH0 PUSH2 0x992B PUSH2 0x9926 PUSH2 0x9921 DUP5 PUSH2 0x9908 JUMP JUMPDEST PUSH2 0x83CE JUMP JUMPDEST PUSH2 0x8265 JUMP JUMPDEST SWAP1 POP SWAP2 SWAP1 POP JUMP JUMPDEST PUSH2 0x993B DUP2 PUSH2 0x9911 JUMP JUMPDEST DUP3 MSTORE POP POP JUMP JUMPDEST PUSH0 PUSH1 0xC0 DUP3 ADD SWAP1 POP PUSH2 0x9954 PUSH0 DUP4 ADD DUP10 PUSH2 0x98F9 JUMP JUMPDEST PUSH2 0x9961 PUSH1 0x20 DUP4 ADD DUP9 PUSH2 0x826E JUMP JUMPDEST PUSH2 0x996E PUSH1 0x40 DUP4 ADD DUP8 PUSH2 0x9932 JUMP JUMPDEST PUSH2 0x997B PUSH1 0x60 DUP4 ADD DUP7 PUSH2 0x9932 JUMP JUMPDEST PUSH2 0x9988 PUSH1 0x80 DUP4 ADD DUP6 PUSH2 0x98F9 JUMP JUMPDEST PUSH2 0x9995 PUSH1 0xA0 DUP4 ADD DUP5 PUSH2 0x826E JUMP JUMPDEST SWAP8 SWAP7 POP POP POP POP POP POP POP JUMP JUMPDEST PUSH0 DUP2 MLOAD SWAP1 POP PUSH2 0x99AE DUP2 PUSH2 0x8296 JUMP JUMPDEST SWAP3 SWAP2 POP POP JUMP JUMPDEST PUSH0 DUP1 PUSH0 PUSH1 0x60 DUP5 DUP7 SUB SLT ISZERO PUSH2 0x99CB JUMPI PUSH2 0x99CA PUSH2 0x8119 JUMP JUMPDEST JUMPDEST PUSH0 PUSH2 0x99D8 DUP7 DUP3 DUP8 ADD PUSH2 0x99A0 JUMP JUMPDEST SWAP4 POP POP PUSH1 0x20 PUSH2 0x99E9 DUP7 DUP3 DUP8 ADD PUSH2 0x99A0 JUMP JUMPDEST SWAP3 POP POP PUSH1 0x40 PUSH2 0x99FA DUP7 DUP3 DUP8 ADD PUSH2 0x99A0 JUMP JUMPDEST SWAP2 POP POP SWAP3 POP SWAP3 POP SWAP3 JUMP JUMPDEST PUSH32 0x6275796261636B20666163746F722063616E6E6F742065786365656420313030 PUSH0 DUP3 ADD MSTORE POP JUMP JUMPDEST PUSH0 PUSH2 0x9A38 PUSH1 0x20 DUP4 PUSH2 0x81DF JUMP JUMPDEST SWAP2 POP PUSH2 0x9A43 DUP3 PUSH2 0x9A04 JUMP JUMPDEST PUSH1 0x20 DUP3 ADD SWAP1 POP SWAP2 SWAP1 POP JUMP JUMPDEST PUSH0 PUSH1 0x20 DUP3 ADD SWAP1 POP DUP2 DUP2 SUB PUSH0 DUP4 ADD MSTORE PUSH2 0x9A65 DUP2 PUSH2 0x9A2C JUMP JUMPDEST SWAP1 POP SWAP2 SWAP1 POP JUMP JUMPDEST PUSH32 0x4E487B7100000000000000000000000000000000000000000000000000000000 PUSH0 MSTORE PUSH1 0x41 PUSH1 0x4 MSTORE PUSH1 0x24 PUSH0 REVERT JUMPDEST PUSH0 DUP2 MLOAD SWAP1 POP PUSH2 0x9AA7 DUP2 PUSH2 0x814D JUMP JUMPDEST SWAP3 SWAP2 POP POP JUMP JUMPDEST PUSH0 PUSH1 0x20 DUP3 DUP5 SUB SLT ISZERO PUSH2 0x9AC2 JUMPI PUSH2 0x9AC1 PUSH2 0x8119 JUMP JUMPDEST JUMPDEST PUSH0 PUSH2 0x9ACF DUP5 DUP3 DUP6 ADD PUSH2 0x9A99 JUMP JUMPDEST SWAP2 POP POP SWAP3 SWAP2 POP POP JUMP JUMPDEST PUSH0 DUP2 MLOAD SWAP1 POP SWAP2 SWAP1 POP JUMP JUMPDEST PUSH0 DUP3 DUP3 MSTORE PUSH1 0x20 DUP3 ADD SWAP1 POP SWAP3 SWAP2 POP POP JUMP JUMPDEST PUSH0 DUP2 SWAP1 POP PUSH1 0x20 DUP3 ADD SWAP1 POP SWAP2 SWAP1 POP JUMP JUMPDEST PUSH2 0x9B0A DUP2 PUSH2 0x813C JUMP JUMPDEST DUP3 MSTORE POP POP JUMP JUMPDEST PUSH0 PUSH2 0x9B1B DUP4 DUP4 PUSH2 0x9B01 JUMP JUMPDEST PUSH1 0x20 DUP4 ADD SWAP1 POP SWAP3 SWAP2 POP POP JUMP JUMPDEST PUSH0 PUSH1 0x20 DUP3 ADD SWAP1 POP SWAP2 SWAP1 POP JUMP JUMPDEST PUSH0 PUSH2 0x9B3D DUP3 PUSH2 0x9AD8 JUMP JUMPDEST PUSH2 0x9B47 DUP2 DUP6 PUSH2 0x9AE2 JUMP JUMPDEST SWAP4 POP PUSH2 0x9B52 DUP4 PUSH2 0x9AF2 JUMP JUMPDEST DUP1 PUSH0 JUMPDEST DUP4 DUP2 LT ISZERO PUSH2 0x9B82 JUMPI DUP2 MLOAD PUSH2 0x9B69 DUP9 DUP3 PUSH2 0x9B10 JUMP JUMPDEST SWAP8 POP PUSH2 0x9B74 DUP4 PUSH2 0x9B27 JUMP JUMPDEST SWAP3 POP POP PUSH1 0x1 DUP2 ADD SWAP1 POP PUSH2 0x9B55 JUMP JUMPDEST POP DUP6 SWAP4 POP POP POP POP SWAP3 SWAP2 POP POP JUMP JUMPDEST PUSH0 PUSH1 0x80 DUP3 ADD SWAP1 POP PUSH2 0x9BA2 PUSH0 DUP4 ADD DUP8 PUSH2 0x9932 JUMP JUMPDEST DUP2 DUP2 SUB PUSH1 0x20 DUP4 ADD MSTORE PUSH2 0x9BB4 DUP2 DUP7 PUSH2 0x9B33 JUMP JUMPDEST SWAP1 POP PUSH2 0x9BC3 PUSH1 0x40 DUP4 ADD DUP6 PUSH2 0x84B4 JUMP JUMPDEST PUSH2 0x9BD0 PUSH1 0x60 DUP4 ADD DUP5 PUSH2 0x826E JUMP JUMPDEST SWAP6 SWAP5 POP POP POP POP POP JUMP JUMPDEST PUSH0 PUSH1 0x40 DUP3 ADD SWAP1 POP PUSH2 0x9BEC PUSH0 DUP4 ADD DUP6 PUSH2 0x826E JUMP JUMPDEST DUP2 DUP2 SUB PUSH1 0x20 DUP4 ADD MSTORE PUSH2 0x9BFE DUP2 DUP5 PUSH2 0x9B33 JUMP JUMPDEST SWAP1 POP SWAP4 SWAP3 POP POP POP JUMP JUMPDEST PUSH32 0x6C69717569667920666163746F722063616E6E6F742065786365656420313030 PUSH0 DUP3 ADD MSTORE POP JUMP JUMPDEST PUSH0 PUSH2 0x9C3B PUSH1 0x20 DUP4 PUSH2 0x81DF JUMP JUMPDEST SWAP2 POP PUSH2 0x9C46 DUP3 PUSH2 0x9C07 JUMP JUMPDEST PUSH1 0x20 DUP3 ADD SWAP1 POP SWAP2 SWAP1 POP JUMP JUMPDEST PUSH0 PUSH1 0x20 DUP3 ADD SWAP1 POP DUP2 DUP2 SUB PUSH0 DUP4 ADD MSTORE PUSH2 0x9C68 DUP2 PUSH2 0x9C2F JUMP JUMPDEST SWAP1 POP SWAP2 SWAP1 POP JUMP JUMPDEST PUSH0 PUSH1 0xA0 DUP3 ADD SWAP1 POP PUSH2 0x9C82 PUSH0 DUP4 ADD DUP9 PUSH2 0x826E JUMP JUMPDEST PUSH2 0x9C8F PUSH1 0x20 DUP4 ADD DUP8 PUSH2 0x9932 JUMP JUMPDEST DUP2 DUP2 SUB PUSH1 0x40 DUP4 ADD MSTORE PUSH2 0x9CA1 DUP2 DUP7 PUSH2 0x9B33 JUMP JUMPDEST SWAP1 POP PUSH2 0x9CB0 PUSH1 0x60 DUP4 ADD DUP6 PUSH2 0x98F9 JUMP JUMPDEST PUSH2 0x9CBD PUSH1 0x80 DUP4 ADD DUP5 PUSH2 0x826E JUMP JUMPDEST SWAP7 SWAP6 POP POP POP POP POP POP JUMP JUMPDEST PUSH0 PUSH2 0x9CD1 DUP3 PUSH2 0x8265 JUMP JUMPDEST SWAP2 POP PUSH2 0x9CDC DUP4 PUSH2 0x8265 JUMP JUMPDEST SWAP3 POP DUP3 DUP3 MUL PUSH2 0x9CEA DUP2 PUSH2 0x8265 JUMP JUMPDEST SWAP2 POP DUP3 DUP3 DIV DUP5 EQ DUP4 ISZERO OR PUSH2 0x9D01 JUMPI PUSH2 0x9D00 PUSH2 0x87FA JUMP JUMPDEST JUMPDEST POP SWAP3 SWAP2 POP POP JUMP JUMPDEST PUSH32 0x6D756C7469706C69636174696F6E206F766572666C6F77000000000000000000 PUSH0 DUP3 ADD MSTORE POP JUMP JUMPDEST PUSH0 PUSH2 0x9D3C PUSH1 0x17 DUP4 PUSH2 0x81DF JUMP JUMPDEST SWAP2 POP PUSH2 0x9D47 DUP3 PUSH2 0x9D08 JUMP JUMPDEST PUSH1 0x20 DUP3 ADD SWAP1 POP SWAP2 SWAP1 POP JUMP JUMPDEST PUSH0 PUSH1 0x20 DUP3 ADD SWAP1 POP DUP2 DUP2 SUB PUSH0 DUP4 ADD MSTORE PUSH2 0x9D69 DUP2 PUSH2 0x9D30 JUMP JUMPDEST SWAP1 POP SWAP2 SWAP1 POP JUMP INVALID PUSH21 0x72616E7366657220616D6F756E7420657863656564 PUSH20 0x207370656E646572277320616C6C6F77616E6365 LOG2 PUSH5 0x6970667358 0x22 SLT KECCAK256 0x2E PUSH6 0xD5CDFCE5A9FB PUSH18 0x8F49987C79A0D0739AA0B9F7FD4F17D2A227 0xE7 CHAINID 0xDD SWAP13 DUP3 PUSH5 0x736F6C6343 STOP ADDMOD BYTE STOP CALLER "
		},
		"gasEstimates": {
			"creation": {
				"codeDepositCost": "8080200",
				"executionCost": "infinite",
				"totalCost": "infinite"
			},
			"external": {
				"_amountTotalFeesPendingLiquidation()": "2539",
				"_areFeesEnabled()": "2642",
				"_areLimitsEnabled()": "2533",
				"_autoBuybackFactor()": "2537",
				"_autoLiquifyFactor()": "2557",
				"_autoReinjectFactor()": "2492",
				"_buyFeeManagementPercentage()": "2515",
				"_buyFeeReflectionPercentage()": "2580",
				"_buyFeeReservePercentage()": "2516",
				"_buyFeeTotalPercentage()": "2493",
				"_deadAddress()": "2597",
				"_isAutoBuybackEnabled()": "2673",
				"_isAutoFeeLiquifyEnabled()": "2600",
				"_isAutoReinjectEnabled()": "2578",
				"_managementFeesRecievers(uint256)": "5078",
				"_maxNumberManagementFeesRecievers()": "2538",
				"_maxTransferAmount()": "2538",
				"_minPendingFeesForAutoLiquify()": "2560",
				"_minReserveETHForAutoBuyback()": "2492",
				"_minReserveETHForAutoReinject()": "2493",
				"_pancakePair()": "infinite",
				"_pancakeRouter()": "infinite",
				"_sellFeeManagementPercentage()": "2494",
				"_sellFeeReflectionPercentage()": "2559",
				"_sellFeeReservePercentage()": "2493",
				"_sellFeeTotalPercentage()": "2581",
				"addManagementFeesReciever(address)": "84590",
				"addManager(address)": "infinite",
				"allowance(address,address)": "infinite",
				"approve(address,uint256)": "infinite",
				"balanceOf(address)": "infinite",
				"changeExecutiveManager(address)": "infinite",
				"decimals()": "2564",
				"decreaseAllowance(address,uint256)": "infinite",
				"excludeFromFees(address)": "29495",
				"excludeFromLimits(address)": "29540",
				"excludeFromReflections(address)": "infinite",
				"executiveManager()": "2628",
				"getOwner()": "2705",
				"includeInFees(address)": "33937",
				"includeInLimits(address)": "33959",
				"includeInReflections(address)": "infinite",
				"increaseAllowance(address,uint256)": "infinite",
				"isExcludedFromFees(address)": "2959",
				"isExcludedFromLimits(address)": "2983",
				"isExcludedFromReflections(address)": "2958",
				"isManager(address)": "3024",
				"lockManagement(uint256)": "infinite",
				"managementIsLocked()": "2542",
				"name()": "infinite",
				"performManualDeadTokenReinjecton(uint256)": "infinite",
				"performManualFeeLiquidation(uint256)": "infinite",
				"performManualTokenBuyback(uint256)": "infinite",
				"removeManagementFeesReciever(address)": "infinite",
				"removeManager(address)": "infinite",
				"renounceManagement()": "infinite",
				"setAutoBuybackEnabled(bool)": "infinite",
				"setAutoBuybackFactor(uint256)": "27279",
				"setAutoFeeLiquifyEnabled(bool)": "infinite",
				"setAutoLiquifyFactor(uint256)": "27236",
				"setAutoReinjectEnabled(bool)": "infinite",
				"setAutoReinjectFactor(uint256)": "27322",
				"setFeesEnabled(bool)": "infinite",
				"setFeesEnabled(bool,bool)": "infinite",
				"setLimitsEnabled(bool)": "infinite",
				"setManagementFeeBuy(uint256)": "infinite",
				"setManagementFeeSell(uint256)": "infinite",
				"setMaxTransferAmount(uint256)": "29357",
				"setMinPendingFeesForAutoLiquify(uint256)": "27231",
				"setMinReserveETHForAutoBuyback(uint256)": "27252",
				"setMinReserveETHForAutoReinject(uint256)": "27232",
				"setReflectionsFeeBuy(uint256)": "infinite",
				"setReflectionsFeeSell(uint256)": "infinite",
				"setReserveFeeBuy(uint256)": "infinite",
				"setReserveFeeSell(uint256)": "infinite",
				"symbol()": "infinite",
				"timeToManagementUnlock()": "infinite",
				"totalSupply()": "2589",
				"transfer(address,uint256)": "infinite",
				"transferFrom(address,address,uint256)": "infinite",
				"unlockManagement()": "37014"
			},
			"internal": {
				"_approve(address,address,uint256)": "infinite",
				"_buybackTokens(uint256)": "infinite",
				"_getCurrentReflectionRate()": "infinite",
				"_getCurrentSupplies()": "infinite",
				"_liquidateFees(uint256)": "infinite",
				"_reinjectTokens(uint256)": "infinite",
				"_transfer(address,address,uint256)": "infinite"
			}
		},
		"methodIdentifiers": {
			"_amountTotalFeesPendingLiquidation()": "07b67774",
			"_areFeesEnabled()": "ffcfb418",
			"_areLimitsEnabled()": "d7225750",
			"_autoBuybackFactor()": "48a68a00",
			"_autoLiquifyFactor()": "f291ec4a",
			"_autoReinjectFactor()": "4b130c7b",
			"_buyFeeManagementPercentage()": "6d3cb8b3",
			"_buyFeeReflectionPercentage()": "5ae31fe1",
			"_buyFeeReservePercentage()": "1cae2311",
			"_buyFeeTotalPercentage()": "461e602d",
			"_deadAddress()": "c93eb866",
			"_isAutoBuybackEnabled()": "2cc254c2",
			"_isAutoFeeLiquifyEnabled()": "ba70caa3",
			"_isAutoReinjectEnabled()": "2a1bcd74",
			"_managementFeesRecievers(uint256)": "495032a6",
			"_maxNumberManagementFeesRecievers()": "168ef101",
			"_maxTransferAmount()": "1f976b7e",
			"_minPendingFeesForAutoLiquify()": "5d17d5f2",
			"_minReserveETHForAutoBuyback()": "9feb9529",
			"_minReserveETHForAutoReinject()": "6adcaa3a",
			"_pancakePair()": "2509180e",
			"_pancakeRouter()": "ba6f43e6",
			"_sellFeeManagementPercentage()": "0be2620f",
			"_sellFeeReflectionPercentage()": "3cf8ce62",
			"_sellFeeReservePercentage()": "89c74351",
			"_sellFeeTotalPercentage()": "4a37dd91",
			"addManagementFeesReciever(address)": "d1966373",
			"addManager(address)": "2d06177a",
			"allowance(address,address)": "dd62ed3e",
			"approve(address,uint256)": "095ea7b3",
			"balanceOf(address)": "70a08231",
			"changeExecutiveManager(address)": "3ca26848",
			"decimals()": "313ce567",
			"decreaseAllowance(address,uint256)": "a457c2d7",
			"excludeFromFees(address)": "e57f14e1",
			"excludeFromLimits(address)": "df376d0b",
			"excludeFromReflections(address)": "25f25f4d",
			"executiveManager()": "37e47e98",
			"getOwner()": "893d20e8",
			"includeInFees(address)": "16a2f82a",
			"includeInLimits(address)": "69ce640d",
			"includeInReflections(address)": "044b5d46",
			"increaseAllowance(address,uint256)": "39509351",
			"isExcludedFromFees(address)": "4fbee193",
			"isExcludedFromLimits(address)": "5cce86cd",
			"isExcludedFromReflections(address)": "e6375d3e",
			"isManager(address)": "f3ae2415",
			"lockManagement(uint256)": "bbd04ad0",
			"managementIsLocked()": "1be38e3a",
			"name()": "06fdde03",
			"performManualDeadTokenReinjecton(uint256)": "8edcf4a5",
			"performManualFeeLiquidation(uint256)": "e56882c0",
			"performManualTokenBuyback(uint256)": "e1285305",
			"removeManagementFeesReciever(address)": "57a82589",
			"removeManager(address)": "ac18de43",
			"renounceManagement()": "089208d8",
			"setAutoBuybackEnabled(bool)": "39039980",
			"setAutoBuybackFactor(uint256)": "706f1b2a",
			"setAutoFeeLiquifyEnabled(bool)": "3aede27e",
			"setAutoLiquifyFactor(uint256)": "5beb3b8f",
			"setAutoReinjectEnabled(bool)": "1632816f",
			"setAutoReinjectFactor(uint256)": "d3f49ad4",
			"setFeesEnabled(bool)": "a901dd92",
			"setFeesEnabled(bool,bool)": "2a4f12ca",
			"setLimitsEnabled(bool)": "41aea9de",
			"setManagementFeeBuy(uint256)": "afc18f75",
			"setManagementFeeSell(uint256)": "c4db64c0",
			"setMaxTransferAmount(uint256)": "8bf55409",
			"setMinPendingFeesForAutoLiquify(uint256)": "3b356f25",
			"setMinReserveETHForAutoBuyback(uint256)": "51d83869",
			"setMinReserveETHForAutoReinject(uint256)": "5c787ab6",
			"setReflectionsFeeBuy(uint256)": "202341d2",
			"setReflectionsFeeSell(uint256)": "ee75a5fb",
			"setReserveFeeBuy(uint256)": "9566a7fe",
			"setReserveFeeSell(uint256)": "a0271855",
			"symbol()": "95d89b41",
			"timeToManagementUnlock()": "4859ccb3",
			"totalSupply()": "18160ddd",
			"transfer(address,uint256)": "a9059cbb",
			"transferFrom(address,address,uint256)": "23b872dd",
			"unlockManagement()": "d1d0addb"
		}
	},
	"abi": [
		{
			"inputs": [
				{
					"internalType": "address",
					"name": "pancakeRouter",
					"type": "address"
				}
			],
			"stateMutability": "nonpayable",
			"type": "constructor"
		},
		{
			"anonymous": false,
			"inputs": [
				{
					"indexed": true,
					"internalType": "address",
					"name": "owner",
					"type": "address"
				},
				{
					"indexed": true,
					"internalType": "address",
					"name": "spender",
					"type": "address"
				},
				{
					"indexed": false,
					"internalType": "uint256",
					"name": "value",
					"type": "uint256"
				}
			],
			"name": "Approval",
			"type": "event"
		},
		{
			"anonymous": false,
			"inputs": [
				{
					"indexed": false,
					"internalType": "address",
					"name": "contextAddress",
					"type": "address"
				},
				{
					"indexed": false,
					"internalType": "address",
					"name": "contextCreator",
					"type": "address"
				}
			],
			"name": "CreateContext",
			"type": "event"
		},
		{
			"anonymous": false,
			"inputs": [
				{
					"indexed": true,
					"internalType": "address",
					"name": "previousExecutiveManager",
					"type": "address"
				},
				{
					"indexed": true,
					"internalType": "address",
					"name": "newExecutiveManager",
					"type": "address"
				}
			],
			"name": "ExecutiveManagerChanged",
			"type": "event"
		},
		{
			"anonymous": false,
			"inputs": [
				{
					"indexed": false,
					"internalType": "uint256",
					"name": "lockDuration",
					"type": "uint256"
				}
			],
			"name": "ManagementLocked",
			"type": "event"
		},
		{
			"anonymous": false,
			"inputs": [],
			"name": "ManagementRenounced",
			"type": "event"
		},
		{
			"anonymous": false,
			"inputs": [],
			"name": "ManagementUnlocked",
			"type": "event"
		},
		{
			"anonymous": false,
			"inputs": [
				{
					"indexed": false,
					"internalType": "address",
					"name": "addedManager",
					"type": "address"
				}
			],
			"name": "ManagerAdded",
			"type": "event"
		},
		{
			"anonymous": false,
			"inputs": [
				{
					"indexed": false,
					"internalType": "address",
					"name": "removedManager",
					"type": "address"
				}
			],
			"name": "ManagerRemoved",
			"type": "event"
		},
		{
			"anonymous": false,
			"inputs": [
				{
					"indexed": false,
					"internalType": "uint256",
					"name": "amountTokens",
					"type": "uint256"
				}
			],
			"name": "MintTokens",
			"type": "event"
		},
		{
			"anonymous": false,
			"inputs": [
				{
					"indexed": false,
					"internalType": "uint256",
					"name": "amountTokens",
					"type": "uint256"
				}
			],
			"name": "ReflectTokens",
			"type": "event"
		},
		{
			"anonymous": false,
			"inputs": [
				{
					"indexed": false,
					"internalType": "uint256",
					"name": "amountETH",
					"type": "uint256"
				},
				{
					"indexed": false,
					"internalType": "address[]",
					"name": "path",
					"type": "address[]"
				}
			],
			"name": "SwapETHForTokens",
			"type": "event"
		},
		{
			"anonymous": false,
			"inputs": [
				{
					"indexed": false,
					"internalType": "uint256",
					"name": "amountTokens",
					"type": "uint256"
				},
				{
					"indexed": false,
					"internalType": "address[]",
					"name": "path",
					"type": "address[]"
				}
			],
			"name": "SwapTokensForETH",
			"type": "event"
		},
		{
			"anonymous": false,
			"inputs": [
				{
					"indexed": true,
					"internalType": "address",
					"name": "from",
					"type": "address"
				},
				{
					"indexed": true,
					"internalType": "address",
					"name": "to",
					"type": "address"
				},
				{
					"indexed": false,
					"internalType": "uint256",
					"name": "value",
					"type": "uint256"
				}
			],
			"name": "Transfer",
			"type": "event"
		},
		{
			"inputs": [],
			"name": "_amountTotalFeesPendingLiquidation",
			"outputs": [
				{
					"internalType": "uint256",
					"name": "",
					"type": "uint256"
				}
			],
			"stateMutability": "view",
			"type": "function"
		},
		{
			"inputs": [],
			"name": "_areFeesEnabled",
			"outputs": [
				{
					"internalType": "bool",
					"name": "",
					"type": "bool"
				}
			],
			"stateMutability": "view",
			"type": "function"
		},
		{
			"inputs": [],
			"name": "_areLimitsEnabled",
			"outputs": [
				{
					"internalType": "bool",
					"name": "",
					"type": "bool"
				}
			],
			"stateMutability": "view",
			"type": "function"
		},
		{
			"inputs": [],
			"name": "_autoBuybackFactor",
			"outputs": [
				{
					"internalType": "uint256",
					"name": "",
					"type": "uint256"
				}
			],
			"stateMutability": "view",
			"type": "function"
		},
		{
			"inputs": [],
			"name": "_autoLiquifyFactor",
			"outputs": [
				{
					"internalType": "uint256",
					"name": "",
					"type": "uint256"
				}
			],
			"stateMutability": "view",
			"type": "function"
		},
		{
			"inputs": [],
			"name": "_autoReinjectFactor",
			"outputs": [
				{
					"internalType": "uint256",
					"name": "",
					"type": "uint256"
				}
			],
			"stateMutability": "view",
			"type": "function"
		},
		{
			"inputs": [],
			"name": "_buyFeeManagementPercentage",
			"outputs": [
				{
					"internalType": "uint256",
					"name": "",
					"type": "uint256"
				}
			],
			"stateMutability": "view",
			"type": "function"
		},
		{
			"inputs": [],
			"name": "_buyFeeReflectionPercentage",
			"outputs": [
				{
					"internalType": "uint256",
					"name": "",
					"type": "uint256"
				}
			],
			"stateMutability": "view",
			"type": "function"
		},
		{
			"inputs": [],
			"name": "_buyFeeReservePercentage",
			"outputs": [
				{
					"internalType": "uint256",
					"name": "",
					"type": "uint256"
				}
			],
			"stateMutability": "view",
			"type": "function"
		},
		{
			"inputs": [],
			"name": "_buyFeeTotalPercentage",
			"outputs": [
				{
					"internalType": "uint256",
					"name": "",
					"type": "uint256"
				}
			],
			"stateMutability": "view",
			"type": "function"
		},
		{
			"inputs": [],
			"name": "_deadAddress",
			"outputs": [
				{
					"internalType": "address",
					"name": "",
					"type": "address"
				}
			],
			"stateMutability": "view",
			"type": "function"
		},
		{
			"inputs": [],
			"name": "_isAutoBuybackEnabled",
			"outputs": [
				{
					"internalType": "bool",
					"name": "",
					"type": "bool"
				}
			],
			"stateMutability": "view",
			"type": "function"
		},
		{
			"inputs": [],
			"name": "_isAutoFeeLiquifyEnabled",
			"outputs": [
				{
					"internalType": "bool",
					"name": "",
					"type": "bool"
				}
			],
			"stateMutability": "view",
			"type": "function"
		},
		{
			"inputs": [],
			"name": "_isAutoReinjectEnabled",
			"outputs": [
				{
					"internalType": "bool",
					"name": "",
					"type": "bool"
				}
			],
			"stateMutability": "view",
			"type": "function"
		},
		{
			"inputs": [
				{
					"internalType": "uint256",
					"name": "",
					"type": "uint256"
				}
			],
			"name": "_managementFeesRecievers",
			"outputs": [
				{
					"internalType": "address",
					"name": "",
					"type": "address"
				}
			],
			"stateMutability": "view",
			"type": "function"
		},
		{
			"inputs": [],
			"name": "_maxNumberManagementFeesRecievers",
			"outputs": [
				{
					"internalType": "uint256",
					"name": "",
					"type": "uint256"
				}
			],
			"stateMutability": "view",
			"type": "function"
		},
		{
			"inputs": [],
			"name": "_maxTransferAmount",
			"outputs": [
				{
					"internalType": "uint256",
					"name": "",
					"type": "uint256"
				}
			],
			"stateMutability": "view",
			"type": "function"
		},
		{
			"inputs": [],
			"name": "_minPendingFeesForAutoLiquify",
			"outputs": [
				{
					"internalType": "uint256",
					"name": "",
					"type": "uint256"
				}
			],
			"stateMutability": "view",
			"type": "function"
		},
		{
			"inputs": [],
			"name": "_minReserveETHForAutoBuyback",
			"outputs": [
				{
					"internalType": "uint256",
					"name": "",
					"type": "uint256"
				}
			],
			"stateMutability": "view",
			"type": "function"
		},
		{
			"inputs": [],
			"name": "_minReserveETHForAutoReinject",
			"outputs": [
				{
					"internalType": "uint256",
					"name": "",
					"type": "uint256"
				}
			],
			"stateMutability": "view",
			"type": "function"
		},
		{
			"inputs": [],
			"name": "_pancakePair",
			"outputs": [
				{
					"internalType": "contract IPancakePair",
					"name": "",
					"type": "address"
				}
			],
			"stateMutability": "view",
			"type": "function"
		},
		{
			"inputs": [],
			"name": "_pancakeRouter",
			"outputs": [
				{
					"internalType": "contract IPancakeRouter02",
					"name": "",
					"type": "address"
				}
			],
			"stateMutability": "view",
			"type": "function"
		},
		{
			"inputs": [],
			"name": "_sellFeeManagementPercentage",
			"outputs": [
				{
					"internalType": "uint256",
					"name": "",
					"type": "uint256"
				}
			],
			"stateMutability": "view",
			"type": "function"
		},
		{
			"inputs": [],
			"name": "_sellFeeReflectionPercentage",
			"outputs": [
				{
					"internalType": "uint256",
					"name": "",
					"type": "uint256"
				}
			],
			"stateMutability": "view",
			"type": "function"
		},
		{
			"inputs": [],
			"name": "_sellFeeReservePercentage",
			"outputs": [
				{
					"internalType": "uint256",
					"name": "",
					"type": "uint256"
				}
			],
			"stateMutability": "view",
			"type": "function"
		},
		{
			"inputs": [],
			"name": "_sellFeeTotalPercentage",
			"outputs": [
				{
					"internalType": "uint256",
					"name": "",
					"type": "uint256"
				}
			],
			"stateMutability": "view",
			"type": "function"
		},
		{
			"inputs": [
				{
					"internalType": "address",
					"name": "managementFeesReciever",
					"type": "address"
				}
			],
			"name": "addManagementFeesReciever",
			"outputs": [
				{
					"internalType": "bool",
					"name": "",
					"type": "bool"
				}
			],
			"stateMutability": "nonpayable",
			"type": "function"
		},
		{
			"inputs": [
				{
					"internalType": "address",
					"name": "newManager",
					"type": "address"
				}
			],
			"name": "addManager",
			"outputs": [
				{
					"internalType": "bool",
					"name": "",
					"type": "bool"
				}
			],
			"stateMutability": "nonpayable",
			"type": "function"
		},
		{
			"inputs": [
				{
					"internalType": "address",
					"name": "owner",
					"type": "address"
				},
				{
					"internalType": "address",
					"name": "spender",
					"type": "address"
				}
			],
			"name": "allowance",
			"outputs": [
				{
					"internalType": "uint256",
					"name": "",
					"type": "uint256"
				}
			],
			"stateMutability": "view",
			"type": "function"
		},
		{
			"inputs": [
				{
					"internalType": "address",
					"name": "spender",
					"type": "address"
				},
				{
					"internalType": "uint256",
					"name": "tAmount",
					"type": "uint256"
				}
			],
			"name": "approve",
			"outputs": [
				{
					"internalType": "bool",
					"name": "",
					"type": "bool"
				}
			],
			"stateMutability": "nonpayable",
			"type": "function"
		},
		{
			"inputs": [
				{
					"internalType": "address",
					"name": "account",
					"type": "address"
				}
			],
			"name": "balanceOf",
			"outputs": [
				{
					"internalType": "uint256",
					"name": "",
					"type": "uint256"
				}
			],
			"stateMutability": "view",
			"type": "function"
		},
		{
			"inputs": [
				{
					"internalType": "address",
					"name": "newExecutiveManager",
					"type": "address"
				}
			],
			"name": "changeExecutiveManager",
			"outputs": [
				{
					"internalType": "bool",
					"name": "",
					"type": "bool"
				}
			],
			"stateMutability": "nonpayable",
			"type": "function"
		},
		{
			"inputs": [],
			"name": "decimals",
			"outputs": [
				{
					"internalType": "uint8",
					"name": "",
					"type": "uint8"
				}
			],
			"stateMutability": "view",
			"type": "function"
		},
		{
			"inputs": [
				{
					"internalType": "address",
					"name": "spender",
					"type": "address"
				},
				{
					"internalType": "uint256",
					"name": "amount",
					"type": "uint256"
				}
			],
			"name": "decreaseAllowance",
			"outputs": [
				{
					"internalType": "bool",
					"name": "",
					"type": "bool"
				}
			],
			"stateMutability": "nonpayable",
			"type": "function"
		},
		{
			"inputs": [
				{
					"internalType": "address",
					"name": "account",
					"type": "address"
				}
			],
			"name": "excludeFromFees",
			"outputs": [
				{
					"internalType": "bool",
					"name": "",
					"type": "bool"
				}
			],
			"stateMutability": "nonpayable",
			"type": "function"
		},
		{
			"inputs": [
				{
					"internalType": "address",
					"name": "account",
					"type": "address"
				}
			],
			"name": "excludeFromLimits",
			"outputs": [
				{
					"internalType": "bool",
					"name": "",
					"type": "bool"
				}
			],
			"stateMutability": "nonpayable",
			"type": "function"
		},
		{
			"inputs": [
				{
					"internalType": "address",
					"name": "account",
					"type": "address"
				}
			],
			"name": "excludeFromReflections",
			"outputs": [
				{
					"internalType": "bool",
					"name": "",
					"type": "bool"
				}
			],
			"stateMutability": "nonpayable",
			"type": "function"
		},
		{
			"inputs": [],
			"name": "executiveManager",
			"outputs": [
				{
					"internalType": "address",
					"name": "",
					"type": "address"
				}
			],
			"stateMutability": "view",
			"type": "function"
		},
		{
			"inputs": [],
			"name": "getOwner",
			"outputs": [
				{
					"internalType": "address",
					"name": "",
					"type": "address"
				}
			],
			"stateMutability": "view",
			"type": "function"
		},
		{
			"inputs": [
				{
					"internalType": "address",
					"name": "account",
					"type": "address"
				}
			],
			"name": "includeInFees",
			"outputs": [
				{
					"internalType": "bool",
					"name": "",
					"type": "bool"
				}
			],
			"stateMutability": "nonpayable",
			"type": "function"
		},
		{
			"inputs": [
				{
					"internalType": "address",
					"name": "account",
					"type": "address"
				}
			],
			"name": "includeInLimits",
			"outputs": [
				{
					"internalType": "bool",
					"name": "",
					"type": "bool"
				}
			],
			"stateMutability": "nonpayable",
			"type": "function"
		},
		{
			"inputs": [
				{
					"internalType": "address",
					"name": "account",
					"type": "address"
				}
			],
			"name": "includeInReflections",
			"outputs": [
				{
					"internalType": "bool",
					"name": "",
					"type": "bool"
				}
			],
			"stateMutability": "nonpayable",
			"type": "function"
		},
		{
			"inputs": [
				{
					"internalType": "address",
					"name": "spender",
					"type": "address"
				},
				{
					"internalType": "uint256",
					"name": "amount",
					"type": "uint256"
				}
			],
			"name": "increaseAllowance",
			"outputs": [
				{
					"internalType": "bool",
					"name": "",
					"type": "bool"
				}
			],
			"stateMutability": "nonpayable",
			"type": "function"
		},
		{
			"inputs": [
				{
					"internalType": "address",
					"name": "account",
					"type": "address"
				}
			],
			"name": "isExcludedFromFees",
			"outputs": [
				{
					"internalType": "bool",
					"name": "",
					"type": "bool"
				}
			],
			"stateMutability": "view",
			"type": "function"
		},
		{
			"inputs": [
				{
					"internalType": "address",
					"name": "account",
					"type": "address"
				}
			],
			"name": "isExcludedFromLimits",
			"outputs": [
				{
					"internalType": "bool",
					"name": "",
					"type": "bool"
				}
			],
			"stateMutability": "view",
			"type": "function"
		},
		{
			"inputs": [
				{
					"internalType": "address",
					"name": "account",
					"type": "address"
				}
			],
			"name": "isExcludedFromReflections",
			"outputs": [
				{
					"internalType": "bool",
					"name": "",
					"type": "bool"
				}
			],
			"stateMutability": "view",
			"type": "function"
		},
		{
			"inputs": [
				{
					"internalType": "address",
					"name": "account",
					"type": "address"
				}
			],
			"name": "isManager",
			"outputs": [
				{
					"internalType": "bool",
					"name": "",
					"type": "bool"
				}
			],
			"stateMutability": "view",
			"type": "function"
		},
		{
			"inputs": [
				{
					"internalType": "uint256",
					"name": "lockDuration",
					"type": "uint256"
				}
			],
			"name": "lockManagement",
			"outputs": [
				{
					"internalType": "bool",
					"name": "",
					"type": "bool"
				}
			],
			"stateMutability": "nonpayable",
			"type": "function"
		},
		{
			"inputs": [],
			"name": "managementIsLocked",
			"outputs": [
				{
					"internalType": "bool",
					"name": "",
					"type": "bool"
				}
			],
			"stateMutability": "view",
			"type": "function"
		},
		{
			"inputs": [],
			"name": "name",
			"outputs": [
				{
					"internalType": "string",
					"name": "",
					"type": "string"
				}
			],
			"stateMutability": "view",
			"type": "function"
		},
		{
			"inputs": [
				{
					"internalType": "uint256",
					"name": "reinjectFactor",
					"type": "uint256"
				}
			],
			"name": "performManualDeadTokenReinjecton",
			"outputs": [
				{
					"internalType": "bool",
					"name": "",
					"type": "bool"
				}
			],
			"stateMutability": "nonpayable",
			"type": "function"
		},
		{
			"inputs": [
				{
					"internalType": "uint256",
					"name": "liquifyFactor",
					"type": "uint256"
				}
			],
			"name": "performManualFeeLiquidation",
			"outputs": [
				{
					"internalType": "bool",
					"name": "",
					"type": "bool"
				}
			],
			"stateMutability": "nonpayable",
			"type": "function"
		},
		{
			"inputs": [
				{
					"internalType": "uint256",
					"name": "buybackFactor",
					"type": "uint256"
				}
			],
			"name": "performManualTokenBuyback",
			"outputs": [
				{
					"internalType": "bool",
					"name": "",
					"type": "bool"
				}
			],
			"stateMutability": "nonpayable",
			"type": "function"
		},
		{
			"inputs": [
				{
					"internalType": "address",
					"name": "managementFeesReciever",
					"type": "address"
				}
			],
			"name": "removeManagementFeesReciever",
			"outputs": [
				{
					"internalType": "bool",
					"name": "",
					"type": "bool"
				}
			],
			"stateMutability": "nonpayable",
			"type": "function"
		},
		{
			"inputs": [
				{
					"internalType": "address",
					"name": "managerToRemove",
					"type": "address"
				}
			],
			"name": "removeManager",
			"outputs": [
				{
					"internalType": "bool",
					"name": "",
					"type": "bool"
				}
			],
			"stateMutability": "nonpayable",
			"type": "function"
		},
		{
			"inputs": [],
			"name": "renounceManagement",
			"outputs": [
				{
					"internalType": "bool",
					"name": "",
					"type": "bool"
				}
			],
			"stateMutability": "nonpayable",
			"type": "function"
		},
		{
			"inputs": [
				{
					"internalType": "bool",
					"name": "isAutoBuybackEnabled",
					"type": "bool"
				}
			],
			"name": "setAutoBuybackEnabled",
			"outputs": [
				{
					"internalType": "bool",
					"name": "",
					"type": "bool"
				}
			],
			"stateMutability": "nonpayable",
			"type": "function"
		},
		{
			"inputs": [
				{
					"internalType": "uint256",
					"name": "autoBuybackFactor",
					"type": "uint256"
				}
			],
			"name": "setAutoBuybackFactor",
			"outputs": [
				{
					"internalType": "bool",
					"name": "",
					"type": "bool"
				}
			],
			"stateMutability": "nonpayable",
			"type": "function"
		},
		{
			"inputs": [
				{
					"internalType": "bool",
					"name": "isAutoFeeLiquifyEnabled",
					"type": "bool"
				}
			],
			"name": "setAutoFeeLiquifyEnabled",
			"outputs": [
				{
					"internalType": "bool",
					"name": "",
					"type": "bool"
				}
			],
			"stateMutability": "nonpayable",
			"type": "function"
		},
		{
			"inputs": [
				{
					"internalType": "uint256",
					"name": "autoLiquifyFactor",
					"type": "uint256"
				}
			],
			"name": "setAutoLiquifyFactor",
			"outputs": [
				{
					"internalType": "bool",
					"name": "",
					"type": "bool"
				}
			],
			"stateMutability": "nonpayable",
			"type": "function"
		},
		{
			"inputs": [
				{
					"internalType": "bool",
					"name": "isAutoReinjectEnabled",
					"type": "bool"
				}
			],
			"name": "setAutoReinjectEnabled",
			"outputs": [
				{
					"internalType": "bool",
					"name": "",
					"type": "bool"
				}
			],
			"stateMutability": "nonpayable",
			"type": "function"
		},
		{
			"inputs": [
				{
					"internalType": "uint256",
					"name": "autoReinjectFactor",
					"type": "uint256"
				}
			],
			"name": "setAutoReinjectFactor",
			"outputs": [
				{
					"internalType": "bool",
					"name": "",
					"type": "bool"
				}
			],
			"stateMutability": "nonpayable",
			"type": "function"
		},
		{
			"inputs": [
				{
					"internalType": "bool",
					"name": "areFeesEnabled",
					"type": "bool"
				},
				{
					"internalType": "bool",
					"name": "isAutoFeeLiquifyEnabled",
					"type": "bool"
				}
			],
			"name": "setFeesEnabled",
			"outputs": [
				{
					"internalType": "bool",
					"name": "",
					"type": "bool"
				}
			],
			"stateMutability": "nonpayable",
			"type": "function"
		},
		{
			"inputs": [
				{
					"internalType": "bool",
					"name": "areFeesEnabled",
					"type": "bool"
				}
			],
			"name": "setFeesEnabled",
			"outputs": [
				{
					"internalType": "bool",
					"name": "",
					"type": "bool"
				}
			],
			"stateMutability": "nonpayable",
			"type": "function"
		},
		{
			"inputs": [
				{
					"internalType": "bool",
					"name": "areLimitsEnabled",
					"type": "bool"
				}
			],
			"name": "setLimitsEnabled",
			"outputs": [
				{
					"internalType": "bool",
					"name": "",
					"type": "bool"
				}
			],
			"stateMutability": "nonpayable",
			"type": "function"
		},
		{
			"inputs": [
				{
					"internalType": "uint256",
					"name": "managementFeeBuy",
					"type": "uint256"
				}
			],
			"name": "setManagementFeeBuy",
			"outputs": [
				{
					"internalType": "bool",
					"name": "",
					"type": "bool"
				}
			],
			"stateMutability": "nonpayable",
			"type": "function"
		},
		{
			"inputs": [
				{
					"internalType": "uint256",
					"name": "managementFeeSell",
					"type": "uint256"
				}
			],
			"name": "setManagementFeeSell",
			"outputs": [
				{
					"internalType": "bool",
					"name": "",
					"type": "bool"
				}
			],
			"stateMutability": "nonpayable",
			"type": "function"
		},
		{
			"inputs": [
				{
					"internalType": "uint256",
					"name": "maxTransferAmount",
					"type": "uint256"
				}
			],
			"name": "setMaxTransferAmount",
			"outputs": [
				{
					"internalType": "bool",
					"name": "",
					"type": "bool"
				}
			],
			"stateMutability": "nonpayable",
			"type": "function"
		},
		{
			"inputs": [
				{
					"internalType": "uint256",
					"name": "minPendingFeesForAutoLiquify",
					"type": "uint256"
				}
			],
			"name": "setMinPendingFeesForAutoLiquify",
			"outputs": [
				{
					"internalType": "bool",
					"name": "",
					"type": "bool"
				}
			],
			"stateMutability": "nonpayable",
			"type": "function"
		},
		{
			"inputs": [
				{
					"internalType": "uint256",
					"name": "minReserveETHForAutoBuyback",
					"type": "uint256"
				}
			],
			"name": "setMinReserveETHForAutoBuyback",
			"outputs": [
				{
					"internalType": "bool",
					"name": "",
					"type": "bool"
				}
			],
			"stateMutability": "nonpayable",
			"type": "function"
		},
		{
			"inputs": [
				{
					"internalType": "uint256",
					"name": "minReserveETHForAutoReinject",
					"type": "uint256"
				}
			],
			"name": "setMinReserveETHForAutoReinject",
			"outputs": [
				{
					"internalType": "bool",
					"name": "",
					"type": "bool"
				}
			],
			"stateMutability": "nonpayable",
			"type": "function"
		},
		{
			"inputs": [
				{
					"internalType": "uint256",
					"name": "reflectionsFeeBuy",
					"type": "uint256"
				}
			],
			"name": "setReflectionsFeeBuy",
			"outputs": [
				{
					"internalType": "bool",
					"name": "",
					"type": "bool"
				}
			],
			"stateMutability": "nonpayable",
			"type": "function"
		},
		{
			"inputs": [
				{
					"internalType": "uint256",
					"name": "reflectionsFeeSell",
					"type": "uint256"
				}
			],
			"name": "setReflectionsFeeSell",
			"outputs": [
				{
					"internalType": "bool",
					"name": "",
					"type": "bool"
				}
			],
			"stateMutability": "nonpayable",
			"type": "function"
		},
		{
			"inputs": [
				{
					"internalType": "uint256",
					"name": "reserveFeeBuy",
					"type": "uint256"
				}
			],
			"name": "setReserveFeeBuy",
			"outputs": [
				{
					"internalType": "bool",
					"name": "",
					"type": "bool"
				}
			],
			"stateMutability": "nonpayable",
			"type": "function"
		},
		{
			"inputs": [
				{
					"internalType": "uint256",
					"name": "reserveFeeSell",
					"type": "uint256"
				}
			],
			"name": "setReserveFeeSell",
			"outputs": [
				{
					"internalType": "bool",
					"name": "",
					"type": "bool"
				}
			],
			"stateMutability": "nonpayable",
			"type": "function"
		},
		{
			"inputs": [],
			"name": "symbol",
			"outputs": [
				{
					"internalType": "string",
					"name": "",
					"type": "string"
				}
			],
			"stateMutability": "view",
			"type": "function"
		},
		{
			"inputs": [],
			"name": "timeToManagementUnlock",
			"outputs": [
				{
					"internalType": "uint256",
					"name": "",
					"type": "uint256"
				}
			],
			"stateMutability": "view",
			"type": "function"
		},
		{
			"inputs": [],
			"name": "totalSupply",
			"outputs": [
				{
					"internalType": "uint256",
					"name": "",
					"type": "uint256"
				}
			],
			"stateMutability": "view",
			"type": "function"
		},
		{
			"inputs": [
				{
					"internalType": "address",
					"name": "to",
					"type": "address"
				},
				{
					"internalType": "uint256",
					"name": "tAmount",
					"type": "uint256"
				}
			],
			"name": "transfer",
			"outputs": [
				{
					"internalType": "bool",
					"name": "",
					"type": "bool"
				}
			],
			"stateMutability": "nonpayable",
			"type": "function"
		},
		{
			"inputs": [
				{
					"internalType": "address",
					"name": "owner",
					"type": "address"
				},
				{
					"internalType": "address",
					"name": "to",
					"type": "address"
				},
				{
					"internalType": "uint256",
					"name": "amount",
					"type": "uint256"
				}
			],
			"name": "transferFrom",
			"outputs": [
				{
					"internalType": "bool",
					"name": "",
					"type": "bool"
				}
			],
			"stateMutability": "nonpayable",
			"type": "function"
		},
		{
			"inputs": [],
			"name": "unlockManagement",
			"outputs": [
				{
					"internalType": "bool",
					"name": "",
					"type": "bool"
				}
			],
			"stateMutability": "nonpayable",
			"type": "function"
		},
		{
			"stateMutability": "payable",
			"type": "receive"
		}
	]
}